{
  "_format": "hh-sol-artifact-1",
  "contractName": "LNXRewards",
  "sourceName": "contracts/LNXRewards.sol",
  "abi": [
    {
      "inputs": [
        {
          "internalType": "address",
          "name": "_lnx",
          "type": "address"
        }
      ],
      "stateMutability": "nonpayable",
      "type": "constructor"
    },
    {
      "inputs": [],
      "name": "baseRate",
      "outputs": [
        {
          "internalType": "uint256",
          "name": "",
          "type": "uint256"
        }
      ],
      "stateMutability": "view",
      "type": "function"
    },
    {
      "inputs": [
        {
          "internalType": "address",
          "name": "account",
          "type": "address"
        }
      ],
      "name": "claimRewards",
      "outputs": [],
      "stateMutability": "nonpayable",
      "type": "function"
    },
    {
      "inputs": [
        {
          "internalType": "address",
          "name": "account",
          "type": "address"
        }
      ],
      "name": "claimableRewards",
      "outputs": [
        {
          "internalType": "uint256",
          "name": "",
          "type": "uint256"
        }
      ],
      "stateMutability": "view",
      "type": "function"
    },
    {
      "inputs": [],
      "name": "governance",
      "outputs": [
        {
          "internalType": "address",
          "name": "",
          "type": "address"
        }
      ],
      "stateMutability": "view",
      "type": "function"
    },
    {
      "inputs": [],
      "name": "lnx",
      "outputs": [
        {
          "internalType": "contract IERC20",
          "name": "",
          "type": "address"
        }
      ],
      "stateMutability": "view",
      "type": "function"
    },
    {
      "inputs": [],
      "name": "mintCheckpoint",
      "outputs": [
        {
          "internalType": "uint256",
          "name": "",
          "type": "uint256"
        }
      ],
      "stateMutability": "view",
      "type": "function"
    },
    {
      "inputs": [],
      "name": "protocol",
      "outputs": [
        {
          "internalType": "contract IProtocol",
          "name": "",
          "type": "address"
        }
      ],
      "stateMutability": "view",
      "type": "function"
    },
    {
      "inputs": [
        {
          "internalType": "address",
          "name": "_protocol",
          "type": "address"
        }
      ],
      "name": "setProtocol",
      "outputs": [],
      "stateMutability": "nonpayable",
      "type": "function"
    },
    {
      "inputs": [],
      "name": "startRewards",
      "outputs": [],
      "stateMutability": "nonpayable",
      "type": "function"
    },
    {
      "inputs": [
        {
          "internalType": "address",
          "name": "",
          "type": "address"
        }
      ],
      "name": "userClaimed",
      "outputs": [
        {
          "internalType": "uint256",
          "name": "",
          "type": "uint256"
        }
      ],
      "stateMutability": "view",
      "type": "function"
    }
  ],
  "bytecode": "0x608060405234801561001057600080fd5b50604051610af8380380610af883398101604081905261002f9161005d565b600080546001600160a01b039092166001600160a01b0319928316179055600480549091163317905561008d565b60006020828403121561006f57600080fd5b81516001600160a01b038116811461008657600080fd5b9392505050565b610a5c8061009c6000396000f3fe608060405234801561001057600080fd5b50600436106100be5760003560e01c80635aa6e67511610076578063906c78bb1161005b578063906c78bb14610163578063dc01f60d14610176578063ef5cfb8c1461018957600080fd5b80635aa6e675146101255780638ce744261461015057600080fd5b80631f68f20a116100a75780631f68f20a146100f45780632dfd0bdc146100fd5780633b7fcdca1461010557600080fd5b80630a9d793d146100c357806314201289146100d8575b600080fd5b6100d66100d136600461093c565b61019c565b005b6100e160015481565b6040519081526020015b60405180910390f35b6100e160025481565b6100d66101ed565b6100e161011336600461093c565b60056020526000908152604090205481565b600454610138906001600160a01b031681565b6040516001600160a01b0390911681526020016100eb565b600354610138906001600160a01b031681565b600054610138906001600160a01b031681565b6100e161018436600461093c565b610226565b6100d661019736600461093c565b610526565b6004546001600160a01b031633146101b357600080fd5b600380547fffffffffffffffffffffffff0000000000000000000000000000000000000000166001600160a01b0392909216919091179055565b6004546001600160a01b0316331480156102075750600254155b61021057600080fd5b61021861079e565b50662386f26fc10000600255565b60006002546000141561023b57506000919050565b600061036f61035b61035260008054906101000a90046001600160a01b03166001600160a01b031663242628576040518163ffffffff1660e01b8152600401602060405180830381865afa158015610297573d6000803e3d6000fd5b505050506040513d601f19601f820116820180604052508101906102bb9190610965565b600054604080517f18160ddd000000000000000000000000000000000000000000000000000000008152905161034c926001600160a01b0316916318160ddd9160048083019260209291908290030181865afa15801561031f573d6000803e3d6000fd5b505050506040513d601f19601f820116820180604052508101906103439190610965565b60025490610905565b90610918565b60025490610924565b600154610369904290610924565b90610905565b905060006103f28260008054906101000a90046001600160a01b03166001600160a01b03166318160ddd6040518163ffffffff1660e01b8152600401602060405180830381865afa1580156103c8573d6000803e3d6000fd5b505050506040513d601f19601f820116820180604052508101906103ec9190610965565b90610930565b9050600061051d600360009054906101000a90046001600160a01b03166001600160a01b031663d196943c6040518163ffffffff1660e01b8152600401602060405180830381865afa15801561044c573d6000803e3d6000fd5b505050506040513d601f19601f820116820180604052508101906104709190610965565b6003546040517f4414e1af0000000000000000000000000000000000000000000000000000000081526001600160a01b03898116600483015261034c921690634414e1af90602401602060405180830381865afa1580156104d5573d6000803e3d6000fd5b505050506040513d601f19601f820116820180604052508101906104f99190610965565b6001600160a01b038916600090815260056020526040902054610369908790610924565b95945050505050565b336001600160a01b038216148061054757506003546001600160a01b031633145b8061055c57506000546001600160a01b031633145b6105c6576040517f08c379a000000000000000000000000000000000000000000000000000000000815260206004820181905260248201527f43616e6e6f7420636c61696d20666f7220616e6f74686572206163636f756e74604482015260640160405180910390fd5b6105cf81610226565b6106625760008054906101000a90046001600160a01b03166001600160a01b03166318160ddd6040518163ffffffff1660e01b8152600401602060405180830381865afa158015610624573d6000803e3d6000fd5b505050506040513d601f19601f820116820180604052508101906106489190610965565b6001600160a01b0382166000908152600560205260409020555b600061066d82610226565b905061067761079e565b506000546040517fa9059cbb0000000000000000000000000000000000000000000000000000000081526001600160a01b038481166004830152602482018490529091169063a9059cbb906044016020604051808303816000875af11580156106e4573d6000803e3d6000fd5b505050506040513d601f19601f82011682018060405250810190610708919061097e565b5060008054906101000a90046001600160a01b03166001600160a01b03166318160ddd6040518163ffffffff1660e01b8152600401602060405180830381865afa15801561075a573d6000803e3d6000fd5b505050506040513d601f19601f8201168201806040525081019061077e9190610965565b6001600160a01b0390921660009081526005602052604090209190915550565b60008060009050662386f26fc1000061080160008054906101000a90046001600160a01b03166001600160a01b031663242628576040518163ffffffff1660e01b8152600401602060405180830381865afa158015610297573d6000803e3d6000fd5b1161087e57600061085f61035260008054906101000a90046001600160a01b03166001600160a01b031663242628576040518163ffffffff1660e01b8152600401602060405180830381865afa158015610297573d6000803e3d6000fd5b905061087a816103696001544261092490919063ffffffff16565b9150505b6000546040517f40c10f19000000000000000000000000000000000000000000000000000000008152306004820152602481018390526001600160a01b03909116906340c10f1990604401600060405180830381600087803b1580156108e357600080fd5b505af11580156108f7573d6000803e3d6000fd5b505042600155509092915050565b600061091182846109b6565b9392505050565b600061091182846109d5565b600061091182846109f7565b60006109118284610a0e565b60006020828403121561094e57600080fd5b81356001600160a01b038116811461091157600080fd5b60006020828403121561097757600080fd5b5051919050565b60006020828403121561099057600080fd5b8151801515811461091157600080fd5b634e487b7160e01b600052601160045260246000fd5b60008160001904831182151516156109d0576109d06109a0565b500290565b6000826109f257634e487b7160e01b600052601260045260246000fd5b500490565b600082821015610a0957610a096109a0565b500390565b60008219821115610a2157610a216109a0565b50019056fea2646970667358221220646d9587e99a86f9a4cf42331f0e5fdb3171220f1eb1986bf726da1553e7c07e64736f6c634300080a0033",
  "linkReferences": {},
  "deployedLinkReferences": {}
}