{
  "_format": "hh-sol-artifact-1",
  "contractName": "LNXRewards",
  "sourceName": "contracts/LNXRewards.sol",
  "abi": [
    {
      "inputs": [
        {
          "internalType": "address",
          "name": "_lnx",
          "type": "address"
        }
      ],
      "stateMutability": "nonpayable",
      "type": "constructor"
    },
    {
      "inputs": [],
      "name": "baseRate",
      "outputs": [
        {
          "internalType": "uint256",
          "name": "",
          "type": "uint256"
        }
      ],
      "stateMutability": "view",
      "type": "function"
    },
    {
      "inputs": [
        {
          "internalType": "address",
          "name": "account",
          "type": "address"
        }
      ],
      "name": "claimRewards",
      "outputs": [],
      "stateMutability": "nonpayable",
      "type": "function"
    },
    {
      "inputs": [
        {
          "internalType": "address",
          "name": "account",
          "type": "address"
        }
      ],
      "name": "claimableRewards",
      "outputs": [
        {
          "internalType": "uint256",
          "name": "",
          "type": "uint256"
        }
      ],
      "stateMutability": "view",
      "type": "function"
    },
    {
      "inputs": [],
      "name": "governance",
      "outputs": [
        {
          "internalType": "address",
          "name": "",
          "type": "address"
        }
      ],
      "stateMutability": "view",
      "type": "function"
    },
    {
      "inputs": [],
      "name": "lnx",
      "outputs": [
        {
          "internalType": "contract IERC20",
          "name": "",
          "type": "address"
        }
      ],
      "stateMutability": "view",
      "type": "function"
    },
    {
      "inputs": [],
      "name": "mintCheckpoint",
      "outputs": [
        {
          "internalType": "uint256",
          "name": "",
          "type": "uint256"
        }
      ],
      "stateMutability": "view",
      "type": "function"
    },
    {
      "inputs": [],
      "name": "protocol",
      "outputs": [
        {
          "internalType": "contract IProtocol",
          "name": "",
          "type": "address"
        }
      ],
      "stateMutability": "view",
      "type": "function"
    },
    {
      "inputs": [
        {
          "internalType": "address",
          "name": "_protocol",
          "type": "address"
        }
      ],
      "name": "setProtocol",
      "outputs": [],
      "stateMutability": "nonpayable",
      "type": "function"
    },
    {
      "inputs": [],
      "name": "startRewards",
      "outputs": [],
      "stateMutability": "nonpayable",
      "type": "function"
    },
    {
      "inputs": [
        {
          "internalType": "address",
          "name": "",
          "type": "address"
        }
      ],
      "name": "userClaimed",
      "outputs": [
        {
          "internalType": "uint256",
          "name": "",
          "type": "uint256"
        }
      ],
      "stateMutability": "view",
      "type": "function"
    }
  ],
  "bytecode": "0x60806040523480156200001157600080fd5b506040516200148738038062001487833981810160405281019062000037919062000129565b806000806101000a81548173ffffffffffffffffffffffffffffffffffffffff021916908373ffffffffffffffffffffffffffffffffffffffff16021790555033600460006101000a81548173ffffffffffffffffffffffffffffffffffffffff021916908373ffffffffffffffffffffffffffffffffffffffff160217905550506200015b565b600080fd5b600073ffffffffffffffffffffffffffffffffffffffff82169050919050565b6000620000f182620000c4565b9050919050565b6200010381620000e4565b81146200010f57600080fd5b50565b6000815190506200012381620000f8565b92915050565b600060208284031215620001425762000141620000bf565b5b6000620001528482850162000112565b91505092915050565b61131c806200016b6000396000f3fe608060405234801561001057600080fd5b506004361061009e5760003560e01c80635aa6e675116100665780635aa6e675146101355780638ce7442614610153578063906c78bb14610171578063dc01f60d1461018f578063ef5cfb8c146101bf5761009e565b80630a9d793d146100a357806314201289146100bf5780631f68f20a146100dd5780632dfd0bdc146100fb5780633b7fcdca14610105575b600080fd5b6100bd60048036038101906100b89190610ece565b6101db565b005b6100c7610279565b6040516100d49190610f14565b60405180910390f35b6100e561027f565b6040516100f29190610f14565b60405180910390f35b610103610285565b005b61011f600480360381019061011a9190610ece565b610306565b60405161012c9190610f14565b60405180910390f35b61013d61031e565b60405161014a9190610f3e565b60405180910390f35b61015b610344565b6040516101689190610fb8565b60405180910390f35b61017961036a565b6040516101869190610ff4565b60405180910390f35b6101a960048036038101906101a49190610ece565b61038e565b6040516101b69190610f14565b60405180910390f35b6101d960048036038101906101d49190610ece565b610765565b005b600460009054906101000a900473ffffffffffffffffffffffffffffffffffffffff1673ffffffffffffffffffffffffffffffffffffffff163373ffffffffffffffffffffffffffffffffffffffff161461023557600080fd5b80600360006101000a81548173ffffffffffffffffffffffffffffffffffffffff021916908373ffffffffffffffffffffffffffffffffffffffff16021790555050565b60015481565b60025481565b600460009054906101000a900473ffffffffffffffffffffffffffffffffffffffff1673ffffffffffffffffffffffffffffffffffffffff163373ffffffffffffffffffffffffffffffffffffffff161480156102e457506000600254145b6102ed57600080fd5b6102f5610a9a565b50662386f26fc10000600281905550565b60056020528060005260406000206000915090505481565b600460009054906101000a900473ffffffffffffffffffffffffffffffffffffffff1681565b600360009054906101000a900473ffffffffffffffffffffffffffffffffffffffff1681565b60008054906101000a900473ffffffffffffffffffffffffffffffffffffffff1681565b60008061050e6104eb61043a61271060008054906101000a900473ffffffffffffffffffffffffffffffffffffffff1673ffffffffffffffffffffffffffffffffffffffff166318160ddd6040518163ffffffff1660e01b8152600401602060405180830381865afa158015610408573d6000803e3d6000fd5b505050506040513d601f19601f8201168201806040525081019061042c919061103b565b610e1390919063ffffffff16565b6104dd60008054906101000a900473ffffffffffffffffffffffffffffffffffffffff1673ffffffffffffffffffffffffffffffffffffffff1663242628576040518163ffffffff1660e01b8152600401602060405180830381865afa1580156104a8573d6000803e3d6000fd5b505050506040513d601f19601f820116820180604052508101906104cc919061103b565b600254610e1390919063ffffffff16565b610e2990919063ffffffff16565b61050060015442610e3f90919063ffffffff16565b610e2990919063ffffffff16565b905060006105b38260008054906101000a900473ffffffffffffffffffffffffffffffffffffffff1673ffffffffffffffffffffffffffffffffffffffff166318160ddd6040518163ffffffff1660e01b8152600401602060405180830381865afa158015610581573d6000803e3d6000fd5b505050506040513d601f19601f820116820180604052508101906105a5919061103b565b610e5590919063ffffffff16565b90506000610758600360009054906101000a900473ffffffffffffffffffffffffffffffffffffffff1673ffffffffffffffffffffffffffffffffffffffff1663d196943c6040518163ffffffff1660e01b8152600401602060405180830381865afa158015610627573d6000803e3d6000fd5b505050506040513d601f19601f8201168201806040525081019061064b919061103b565b61074a600360009054906101000a900473ffffffffffffffffffffffffffffffffffffffff1673ffffffffffffffffffffffffffffffffffffffff16634414e1af896040518263ffffffff1660e01b81526004016106a99190610f3e565b602060405180830381865afa1580156106c6573d6000803e3d6000fd5b505050506040513d601f19601f820116820180604052508101906106ea919061103b565b61073c600560008b73ffffffffffffffffffffffffffffffffffffffff1673ffffffffffffffffffffffffffffffffffffffff1681526020019081526020016000205487610e3f90919063ffffffff16565b610e1390919063ffffffff16565b610e2990919063ffffffff16565b9050809350505050919050565b8073ffffffffffffffffffffffffffffffffffffffff163373ffffffffffffffffffffffffffffffffffffffff1614806107ec5750600360009054906101000a900473ffffffffffffffffffffffffffffffffffffffff1673ffffffffffffffffffffffffffffffffffffffff163373ffffffffffffffffffffffffffffffffffffffff16145b61082b576040517f08c379a0000000000000000000000000000000000000000000000000000000008152600401610822906110c5565b60405180910390fd5b610833610a9a565b50600061083f8261038e565b14156109185760008054906101000a900473ffffffffffffffffffffffffffffffffffffffff1673ffffffffffffffffffffffffffffffffffffffff166318160ddd6040518163ffffffff1660e01b8152600401602060405180830381865afa1580156108b0573d6000803e3d6000fd5b505050506040513d601f19601f820116820180604052508101906108d4919061103b565b600560008373ffffffffffffffffffffffffffffffffffffffff1673ffffffffffffffffffffffffffffffffffffffff168152602001908152602001600020819055505b60006109238261038e565b905060008054906101000a900473ffffffffffffffffffffffffffffffffffffffff1673ffffffffffffffffffffffffffffffffffffffff1663a9059cbb83836040518363ffffffff1660e01b81526004016109809291906110e5565b6020604051808303816000875af115801561099f573d6000803e3d6000fd5b505050506040513d601f19601f820116820180604052508101906109c39190611146565b5060008054906101000a900473ffffffffffffffffffffffffffffffffffffffff1673ffffffffffffffffffffffffffffffffffffffff166318160ddd6040518163ffffffff1660e01b8152600401602060405180830381865afa158015610a2f573d6000803e3d6000fd5b505050506040513d601f19601f82011682018060405250810190610a53919061103b565b600560008473ffffffffffffffffffffffffffffffffffffffff1673ffffffffffffffffffffffffffffffffffffffff168152602001908152602001600020819055505050565b60008060009050670de0b6b3a7640000610bed60008054906101000a900473ffffffffffffffffffffffffffffffffffffffff1673ffffffffffffffffffffffffffffffffffffffff1663242628576040518163ffffffff1660e01b8152600401602060405180830381865afa158015610b18573d6000803e3d6000fd5b505050506040513d601f19601f82011682018060405250810190610b3c919061103b565b610bdf60008054906101000a900473ffffffffffffffffffffffffffffffffffffffff1673ffffffffffffffffffffffffffffffffffffffff166318160ddd6040518163ffffffff1660e01b8152600401602060405180830381865afa158015610baa573d6000803e3d6000fd5b505050506040513d601f19601f82011682018060405250810190610bce919061103b565b600254610e1390919063ffffffff16565b610e2990919063ffffffff16565b11610d78576000610d4b610d3a60008054906101000a900473ffffffffffffffffffffffffffffffffffffffff1673ffffffffffffffffffffffffffffffffffffffff1663242628576040518163ffffffff1660e01b8152600401602060405180830381865afa158015610c65573d6000803e3d6000fd5b505050506040513d601f19601f82011682018060405250810190610c89919061103b565b610d2c60008054906101000a900473ffffffffffffffffffffffffffffffffffffffff1673ffffffffffffffffffffffffffffffffffffffff166318160ddd6040518163ffffffff1660e01b8152600401602060405180830381865afa158015610cf7573d6000803e3d6000fd5b505050506040513d601f19601f82011682018060405250810190610d1b919061103b565b600254610e1390919063ffffffff16565b610e2990919063ffffffff16565b600254610e3f90919063ffffffff16565b9050610d7481610d6660015442610e3f90919063ffffffff16565b610e1390919063ffffffff16565b9150505b60008054906101000a900473ffffffffffffffffffffffffffffffffffffffff1673ffffffffffffffffffffffffffffffffffffffff166340c10f1930836040518363ffffffff1660e01b8152600401610dd39291906110e5565b600060405180830381600087803b158015610ded57600080fd5b505af1158015610e01573d6000803e3d6000fd5b50505050426001819055508091505090565b60008183610e2191906111a2565b905092915050565b60008183610e37919061122b565b905092915050565b60008183610e4d919061125c565b905092915050565b60008183610e639190611290565b905092915050565b600080fd5b600073ffffffffffffffffffffffffffffffffffffffff82169050919050565b6000610e9b82610e70565b9050919050565b610eab81610e90565b8114610eb657600080fd5b50565b600081359050610ec881610ea2565b92915050565b600060208284031215610ee457610ee3610e6b565b5b6000610ef284828501610eb9565b91505092915050565b6000819050919050565b610f0e81610efb565b82525050565b6000602082019050610f296000830184610f05565b92915050565b610f3881610e90565b82525050565b6000602082019050610f536000830184610f2f565b92915050565b6000819050919050565b6000610f7e610f79610f7484610e70565b610f59565b610e70565b9050919050565b6000610f9082610f63565b9050919050565b6000610fa282610f85565b9050919050565b610fb281610f97565b82525050565b6000602082019050610fcd6000830184610fa9565b92915050565b6000610fde82610f85565b9050919050565b610fee81610fd3565b82525050565b60006020820190506110096000830184610fe5565b92915050565b61101881610efb565b811461102357600080fd5b50565b6000815190506110358161100f565b92915050565b60006020828403121561105157611050610e6b565b5b600061105f84828501611026565b91505092915050565b600082825260208201905092915050565b7f43616e6e6f7420636c61696d20666f7220616e6f74686572206163636f756e74600082015250565b60006110af602083611068565b91506110ba82611079565b602082019050919050565b600060208201905081810360008301526110de816110a2565b9050919050565b60006040820190506110fa6000830185610f2f565b6111076020830184610f05565b9392505050565b60008115159050919050565b6111238161110e565b811461112e57600080fd5b50565b6000815190506111408161111a565b92915050565b60006020828403121561115c5761115b610e6b565b5b600061116a84828501611131565b91505092915050565b7f4e487b7100000000000000000000000000000000000000000000000000000000600052601160045260246000fd5b60006111ad82610efb565b91506111b883610efb565b9250817fffffffffffffffffffffffffffffffffffffffffffffffffffffffffffffffff04831182151516156111f1576111f0611173565b5b828202905092915050565b7f4e487b7100000000000000000000000000000000000000000000000000000000600052601260045260246000fd5b600061123682610efb565b915061124183610efb565b925082611251576112506111fc565b5b828204905092915050565b600061126782610efb565b915061127283610efb565b92508282101561128557611284611173565b5b828203905092915050565b600061129b82610efb565b91506112a683610efb565b9250827fffffffffffffffffffffffffffffffffffffffffffffffffffffffffffffffff038211156112db576112da611173565b5b82820190509291505056fea264697066735822122032d321d0aed15c8c0666041f3f74672b8fabfc9311e2266a9dd16bf3cf2a833e64736f6c634300080a0033",
  "linkReferences": {},
  "deployedLinkReferences": {}
}