{
  "_format": "hh-sol-artifact-1",
  "contractName": "WrappedGLPManager",
  "sourceName": "contracts/WrappedGLPManager.sol",
  "abi": [
    {
      "inputs": [
        {
          "internalType": "address",
          "name": "_protocol",
          "type": "address"
        }
      ],
      "stateMutability": "nonpayable",
      "type": "constructor"
    },
    {
      "inputs": [],
      "name": "GLPManager",
      "outputs": [
        {
          "internalType": "contract IGLPManager",
          "name": "",
          "type": "address"
        }
      ],
      "stateMutability": "view",
      "type": "function"
    },
    {
      "inputs": [],
      "name": "WGLP",
      "outputs": [
        {
          "internalType": "contract IERC20",
          "name": "",
          "type": "address"
        }
      ],
      "stateMutability": "view",
      "type": "function"
    },
    {
      "inputs": [
        {
          "internalType": "address",
          "name": "",
          "type": "address"
        }
      ],
      "name": "allowedToken",
      "outputs": [
        {
          "internalType": "bool",
          "name": "",
          "type": "bool"
        }
      ],
      "stateMutability": "view",
      "type": "function"
    },
    {
      "inputs": [],
      "name": "canWithdraw",
      "outputs": [
        {
          "internalType": "bool",
          "name": "",
          "type": "bool"
        }
      ],
      "stateMutability": "view",
      "type": "function"
    },
    {
      "inputs": [],
      "name": "checkpoint",
      "outputs": [
        {
          "internalType": "uint256",
          "name": "",
          "type": "uint256"
        }
      ],
      "stateMutability": "view",
      "type": "function"
    },
    {
      "inputs": [
        {
          "internalType": "address",
          "name": "token",
          "type": "address"
        },
        {
          "internalType": "uint256",
          "name": "amount",
          "type": "uint256"
        }
      ],
      "name": "deposit",
      "outputs": [],
      "stateMutability": "nonpayable",
      "type": "function"
    },
    {
      "inputs": [],
      "name": "fsGLP",
      "outputs": [
        {
          "internalType": "contract IERC20",
          "name": "",
          "type": "address"
        }
      ],
      "stateMutability": "view",
      "type": "function"
    },
    {
      "inputs": [],
      "name": "getShareValue",
      "outputs": [
        {
          "internalType": "uint256",
          "name": "",
          "type": "uint256"
        }
      ],
      "stateMutability": "view",
      "type": "function"
    },
    {
      "inputs": [],
      "name": "governance",
      "outputs": [
        {
          "internalType": "address",
          "name": "",
          "type": "address"
        }
      ],
      "stateMutability": "view",
      "type": "function"
    },
    {
      "inputs": [],
      "name": "protocol",
      "outputs": [
        {
          "internalType": "contract IProtocol",
          "name": "",
          "type": "address"
        }
      ],
      "stateMutability": "view",
      "type": "function"
    },
    {
      "inputs": [],
      "name": "rewardsRouter",
      "outputs": [
        {
          "internalType": "contract IRewardsRouter",
          "name": "",
          "type": "address"
        }
      ],
      "stateMutability": "view",
      "type": "function"
    },
    {
      "inputs": [
        {
          "internalType": "address",
          "name": "_WGLP",
          "type": "address"
        }
      ],
      "name": "setWGLP",
      "outputs": [],
      "stateMutability": "nonpayable",
      "type": "function"
    },
    {
      "inputs": [],
      "name": "vault",
      "outputs": [
        {
          "internalType": "contract IVault",
          "name": "",
          "type": "address"
        }
      ],
      "stateMutability": "view",
      "type": "function"
    },
    {
      "inputs": [],
      "name": "weth",
      "outputs": [
        {
          "internalType": "contract IERC20",
          "name": "",
          "type": "address"
        }
      ],
      "stateMutability": "view",
      "type": "function"
    },
    {
      "inputs": [
        {
          "internalType": "address",
          "name": "token",
          "type": "address"
        },
        {
          "internalType": "uint256",
          "name": "shareAmount",
          "type": "uint256"
        }
      ],
      "name": "withdraw",
      "outputs": [
        {
          "internalType": "uint256",
          "name": "",
          "type": "uint256"
        }
      ],
      "stateMutability": "nonpayable",
      "type": "function"
    }
  ],
  "bytecode": "0x60806040527382af49447d8a07e3bd95bd0d56f35241523fbab1600160006101000a81548173ffffffffffffffffffffffffffffffffffffffff021916908373ffffffffffffffffffffffffffffffffffffffff160217905550731addd80e6039594ee970e5872d247bf0414c8903600260006101000a81548173ffffffffffffffffffffffffffffffffffffffff021916908373ffffffffffffffffffffffffffffffffffffffff16021790555073a906f338cb21815cbc4bc87ace9e68c87ef8d8f1600660006101000a81548173ffffffffffffffffffffffffffffffffffffffff021916908373ffffffffffffffffffffffffffffffffffffffff16021790555073321f653eed006ad1c29d174e17d96351bde22649600760006101000a81548173ffffffffffffffffffffffffffffffffffffffff021916908373ffffffffffffffffffffffffffffffffffffffff16021790555073489ee077994b6658eafa855c308275ead8097c4a600860006101000a81548173ffffffffffffffffffffffffffffffffffffffff021916908373ffffffffffffffffffffffffffffffffffffffff160217905550348015620001ba57600080fd5b5060405162002247380380620022478339818101604052810190620001e0919062000557565b80600360006101000a81548173ffffffffffffffffffffffffffffffffffffffff021916908373ffffffffffffffffffffffffffffffffffffffff1602179055504260058190555033600460006101000a81548173ffffffffffffffffffffffffffffffffffffffff021916908373ffffffffffffffffffffffffffffffffffffffff160217905550600080600090505b600860009054906101000a900473ffffffffffffffffffffffffffffffffffffffff1673ffffffffffffffffffffffffffffffffffffffff16630842b0766040518163ffffffff1660e01b8152600401602060405180830381865afa158015620002df573d6000803e3d6000fd5b505050506040513d601f19601f82011682018060405250810190620003059190620005c4565b811015620004e457600860009054906101000a900473ffffffffffffffffffffffffffffffffffffffff1673ffffffffffffffffffffffffffffffffffffffff1663e468baf0826040518263ffffffff1660e01b81526004016200036a919062000607565b602060405180830381865afa15801562000388573d6000803e3d6000fd5b505050506040513d601f19601f82011682018060405250810190620003ae919062000557565b91506001600960008473ffffffffffffffffffffffffffffffffffffffff1673ffffffffffffffffffffffffffffffffffffffff16815260200190815260200160002060006101000a81548160ff0219169083151502179055508173ffffffffffffffffffffffffffffffffffffffff1663095ea7b3600760009054906101000a900473ffffffffffffffffffffffffffffffffffffffff167fffffffffffffffffffffffffffffffffffffffffffffffffffffffffffffffff6040518363ffffffff1660e01b81526004016200048792919062000635565b6020604051808303816000875af1158015620004a7573d6000803e3d6000fd5b505050506040513d601f19601f82011682018060405250810190620004cd91906200069f565b508080620004db9062000700565b91505062000271565b5050506200074e565b600080fd5b600073ffffffffffffffffffffffffffffffffffffffff82169050919050565b60006200051f82620004f2565b9050919050565b620005318162000512565b81146200053d57600080fd5b50565b600081519050620005518162000526565b92915050565b60006020828403121562000570576200056f620004ed565b5b6000620005808482850162000540565b91505092915050565b6000819050919050565b6200059e8162000589565b8114620005aa57600080fd5b50565b600081519050620005be8162000593565b92915050565b600060208284031215620005dd57620005dc620004ed565b5b6000620005ed84828501620005ad565b91505092915050565b620006018162000589565b82525050565b60006020820190506200061e6000830184620005f6565b92915050565b6200062f8162000512565b82525050565b60006040820190506200064c600083018562000624565b6200065b6020830184620005f6565b9392505050565b60008115159050919050565b620006798162000662565b81146200068557600080fd5b50565b60008151905062000699816200066e565b92915050565b600060208284031215620006b857620006b7620004ed565b5b6000620006c88482850162000688565b91505092915050565b7f4e487b7100000000000000000000000000000000000000000000000000000000600052601160045260246000fd5b60006200070d8262000589565b91507fffffffffffffffffffffffffffffffffffffffffffffffffffffffffffffffff821415620007435762000742620006d1565b5b600182019050919050565b611ae9806200075e6000396000f3fe608060405234801561001057600080fd5b50600436106100f55760003560e01c80635bf2d5ef11610097578063c2c4c5c111610066578063c2c4c5c114610252578063e152c34a14610270578063f3fef3a31461028e578063fbfa77cf146102be576100f5565b80635bf2d5ef146101c8578063756742f8146101e65780638ce7442614610216578063b51459fe14610234576100f5565b8063437c3289116100d3578063437c32891461015257806347e7ef24146101705780635aa6e6751461018c5780635bf12feb146101aa576100f5565b8063143d51f6146100fa57806329147fab146101185780633fc8cef314610134575b600080fd5b6101026102dc565b60405161010f919061123f565b60405180910390f35b610132600480360381019061012d919061129d565b610302565b005b61013c61042e565b604051610149919061123f565b60405180910390f35b61015a610454565b60405161016791906112e3565b60405180910390f35b61018a6004803603810190610185919061132a565b610658565b005b610194610ba3565b6040516101a19190611379565b60405180910390f35b6101b2610bc9565b6040516101bf91906113b5565b60405180910390f35b6101d0610bef565b6040516101dd919061123f565b60405180910390f35b61020060048036038101906101fb919061129d565b610c13565b60405161020d91906113eb565b60405180910390f35b61021e610c33565b60405161022b9190611427565b60405180910390f35b61023c610c59565b60405161024991906113eb565b60405180910390f35b61025a610c6c565b60405161026791906112e3565b60405180910390f35b610278610c72565b6040516102859190611463565b60405180910390f35b6102a860048036038101906102a3919061132a565b610c98565b6040516102b591906112e3565b60405180910390f35b6102c6610ea3565b6040516102d3919061149f565b60405180910390f35b600260009054906101000a900473ffffffffffffffffffffffffffffffffffffffff1681565b600460009054906101000a900473ffffffffffffffffffffffffffffffffffffffff1673ffffffffffffffffffffffffffffffffffffffff163373ffffffffffffffffffffffffffffffffffffffff161461035c57600080fd5b600073ffffffffffffffffffffffffffffffffffffffff1660008054906101000a900473ffffffffffffffffffffffffffffffffffffffff1673ffffffffffffffffffffffffffffffffffffffff16146103eb576040517f08c379a00000000000000000000000000000000000000000000000000000000081526004016103e290611517565b60405180910390fd5b806000806101000a81548173ffffffffffffffffffffffffffffffffffffffff021916908373ffffffffffffffffffffffffffffffffffffffff16021790555050565b600160009054906101000a900473ffffffffffffffffffffffffffffffffffffffff1681565b60008060008054906101000a900473ffffffffffffffffffffffffffffffffffffffff1673ffffffffffffffffffffffffffffffffffffffff166318160ddd6040518163ffffffff1660e01b8152600401602060405180830381865afa1580156104c2573d6000803e3d6000fd5b505050506040513d601f19601f820116820180604052508101906104e6919061154c565b14156104fc57670de0b6b3a76400009050610655565b61065260008054906101000a900473ffffffffffffffffffffffffffffffffffffffff1673ffffffffffffffffffffffffffffffffffffffff166318160ddd6040518163ffffffff1660e01b8152600401602060405180830381865afa15801561056a573d6000803e3d6000fd5b505050506040513d601f19601f8201168201806040525081019061058e919061154c565b610644670de0b6b3a7640000600260009054906101000a900473ffffffffffffffffffffffffffffffffffffffff1673ffffffffffffffffffffffffffffffffffffffff166370a08231306040518263ffffffff1660e01b81526004016105f59190611379565b602060405180830381865afa158015610612573d6000803e3d6000fd5b505050506040513d601f19601f82011682018060405250810190610636919061154c565b610ec990919063ffffffff16565b610edf90919063ffffffff16565b90505b90565b60011515600960008473ffffffffffffffffffffffffffffffffffffffff1673ffffffffffffffffffffffffffffffffffffffff16815260200190815260200160002060009054906101000a900460ff161515146106eb576040517f08c379a00000000000000000000000000000000000000000000000000000000081526004016106e2906115c5565b60405180910390fd5b6000811161072e576040517f08c379a000000000000000000000000000000000000000000000000000000000815260040161072590611631565b60405180910390fd5b60011515600460149054906101000a900460ff161515141561084d576107ef600760009054906101000a900473ffffffffffffffffffffffffffffffffffffffff1673ffffffffffffffffffffffffffffffffffffffff1663352693156040518163ffffffff1660e01b8152600401602060405180830381865afa1580156107ba573d6000803e3d6000fd5b505050506040513d601f19601f820116820180604052508101906107de919061154c565b612a30610ef590919063ffffffff16565b61080460055442610ef590919063ffffffff16565b1015610845576040517f08c379a000000000000000000000000000000000000000000000000000000000815260040161083c9061169d565b60405180910390fd5b426005819055505b6000600460146101000a81548160ff02191690831515021790555060008060009054906101000a900473ffffffffffffffffffffffffffffffffffffffff1673ffffffffffffffffffffffffffffffffffffffff166318160ddd6040518163ffffffff1660e01b8152600401602060405180830381865afa1580156108d6573d6000803e3d6000fd5b505050506040513d601f19601f820116820180604052508101906108fa919061154c565b1180156109a257506000600260009054906101000a900473ffffffffffffffffffffffffffffffffffffffff1673ffffffffffffffffffffffffffffffffffffffff1663402914f5306040518263ffffffff1660e01b815260040161095f9190611379565b602060405180830381865afa15801561097c573d6000803e3d6000fd5b505050506040513d601f19601f820116820180604052508101906109a0919061154c565b115b156109b0576109af610f0b565b5b8173ffffffffffffffffffffffffffffffffffffffff166323b872dd3330846040518463ffffffff1660e01b81526004016109ed939291906116bd565b6020604051808303816000875af1158015610a0c573d6000803e3d6000fd5b505050506040513d601f19601f82011682018060405250810190610a309190611720565b50600660009054906101000a900473ffffffffffffffffffffffffffffffffffffffff1673ffffffffffffffffffffffffffffffffffffffff1663364e23118383600060016040518563ffffffff1660e01b8152600401610a9494939291906117c3565b6020604051808303816000875af1158015610ab3573d6000803e3d6000fd5b505050506040513d601f19601f82011682018060405250810190610ad7919061154c565b90506000610b0f610ae6610454565b610b01670de0b6b3a764000085610ec990919063ffffffff16565b610edf90919063ffffffff16565b905060008054906101000a900473ffffffffffffffffffffffffffffffffffffffff1673ffffffffffffffffffffffffffffffffffffffff166340c10f1933836040518363ffffffff1660e01b8152600401610b6c929190611808565b600060405180830381600087803b158015610b8657600080fd5b505af1158015610b9a573d6000803e3d6000fd5b50505050505050565b600460009054906101000a900473ffffffffffffffffffffffffffffffffffffffff1681565b600760009054906101000a900473ffffffffffffffffffffffffffffffffffffffff1681565b60008054906101000a900473ffffffffffffffffffffffffffffffffffffffff1681565b60096020528060005260406000206000915054906101000a900460ff1681565b600360009054906101000a900473ffffffffffffffffffffffffffffffffffffffff1681565b600460149054906101000a900460ff1681565b60055481565b600660009054906101000a900473ffffffffffffffffffffffffffffffffffffffff1681565b6000611c20610cb260055442610ef590919063ffffffff16565b1115610cd4576001600460146101000a81548160ff0219169083151502179055505b60011515600460149054906101000a900460ff16151514610d2a576040517f08c379a0000000000000000000000000000000000000000000000000000000008152600401610d219061187d565b60405180910390fd5b6000610d60670de0b6b3a7640000610d52610d43610454565b86610ec990919063ffffffff16565b610edf90919063ffffffff16565b905060008054906101000a900473ffffffffffffffffffffffffffffffffffffffff1673ffffffffffffffffffffffffffffffffffffffff16639dc29fac33856040518363ffffffff1660e01b8152600401610dbd929190611808565b600060405180830381600087803b158015610dd757600080fd5b505af1158015610deb573d6000803e3d6000fd5b505050506000600660009054906101000a900473ffffffffffffffffffffffffffffffffffffffff1673ffffffffffffffffffffffffffffffffffffffff16630f3aa55486846001336040518563ffffffff1660e01b8152600401610e53949392919061189d565b6020604051808303816000875af1158015610e72573d6000803e3d6000fd5b505050506040513d601f19601f82011682018060405250810190610e96919061154c565b9050809250505092915050565b600860009054906101000a900473ffffffffffffffffffffffffffffffffffffffff1681565b60008183610ed79190611911565b905092915050565b60008183610eed919061199a565b905092915050565b60008183610f0391906119cb565b905092915050565b6000600160009054906101000a900473ffffffffffffffffffffffffffffffffffffffff1673ffffffffffffffffffffffffffffffffffffffff166370a08231306040518263ffffffff1660e01b8152600401610f689190611379565b602060405180830381865afa158015610f85573d6000803e3d6000fd5b505050506040513d601f19601f82011682018060405250810190610fa9919061154c565b9050600660009054906101000a900473ffffffffffffffffffffffffffffffffffffffff1673ffffffffffffffffffffffffffffffffffffffff166330b7000260008060018060018060006040518863ffffffff1660e01b815260040161101697969594939291906119ff565b600060405180830381600087803b15801561103057600080fd5b505af1158015611044573d6000803e3d6000fd5b50505050600660009054906101000a900473ffffffffffffffffffffffffffffffffffffffff1673ffffffffffffffffffffffffffffffffffffffff1663364e2311600160009054906101000a900473ffffffffffffffffffffffffffffffffffffffff1661115784600160009054906101000a900473ffffffffffffffffffffffffffffffffffffffff1673ffffffffffffffffffffffffffffffffffffffff166370a08231306040518263ffffffff1660e01b81526004016111089190611379565b602060405180830381865afa158015611125573d6000803e3d6000fd5b505050506040513d601f19601f82011682018060405250810190611149919061154c565b610ef590919063ffffffff16565b6001806040518563ffffffff1660e01b81526004016111799493929190611a6e565b6020604051808303816000875af1158015611198573d6000803e3d6000fd5b505050506040513d601f19601f820116820180604052508101906111bc919061154c565b5050565b600073ffffffffffffffffffffffffffffffffffffffff82169050919050565b6000819050919050565b60006112056112006111fb846111c0565b6111e0565b6111c0565b9050919050565b6000611217826111ea565b9050919050565b60006112298261120c565b9050919050565b6112398161121e565b82525050565b60006020820190506112546000830184611230565b92915050565b600080fd5b600061126a826111c0565b9050919050565b61127a8161125f565b811461128557600080fd5b50565b60008135905061129781611271565b92915050565b6000602082840312156112b3576112b261125a565b5b60006112c184828501611288565b91505092915050565b6000819050919050565b6112dd816112ca565b82525050565b60006020820190506112f860008301846112d4565b92915050565b611307816112ca565b811461131257600080fd5b50565b600081359050611324816112fe565b92915050565b600080604083850312156113415761134061125a565b5b600061134f85828601611288565b925050602061136085828601611315565b9150509250929050565b6113738161125f565b82525050565b600060208201905061138e600083018461136a565b92915050565b600061139f8261120c565b9050919050565b6113af81611394565b82525050565b60006020820190506113ca60008301846113a6565b92915050565b60008115159050919050565b6113e5816113d0565b82525050565b600060208201905061140060008301846113dc565b92915050565b60006114118261120c565b9050919050565b61142181611406565b82525050565b600060208201905061143c6000830184611418565b92915050565b600061144d8261120c565b9050919050565b61145d81611442565b82525050565b60006020820190506114786000830184611454565b92915050565b60006114898261120c565b9050919050565b6114998161147e565b82525050565b60006020820190506114b46000830184611490565b92915050565b600082825260208201905092915050565b7f57474c5020616c72656164792073657400000000000000000000000000000000600082015250565b60006115016010836114ba565b915061150c826114cb565b602082019050919050565b60006020820190508181036000830152611530816114f4565b9050919050565b600081519050611546816112fe565b92915050565b6000602082840312156115625761156161125a565b5b600061157084828501611537565b91505092915050565b7f546f6b656e206e6f7420616c6c6f776564000000000000000000000000000000600082015250565b60006115af6011836114ba565b91506115ba82611579565b602082019050919050565b600060208201905081810360008301526115de816115a2565b9050919050565b7f43616e6e6f74206465706f736974203000000000000000000000000000000000600082015250565b600061161b6010836114ba565b9150611626826115e5565b602082019050919050565b6000602082019050818103600083015261164a8161160e565b9050919050565b7f43616e6e6f74206465706f73697420617420746869732074696d650000000000600082015250565b6000611687601b836114ba565b915061169282611651565b602082019050919050565b600060208201905081810360008301526116b68161167a565b9050919050565b60006060820190506116d2600083018661136a565b6116df602083018561136a565b6116ec60408301846112d4565b949350505050565b6116fd816113d0565b811461170857600080fd5b50565b60008151905061171a816116f4565b92915050565b6000602082840312156117365761173561125a565b5b60006117448482850161170b565b91505092915050565b6000819050919050565b600061177261176d6117688461174d565b6111e0565b6112ca565b9050919050565b61178281611757565b82525050565b6000819050919050565b60006117ad6117a86117a384611788565b6111e0565b6112ca565b9050919050565b6117bd81611792565b82525050565b60006080820190506117d8600083018761136a565b6117e560208301866112d4565b6117f26040830185611779565b6117ff60608301846117b4565b95945050505050565b600060408201905061181d600083018561136a565b61182a60208301846112d4565b9392505050565b7f43616e6e6f7420776974686472617720617420746869732074696d6500000000600082015250565b6000611867601c836114ba565b915061187282611831565b602082019050919050565b600060208201905081810360008301526118968161185a565b9050919050565b60006080820190506118b2600083018761136a565b6118bf60208301866112d4565b6118cc60408301856117b4565b6118d9606083018461136a565b95945050505050565b7f4e487b7100000000000000000000000000000000000000000000000000000000600052601160045260246000fd5b600061191c826112ca565b9150611927836112ca565b9250817fffffffffffffffffffffffffffffffffffffffffffffffffffffffffffffffff04831182151516156119605761195f6118e2565b5b828202905092915050565b7f4e487b7100000000000000000000000000000000000000000000000000000000600052601260045260246000fd5b60006119a5826112ca565b91506119b0836112ca565b9250826119c0576119bf61196b565b5b828204905092915050565b60006119d6826112ca565b91506119e1836112ca565b9250828210156119f4576119f36118e2565b5b828203905092915050565b600060e082019050611a14600083018a6113dc565b611a2160208301896113dc565b611a2e60408301886113dc565b611a3b60608301876113dc565b611a4860808301866113dc565b611a5560a08301856113dc565b611a6260c08301846113dc565b98975050505050505050565b6000608082019050611a83600083018761136a565b611a9060208301866112d4565b611a9d60408301856117b4565b611aaa60608301846117b4565b9594505050505056fea2646970667358221220d0cf83c0b3d7072bd2baeae78a269c590d0c1b18948e94e7bf696580edc01c9964736f6c634300080a0033",
  "linkReferences": {},
  "deployedLinkReferences": {}
}