{
  "_format": "hh-sol-artifact-1",
  "contractName": "WrappedGLPManager",
  "sourceName": "contracts/WrappedGLPManager.sol",
  "abi": [
    {
      "inputs": [
        {
          "internalType": "address",
          "name": "_protocol",
          "type": "address"
        }
      ],
      "stateMutability": "nonpayable",
      "type": "constructor"
    },
    {
      "inputs": [],
      "name": "GLPManager",
      "outputs": [
        {
          "internalType": "contract IGLPManager",
          "name": "",
          "type": "address"
        }
      ],
      "stateMutability": "view",
      "type": "function"
    },
    {
      "inputs": [],
      "name": "WGLP",
      "outputs": [
        {
          "internalType": "contract IERC20",
          "name": "",
          "type": "address"
        }
      ],
      "stateMutability": "view",
      "type": "function"
    },
    {
      "inputs": [
        {
          "internalType": "address",
          "name": "",
          "type": "address"
        }
      ],
      "name": "allowedToken",
      "outputs": [
        {
          "internalType": "bool",
          "name": "",
          "type": "bool"
        }
      ],
      "stateMutability": "view",
      "type": "function"
    },
    {
      "inputs": [],
      "name": "canWithdraw",
      "outputs": [
        {
          "internalType": "bool",
          "name": "",
          "type": "bool"
        }
      ],
      "stateMutability": "view",
      "type": "function"
    },
    {
      "inputs": [],
      "name": "checkpoint",
      "outputs": [
        {
          "internalType": "uint256",
          "name": "",
          "type": "uint256"
        }
      ],
      "stateMutability": "view",
      "type": "function"
    },
    {
      "inputs": [
        {
          "internalType": "address",
          "name": "token",
          "type": "address"
        },
        {
          "internalType": "uint256",
          "name": "amount",
          "type": "uint256"
        }
      ],
      "name": "deposit",
      "outputs": [],
      "stateMutability": "nonpayable",
      "type": "function"
    },
    {
      "inputs": [],
      "name": "fsGLP",
      "outputs": [
        {
          "internalType": "contract IERC20",
          "name": "",
          "type": "address"
        }
      ],
      "stateMutability": "view",
      "type": "function"
    },
    {
      "inputs": [],
      "name": "getShareValue",
      "outputs": [
        {
          "internalType": "uint256",
          "name": "",
          "type": "uint256"
        }
      ],
      "stateMutability": "view",
      "type": "function"
    },
    {
      "inputs": [],
      "name": "governance",
      "outputs": [
        {
          "internalType": "address",
          "name": "",
          "type": "address"
        }
      ],
      "stateMutability": "view",
      "type": "function"
    },
    {
      "inputs": [],
      "name": "protocol",
      "outputs": [
        {
          "internalType": "contract IProtocol",
          "name": "",
          "type": "address"
        }
      ],
      "stateMutability": "view",
      "type": "function"
    },
    {
      "inputs": [],
      "name": "rewardsRouter",
      "outputs": [
        {
          "internalType": "contract IRewardsRouter",
          "name": "",
          "type": "address"
        }
      ],
      "stateMutability": "view",
      "type": "function"
    },
    {
      "inputs": [
        {
          "internalType": "address",
          "name": "_WGLP",
          "type": "address"
        }
      ],
      "name": "setWGLP",
      "outputs": [],
      "stateMutability": "nonpayable",
      "type": "function"
    },
    {
      "inputs": [],
      "name": "vault",
      "outputs": [
        {
          "internalType": "contract IVault",
          "name": "",
          "type": "address"
        }
      ],
      "stateMutability": "view",
      "type": "function"
    },
    {
      "inputs": [],
      "name": "weth",
      "outputs": [
        {
          "internalType": "contract IERC20",
          "name": "",
          "type": "address"
        }
      ],
      "stateMutability": "view",
      "type": "function"
    },
    {
      "inputs": [
        {
          "internalType": "address",
          "name": "token",
          "type": "address"
        },
        {
          "internalType": "uint256",
          "name": "shareAmount",
          "type": "uint256"
        }
      ],
      "name": "withdraw",
      "outputs": [
        {
          "internalType": "uint256",
          "name": "",
          "type": "uint256"
        }
      ],
      "stateMutability": "nonpayable",
      "type": "function"
    }
  ],
  "bytecode": "0x6080604052600180546001600160a01b03199081167382af49447d8a07e3bd95bd0d56f35241523fbab117909155600280548216731addd80e6039594ee970e5872d247bf0414c890317905560068054821673a906f338cb21815cbc4bc87ace9e68c87ef8d8f117905560078054821673321f653eed006ad1c29d174e17d96351bde226491790556008805490911673489ee077994b6658eafa855c308275ead8097c4a179055348015620000b357600080fd5b50604051620011fd380380620011fd833981016040819052620000d691620002ae565b600380546001600160a01b0383166001600160a01b0319918216179091554260055560048054909116331790556000805b600860009054906101000a90046001600160a01b03166001600160a01b0316630842b0766040518163ffffffff1660e01b8152600401602060405180830381865afa1580156200015b573d6000803e3d6000fd5b505050506040513d601f19601f82011682018060405250810190620001819190620002e0565b811015620002a557600854604051630e468baf60e41b8152600481018390526001600160a01b039091169063e468baf090602401602060405180830381865afa158015620001d3573d6000803e3d6000fd5b505050506040513d601f19601f82011682018060405250810190620001f99190620002ae565b6001600160a01b0381811660008181526009602052604090819020805460ff19166001179055600754905163095ea7b360e01b815292166004830152600019602483015291935063095ea7b3906044016020604051808303816000875af115801562000269573d6000803e3d6000fd5b505050506040513d601f19601f820116820180604052508101906200028f9190620002fa565b50806200029c816200031e565b91505062000107565b50505062000348565b600060208284031215620002c157600080fd5b81516001600160a01b0381168114620002d957600080fd5b9392505050565b600060208284031215620002f357600080fd5b5051919050565b6000602082840312156200030d57600080fd5b81518015158114620002d957600080fd5b60006000198214156200034157634e487b7160e01b600052601160045260246000fd5b5060010190565b610ea580620003586000396000f3fe608060405234801561001057600080fd5b50600436106100f55760003560e01c80635bf2d5ef11610097578063c2c4c5c111610066578063c2c4c5c11461020e578063e152c34a14610217578063f3fef3a31461022a578063fbfa77cf1461023d57600080fd5b80635bf2d5ef146101a1578063756742f8146101b45780638ce74426146101e7578063b51459fe146101fa57600080fd5b8063437c3289116100d3578063437c32891461015257806347e7ef24146101685780635aa6e6751461017b5780635bf12feb1461018e57600080fd5b8063143d51f6146100fa57806329147fab1461012a5780633fc8cef31461013f575b600080fd5b60025461010d906001600160a01b031681565b6040516001600160a01b0390911681526020015b60405180910390f35b61013d610138366004610d81565b610250565b005b60015461010d906001600160a01b031681565b61015a6102ff565b604051908152602001610121565b61013d610176366004610d9c565b610482565b60045461010d906001600160a01b031681565b60075461010d906001600160a01b031681565b60005461010d906001600160a01b031681565b6101d76101c2366004610d81565b60096020526000908152604090205460ff1681565b6040519015158152602001610121565b60035461010d906001600160a01b031681565b6004546101d790600160a01b900460ff1681565b61015a60055481565b60065461010d906001600160a01b031681565b61015a610238366004610d9c565b610933565b60085461010d906001600160a01b031681565b6004546001600160a01b0316331461026757600080fd5b6000546001600160a01b0316156102c55760405162461bcd60e51b815260206004820152601060248201527f57474c5020616c7265616479207365740000000000000000000000000000000060448201526064015b60405180910390fd5b600080547fffffffffffffffffffffffff0000000000000000000000000000000000000000166001600160a01b0392909216919091179055565b60008060009054906101000a90046001600160a01b03166001600160a01b03166318160ddd6040518163ffffffff1660e01b8152600401602060405180830381865afa158015610353573d6000803e3d6000fd5b505050506040513d601f19601f820116820180604052508101906103779190610dc6565b6103885750670de0b6b3a764000090565b600054604080516318160ddd60e01b8152905161047d926001600160a01b0316916318160ddd9160048083019260209291908290030181865afa1580156103d3573d6000803e3d6000fd5b505050506040513d601f19601f820116820180604052508101906103f79190610dc6565b6002546040516370a0823160e01b815230600482015261047791670de0b6b3a7640000916001600160a01b03909116906370a0823190602401602060405180830381865afa15801561044d573d6000803e3d6000fd5b505050506040513d601f19601f820116820180604052508101906104719190610dc6565b90610b0c565b90610b1f565b905090565b6001600160a01b03821660009081526009602052604090205460ff1615156001146104ef5760405162461bcd60e51b815260206004820152601160248201527f546f6b656e206e6f7420616c6c6f77656400000000000000000000000000000060448201526064016102bc565b6000811161053f5760405162461bcd60e51b815260206004820152601060248201527f43616e6e6f74206465706f73697420300000000000000000000000000000000060448201526064016102bc565b600454600160a01b900460ff1615156001141561064857600754604080517f3526931500000000000000000000000000000000000000000000000000000000815290516105e7926001600160a01b03169163352693159160048083019260209291908290030181865afa1580156105ba573d6000803e3d6000fd5b505050506040513d601f19601f820116820180604052508101906105de9190610dc6565b612a3090610b2b565b6005546105f5904290610b2b565b10156106435760405162461bcd60e51b815260206004820152601b60248201527f43616e6e6f74206465706f73697420617420746869732074696d65000000000060448201526064016102bc565b426005555b6004805460ff60a01b1916815560008054604080516318160ddd60e01b8152905192936001600160a01b03909216926318160ddd928281019260209291908290030181865afa15801561069f573d6000803e3d6000fd5b505050506040513d601f19601f820116820180604052508101906106c39190610dc6565b11801561075357506002546040517f402914f50000000000000000000000000000000000000000000000000000000081523060048201526000916001600160a01b03169063402914f590602401602060405180830381865afa15801561072d573d6000803e3d6000fd5b505050506040513d601f19601f820116820180604052508101906107519190610dc6565b115b1561076057610760610b37565b6040517f23b872dd000000000000000000000000000000000000000000000000000000008152336004820152306024820152604481018290526001600160a01b038316906323b872dd906064016020604051808303816000875af11580156107cc573d6000803e3d6000fd5b505050506040513d601f19601f820116820180604052508101906107f09190610ddf565b506006546040517f364e23110000000000000000000000000000000000000000000000000000000081526001600160a01b0384811660048301526024820184905260006044830152600160648301529091169063364e2311906084016020604051808303816000875af115801561086b573d6000803e3d6000fd5b505050506040513d601f19601f8201168201806040525081019061088f9190610dc6565b905060006108b061089e6102ff565b61047784670de0b6b3a7640000610b0c565b6000546040517f40c10f19000000000000000000000000000000000000000000000000000000008152336004820152602481018390529192506001600160a01b0316906340c10f1990604401600060405180830381600087803b15801561091657600080fd5b505af115801561092a573d6000803e3d6000fd5b50505050505050565b6000611c2061094d60055442610b2b90919063ffffffff16565b1115610967576004805460ff60a01b1916600160a01b1790555b600454600160a01b900460ff1615156001146109c55760405162461bcd60e51b815260206004820152601c60248201527f43616e6e6f7420776974686472617720617420746869732074696d650000000060448201526064016102bc565b60006109e5670de0b6b3a76400006104776109de6102ff565b8690610b0c565b6000546040517f9dc29fac000000000000000000000000000000000000000000000000000000008152336004820152602481018690529192506001600160a01b031690639dc29fac90604401600060405180830381600087803b158015610a4b57600080fd5b505af1158015610a5f573d6000803e3d6000fd5b50506006546040517f0f3aa5540000000000000000000000000000000000000000000000000000000081526001600160a01b0388811660048301526024820186905260016044830152336064830152600094509091169150630f3aa554906084016020604051808303816000875af1158015610adf573d6000803e3d6000fd5b505050506040513d601f19601f82011682018060405250810190610b039190610dc6565b95945050505050565b6000610b188284610e17565b9392505050565b6000610b188284610e36565b6000610b188284610e58565b6001546040516370a0823160e01b81523060048201526000916001600160a01b0316906370a0823190602401602060405180830381865afa158015610b80573d6000803e3d6000fd5b505050506040513d601f19601f82011682018060405250810190610ba49190610dc6565b6006546040517f30b7000200000000000000000000000000000000000000000000000000000000815260006004820181905260248201819052600160448301819052606483018190526084830181905260a483015260c48201529192506001600160a01b0316906330b700029060e401600060405180830381600087803b158015610c2e57600080fd5b505af1158015610c42573d6000803e3d6000fd5b50506006546001546040516370a0823160e01b81523060048201526001600160a01b03928316945063364e23119350911690610ccc90859083906370a0823190602401602060405180830381865afa158015610ca2573d6000803e3d6000fd5b505050506040513d601f19601f82011682018060405250810190610cc69190610dc6565b90610b2b565b6040517fffffffff0000000000000000000000000000000000000000000000000000000060e085901b1681526001600160a01b039092166004830152602482015260016044820181905260648201526084016020604051808303816000875af1158015610d3d573d6000803e3d6000fd5b505050506040513d601f19601f82011682018060405250810190610d619190610dc6565b5050565b80356001600160a01b0381168114610d7c57600080fd5b919050565b600060208284031215610d9357600080fd5b610b1882610d65565b60008060408385031215610daf57600080fd5b610db883610d65565b946020939093013593505050565b600060208284031215610dd857600080fd5b5051919050565b600060208284031215610df157600080fd5b81518015158114610b1857600080fd5b634e487b7160e01b600052601160045260246000fd5b6000816000190483118215151615610e3157610e31610e01565b500290565b600082610e5357634e487b7160e01b600052601260045260246000fd5b500490565b600082821015610e6a57610e6a610e01565b50039056fea26469706673582212206c3ae974dbed4ba9767a52b12cd4f8c4273869df0959024a707aa1fa465d891764736f6c634300080a0033",
  "linkReferences": {},
  "deployedLinkReferences": {}
}