{
  "_format": "hh-sol-artifact-1",
  "contractName": "LNXRewards",
  "sourceName": "contracts/StakeRewards.sol",
  "abi": [
    {
      "inputs": [
        {
          "internalType": "address",
          "name": "_lnx",
          "type": "address"
        },
        {
          "internalType": "address",
          "name": "_vault",
          "type": "address"
        }
      ],
      "stateMutability": "nonpayable",
      "type": "constructor"
    },
    {
      "inputs": [
        {
          "internalType": "address",
          "name": "account",
          "type": "address"
        }
      ],
      "name": "claimRewards",
      "outputs": [],
      "stateMutability": "nonpayable",
      "type": "function"
    },
    {
      "inputs": [
        {
          "internalType": "address",
          "name": "account",
          "type": "address"
        },
        {
          "internalType": "address",
          "name": "token",
          "type": "address"
        }
      ],
      "name": "claimableRewards",
      "outputs": [
        {
          "internalType": "uint256",
          "name": "",
          "type": "uint256"
        }
      ],
      "stateMutability": "view",
      "type": "function"
    },
    {
      "inputs": [],
      "name": "governance",
      "outputs": [
        {
          "internalType": "address",
          "name": "",
          "type": "address"
        }
      ],
      "stateMutability": "view",
      "type": "function"
    },
    {
      "inputs": [],
      "name": "lnx",
      "outputs": [
        {
          "internalType": "contract IERC20",
          "name": "",
          "type": "address"
        }
      ],
      "stateMutability": "view",
      "type": "function"
    },
    {
      "inputs": [],
      "name": "protocol",
      "outputs": [
        {
          "internalType": "address",
          "name": "",
          "type": "address"
        }
      ],
      "stateMutability": "view",
      "type": "function"
    },
    {
      "inputs": [
        {
          "internalType": "address",
          "name": "token",
          "type": "address"
        },
        {
          "internalType": "uint256",
          "name": "amount",
          "type": "uint256"
        }
      ],
      "name": "receiveRewards",
      "outputs": [],
      "stateMutability": "nonpayable",
      "type": "function"
    },
    {
      "inputs": [
        {
          "internalType": "address",
          "name": "_protocol",
          "type": "address"
        }
      ],
      "name": "setProtocol",
      "outputs": [],
      "stateMutability": "nonpayable",
      "type": "function"
    },
    {
      "inputs": [
        {
          "internalType": "uint256",
          "name": "amount",
          "type": "uint256"
        }
      ],
      "name": "stake",
      "outputs": [],
      "stateMutability": "nonpayable",
      "type": "function"
    },
    {
      "inputs": [
        {
          "internalType": "address",
          "name": "",
          "type": "address"
        }
      ],
      "name": "tokensRewarded",
      "outputs": [
        {
          "internalType": "uint256",
          "name": "",
          "type": "uint256"
        }
      ],
      "stateMutability": "view",
      "type": "function"
    },
    {
      "inputs": [],
      "name": "totalStaked",
      "outputs": [
        {
          "internalType": "uint256",
          "name": "",
          "type": "uint256"
        }
      ],
      "stateMutability": "view",
      "type": "function"
    },
    {
      "inputs": [
        {
          "internalType": "uint256",
          "name": "amount",
          "type": "uint256"
        }
      ],
      "name": "unstake",
      "outputs": [],
      "stateMutability": "nonpayable",
      "type": "function"
    },
    {
      "inputs": [
        {
          "internalType": "address",
          "name": "",
          "type": "address"
        },
        {
          "internalType": "address",
          "name": "",
          "type": "address"
        }
      ],
      "name": "userClaimed",
      "outputs": [
        {
          "internalType": "uint256",
          "name": "",
          "type": "uint256"
        }
      ],
      "stateMutability": "view",
      "type": "function"
    },
    {
      "inputs": [
        {
          "internalType": "address",
          "name": "",
          "type": "address"
        }
      ],
      "name": "userStaked",
      "outputs": [
        {
          "internalType": "uint256",
          "name": "",
          "type": "uint256"
        }
      ],
      "stateMutability": "view",
      "type": "function"
    },
    {
      "inputs": [],
      "name": "vault",
      "outputs": [
        {
          "internalType": "contract IVault",
          "name": "",
          "type": "address"
        }
      ],
      "stateMutability": "view",
      "type": "function"
    }
  ],
  "bytecode": "0x60806040523480156200001157600080fd5b50604051620015e1380380620015e183398181016040528101906200003791906200016b565b816000806101000a81548173ffffffffffffffffffffffffffffffffffffffff021916908373ffffffffffffffffffffffffffffffffffffffff16021790555033600360006101000a81548173ffffffffffffffffffffffffffffffffffffffff021916908373ffffffffffffffffffffffffffffffffffffffff16021790555080600260006101000a81548173ffffffffffffffffffffffffffffffffffffffff021916908373ffffffffffffffffffffffffffffffffffffffff1602179055505050620001b2565b600080fd5b600073ffffffffffffffffffffffffffffffffffffffff82169050919050565b6000620001338262000106565b9050919050565b620001458162000126565b81146200015157600080fd5b50565b60008151905062000165816200013a565b92915050565b6000806040838503121562000185576200018462000101565b5b6000620001958582860162000154565b9250506020620001a88582860162000154565b9150509250929050565b61141f80620001c26000396000f3fe608060405234801561001057600080fd5b50600436106100ea5760003560e01c80638ce744261161008c578063a694fc3a11610066578063a694fc3a1461024b578063acc3a93914610267578063ef5cfb8c14610297578063fbfa77cf146102b3576100ea565b80638ce74426146101f3578063906c78bb146102115780639aa498641461022f576100ea565b80635aa6e675116100c85780635aa6e675146101575780636be9dcce1461017557806370ce170c146101a5578063817b1cd2146101d5576100ea565b80630a9d793d146100ef578063289b2df11461010b5780632e17de781461013b575b600080fd5b61010960048036038101906101049190610e4d565b6102d1565b005b61012560048036038101906101209190610e7a565b61036f565b6040516101329190610ed3565b60405180910390f35b61015560048036038101906101509190610f1a565b610394565b005b61015f6104f1565b60405161016c9190610f56565b60405180910390f35b61018f600480360381019061018a9190610e7a565b610517565b60405161019c9190610ed3565b60405180910390f35b6101bf60048036038101906101ba9190610e4d565b61065f565b6040516101cc9190610ed3565b60405180910390f35b6101dd610677565b6040516101ea9190610ed3565b60405180910390f35b6101fb61067d565b6040516102089190610f56565b60405180910390f35b6102196106a3565b6040516102269190610fd0565b60405180910390f35b61024960048036038101906102449190610feb565b6106c7565b005b61026560048036038101906102609190610f1a565b61081e565b005b610281600480360381019061027c9190610e4d565b610931565b60405161028e9190610ed3565b60405180910390f35b6102b160048036038101906102ac9190610e4d565b610949565b005b6102bb610d82565b6040516102c8919061104c565b60405180910390f35b600360009054906101000a900473ffffffffffffffffffffffffffffffffffffffff1673ffffffffffffffffffffffffffffffffffffffff163373ffffffffffffffffffffffffffffffffffffffff161461032b57600080fd5b80600160006101000a81548173ffffffffffffffffffffffffffffffffffffffff021916908373ffffffffffffffffffffffffffffffffffffffff16021790555050565b6006602052816000526040600020602052806000526040600020600091509150505481565b80600460003373ffffffffffffffffffffffffffffffffffffffff1673ffffffffffffffffffffffffffffffffffffffff1681526020019081526020016000205410156103e057600080fd5b80600560008282546103f29190611096565b9250508190555080600460003373ffffffffffffffffffffffffffffffffffffffff1673ffffffffffffffffffffffffffffffffffffffff16815260200190815260200160002060008282546104489190611096565b9250508190555060008054906101000a900473ffffffffffffffffffffffffffffffffffffffff1673ffffffffffffffffffffffffffffffffffffffff1663a9059cbb33836040518363ffffffff1660e01b81526004016104aa9291906110ca565b6020604051808303816000875af11580156104c9573d6000803e3d6000fd5b505050506040513d601f19601f820116820180604052508101906104ed919061112b565b5050565b600360009054906101000a900473ffffffffffffffffffffffffffffffffffffffff1681565b600080600760008473ffffffffffffffffffffffffffffffffffffffff1673ffffffffffffffffffffffffffffffffffffffff1681526020019081526020016000205490506000610652600554610644600460008973ffffffffffffffffffffffffffffffffffffffff1673ffffffffffffffffffffffffffffffffffffffff16815260200190815260200160002054610636600660008b73ffffffffffffffffffffffffffffffffffffffff1673ffffffffffffffffffffffffffffffffffffffff16815260200190815260200160002060008a73ffffffffffffffffffffffffffffffffffffffff1673ffffffffffffffffffffffffffffffffffffffff1681526020019081526020016000205487610da890919063ffffffff16565b610dbe90919063ffffffff16565b610dd490919063ffffffff16565b9050809250505092915050565b60076020528060005260406000206000915090505481565b60055481565b600160009054906101000a900473ffffffffffffffffffffffffffffffffffffffff1681565b60008054906101000a900473ffffffffffffffffffffffffffffffffffffffff1681565b600160009054906101000a900473ffffffffffffffffffffffffffffffffffffffff1673ffffffffffffffffffffffffffffffffffffffff163373ffffffffffffffffffffffffffffffffffffffff161461072157600080fd5b8173ffffffffffffffffffffffffffffffffffffffff166323b872dd600160009054906101000a900473ffffffffffffffffffffffffffffffffffffffff1630846040518463ffffffff1660e01b815260040161078093929190611158565b6020604051808303816000875af115801561079f573d6000803e3d6000fd5b505050506040513d601f19601f820116820180604052508101906107c3919061112b565b5080600760008473ffffffffffffffffffffffffffffffffffffffff1673ffffffffffffffffffffffffffffffffffffffff1681526020019081526020016000206000828254610813919061118f565b925050819055505050565b60008054906101000a900473ffffffffffffffffffffffffffffffffffffffff1673ffffffffffffffffffffffffffffffffffffffff166323b872dd3330846040518463ffffffff1660e01b815260040161087b93929190611158565b6020604051808303816000875af115801561089a573d6000803e3d6000fd5b505050506040513d601f19601f820116820180604052508101906108be919061112b565b5080600560008282546108d1919061118f565b9250508190555080600460003373ffffffffffffffffffffffffffffffffffffffff1673ffffffffffffffffffffffffffffffffffffffff1681526020019081526020016000206000828254610927919061118f565b9250508190555050565b60046020528060005260406000206000915090505481565b8073ffffffffffffffffffffffffffffffffffffffff163373ffffffffffffffffffffffffffffffffffffffff1614806109d05750600160009054906101000a900473ffffffffffffffffffffffffffffffffffffffff1673ffffffffffffffffffffffffffffffffffffffff163373ffffffffffffffffffffffffffffffffffffffff16145b610a0f576040517f08c379a0000000000000000000000000000000000000000000000000000000008152600401610a0690611242565b60405180910390fd5b60008060005b600260009054906101000a900473ffffffffffffffffffffffffffffffffffffffff1673ffffffffffffffffffffffffffffffffffffffff16630842b0766040518163ffffffff1660e01b8152600401602060405180830381865afa158015610a82573d6000803e3d6000fd5b505050506040513d601f19601f82011682018060405250810190610aa69190611277565b811015610d7c57600260009054906101000a900473ffffffffffffffffffffffffffffffffffffffff1673ffffffffffffffffffffffffffffffffffffffff1663e468baf0826040518263ffffffff1660e01b8152600401610b089190610ed3565b602060405180830381865afa158015610b25573d6000803e3d6000fd5b505050506040513d601f19601f82011682018060405250810190610b4991906112b9565b92506000610b578585610517565b1415610c1e57600760008473ffffffffffffffffffffffffffffffffffffffff1673ffffffffffffffffffffffffffffffffffffffff16815260200190815260200160002054600660008673ffffffffffffffffffffffffffffffffffffffff1673ffffffffffffffffffffffffffffffffffffffff16815260200190815260200160002060008573ffffffffffffffffffffffffffffffffffffffff1673ffffffffffffffffffffffffffffffffffffffff168152602001908152602001600020819055505b610c288484610517565b91508273ffffffffffffffffffffffffffffffffffffffff1663a9059cbb85846040518363ffffffff1660e01b8152600401610c659291906110ca565b6020604051808303816000875af1158015610c84573d6000803e3d6000fd5b505050506040513d601f19601f82011682018060405250810190610ca8919061112b565b50600760008473ffffffffffffffffffffffffffffffffffffffff1673ffffffffffffffffffffffffffffffffffffffff16815260200190815260200160002054600660008673ffffffffffffffffffffffffffffffffffffffff1673ffffffffffffffffffffffffffffffffffffffff16815260200190815260200160002060008573ffffffffffffffffffffffffffffffffffffffff1673ffffffffffffffffffffffffffffffffffffffff168152602001908152602001600020819055508080610d74906112e6565b915050610a15565b50505050565b600260009054906101000a900473ffffffffffffffffffffffffffffffffffffffff1681565b60008183610db69190611096565b905092915050565b60008183610dcc919061132f565b905092915050565b60008183610de291906113b8565b905092915050565b600080fd5b600073ffffffffffffffffffffffffffffffffffffffff82169050919050565b6000610e1a82610def565b9050919050565b610e2a81610e0f565b8114610e3557600080fd5b50565b600081359050610e4781610e21565b92915050565b600060208284031215610e6357610e62610dea565b5b6000610e7184828501610e38565b91505092915050565b60008060408385031215610e9157610e90610dea565b5b6000610e9f85828601610e38565b9250506020610eb085828601610e38565b9150509250929050565b6000819050919050565b610ecd81610eba565b82525050565b6000602082019050610ee86000830184610ec4565b92915050565b610ef781610eba565b8114610f0257600080fd5b50565b600081359050610f1481610eee565b92915050565b600060208284031215610f3057610f2f610dea565b5b6000610f3e84828501610f05565b91505092915050565b610f5081610e0f565b82525050565b6000602082019050610f6b6000830184610f47565b92915050565b6000819050919050565b6000610f96610f91610f8c84610def565b610f71565b610def565b9050919050565b6000610fa882610f7b565b9050919050565b6000610fba82610f9d565b9050919050565b610fca81610faf565b82525050565b6000602082019050610fe56000830184610fc1565b92915050565b6000806040838503121561100257611001610dea565b5b600061101085828601610e38565b925050602061102185828601610f05565b9150509250929050565b600061103682610f9d565b9050919050565b6110468161102b565b82525050565b6000602082019050611061600083018461103d565b92915050565b7f4e487b7100000000000000000000000000000000000000000000000000000000600052601160045260246000fd5b60006110a182610eba565b91506110ac83610eba565b9250828210156110bf576110be611067565b5b828203905092915050565b60006040820190506110df6000830185610f47565b6110ec6020830184610ec4565b9392505050565b60008115159050919050565b611108816110f3565b811461111357600080fd5b50565b600081519050611125816110ff565b92915050565b60006020828403121561114157611140610dea565b5b600061114f84828501611116565b91505092915050565b600060608201905061116d6000830186610f47565b61117a6020830185610f47565b6111876040830184610ec4565b949350505050565b600061119a82610eba565b91506111a583610eba565b9250827fffffffffffffffffffffffffffffffffffffffffffffffffffffffffffffffff038211156111da576111d9611067565b5b828201905092915050565b600082825260208201905092915050565b7f43616e6e6f7420636c61696d20666f7220616e6f74686572206163636f756e74600082015250565b600061122c6020836111e5565b9150611237826111f6565b602082019050919050565b6000602082019050818103600083015261125b8161121f565b9050919050565b60008151905061127181610eee565b92915050565b60006020828403121561128d5761128c610dea565b5b600061129b84828501611262565b91505092915050565b6000815190506112b381610e21565b92915050565b6000602082840312156112cf576112ce610dea565b5b60006112dd848285016112a4565b91505092915050565b60006112f182610eba565b91507fffffffffffffffffffffffffffffffffffffffffffffffffffffffffffffffff82141561132457611323611067565b5b600182019050919050565b600061133a82610eba565b915061134583610eba565b9250817fffffffffffffffffffffffffffffffffffffffffffffffffffffffffffffffff048311821515161561137e5761137d611067565b5b828202905092915050565b7f4e487b7100000000000000000000000000000000000000000000000000000000600052601260045260246000fd5b60006113c382610eba565b91506113ce83610eba565b9250826113de576113dd611389565b5b82820490509291505056fea26469706673582212209dc0c440445a5e97dc6819a0b6896cc1a4bcf06e74d9ab7037b0432613abe98c64736f6c634300080a0033",
  "linkReferences": {},
  "deployedLinkReferences": {}
}