{
  "address": "0xDc64a140Aa3E981100a9becA4E685f962f0cF6C9",
  "abi": [
    {
      "inputs": [
        {
          "internalType": "address",
          "name": "_vault",
          "type": "address"
        },
        {
          "internalType": "address",
          "name": "_rewardsRouter",
          "type": "address"
        },
        {
          "internalType": "address",
          "name": "_GLP",
          "type": "address"
        },
        {
          "internalType": "address",
          "name": "_weth",
          "type": "address"
        },
        {
          "internalType": "address",
          "name": "_lnxReward",
          "type": "address"
        },
        {
          "internalType": "address",
          "name": "_stakeReward",
          "type": "address"
        },
        {
          "internalType": "address",
          "name": "_priceFeed",
          "type": "address"
        }
      ],
      "stateMutability": "nonpayable",
      "type": "constructor"
    },
    {
      "inputs": [],
      "name": "GLP",
      "outputs": [
        {
          "internalType": "contract IERC20",
          "name": "",
          "type": "address"
        }
      ],
      "stateMutability": "view",
      "type": "function"
    },
    {
      "inputs": [],
      "name": "GLPShare",
      "outputs": [
        {
          "internalType": "contract IERC20",
          "name": "",
          "type": "address"
        }
      ],
      "stateMutability": "view",
      "type": "function"
    },
    {
      "inputs": [
        {
          "internalType": "address",
          "name": "account",
          "type": "address"
        }
      ],
      "name": "accountBorrowedValue",
      "outputs": [
        {
          "internalType": "uint256",
          "name": "",
          "type": "uint256"
        }
      ],
      "stateMutability": "view",
      "type": "function"
    },
    {
      "inputs": [
        {
          "internalType": "address",
          "name": "account",
          "type": "address"
        }
      ],
      "name": "accountCollateralValue",
      "outputs": [
        {
          "internalType": "uint256",
          "name": "",
          "type": "uint256"
        }
      ],
      "stateMutability": "view",
      "type": "function"
    },
    {
      "inputs": [
        {
          "internalType": "address",
          "name": "account",
          "type": "address"
        }
      ],
      "name": "accountHealth",
      "outputs": [
        {
          "internalType": "uint256",
          "name": "",
          "type": "uint256"
        }
      ],
      "stateMutability": "view",
      "type": "function"
    },
    {
      "inputs": [
        {
          "internalType": "address",
          "name": "account",
          "type": "address"
        }
      ],
      "name": "accountLentValue",
      "outputs": [
        {
          "internalType": "uint256",
          "name": "",
          "type": "uint256"
        }
      ],
      "stateMutability": "view",
      "type": "function"
    },
    {
      "inputs": [
        {
          "internalType": "address",
          "name": "token",
          "type": "address"
        },
        {
          "internalType": "uint256",
          "name": "tokenAmount",
          "type": "uint256"
        }
      ],
      "name": "borrow",
      "outputs": [],
      "stateMutability": "nonpayable",
      "type": "function"
    },
    {
      "inputs": [
        {
          "internalType": "address",
          "name": "",
          "type": "address"
        }
      ],
      "name": "borrowShare",
      "outputs": [
        {
          "internalType": "address",
          "name": "",
          "type": "address"
        }
      ],
      "stateMutability": "view",
      "type": "function"
    },
    {
      "inputs": [
        {
          "internalType": "address",
          "name": "",
          "type": "address"
        }
      ],
      "name": "borrowToken",
      "outputs": [
        {
          "internalType": "bool",
          "name": "",
          "type": "bool"
        }
      ],
      "stateMutability": "view",
      "type": "function"
    },
    {
      "inputs": [
        {
          "internalType": "address",
          "name": "",
          "type": "address"
        }
      ],
      "name": "borrowTokenBalance",
      "outputs": [
        {
          "internalType": "uint256",
          "name": "",
          "type": "uint256"
        }
      ],
      "stateMutability": "view",
      "type": "function"
    },
    {
      "inputs": [
        {
          "internalType": "address",
          "name": "",
          "type": "address"
        },
        {
          "internalType": "address",
          "name": "",
          "type": "address"
        }
      ],
      "name": "borrowedAmount",
      "outputs": [
        {
          "internalType": "uint256",
          "name": "",
          "type": "uint256"
        }
      ],
      "stateMutability": "view",
      "type": "function"
    },
    {
      "inputs": [
        {
          "internalType": "address",
          "name": "account",
          "type": "address"
        },
        {
          "internalType": "address",
          "name": "token",
          "type": "address"
        }
      ],
      "name": "borrowingPower",
      "outputs": [
        {
          "internalType": "uint256",
          "name": "",
          "type": "uint256"
        }
      ],
      "stateMutability": "view",
      "type": "function"
    },
    {
      "inputs": [
        {
          "internalType": "address",
          "name": "account",
          "type": "address"
        }
      ],
      "name": "borrowingPowerUSD",
      "outputs": [
        {
          "internalType": "uint256",
          "name": "",
          "type": "uint256"
        }
      ],
      "stateMutability": "view",
      "type": "function"
    },
    {
      "inputs": [
        {
          "internalType": "address",
          "name": "token",
          "type": "address"
        }
      ],
      "name": "debtValue",
      "outputs": [
        {
          "internalType": "uint256",
          "name": "",
          "type": "uint256"
        }
      ],
      "stateMutability": "view",
      "type": "function"
    },
    {
      "inputs": [
        {
          "internalType": "address",
          "name": "",
          "type": "address"
        }
      ],
      "name": "decimalMultiplier",
      "outputs": [
        {
          "internalType": "uint256",
          "name": "",
          "type": "uint256"
        }
      ],
      "stateMutability": "view",
      "type": "function"
    },
    {
      "inputs": [
        {
          "internalType": "address",
          "name": "token",
          "type": "address"
        },
        {
          "internalType": "uint256",
          "name": "amount",
          "type": "uint256"
        }
      ],
      "name": "depositCollateral",
      "outputs": [],
      "stateMutability": "nonpayable",
      "type": "function"
    },
    {
      "inputs": [],
      "name": "getCollateralPrice",
      "outputs": [
        {
          "internalType": "uint256",
          "name": "",
          "type": "uint256"
        }
      ],
      "stateMutability": "view",
      "type": "function"
    },
    {
      "inputs": [],
      "name": "getCollateralShareValue",
      "outputs": [
        {
          "internalType": "uint256",
          "name": "",
          "type": "uint256"
        }
      ],
      "stateMutability": "view",
      "type": "function"
    },
    {
      "inputs": [
        {
          "internalType": "address",
          "name": "token",
          "type": "address"
        }
      ],
      "name": "getShareValue",
      "outputs": [
        {
          "internalType": "uint256",
          "name": "",
          "type": "uint256"
        }
      ],
      "stateMutability": "view",
      "type": "function"
    },
    {
      "inputs": [
        {
          "internalType": "address",
          "name": "token",
          "type": "address"
        }
      ],
      "name": "getTokenAccruedInterest",
      "outputs": [
        {
          "internalType": "uint256",
          "name": "",
          "type": "uint256"
        }
      ],
      "stateMutability": "view",
      "type": "function"
    },
    {
      "inputs": [],
      "name": "governance",
      "outputs": [
        {
          "internalType": "address",
          "name": "",
          "type": "address"
        }
      ],
      "stateMutability": "view",
      "type": "function"
    },
    {
      "inputs": [
        {
          "internalType": "address",
          "name": "",
          "type": "address"
        }
      ],
      "name": "interestCheckpoint",
      "outputs": [
        {
          "internalType": "uint256",
          "name": "",
          "type": "uint256"
        }
      ],
      "stateMutability": "view",
      "type": "function"
    },
    {
      "inputs": [
        {
          "internalType": "address",
          "name": "token",
          "type": "address"
        }
      ],
      "name": "interestRate",
      "outputs": [
        {
          "internalType": "uint256",
          "name": "",
          "type": "uint256"
        }
      ],
      "stateMutability": "view",
      "type": "function"
    },
    {
      "inputs": [
        {
          "internalType": "address",
          "name": "token",
          "type": "address"
        },
        {
          "internalType": "uint256",
          "name": "amount",
          "type": "uint256"
        }
      ],
      "name": "lend",
      "outputs": [],
      "stateMutability": "nonpayable",
      "type": "function"
    },
    {
      "inputs": [
        {
          "internalType": "address",
          "name": "account",
          "type": "address"
        }
      ],
      "name": "liquidate",
      "outputs": [],
      "stateMutability": "nonpayable",
      "type": "function"
    },
    {
      "inputs": [],
      "name": "lnxReward",
      "outputs": [
        {
          "internalType": "address",
          "name": "",
          "type": "address"
        }
      ],
      "stateMutability": "view",
      "type": "function"
    },
    {
      "inputs": [],
      "name": "ltv",
      "outputs": [
        {
          "internalType": "uint256",
          "name": "",
          "type": "uint256"
        }
      ],
      "stateMutability": "view",
      "type": "function"
    },
    {
      "inputs": [],
      "name": "priceFeed",
      "outputs": [
        {
          "internalType": "contract IPriceFeed",
          "name": "",
          "type": "address"
        }
      ],
      "stateMutability": "view",
      "type": "function"
    },
    {
      "inputs": [
        {
          "internalType": "address",
          "name": "token",
          "type": "address"
        },
        {
          "internalType": "uint256",
          "name": "tokenAmount",
          "type": "uint256"
        }
      ],
      "name": "repay",
      "outputs": [],
      "stateMutability": "nonpayable",
      "type": "function"
    },
    {
      "inputs": [
        {
          "internalType": "address",
          "name": "token",
          "type": "address"
        }
      ],
      "name": "repayAll",
      "outputs": [],
      "stateMutability": "nonpayable",
      "type": "function"
    },
    {
      "inputs": [],
      "name": "rewardsRouter",
      "outputs": [
        {
          "internalType": "contract IRewardsRouter",
          "name": "",
          "type": "address"
        }
      ],
      "stateMutability": "view",
      "type": "function"
    },
    {
      "inputs": [
        {
          "internalType": "address",
          "name": "token",
          "type": "address"
        },
        {
          "internalType": "address",
          "name": "share",
          "type": "address"
        }
      ],
      "name": "setBorrowToken",
      "outputs": [],
      "stateMutability": "nonpayable",
      "type": "function"
    },
    {
      "inputs": [
        {
          "internalType": "address",
          "name": "token",
          "type": "address"
        },
        {
          "internalType": "bool",
          "name": "allowed",
          "type": "bool"
        }
      ],
      "name": "setBorrowTokenAllowed",
      "outputs": [],
      "stateMutability": "nonpayable",
      "type": "function"
    },
    {
      "inputs": [
        {
          "internalType": "address",
          "name": "_GLPShare",
          "type": "address"
        }
      ],
      "name": "setGLPShare",
      "outputs": [],
      "stateMutability": "nonpayable",
      "type": "function"
    },
    {
      "inputs": [
        {
          "internalType": "address",
          "name": "_governance",
          "type": "address"
        }
      ],
      "name": "setGovernance",
      "outputs": [],
      "stateMutability": "nonpayable",
      "type": "function"
    },
    {
      "inputs": [
        {
          "internalType": "uint256",
          "name": "_ltv",
          "type": "uint256"
        }
      ],
      "name": "setltv",
      "outputs": [],
      "stateMutability": "nonpayable",
      "type": "function"
    },
    {
      "inputs": [],
      "name": "stakeReward",
      "outputs": [
        {
          "internalType": "address",
          "name": "",
          "type": "address"
        }
      ],
      "stateMutability": "view",
      "type": "function"
    },
    {
      "inputs": [
        {
          "internalType": "address",
          "name": "",
          "type": "address"
        }
      ],
      "name": "tokenDebt",
      "outputs": [
        {
          "internalType": "uint256",
          "name": "",
          "type": "uint256"
        }
      ],
      "stateMutability": "view",
      "type": "function"
    },
    {
      "inputs": [
        {
          "internalType": "address",
          "name": "token",
          "type": "address"
        }
      ],
      "name": "totalBorrowedAmount",
      "outputs": [
        {
          "internalType": "uint256",
          "name": "",
          "type": "uint256"
        }
      ],
      "stateMutability": "view",
      "type": "function"
    },
    {
      "inputs": [],
      "name": "totalCollateral",
      "outputs": [
        {
          "internalType": "uint256",
          "name": "",
          "type": "uint256"
        }
      ],
      "stateMutability": "view",
      "type": "function"
    },
    {
      "inputs": [],
      "name": "totalLentValue",
      "outputs": [
        {
          "internalType": "uint256",
          "name": "",
          "type": "uint256"
        }
      ],
      "stateMutability": "view",
      "type": "function"
    },
    {
      "inputs": [
        {
          "internalType": "address",
          "name": "account",
          "type": "address"
        },
        {
          "internalType": "address",
          "name": "token",
          "type": "address"
        }
      ],
      "name": "userDebt",
      "outputs": [
        {
          "internalType": "uint256",
          "name": "",
          "type": "uint256"
        }
      ],
      "stateMutability": "view",
      "type": "function"
    },
    {
      "inputs": [
        {
          "internalType": "address",
          "name": "account",
          "type": "address"
        },
        {
          "internalType": "address",
          "name": "token",
          "type": "address"
        }
      ],
      "name": "userDebtUSD",
      "outputs": [
        {
          "internalType": "uint256",
          "name": "",
          "type": "uint256"
        }
      ],
      "stateMutability": "view",
      "type": "function"
    },
    {
      "inputs": [],
      "name": "vault",
      "outputs": [
        {
          "internalType": "contract IVault",
          "name": "",
          "type": "address"
        }
      ],
      "stateMutability": "view",
      "type": "function"
    },
    {
      "inputs": [],
      "name": "weth",
      "outputs": [
        {
          "internalType": "address",
          "name": "",
          "type": "address"
        }
      ],
      "stateMutability": "view",
      "type": "function"
    },
    {
      "inputs": [
        {
          "internalType": "address",
          "name": "token",
          "type": "address"
        },
        {
          "internalType": "uint256",
          "name": "shareAmount",
          "type": "uint256"
        }
      ],
      "name": "withdraw",
      "outputs": [],
      "stateMutability": "nonpayable",
      "type": "function"
    },
    {
      "inputs": [
        {
          "internalType": "address",
          "name": "token",
          "type": "address"
        }
      ],
      "name": "withdrawAll",
      "outputs": [],
      "stateMutability": "nonpayable",
      "type": "function"
    },
    {
      "inputs": [
        {
          "internalType": "uint256",
          "name": "shareAmount",
          "type": "uint256"
        }
      ],
      "name": "withdrawCollateral",
      "outputs": [
        {
          "internalType": "uint256",
          "name": "",
          "type": "uint256"
        }
      ],
      "stateMutability": "nonpayable",
      "type": "function"
    },
    {
      "inputs": [],
      "name": "withdrawCollateralAll",
      "outputs": [],
      "stateMutability": "nonpayable",
      "type": "function"
    }
  ],
  "transactionHash": "0x54ebef57ee07173aa0d311ea36d56fbd7d69c1d368c45b12094524ee205d831a",
  "args": [
    "0x489ee077994B6658eAfA855C308275EAd8097C4A",
    "0xA906F338CB21815cBc4Bc87ace9e68c87eF8d8F1",
    "0x4277f8F2c384827B5273592FF7CeBd9f2C1ac258",
    "0x82aF49447D8a07e3bd95BD0d56f35241523fBab1",
    "0xe7f1725E7734CE288F8367e1Bb143E90bb3F0512",
    "0xCf7Ed3AccA5a467e9e704C703E8D87F634fB0Fc9",
    "0x1CF4579904EB2ACDA0E4081E39eC10d0c32B5DE3"
  ],
  "solcInputHash": "4f48f52acf79426d0b06f3f12b415cec",
  "bytecode": "0x60806040526032600e553480156200001657600080fd5b5060405162005fe238038062005fe283398181016040528101906200003c9190620002bb565b33600860006101000a81548173ffffffffffffffffffffffffffffffffffffffff021916908373ffffffffffffffffffffffffffffffffffffffff16021790555085600a60006101000a81548173ffffffffffffffffffffffffffffffffffffffff021916908373ffffffffffffffffffffffffffffffffffffffff16021790555086600960006101000a81548173ffffffffffffffffffffffffffffffffffffffff021916908373ffffffffffffffffffffffffffffffffffffffff16021790555084600c60006101000a81548173ffffffffffffffffffffffffffffffffffffffff021916908373ffffffffffffffffffffffffffffffffffffffff16021790555083600d60006101000a81548173ffffffffffffffffffffffffffffffffffffffff021916908373ffffffffffffffffffffffffffffffffffffffff16021790555082600f60006101000a81548173ffffffffffffffffffffffffffffffffffffffff021916908373ffffffffffffffffffffffffffffffffffffffff16021790555081601060006101000a81548173ffffffffffffffffffffffffffffffffffffffff021916908373ffffffffffffffffffffffffffffffffffffffff16021790555080601160006101000a81548173ffffffffffffffffffffffffffffffffffffffff021916908373ffffffffffffffffffffffffffffffffffffffff160217905550505050505050506200036e565b600080fd5b600073ffffffffffffffffffffffffffffffffffffffff82169050919050565b6000620002838262000256565b9050919050565b620002958162000276565b8114620002a157600080fd5b50565b600081519050620002b5816200028a565b92915050565b600080600080600080600060e0888a031215620002dd57620002dc62000251565b5b6000620002ed8a828b01620002a4565b9750506020620003008a828b01620002a4565b9650506040620003138a828b01620002a4565b9550506060620003268a828b01620002a4565b9450506080620003398a828b01620002a4565b93505060a06200034c8a828b01620002a4565b92505060c06200035f8a828b01620002a4565b91505092959891949750929550565b615c64806200037e6000396000f3fe608060405234801561001057600080fd5b50600436106102ba5760003560e01c806388d595db11610182578063c09f66aa116100e9578063f18ea6d8116100a2578063f7683bbc1161007c578063f7683bbc14610941578063f9c019d51461095f578063fa09e6301461098f578063fbfa77cf146109ab576102ba565b8063f18ea6d8146108c5578063f3e1abe1146108f5578063f3fef3a314610925576102ba565b8063c09f66aa14610801578063c9f005af1461080b578063cc4c336b1461083b578063d196943c1461086b578063e152c34a14610889578063e68802e3146108a7576102ba565b8063a2fb342d1161013b578063a2fb342d14610741578063a5d5db0c1461075d578063ab033ea914610779578063afbff21214610795578063b28147d9146107b3578063b9637e49146107d1576102ba565b806388d595db1461064757806389e02a58146106635780638b96b280146106815780638f2b6270146106b157806397ea8605146106e1578063983ff61514610711576102ba565b80635aa6e67511610226578063741bef1a116101df578063741bef1a1461054d5780637558abc81461056b578063770089f11461059b5780637a8f4605146105cb5780637c27383b146105fb5780637c2c69c014610617576102ba565b80635aa6e675146104655780636112fe2e1461048357806368cb7e8d146104b35780636ac9ce6c146104cf5780636fb49d73146104ff578063726654381461051d576102ba565b80632f865568116102785780632f865568146103a55780633fc8cef3146103c15780634414e1af146103df578063474fefaa1461040f5780634ac8eb5f1461042b5780634b8a352914610449576102ba565b80623aadee146102bf57806314c8ad2c146102db57806314f47dcc1461030b57806322867d781461032957806323eafe1e146103455780632c9cbca214610375575b600080fd5b6102d960048036038101906102d49190614ec4565b6109c9565b005b6102f560048036038101906102f09190614f04565b610ab3565b6040516103029190614f5d565b60405180910390f35b610313610b6e565b6040516103209190614f87565b60405180910390f35b610343600480360381019061033e9190614fce565b610b94565b005b61035f600480360381019061035a9190614f04565b61124a565b60405161036c9190614f5d565b60405180910390f35b61038f600480360381019061038a919061500e565b611292565b60405161039c9190614f87565b60405180910390f35b6103bf60048036038101906103ba919061500e565b6112c5565b005b6103c9611a3d565b6040516103d69190614f87565b60405180910390f35b6103f960048036038101906103f4919061500e565b611a63565b6040516104069190614f5d565b60405180910390f35b61042960048036038101906104249190614f04565b611d4b565b005b610433612108565b6040516104409190614f5d565b60405180910390f35b610463600480360381019061045e9190614fce565b61210e565b005b61046d6124b3565b60405161047a9190614f87565b60405180910390f35b61049d6004803603810190610498919061503b565b6124d9565b6040516104aa9190614f5d565b60405180910390f35b6104cd60048036038101906104c8919061500e565b6126e3565b005b6104e960048036038101906104e4919061500e565b612848565b6040516104f69190614f5d565b60405180910390f35b610507612a84565b6040516105149190614f5d565b60405180910390f35b61053760048036038101906105329190614f04565b612a8a565b6040516105449190614f5d565b60405180910390f35b610555612aaf565b60405161056291906150c7565b60405180910390f35b6105856004803603810190610580919061500e565b612ad5565b6040516105929190614f5d565b60405180910390f35b6105b560048036038101906105b0919061500e565b612aed565b6040516105c29190614f5d565b60405180910390f35b6105e560048036038101906105e0919061500e565b612b05565b6040516105f29190614f5d565b60405180910390f35b6106156004803603810190610610919061500e565b612c36565b005b610631600480360381019061062c919061500e565b612ca9565b60405161063e9190614f5d565b60405180910390f35b610661600480360381019061065c919061503b565b612d26565b005b61066b612e11565b6040516106789190614f87565b60405180910390f35b61069b6004803603810190610696919061500e565b612e37565b6040516106a89190614f5d565b60405180910390f35b6106cb60048036038101906106c6919061500e565b612efd565b6040516106d89190614f5d565b60405180910390f35b6106fb60048036038101906106f6919061500e565b613000565b6040516107089190614f5d565b60405180910390f35b61072b6004803603810190610726919061500e565b6130cd565b6040516107389190614f5d565b60405180910390f35b61075b60048036038101906107569190614fce565b6130f9565b005b61077760048036038101906107729190614fce565b613501565b005b610793600480360381019061078e919061500e565b613722565b005b61079d6137f6565b6040516107aa9190615103565b60405180910390f35b6107bb61381c565b6040516107c89190615103565b60405180910390f35b6107eb60048036038101906107e6919061500e565b613842565b6040516107f89190614f5d565b60405180910390f35b6108096138fa565b005b61082560048036038101906108209190614f04565b6139f2565b6040516108329190614f5d565b60405180910390f35b6108556004803603810190610850919061500e565b613a53565b604051610862919061512d565b60405180910390f35b610873613a73565b6040516108809190614f5d565b60405180910390f35b610891613c4e565b60405161089e9190615169565b60405180910390f35b6108af613c74565b6040516108bc9190614f5d565b60405180910390f35b6108df60048036038101906108da919061500e565b613de3565b6040516108ec9190614f5d565b60405180910390f35b61090f600480360381019061090a919061500e565b613dfb565b60405161091c9190614f5d565b60405180910390f35b61093f600480360381019061093a9190614fce565b613e13565b005b610949614296565b6040516109569190614f5d565b60405180910390f35b6109796004803603810190610974919061500e565b614702565b6040516109869190614f5d565b60405180910390f35b6109a960048036038101906109a4919061500e565b61492a565b005b6109b3614a15565b6040516109c091906151a5565b60405180910390f35b600860009054906101000a900473ffffffffffffffffffffffffffffffffffffffff1673ffffffffffffffffffffffffffffffffffffffff163373ffffffffffffffffffffffffffffffffffffffff1614610a59576040517f08c379a0000000000000000000000000000000000000000000000000000000008152600401610a509061521d565b60405180910390fd5b806000808473ffffffffffffffffffffffffffffffffffffffff1673ffffffffffffffffffffffffffffffffffffffff16815260200190815260200160002060006101000a81548160ff0219169083151502179055505050565b6000610b66670de0b6b3a7640000610b58610acd85613842565b600560008873ffffffffffffffffffffffffffffffffffffffff1673ffffffffffffffffffffffffffffffffffffffff16815260200190815260200160002060008773ffffffffffffffffffffffffffffffffffffffff1673ffffffffffffffffffffffffffffffffffffffff16815260200190815260200160002054614a3b90919063ffffffff16565b614a5190919063ffffffff16565b905092915050565b601060009054906101000a900473ffffffffffffffffffffffffffffffffffffffff1681565b6000610d7a610d6b600160008673ffffffffffffffffffffffffffffffffffffffff1673ffffffffffffffffffffffffffffffffffffffff16815260200190815260200160002060009054906101000a900473ffffffffffffffffffffffffffffffffffffffff1673ffffffffffffffffffffffffffffffffffffffff166318160ddd6040518163ffffffff1660e01b8152600401602060405180830381865afa158015610c46573d6000803e3d6000fd5b505050506040513d601f19601f82011682018060405250810190610c6a9190615252565b610d5d600160008873ffffffffffffffffffffffffffffffffffffffff1673ffffffffffffffffffffffffffffffffffffffff16815260200190815260200160002060009054906101000a900473ffffffffffffffffffffffffffffffffffffffff1673ffffffffffffffffffffffffffffffffffffffff166370a08231336040518263ffffffff1660e01b8152600401610d059190614f87565b602060405180830381865afa158015610d22573d6000803e3d6000fd5b505050506040513d601f19601f82011682018060405250810190610d469190615252565b610d4f88612b05565b614a3b90919063ffffffff16565b614a5190919063ffffffff16565b83614a6790919063ffffffff16565b9050610d863384610ab3565b610de4600360008673ffffffffffffffffffffffffffffffffffffffff1673ffffffffffffffffffffffffffffffffffffffff16815260200190815260200160002054600a610dd591906153e1565b84614a3b90919063ffffffff16565b1115610e25576040517f08c379a0000000000000000000000000000000000000000000000000000000008152600401610e1c90615478565b60405180910390fd5b610eb7610e3184613842565b610ea9600360008773ffffffffffffffffffffffffffffffffffffffff1673ffffffffffffffffffffffffffffffffffffffff16815260200190815260200160002054600a610e8091906153e1565b610e9b670de0b6b3a764000087614a3b90919063ffffffff16565b614a3b90919063ffffffff16565b614a5190919063ffffffff16565b600560003373ffffffffffffffffffffffffffffffffffffffff1673ffffffffffffffffffffffffffffffffffffffff16815260200190815260200160002060008573ffffffffffffffffffffffffffffffffffffffff1673ffffffffffffffffffffffffffffffffffffffff1681526020019081526020016000206000828254610f429190615498565b92505081905550610f5283613000565b600460008573ffffffffffffffffffffffffffffffffffffffff1673ffffffffffffffffffffffffffffffffffffffff1681526020019081526020016000206000828254610fa091906154cc565b9250508190555042600660008573ffffffffffffffffffffffffffffffffffffffff1673ffffffffffffffffffffffffffffffffffffffff16815260200190815260200160002081905550611049600360008573ffffffffffffffffffffffffffffffffffffffff1673ffffffffffffffffffffffffffffffffffffffff16815260200190815260200160002054600a61103a91906153e1565b83614a3b90919063ffffffff16565b600460008573ffffffffffffffffffffffffffffffffffffffff1673ffffffffffffffffffffffffffffffffffffffff16815260200190815260200160002060008282546110979190615498565b925050819055508273ffffffffffffffffffffffffffffffffffffffff166323b872dd3330856040518463ffffffff1660e01b81526004016110db93929190615522565b6020604051808303816000875af11580156110fa573d6000803e3d6000fd5b505050506040513d601f19601f8201168201806040525081019061111e919061556e565b50601060009054906101000a900473ffffffffffffffffffffffffffffffffffffffff1673ffffffffffffffffffffffffffffffffffffffff16639aa4986484611172600485614a5190919063ffffffff16565b6040518363ffffffff1660e01b815260040161118f92919061559b565b600060405180830381600087803b1580156111a957600080fd5b505af11580156111bd573d6000803e3d6000fd5b505050506111e860046111da600384614a3b90919063ffffffff16565b614a5190919063ffffffff16565b600260008573ffffffffffffffffffffffffffffffffffffffff1673ffffffffffffffffffffffffffffffffffffffff168152602001908152602001600020600082825461123691906154cc565b92505081905550611245614a7d565b505050565b600061128a670de0b6b3a764000061127c61126485614d49565b61126e8787610ab3565b614a3b90919063ffffffff16565b614a5190919063ffffffff16565b905092915050565b60016020528060005260406000206000915054906101000a900473ffffffffffffffffffffffffffffffffffffffff1681565b670de0b6b3a76400006112d782612e37565b10611317576040517f08c379a000000000000000000000000000000000000000000000000000000000815260040161130e90615610565b60405180910390fd5b600061132282612848565b905060008060005b600960009054906101000a900473ffffffffffffffffffffffffffffffffffffffff1673ffffffffffffffffffffffffffffffffffffffff16630842b0766040518163ffffffff1660e01b8152600401602060405180830381865afa158015611397573d6000803e3d6000fd5b505050506040513d601f19601f820116820180604052508101906113bb9190615252565b811015611a365760006113ce868461124a565b1115611a2357600960009054906101000a900473ffffffffffffffffffffffffffffffffffffffff1673ffffffffffffffffffffffffffffffffffffffff1663e468baf0826040518263ffffffff1660e01b815260040161142f9190614f5d565b602060405180830381865afa15801561144c573d6000803e3d6000fd5b505050506040513d601f19601f820116820180604052508101906114709190615645565b9150600a60009054906101000a900473ffffffffffffffffffffffffffffffffffffffff1673ffffffffffffffffffffffffffffffffffffffff16630f3aa554836115ad8761159f6114c28b8961124a565b6115916114e7670de0b6b3a76400006114d9613c74565b614a5190919063ffffffff16565b600b60009054906101000a900473ffffffffffffffffffffffffffffffffffffffff1673ffffffffffffffffffffffffffffffffffffffff166370a082318f6040518263ffffffff1660e01b81526004016115429190614f87565b602060405180830381865afa15801561155f573d6000803e3d6000fd5b505050506040513d601f19601f820116820180604052508101906115839190615252565b614a3b90919063ffffffff16565b614a3b90919063ffffffff16565b614a5190919063ffffffff16565b6001306040518563ffffffff1660e01b81526004016115cf94939291906156ad565b6020604051808303816000875af11580156115ee573d6000803e3d6000fd5b505050506040513d601f19601f820116820180604052508101906116129190615252565b92508173ffffffffffffffffffffffffffffffffffffffff1663a9059cbb33611658606461164a600589614a3b90919063ffffffff16565b614a5190919063ffffffff16565b6040518363ffffffff1660e01b815260040161167592919061559b565b6020604051808303816000875af1158015611694573d6000803e3d6000fd5b505050506040513d601f19601f820116820180604052508101906116b8919061556e565b508173ffffffffffffffffffffffffffffffffffffffff1663a9059cbb601060009054906101000a900473ffffffffffffffffffffffffffffffffffffffff1661171f6064611711600589614a3b90919063ffffffff16565b614a5190919063ffffffff16565b6040518363ffffffff1660e01b815260040161173c92919061559b565b6020604051808303816000875af115801561175b573d6000803e3d6000fd5b505050506040513d601f19601f8201168201806040525081019061177f919061556e565b5061178982613000565b600460008473ffffffffffffffffffffffffffffffffffffffff1673ffffffffffffffffffffffffffffffffffffffff16815260200190815260200160002060008282546117d791906154cc565b9250508190555042600660008473ffffffffffffffffffffffffffffffffffffffff1673ffffffffffffffffffffffffffffffffffffffff16815260200190815260200160002081905550600560008673ffffffffffffffffffffffffffffffffffffffff1673ffffffffffffffffffffffffffffffffffffffff16815260200190815260200160002060008373ffffffffffffffffffffffffffffffffffffffff1673ffffffffffffffffffffffffffffffffffffffff16815260200190815260200160002054600260008473ffffffffffffffffffffffffffffffffffffffff1673ffffffffffffffffffffffffffffffffffffffff16815260200190815260200160002060008282546118ed9190615498565b925050819055506000600560008773ffffffffffffffffffffffffffffffffffffffff1673ffffffffffffffffffffffffffffffffffffffff16815260200190815260200160002060008473ffffffffffffffffffffffffffffffffffffffff1673ffffffffffffffffffffffffffffffffffffffff1681526020019081526020016000208190555082600260008473ffffffffffffffffffffffffffffffffffffffff1673ffffffffffffffffffffffffffffffffffffffff16815260200190815260200160002060008282546119c591906154cc565b9250508190555082600460008473ffffffffffffffffffffffffffffffffffffffff1673ffffffffffffffffffffffffffffffffffffffff1681526020019081526020016000206000828254611a1b9190615498565b925050819055505b8080611a2e906156f2565b91505061132a565b5050505050565b600d60009054906101000a900473ffffffffffffffffffffffffffffffffffffffff1681565b60008060005b600960009054906101000a900473ffffffffffffffffffffffffffffffffffffffff1673ffffffffffffffffffffffffffffffffffffffff16630842b0766040518163ffffffff1660e01b8152600401602060405180830381865afa158015611ad6573d6000803e3d6000fd5b505050506040513d601f19601f82011682018060405250810190611afa9190615252565b811015611d41576000600960009054906101000a900473ffffffffffffffffffffffffffffffffffffffff1673ffffffffffffffffffffffffffffffffffffffff1663e468baf0836040518263ffffffff1660e01b8152600401611b5e9190614f5d565b602060405180830381865afa158015611b7b573d6000803e3d6000fd5b505050506040513d601f19601f82011682018060405250810190611b9f9190615645565b9050611d206ec097ce7bc90715b34b9f1000000000611d12611bc084614d49565b611d04611bcc86614702565b611cf6600160008973ffffffffffffffffffffffffffffffffffffffff1673ffffffffffffffffffffffffffffffffffffffff16815260200190815260200160002060009054906101000a900473ffffffffffffffffffffffffffffffffffffffff1673ffffffffffffffffffffffffffffffffffffffff166370a082318d6040518263ffffffff1660e01b8152600401611c679190614f87565b602060405180830381865afa158015611c84573d6000803e3d6000fd5b505050506040513d601f19601f82011682018060405250810190611ca89190615252565b600260008a73ffffffffffffffffffffffffffffffffffffffff1673ffffffffffffffffffffffffffffffffffffffff16815260200190815260200160002054614a3b90919063ffffffff16565b614a3b90919063ffffffff16565b614a3b90919063ffffffff16565b614a5190919063ffffffff16565b83611d2b91906154cc565b9250508080611d39906156f2565b915050611a69565b5080915050919050565b600860009054906101000a900473ffffffffffffffffffffffffffffffffffffffff1673ffffffffffffffffffffffffffffffffffffffff163373ffffffffffffffffffffffffffffffffffffffff1614611ddb576040517f08c379a0000000000000000000000000000000000000000000000000000000008152600401611dd29061521d565b60405180910390fd5b600073ffffffffffffffffffffffffffffffffffffffff16600160008473ffffffffffffffffffffffffffffffffffffffff1673ffffffffffffffffffffffffffffffffffffffff16815260200190815260200160002060009054906101000a900473ffffffffffffffffffffffffffffffffffffffff1673ffffffffffffffffffffffffffffffffffffffff1614611ea9576040517f08c379a0000000000000000000000000000000000000000000000000000000008152600401611ea09061521d565b60405180910390fd5b80600160008473ffffffffffffffffffffffffffffffffffffffff1673ffffffffffffffffffffffffffffffffffffffff16815260200190815260200160002060006101000a81548173ffffffffffffffffffffffffffffffffffffffff021916908373ffffffffffffffffffffffffffffffffffffffff16021790555060016000808473ffffffffffffffffffffffffffffffffffffffff1673ffffffffffffffffffffffffffffffffffffffff16815260200190815260200160002060006101000a81548160ff0219169083151502179055506120008273ffffffffffffffffffffffffffffffffffffffff1663313ce5676040518163ffffffff1660e01b8152600401602060405180830381865afa158015611fcc573d6000803e3d6000fd5b505050506040513d601f19601f82011682018060405250810190611ff09190615252565b6012614a6790919063ffffffff16565b600360008473ffffffffffffffffffffffffffffffffffffffff1673ffffffffffffffffffffffffffffffffffffffff168152602001908152602001600020819055508173ffffffffffffffffffffffffffffffffffffffff1663095ea7b3600a60009054906101000a900473ffffffffffffffffffffffffffffffffffffffff167fffffffffffffffffffffffffffffffffffffffffffffffffffffffffffffffff6040518363ffffffff1660e01b81526004016120c092919061559b565b6020604051808303816000875af11580156120df573d6000803e3d6000fd5b505050506040513d601f19601f82011682018060405250810190612103919061556e565b505050565b60075481565b61216c600360008473ffffffffffffffffffffffffffffffffffffffff1673ffffffffffffffffffffffffffffffffffffffff16815260200190815260200160002054600a61215d91906153e1565b82614a3b90919063ffffffff16565b61217633846139f2565b10156121b7576040517f08c379a00000000000000000000000000000000000000000000000000000000081526004016121ae90615787565b60405180910390fd5b6121c082613000565b600460008473ffffffffffffffffffffffffffffffffffffffff1673ffffffffffffffffffffffffffffffffffffffff168152602001908152602001600020600082825461220e91906154cc565b9250508190555042600660008473ffffffffffffffffffffffffffffffffffffffff1673ffffffffffffffffffffffffffffffffffffffff168152602001908152602001600020819055506122b7600360008473ffffffffffffffffffffffffffffffffffffffff1673ffffffffffffffffffffffffffffffffffffffff16815260200190815260200160002054600a6122a891906153e1565b82614a3b90919063ffffffff16565b600460008473ffffffffffffffffffffffffffffffffffffffff1673ffffffffffffffffffffffffffffffffffffffff168152602001908152602001600020600082825461230591906154cc565b9250508190555061239e61231883613842565b612390612381600360008773ffffffffffffffffffffffffffffffffffffffff1673ffffffffffffffffffffffffffffffffffffffff16815260200190815260200160002054600a61236a91906153e1565b670de0b6b3a7640000614a3b90919063ffffffff16565b84614a3b90919063ffffffff16565b614a5190919063ffffffff16565b600560003373ffffffffffffffffffffffffffffffffffffffff1673ffffffffffffffffffffffffffffffffffffffff16815260200190815260200160002060008473ffffffffffffffffffffffffffffffffffffffff1673ffffffffffffffffffffffffffffffffffffffff168152602001908152602001600020600082825461242991906154cc565b925050819055508173ffffffffffffffffffffffffffffffffffffffff1663a9059cbb33836040518363ffffffff1660e01b815260040161246b92919061559b565b6020604051808303816000875af115801561248a573d6000803e3d6000fd5b505050506040513d601f19601f820116820180604052508101906124ae919061556e565b505050565b600860009054906101000a900473ffffffffffffffffffffffffffffffffffffffff1681565b6000600b60009054906101000a900473ffffffffffffffffffffffffffffffffffffffff1673ffffffffffffffffffffffffffffffffffffffff16639dc29fac33846040518363ffffffff1660e01b815260040161253892919061559b565b600060405180830381600087803b15801561255257600080fd5b505af1158015612566573d6000803e3d6000fd5b5050505060006125a0670de0b6b3a7640000612592612583613c74565b86614a3b90919063ffffffff16565b614a5190919063ffffffff16565b90506000600a60009054906101000a900473ffffffffffffffffffffffffffffffffffffffff1673ffffffffffffffffffffffffffffffffffffffff16630f3aa554600d60009054906101000a900473ffffffffffffffffffffffffffffffffffffffff16846001336040518563ffffffff1660e01b815260040161262894939291906156ad565b6020604051808303816000875af1158015612647573d6000803e3d6000fd5b505050506040513d601f19601f8201168201806040525081019061266b9190615252565b9050816007600082825461267f9190615498565b92505081905550670de0b6b3a764000061269833612e37565b10156126d9576040517f08c379a00000000000000000000000000000000000000000000000000000000081526004016126d090615819565b60405180910390fd5b8092505050919050565b600860009054906101000a900473ffffffffffffffffffffffffffffffffffffffff1673ffffffffffffffffffffffffffffffffffffffff163373ffffffffffffffffffffffffffffffffffffffff1614612773576040517f08c379a000000000000000000000000000000000000000000000000000000000815260040161276a9061521d565b60405180910390fd5b600073ffffffffffffffffffffffffffffffffffffffff16600b60009054906101000a900473ffffffffffffffffffffffffffffffffffffffff1673ffffffffffffffffffffffffffffffffffffffff1614612804576040517f08c379a00000000000000000000000000000000000000000000000000000000081526004016127fb90615885565b60405180910390fd5b80600b60006101000a81548173ffffffffffffffffffffffffffffffffffffffff021916908373ffffffffffffffffffffffffffffffffffffffff16021790555050565b60008060005b600960009054906101000a900473ffffffffffffffffffffffffffffffffffffffff1673ffffffffffffffffffffffffffffffffffffffff16630842b0766040518163ffffffff1660e01b8152600401602060405180830381865afa1580156128bb573d6000803e3d6000fd5b505050506040513d601f19601f820116820180604052508101906128df9190615252565b811015612a7a57612a5a670de0b6b3a7640000612a4c612999600960009054906101000a900473ffffffffffffffffffffffffffffffffffffffff1673ffffffffffffffffffffffffffffffffffffffff1663e468baf0866040518263ffffffff1660e01b81526004016129539190614f5d565b602060405180830381865afa158015612970573d6000803e3d6000fd5b505050506040513d601f19601f820116820180604052508101906129949190615645565b614d49565b612a3e88600960009054906101000a900473ffffffffffffffffffffffffffffffffffffffff1673ffffffffffffffffffffffffffffffffffffffff1663e468baf0886040518263ffffffff1660e01b81526004016129f89190614f5d565b602060405180830381865afa158015612a15573d6000803e3d6000fd5b505050506040513d601f19601f82011682018060405250810190612a399190615645565b610ab3565b614a3b90919063ffffffff16565b614a5190919063ffffffff16565b82612a6591906154cc565b91508080612a72906156f2565b91505061284e565b5080915050919050565b600e5481565b6005602052816000526040600020602052806000526040600020600091509150505481565b601160009054906101000a900473ffffffffffffffffffffffffffffffffffffffff1681565b60046020528060005260406000206000915090505481565b60026020528060005260406000206000915090505481565b6000612c2f612be1600360008573ffffffffffffffffffffffffffffffffffffffff1673ffffffffffffffffffffffffffffffffffffffff16815260200190815260200160002054600a612b5991906153e1565b8473ffffffffffffffffffffffffffffffffffffffff166370a08231306040518263ffffffff1660e01b8152600401612b929190614f87565b602060405180830381865afa158015612baf573d6000803e3d6000fd5b505050506040513d601f19601f82011682018060405250810190612bd39190615252565b614a3b90919063ffffffff16565b600260008573ffffffffffffffffffffffffffffffffffffffff1673ffffffffffffffffffffffffffffffffffffffff16815260200190815260200160002054614a6790919063ffffffff16565b9050919050565b612ca681612ca1600360008573ffffffffffffffffffffffffffffffffffffffff1673ffffffffffffffffffffffffffffffffffffffff16815260200190815260200160002054600a612c8991906153e1565b612c933386610ab3565b614a5190919063ffffffff16565b610b94565b50565b6000612d1f600260008473ffffffffffffffffffffffffffffffffffffffff1673ffffffffffffffffffffffffffffffffffffffff16815260200190815260200160002054612d11670de0b6b3a7640000612d0386612b05565b614a3b90919063ffffffff16565b614a5190919063ffffffff16565b9050919050565b600860009054906101000a900473ffffffffffffffffffffffffffffffffffffffff1673ffffffffffffffffffffffffffffffffffffffff163373ffffffffffffffffffffffffffffffffffffffff1614612db6576040517f08c379a0000000000000000000000000000000000000000000000000000000008152600401612dad9061521d565b60405180910390fd5b605a8111158015612dc8575060328110155b612e07576040517f08c379a0000000000000000000000000000000000000000000000000000000008152600401612dfe906158f1565b60405180910390fd5b80600e8190555050565b600f60009054906101000a900473ffffffffffffffffffffffffffffffffffffffff1681565b600080612e4383612848565b1415612e5a5768056bc75e2d631000009050612ef8565b68056bc75e2d63100000612ea1612e7084612848565b612e93670de0b6b3a7640000612e8587612efd565b614a3b90919063ffffffff16565b614a5190919063ffffffff16565b1115612eb85768056bc75e2d631000009050612ef8565b612ef5612ec483612848565b612ee7670de0b6b3a7640000612ed986612efd565b614a3b90919063ffffffff16565b614a5190919063ffffffff16565b90505b919050565b600080612ff56064612fe7600e54612fd9612f16614296565b612fcb612f21613c74565b600b60009054906101000a900473ffffffffffffffffffffffffffffffffffffffff1673ffffffffffffffffffffffffffffffffffffffff166370a082318c6040518263ffffffff1660e01b8152600401612f7c9190614f87565b602060405180830381865afa158015612f99573d6000803e3d6000fd5b505050506040513d601f19601f82011682018060405250810190612fbd9190615252565b614a3b90919063ffffffff16565b614a3b90919063ffffffff16565b614a3b90919063ffffffff16565b614a5190919063ffffffff16565b905080915050919050565b600080613055600660008573ffffffffffffffffffffffffffffffffffffffff1673ffffffffffffffffffffffffffffffffffffffff1681526020019081526020016000205442614a6790919063ffffffff16565b905060006130c16301e133806130b384600460008973ffffffffffffffffffffffffffffffffffffffff1673ffffffffffffffffffffffffffffffffffffffff16815260200190815260200160002054614a3b90919063ffffffff16565b614a5190919063ffffffff16565b90508092505050919050565b60006130f26130db83612848565b6130e484612efd565b614a6790919063ffffffff16565b9050919050565b600f60009054906101000a900473ffffffffffffffffffffffffffffffffffffffff1673ffffffffffffffffffffffffffffffffffffffff1663ef5cfb8c336040518263ffffffff1660e01b81526004016131549190614f87565b600060405180830381600087803b15801561316e57600080fd5b505af1158015613182573d6000803e3d6000fd5b5050505060008190506131e9600360008573ffffffffffffffffffffffffffffffffffffffff1673ffffffffffffffffffffffffffffffffffffffff16815260200190815260200160002054600a6131da91906153e1565b83614a3b90919063ffffffff16565b9150600115156000808573ffffffffffffffffffffffffffffffffffffffff1673ffffffffffffffffffffffffffffffffffffffff16815260200190815260200160002060009054906101000a900460ff1615151461327d576040517f08c379a00000000000000000000000000000000000000000000000000000000081526004016132749061595d565b60405180910390fd5b60006132b461328b85614702565b6132a6670de0b6b3a764000086614a3b90919063ffffffff16565b614a5190919063ffffffff16565b90506132bf84613000565b600460008673ffffffffffffffffffffffffffffffffffffffff1673ffffffffffffffffffffffffffffffffffffffff168152602001908152602001600020600082825461330d91906154cc565b9250508190555042600660008673ffffffffffffffffffffffffffffffffffffffff1673ffffffffffffffffffffffffffffffffffffffff168152602001908152602001600020819055508373ffffffffffffffffffffffffffffffffffffffff166323b872dd3330856040518463ffffffff1660e01b815260040161339593929190615522565b6020604051808303816000875af11580156133b4573d6000803e3d6000fd5b505050506040513d601f19601f820116820180604052508101906133d8919061556e565b50600160008573ffffffffffffffffffffffffffffffffffffffff1673ffffffffffffffffffffffffffffffffffffffff16815260200190815260200160002060009054906101000a900473ffffffffffffffffffffffffffffffffffffffff1673ffffffffffffffffffffffffffffffffffffffff166340c10f1933836040518363ffffffff1660e01b815260040161347392919061559b565b600060405180830381600087803b15801561348d57600080fd5b505af11580156134a1573d6000803e3d6000fd5b5050505082600260008673ffffffffffffffffffffffffffffffffffffffff1673ffffffffffffffffffffffffffffffffffffffff16815260200190815260200160002060008282546134f491906154cc565b9250508190555050505050565b6000600754111561351557613514614a7d565b5b8173ffffffffffffffffffffffffffffffffffffffff166323b872dd3330846040518463ffffffff1660e01b815260040161355293929190615522565b6020604051808303816000875af1158015613571573d6000803e3d6000fd5b505050506040513d601f19601f82011682018060405250810190613595919061556e565b50600a60009054906101000a900473ffffffffffffffffffffffffffffffffffffffff1673ffffffffffffffffffffffffffffffffffffffff1663364e231183836001806040518563ffffffff1660e01b81526004016135f8949392919061597d565b6020604051808303816000875af1158015613617573d6000803e3d6000fd5b505050506040513d601f19601f8201168201806040525081019061363b9190615252565b9050600061367361364a613c74565b613665670de0b6b3a764000085614a3b90919063ffffffff16565b614a5190919063ffffffff16565b9050600b60009054906101000a900473ffffffffffffffffffffffffffffffffffffffff1673ffffffffffffffffffffffffffffffffffffffff166340c10f1933836040518363ffffffff1660e01b81526004016136d292919061559b565b600060405180830381600087803b1580156136ec57600080fd5b505af1158015613700573d6000803e3d6000fd5b50505050816007600082825461371691906154cc565b92505081905550505050565b600860009054906101000a900473ffffffffffffffffffffffffffffffffffffffff1673ffffffffffffffffffffffffffffffffffffffff163373ffffffffffffffffffffffffffffffffffffffff16146137b2576040517f08c379a00000000000000000000000000000000000000000000000000000000081526004016137a99061521d565b60405180910390fd5b80600860006101000a81548173ffffffffffffffffffffffffffffffffffffffff021916908373ffffffffffffffffffffffffffffffffffffffff16021790555050565b600b60009054906101000a900473ffffffffffffffffffffffffffffffffffffffff1681565b600c60009054906101000a900473ffffffffffffffffffffffffffffffffffffffff1681565b60008061384e83612b05565b141561386457670de0b6b3a764000090506138f5565b6138f261387083612b05565b6138e4670de0b6b3a76400006138d661388887613000565b600460008973ffffffffffffffffffffffffffffffffffffffff1673ffffffffffffffffffffffffffffffffffffffff16815260200190815260200160002054614e1390919063ffffffff16565b614a3b90919063ffffffff16565b614a5190919063ffffffff16565b90505b919050565b600061390533612848565b14613945576040517f08c379a000000000000000000000000000000000000000000000000000000000815260040161393c90615a0e565b60405180910390fd5b6000600b60009054906101000a900473ffffffffffffffffffffffffffffffffffffffff1673ffffffffffffffffffffffffffffffffffffffff166370a08231336040518263ffffffff1660e01b81526004016139a29190614f87565b602060405180830381865afa1580156139bf573d6000803e3d6000fd5b505050506040513d601f19601f820116820180604052508101906139e39190615252565b90506139ee816124d9565b5050565b6000613a4b613a0083614d49565b613a3d670de0b6b3a7640000613a2f613a1888612848565b613a2189612efd565b614a6790919063ffffffff16565b614a3b90919063ffffffff16565b614a5190919063ffffffff16565b905092915050565b60006020528060005260406000206000915054906101000a900460ff1681565b60008060005b600960009054906101000a900473ffffffffffffffffffffffffffffffffffffffff1673ffffffffffffffffffffffffffffffffffffffff16630842b0766040518163ffffffff1660e01b8152600401602060405180830381865afa158015613ae6573d6000803e3d6000fd5b505050506040513d601f19601f82011682018060405250810190613b0a9190615252565b811015613c46576000600960009054906101000a900473ffffffffffffffffffffffffffffffffffffffff1673ffffffffffffffffffffffffffffffffffffffff1663e468baf0836040518263ffffffff1660e01b8152600401613b6e9190614f5d565b602060405180830381865afa158015613b8b573d6000803e3d6000fd5b505050506040513d601f19601f82011682018060405250810190613baf9190615645565b9050613c25670de0b6b3a7640000613c17613bc984614d49565b600260008673ffffffffffffffffffffffffffffffffffffffff1673ffffffffffffffffffffffffffffffffffffffff16815260200190815260200160002054614a3b90919063ffffffff16565b614a5190919063ffffffff16565b83613c3091906154cc565b9250508080613c3e906156f2565b915050613a79565b508091505090565b600a60009054906101000a900473ffffffffffffffffffffffffffffffffffffffff1681565b600080600b60009054906101000a900473ffffffffffffffffffffffffffffffffffffffff1673ffffffffffffffffffffffffffffffffffffffff166318160ddd6040518163ffffffff1660e01b8152600401602060405180830381865afa158015613ce4573d6000803e3d6000fd5b505050506040513d601f19601f82011682018060405250810190613d089190615252565b1415613d1e57670de0b6b3a76400009050613de0565b613ddd600b60009054906101000a900473ffffffffffffffffffffffffffffffffffffffff1673ffffffffffffffffffffffffffffffffffffffff166318160ddd6040518163ffffffff1660e01b8152600401602060405180830381865afa158015613d8e573d6000803e3d6000fd5b505050506040513d601f19601f82011682018060405250810190613db29190615252565b613dcf670de0b6b3a7640000600754614a3b90919063ffffffff16565b614a5190919063ffffffff16565b90505b90565b60036020528060005260406000206000915090505481565b60066020528060005260406000206000915090505481565b600f60009054906101000a900473ffffffffffffffffffffffffffffffffffffffff1673ffffffffffffffffffffffffffffffffffffffff1663ef5cfb8c336040518263ffffffff1660e01b8152600401613e6e9190614f87565b600060405180830381600087803b158015613e8857600080fd5b505af1158015613e9c573d6000803e3d6000fd5b505050506000613ed7670de0b6b3a7640000613ec9613eba86614702565b85614a3b90919063ffffffff16565b614a5190919063ffffffff16565b9050613fb0600360008573ffffffffffffffffffffffffffffffffffffffff1673ffffffffffffffffffffffffffffffffffffffff16815260200190815260200160002054600a613f2891906153e1565b8473ffffffffffffffffffffffffffffffffffffffff166370a08231306040518263ffffffff1660e01b8152600401613f619190614f87565b602060405180830381865afa158015613f7e573d6000803e3d6000fd5b505050506040513d601f19601f82011682018060405250810190613fa29190615252565b614a3b90919063ffffffff16565b8111613ff1576040517f08c379a0000000000000000000000000000000000000000000000000000000008152600401613fe890615aa0565b60405180910390fd5b600160008473ffffffffffffffffffffffffffffffffffffffff1673ffffffffffffffffffffffffffffffffffffffff16815260200190815260200160002060009054906101000a900473ffffffffffffffffffffffffffffffffffffffff1673ffffffffffffffffffffffffffffffffffffffff16639dc29fac33846040518363ffffffff1660e01b815260040161408b92919061559b565b600060405180830381600087803b1580156140a557600080fd5b505af11580156140b9573d6000803e3d6000fd5b5050505080600260008573ffffffffffffffffffffffffffffffffffffffff1673ffffffffffffffffffffffffffffffffffffffff168152602001908152602001600020600082825461410c9190615498565b9250508190555061411c83613000565b600460008573ffffffffffffffffffffffffffffffffffffffff1673ffffffffffffffffffffffffffffffffffffffff168152602001908152602001600020600082825461416a91906154cc565b9250508190555042600660008573ffffffffffffffffffffffffffffffffffffffff1673ffffffffffffffffffffffffffffffffffffffff168152602001908152602001600020819055508273ffffffffffffffffffffffffffffffffffffffff1663a9059cbb33614230600360008873ffffffffffffffffffffffffffffffffffffffff1673ffffffffffffffffffffffffffffffffffffffff16815260200190815260200160002054600a61422191906153e1565b85614a5190919063ffffffff16565b6040518363ffffffff1660e01b815260040161424d92919061559b565b6020604051808303816000875af115801561426c573d6000803e3d6000fd5b505050506040513d601f19601f82011682018060405250810190614290919061556e565b50505050565b60008060005b600960009054906101000a900473ffffffffffffffffffffffffffffffffffffffff1673ffffffffffffffffffffffffffffffffffffffff16630842b0766040518163ffffffff1660e01b8152600401602060405180830381865afa158015614309573d6000803e3d6000fd5b505050506040513d601f19601f8201168201806040525081019061432d9190615252565b8110156146385761461861456660036000600960009054906101000a900473ffffffffffffffffffffffffffffffffffffffff1673ffffffffffffffffffffffffffffffffffffffff1663e468baf0866040518263ffffffff1660e01b81526004016143999190614f5d565b602060405180830381865afa1580156143b6573d6000803e3d6000fd5b505050506040513d601f19601f820116820180604052508101906143da9190615645565b73ffffffffffffffffffffffffffffffffffffffff1673ffffffffffffffffffffffffffffffffffffffff16815260200190815260200160002054600a61442191906153e1565b600960009054906101000a900473ffffffffffffffffffffffffffffffffffffffff1673ffffffffffffffffffffffffffffffffffffffff1663e468baf0856040518263ffffffff1660e01b815260040161447c9190614f5d565b602060405180830381865afa158015614499573d6000803e3d6000fd5b505050506040513d601f19601f820116820180604052508101906144bd9190615645565b73ffffffffffffffffffffffffffffffffffffffff166370a08231600960009054906101000a900473ffffffffffffffffffffffffffffffffffffffff166040518263ffffffff1660e01b81526004016145179190614f87565b602060405180830381865afa158015614534573d6000803e3d6000fd5b505050506040513d601f19601f820116820180604052508101906145589190615252565b614a3b90919063ffffffff16565b61460a600960009054906101000a900473ffffffffffffffffffffffffffffffffffffffff1673ffffffffffffffffffffffffffffffffffffffff1663e468baf0856040518263ffffffff1660e01b81526004016145c49190614f5d565b602060405180830381865afa1580156145e1573d6000803e3d6000fd5b505050506040513d601f19601f820116820180604052508101906146059190615645565b614d49565b614a3b90919063ffffffff16565b8261462391906154cc565b91508080614630906156f2565b91505061429c565b5060006146f8600c60009054906101000a900473ffffffffffffffffffffffffffffffffffffffff1673ffffffffffffffffffffffffffffffffffffffff166318160ddd6040518163ffffffff1660e01b8152600401602060405180830381865afa1580156146ab573d6000803e3d6000fd5b505050506040513d601f19601f820116820180604052508101906146cf9190615252565b6146ea670de0b6b3a764000085614a3b90919063ffffffff16565b614a5190919063ffffffff16565b9050809250505090565b600080600160008473ffffffffffffffffffffffffffffffffffffffff1673ffffffffffffffffffffffffffffffffffffffff16815260200190815260200160002060009054906101000a900473ffffffffffffffffffffffffffffffffffffffff1673ffffffffffffffffffffffffffffffffffffffff166318160ddd6040518163ffffffff1660e01b8152600401602060405180830381865afa1580156147af573d6000803e3d6000fd5b505050506040513d601f19601f820116820180604052508101906147d39190615252565b14156147e957670de0b6b3a76400009050614925565b614922600160008473ffffffffffffffffffffffffffffffffffffffff1673ffffffffffffffffffffffffffffffffffffffff16815260200190815260200160002060009054906101000a900473ffffffffffffffffffffffffffffffffffffffff1673ffffffffffffffffffffffffffffffffffffffff166318160ddd6040518163ffffffff1660e01b8152600401602060405180830381865afa158015614896573d6000803e3d6000fd5b505050506040513d601f19601f820116820180604052508101906148ba9190615252565b614914670de0b6b3a7640000600260008773ffffffffffffffffffffffffffffffffffffffff1673ffffffffffffffffffffffffffffffffffffffff16815260200190815260200160002054614a3b90919063ffffffff16565b614a5190919063ffffffff16565b90505b919050565b6000600160008373ffffffffffffffffffffffffffffffffffffffff1673ffffffffffffffffffffffffffffffffffffffff16815260200190815260200160002060009054906101000a900473ffffffffffffffffffffffffffffffffffffffff1673ffffffffffffffffffffffffffffffffffffffff166370a08231336040518263ffffffff1660e01b81526004016149c49190614f87565b602060405180830381865afa1580156149e1573d6000803e3d6000fd5b505050506040513d601f19601f82011682018060405250810190614a059190615252565b9050614a118282613e13565b5050565b600960009054906101000a900473ffffffffffffffffffffffffffffffffffffffff1681565b60008183614a499190615ac0565b905092915050565b60008183614a5f9190615b49565b905092915050565b60008183614a759190615498565b905092915050565b6000600d60009054906101000a900473ffffffffffffffffffffffffffffffffffffffff1673ffffffffffffffffffffffffffffffffffffffff166370a08231306040518263ffffffff1660e01b8152600401614ada9190614f87565b602060405180830381865afa158015614af7573d6000803e3d6000fd5b505050506040513d601f19601f82011682018060405250810190614b1b9190615252565b9050600a60009054906101000a900473ffffffffffffffffffffffffffffffffffffffff1673ffffffffffffffffffffffffffffffffffffffff166330b7000260008060018060018060006040518863ffffffff1660e01b8152600401614b889796959493929190615b7a565b600060405180830381600087803b158015614ba257600080fd5b505af1158015614bb6573d6000803e3d6000fd5b50505050600a60009054906101000a900473ffffffffffffffffffffffffffffffffffffffff1673ffffffffffffffffffffffffffffffffffffffff1663364e2311600d60009054906101000a900473ffffffffffffffffffffffffffffffffffffffff16614cc984600d60009054906101000a900473ffffffffffffffffffffffffffffffffffffffff1673ffffffffffffffffffffffffffffffffffffffff166370a08231306040518263ffffffff1660e01b8152600401614c7a9190614f87565b602060405180830381865afa158015614c97573d6000803e3d6000fd5b505050506040513d601f19601f82011682018060405250810190614cbb9190615252565b614a6790919063ffffffff16565b6001806040518563ffffffff1660e01b8152600401614ceb949392919061597d565b6020604051808303816000875af1158015614d0a573d6000803e3d6000fd5b505050506040513d601f19601f82011682018060405250810190614d2e9190615252565b60076000828254614d3f91906154cc565b9250508190555050565b600080601160009054906101000a900473ffffffffffffffffffffffffffffffffffffffff1673ffffffffffffffffffffffffffffffffffffffff16632fc3a70a846000600160006040518563ffffffff1660e01b8152600401614db09493929190615be9565b602060405180830381865afa158015614dcd573d6000803e3d6000fd5b505050506040513d601f19601f82011682018060405250810190614df19190615252565b9050614e0b64e8d4a5100082614a5190919063ffffffff16565b915050919050565b60008183614e2191906154cc565b905092915050565b600080fd5b600073ffffffffffffffffffffffffffffffffffffffff82169050919050565b6000614e5982614e2e565b9050919050565b614e6981614e4e565b8114614e7457600080fd5b50565b600081359050614e8681614e60565b92915050565b60008115159050919050565b614ea181614e8c565b8114614eac57600080fd5b50565b600081359050614ebe81614e98565b92915050565b60008060408385031215614edb57614eda614e29565b5b6000614ee985828601614e77565b9250506020614efa85828601614eaf565b9150509250929050565b60008060408385031215614f1b57614f1a614e29565b5b6000614f2985828601614e77565b9250506020614f3a85828601614e77565b9150509250929050565b6000819050919050565b614f5781614f44565b82525050565b6000602082019050614f726000830184614f4e565b92915050565b614f8181614e4e565b82525050565b6000602082019050614f9c6000830184614f78565b92915050565b614fab81614f44565b8114614fb657600080fd5b50565b600081359050614fc881614fa2565b92915050565b60008060408385031215614fe557614fe4614e29565b5b6000614ff385828601614e77565b925050602061500485828601614fb9565b9150509250929050565b60006020828403121561502457615023614e29565b5b600061503284828501614e77565b91505092915050565b60006020828403121561505157615050614e29565b5b600061505f84828501614fb9565b91505092915050565b6000819050919050565b600061508d61508861508384614e2e565b615068565b614e2e565b9050919050565b600061509f82615072565b9050919050565b60006150b182615094565b9050919050565b6150c1816150a6565b82525050565b60006020820190506150dc60008301846150b8565b92915050565b60006150ed82615094565b9050919050565b6150fd816150e2565b82525050565b600060208201905061511860008301846150f4565b92915050565b61512781614e8c565b82525050565b6000602082019050615142600083018461511e565b92915050565b600061515382615094565b9050919050565b61516381615148565b82525050565b600060208201905061517e600083018461515a565b92915050565b600061518f82615094565b9050919050565b61519f81615184565b82525050565b60006020820190506151ba6000830184615196565b92915050565b600082825260208201905092915050565b7f21476f7665726e616e6365000000000000000000000000000000000000000000600082015250565b6000615207600b836151c0565b9150615212826151d1565b602082019050919050565b60006020820190508181036000830152615236816151fa565b9050919050565b60008151905061524c81614fa2565b92915050565b60006020828403121561526857615267614e29565b5b60006152768482850161523d565b91505092915050565b7f4e487b7100000000000000000000000000000000000000000000000000000000600052601160045260246000fd5b60008160011c9050919050565b6000808291508390505b6001851115615305578086048111156152e1576152e061527f565b5b60018516156152f05780820291505b80810290506152fe856152ae565b94506152c5565b94509492505050565b60008261531e57600190506153da565b8161532c57600090506153da565b8160018114615342576002811461534c5761537b565b60019150506153da565b60ff84111561535e5761535d61527f565b5b8360020a9150848211156153755761537461527f565b5b506153da565b5060208310610133831016604e8410600b84101617156153b05782820a9050838111156153ab576153aa61527f565b5b6153da565b6153bd84848460016152bb565b925090508184048111156153d4576153d361527f565b5b81810290505b9392505050565b60006153ec82614f44565b91506153f783614f44565b92506154247fffffffffffffffffffffffffffffffffffffffffffffffffffffffffffffffff848461530e565b905092915050565b7f5265706179696e6720746f6f206d756368000000000000000000000000000000600082015250565b60006154626011836151c0565b915061546d8261542c565b602082019050919050565b6000602082019050818103600083015261549181615455565b9050919050565b60006154a382614f44565b91506154ae83614f44565b9250828210156154c1576154c061527f565b5b828203905092915050565b60006154d782614f44565b91506154e283614f44565b9250827fffffffffffffffffffffffffffffffffffffffffffffffffffffffffffffffff038211156155175761551661527f565b5b828201905092915050565b60006060820190506155376000830186614f78565b6155446020830185614f78565b6155516040830184614f4e565b949350505050565b60008151905061556881614e98565b92915050565b60006020828403121561558457615583614e29565b5b600061559284828501615559565b91505092915050565b60006040820190506155b06000830185614f78565b6155bd6020830184614f4e565b9392505050565b7f4163636f756e74206865616c7468790000000000000000000000000000000000600082015250565b60006155fa600f836151c0565b9150615605826155c4565b602082019050919050565b60006020820190508181036000830152615629816155ed565b9050919050565b60008151905061563f81614e60565b92915050565b60006020828403121561565b5761565a614e29565b5b600061566984828501615630565b91505092915050565b6000819050919050565b600061569761569261568d84615672565b615068565b614f44565b9050919050565b6156a78161567c565b82525050565b60006080820190506156c26000830187614f78565b6156cf6020830186614f4e565b6156dc604083018561569e565b6156e96060830184614f78565b95945050505050565b60006156fd82614f44565b91507fffffffffffffffffffffffffffffffffffffffffffffffffffffffffffffffff8214156157305761572f61527f565b5b600182019050919050565b7f4e6f7420656e6f75676820626f72726f77696e6720706f776572000000000000600082015250565b6000615771601a836151c0565b915061577c8261573b565b602082019050919050565b600060208201905081810360008301526157a081615764565b9050919050565b7f4163636f756e74206e6f74206865616c7468792061667465722077697468647260008201527f6177000000000000000000000000000000000000000000000000000000000000602082015250565b60006158036022836151c0565b915061580e826157a7565b604082019050919050565b60006020820190508181036000830152615832816157f6565b9050919050565b7f474c5020536861726520616c7265616479207365742100000000000000000000600082015250565b600061586f6016836151c0565b915061587a82615839565b602082019050919050565b6000602082019050818103600083015261589e81615862565b9050919050565b7f496e76616c6964204c5456000000000000000000000000000000000000000000600082015250565b60006158db600b836151c0565b91506158e6826158a5565b602082019050919050565b6000602082019050818103600083015261590a816158ce565b9050919050565b7f546f6b656e206e6f7420616c6c6f776564000000000000000000000000000000600082015250565b60006159476011836151c0565b915061595282615911565b602082019050919050565b600060208201905081810360008301526159768161593a565b9050919050565b60006080820190506159926000830187614f78565b61599f6020830186614f4e565b6159ac604083018561569e565b6159b9606083018461569e565b95945050505050565b7f4163636f756e7420686173206465627400000000000000000000000000000000600082015250565b60006159f86010836151c0565b9150615a03826159c2565b602082019050919050565b60006020820190508181036000830152615a27816159eb565b9050919050565b7f546f6f206d75636820626f72726f7765642066726f6d206c697175696469747960008201527f20746f2077697468647261770000000000000000000000000000000000000000602082015250565b6000615a8a602c836151c0565b9150615a9582615a2e565b604082019050919050565b60006020820190508181036000830152615ab981615a7d565b9050919050565b6000615acb82614f44565b9150615ad683614f44565b9250817fffffffffffffffffffffffffffffffffffffffffffffffffffffffffffffffff0483118215151615615b0f57615b0e61527f565b5b828202905092915050565b7f4e487b7100000000000000000000000000000000000000000000000000000000600052601260045260246000fd5b6000615b5482614f44565b9150615b5f83614f44565b925082615b6f57615b6e615b1a565b5b828204905092915050565b600060e082019050615b8f600083018a61511e565b615b9c602083018961511e565b615ba9604083018861511e565b615bb6606083018761511e565b615bc3608083018661511e565b615bd060a083018561511e565b615bdd60c083018461511e565b98975050505050505050565b6000608082019050615bfe6000830187614f78565b615c0b602083018661511e565b615c18604083018561511e565b615c25606083018461511e565b9594505050505056fea26469706673582212209db690f049d369ead5e4807664c5856b6b92a525dea6f148bb3aed45e1584aa364736f6c634300080a0033",
  "devdoc": {
    "kind": "dev",
    "methods": {},
    "version": 1
  },
  "userdoc": {
    "kind": "user",
    "methods": {},
    "version": 1
  },
  "storageLayout": {
    "storage": [
      {
        "astId": 492,
        "contract": "contracts/Protocol.sol:Protocol",
        "label": "borrowToken",
        "offset": 0,
        "slot": "0",
        "type": "t_mapping(t_address,t_bool)"
      },
      {
        "astId": 496,
        "contract": "contracts/Protocol.sol:Protocol",
        "label": "borrowShare",
        "offset": 0,
        "slot": "1",
        "type": "t_mapping(t_address,t_address)"
      },
      {
        "astId": 500,
        "contract": "contracts/Protocol.sol:Protocol",
        "label": "borrowTokenBalance",
        "offset": 0,
        "slot": "2",
        "type": "t_mapping(t_address,t_uint256)"
      },
      {
        "astId": 504,
        "contract": "contracts/Protocol.sol:Protocol",
        "label": "decimalMultiplier",
        "offset": 0,
        "slot": "3",
        "type": "t_mapping(t_address,t_uint256)"
      },
      {
        "astId": 508,
        "contract": "contracts/Protocol.sol:Protocol",
        "label": "tokenDebt",
        "offset": 0,
        "slot": "4",
        "type": "t_mapping(t_address,t_uint256)"
      },
      {
        "astId": 514,
        "contract": "contracts/Protocol.sol:Protocol",
        "label": "borrowedAmount",
        "offset": 0,
        "slot": "5",
        "type": "t_mapping(t_address,t_mapping(t_address,t_uint256))"
      },
      {
        "astId": 518,
        "contract": "contracts/Protocol.sol:Protocol",
        "label": "interestCheckpoint",
        "offset": 0,
        "slot": "6",
        "type": "t_mapping(t_address,t_uint256)"
      },
      {
        "astId": 520,
        "contract": "contracts/Protocol.sol:Protocol",
        "label": "totalCollateral",
        "offset": 0,
        "slot": "7",
        "type": "t_uint256"
      },
      {
        "astId": 522,
        "contract": "contracts/Protocol.sol:Protocol",
        "label": "governance",
        "offset": 0,
        "slot": "8",
        "type": "t_address"
      },
      {
        "astId": 525,
        "contract": "contracts/Protocol.sol:Protocol",
        "label": "vault",
        "offset": 0,
        "slot": "9",
        "type": "t_contract(IVault)413"
      },
      {
        "astId": 528,
        "contract": "contracts/Protocol.sol:Protocol",
        "label": "rewardsRouter",
        "offset": 0,
        "slot": "10",
        "type": "t_contract(IRewardsRouter)471"
      },
      {
        "astId": 531,
        "contract": "contracts/Protocol.sol:Protocol",
        "label": "GLPShare",
        "offset": 0,
        "slot": "11",
        "type": "t_contract(IERC20)400"
      },
      {
        "astId": 534,
        "contract": "contracts/Protocol.sol:Protocol",
        "label": "GLP",
        "offset": 0,
        "slot": "12",
        "type": "t_contract(IERC20)400"
      },
      {
        "astId": 536,
        "contract": "contracts/Protocol.sol:Protocol",
        "label": "weth",
        "offset": 0,
        "slot": "13",
        "type": "t_address"
      },
      {
        "astId": 539,
        "contract": "contracts/Protocol.sol:Protocol",
        "label": "ltv",
        "offset": 0,
        "slot": "14",
        "type": "t_uint256"
      },
      {
        "astId": 541,
        "contract": "contracts/Protocol.sol:Protocol",
        "label": "lnxReward",
        "offset": 0,
        "slot": "15",
        "type": "t_address"
      },
      {
        "astId": 543,
        "contract": "contracts/Protocol.sol:Protocol",
        "label": "stakeReward",
        "offset": 0,
        "slot": "16",
        "type": "t_address"
      },
      {
        "astId": 546,
        "contract": "contracts/Protocol.sol:Protocol",
        "label": "priceFeed",
        "offset": 0,
        "slot": "17",
        "type": "t_contract(IPriceFeed)427"
      }
    ],
    "types": {
      "t_address": {
        "encoding": "inplace",
        "label": "address",
        "numberOfBytes": "20"
      },
      "t_bool": {
        "encoding": "inplace",
        "label": "bool",
        "numberOfBytes": "1"
      },
      "t_contract(IERC20)400": {
        "encoding": "inplace",
        "label": "contract IERC20",
        "numberOfBytes": "20"
      },
      "t_contract(IPriceFeed)427": {
        "encoding": "inplace",
        "label": "contract IPriceFeed",
        "numberOfBytes": "20"
      },
      "t_contract(IRewardsRouter)471": {
        "encoding": "inplace",
        "label": "contract IRewardsRouter",
        "numberOfBytes": "20"
      },
      "t_contract(IVault)413": {
        "encoding": "inplace",
        "label": "contract IVault",
        "numberOfBytes": "20"
      },
      "t_mapping(t_address,t_address)": {
        "encoding": "mapping",
        "key": "t_address",
        "label": "mapping(address => address)",
        "numberOfBytes": "32",
        "value": "t_address"
      },
      "t_mapping(t_address,t_bool)": {
        "encoding": "mapping",
        "key": "t_address",
        "label": "mapping(address => bool)",
        "numberOfBytes": "32",
        "value": "t_bool"
      },
      "t_mapping(t_address,t_mapping(t_address,t_uint256))": {
        "encoding": "mapping",
        "key": "t_address",
        "label": "mapping(address => mapping(address => uint256))",
        "numberOfBytes": "32",
        "value": "t_mapping(t_address,t_uint256)"
      },
      "t_mapping(t_address,t_uint256)": {
        "encoding": "mapping",
        "key": "t_address",
        "label": "mapping(address => uint256)",
        "numberOfBytes": "32",
        "value": "t_uint256"
      },
      "t_uint256": {
        "encoding": "inplace",
        "label": "uint256",
        "numberOfBytes": "32"
      }
    }
  }
}