{
  "address": "0x4A679253410272dd5232B3Ff7cF5dbB88f295319",
  "abi": [
    {
      "inputs": [
        {
          "internalType": "string",
          "name": "name_",
          "type": "string"
        },
        {
          "internalType": "string",
          "name": "symbol_",
          "type": "string"
        },
        {
          "internalType": "address",
          "name": "_protocol",
          "type": "address"
        }
      ],
      "stateMutability": "nonpayable",
      "type": "constructor"
    },
    {
      "anonymous": false,
      "inputs": [
        {
          "indexed": true,
          "internalType": "address",
          "name": "owner",
          "type": "address"
        },
        {
          "indexed": true,
          "internalType": "address",
          "name": "spender",
          "type": "address"
        },
        {
          "indexed": false,
          "internalType": "uint256",
          "name": "value",
          "type": "uint256"
        }
      ],
      "name": "Approval",
      "type": "event"
    },
    {
      "anonymous": false,
      "inputs": [
        {
          "indexed": true,
          "internalType": "address",
          "name": "from",
          "type": "address"
        },
        {
          "indexed": true,
          "internalType": "address",
          "name": "to",
          "type": "address"
        },
        {
          "indexed": false,
          "internalType": "uint256",
          "name": "value",
          "type": "uint256"
        }
      ],
      "name": "Transfer",
      "type": "event"
    },
    {
      "inputs": [
        {
          "internalType": "address",
          "name": "owner",
          "type": "address"
        },
        {
          "internalType": "address",
          "name": "spender",
          "type": "address"
        }
      ],
      "name": "allowance",
      "outputs": [
        {
          "internalType": "uint256",
          "name": "",
          "type": "uint256"
        }
      ],
      "stateMutability": "view",
      "type": "function"
    },
    {
      "inputs": [
        {
          "internalType": "address",
          "name": "spender",
          "type": "address"
        },
        {
          "internalType": "uint256",
          "name": "amount",
          "type": "uint256"
        }
      ],
      "name": "approve",
      "outputs": [
        {
          "internalType": "bool",
          "name": "",
          "type": "bool"
        }
      ],
      "stateMutability": "nonpayable",
      "type": "function"
    },
    {
      "inputs": [
        {
          "internalType": "address",
          "name": "account",
          "type": "address"
        }
      ],
      "name": "balanceOf",
      "outputs": [
        {
          "internalType": "uint256",
          "name": "",
          "type": "uint256"
        }
      ],
      "stateMutability": "view",
      "type": "function"
    },
    {
      "inputs": [
        {
          "internalType": "address",
          "name": "account",
          "type": "address"
        },
        {
          "internalType": "uint256",
          "name": "amount",
          "type": "uint256"
        }
      ],
      "name": "burn",
      "outputs": [],
      "stateMutability": "nonpayable",
      "type": "function"
    },
    {
      "inputs": [],
      "name": "decimals",
      "outputs": [
        {
          "internalType": "uint8",
          "name": "",
          "type": "uint8"
        }
      ],
      "stateMutability": "view",
      "type": "function"
    },
    {
      "inputs": [
        {
          "internalType": "address",
          "name": "spender",
          "type": "address"
        },
        {
          "internalType": "uint256",
          "name": "subtractedValue",
          "type": "uint256"
        }
      ],
      "name": "decreaseAllowance",
      "outputs": [
        {
          "internalType": "bool",
          "name": "",
          "type": "bool"
        }
      ],
      "stateMutability": "nonpayable",
      "type": "function"
    },
    {
      "inputs": [
        {
          "internalType": "address",
          "name": "spender",
          "type": "address"
        },
        {
          "internalType": "uint256",
          "name": "addedValue",
          "type": "uint256"
        }
      ],
      "name": "increaseAllowance",
      "outputs": [
        {
          "internalType": "bool",
          "name": "",
          "type": "bool"
        }
      ],
      "stateMutability": "nonpayable",
      "type": "function"
    },
    {
      "inputs": [
        {
          "internalType": "address",
          "name": "account",
          "type": "address"
        },
        {
          "internalType": "uint256",
          "name": "amount",
          "type": "uint256"
        }
      ],
      "name": "mint",
      "outputs": [],
      "stateMutability": "nonpayable",
      "type": "function"
    },
    {
      "inputs": [],
      "name": "name",
      "outputs": [
        {
          "internalType": "string",
          "name": "",
          "type": "string"
        }
      ],
      "stateMutability": "view",
      "type": "function"
    },
    {
      "inputs": [],
      "name": "protocol",
      "outputs": [
        {
          "internalType": "address",
          "name": "",
          "type": "address"
        }
      ],
      "stateMutability": "view",
      "type": "function"
    },
    {
      "inputs": [],
      "name": "symbol",
      "outputs": [
        {
          "internalType": "string",
          "name": "",
          "type": "string"
        }
      ],
      "stateMutability": "view",
      "type": "function"
    },
    {
      "inputs": [],
      "name": "totalSupply",
      "outputs": [
        {
          "internalType": "uint256",
          "name": "",
          "type": "uint256"
        }
      ],
      "stateMutability": "view",
      "type": "function"
    },
    {
      "inputs": [
        {
          "internalType": "address",
          "name": "recipient",
          "type": "address"
        },
        {
          "internalType": "uint256",
          "name": "amount",
          "type": "uint256"
        }
      ],
      "name": "transfer",
      "outputs": [
        {
          "internalType": "bool",
          "name": "",
          "type": "bool"
        }
      ],
      "stateMutability": "nonpayable",
      "type": "function"
    },
    {
      "inputs": [
        {
          "internalType": "address",
          "name": "sender",
          "type": "address"
        },
        {
          "internalType": "address",
          "name": "recipient",
          "type": "address"
        },
        {
          "internalType": "uint256",
          "name": "amount",
          "type": "uint256"
        }
      ],
      "name": "transferFrom",
      "outputs": [
        {
          "internalType": "bool",
          "name": "",
          "type": "bool"
        }
      ],
      "stateMutability": "nonpayable",
      "type": "function"
    }
  ],
  "transactionHash": "0x5d90b03719140aec5694396404be5843bba228d698d056db07eb104651dff644",
  "args": [
    "LNX GLP Share Token",
    "lnxGlpShare",
    "0xDc64a140Aa3E981100a9becA4E685f962f0cF6C9"
  ],
  "solcInputHash": "a18034bcaece25069fec11c777dcb116",
  "bytecode": "0x60806040523480156200001157600080fd5b5060405162001ed038038062001ed0833981810160405281019062000037919062000365565b82600490805190602001906200004f929190620000b3565b50816005908051906020019062000068929190620000b3565b5080600260006101000a81548173ffffffffffffffffffffffffffffffffffffffff021916908373ffffffffffffffffffffffffffffffffffffffff16021790555050505062000464565b828054620000c1906200042e565b90600052602060002090601f016020900481019282620000e5576000855562000131565b82601f106200010057805160ff191683800117855562000131565b8280016001018555821562000131579182015b828111156200013057825182559160200191906001019062000113565b5b50905062000140919062000144565b5090565b5b808211156200015f57600081600090555060010162000145565b5090565b6000604051905090565b600080fd5b600080fd5b600080fd5b600080fd5b6000601f19601f8301169050919050565b7f4e487b7100000000000000000000000000000000000000000000000000000000600052604160045260246000fd5b620001cc8262000181565b810181811067ffffffffffffffff82111715620001ee57620001ed62000192565b5b80604052505050565b60006200020362000163565b9050620002118282620001c1565b919050565b600067ffffffffffffffff82111562000234576200023362000192565b5b6200023f8262000181565b9050602081019050919050565b60005b838110156200026c5780820151818401526020810190506200024f565b838111156200027c576000848401525b50505050565b600062000299620002938462000216565b620001f7565b905082815260208101848484011115620002b857620002b76200017c565b5b620002c58482856200024c565b509392505050565b600082601f830112620002e557620002e462000177565b5b8151620002f784826020860162000282565b91505092915050565b600073ffffffffffffffffffffffffffffffffffffffff82169050919050565b60006200032d8262000300565b9050919050565b6200033f8162000320565b81146200034b57600080fd5b50565b6000815190506200035f8162000334565b92915050565b6000806000606084860312156200038157620003806200016d565b5b600084015167ffffffffffffffff811115620003a257620003a162000172565b5b620003b086828701620002cd565b935050602084015167ffffffffffffffff811115620003d457620003d362000172565b5b620003e286828701620002cd565b9250506040620003f5868287016200034e565b9150509250925092565b7f4e487b7100000000000000000000000000000000000000000000000000000000600052602260045260246000fd5b600060028204905060018216806200044757607f821691505b602082108114156200045e576200045d620003ff565b5b50919050565b611a5c80620004746000396000f3fe608060405234801561001057600080fd5b50600436106100ea5760003560e01c806370a082311161008c5780639dc29fac116100665780639dc29fac14610261578063a457c2d71461027d578063a9059cbb146102ad578063dd62ed3e146102dd576100ea565b806370a08231146101f55780638ce744261461022557806395d89b4114610243576100ea565b806323b872dd116100c857806323b872dd1461015b578063313ce5671461018b57806339509351146101a957806340c10f19146101d9576100ea565b806306fdde03146100ef578063095ea7b31461010d57806318160ddd1461013d575b600080fd5b6100f761030d565b6040516101049190611102565b60405180910390f35b610127600480360381019061012291906111bd565b61039f565b6040516101349190611218565b60405180910390f35b6101456103bd565b6040516101529190611242565b60405180910390f35b6101756004803603810190610170919061125d565b6103c7565b6040516101829190611218565b60405180910390f35b6101936104bf565b6040516101a091906112cc565b60405180910390f35b6101c360048036038101906101be91906111bd565b6104c8565b6040516101d09190611218565b60405180910390f35b6101f360048036038101906101ee91906111bd565b610574565b005b61020f600480360381019061020a91906112e7565b6105dc565b60405161021c9190611242565b60405180910390f35b61022d610624565b60405161023a9190611323565b60405180910390f35b61024b61064a565b6040516102589190611102565b60405180910390f35b61027b600480360381019061027691906111bd565b6106dc565b005b610297600480360381019061029291906111bd565b610744565b6040516102a49190611218565b60405180910390f35b6102c760048036038101906102c291906111bd565b61082f565b6040516102d49190611218565b60405180910390f35b6102f760048036038101906102f2919061133e565b61084d565b6040516103049190611242565b60405180910390f35b60606004805461031c906113ad565b80601f0160208091040260200160405190810160405280929190818152602001828054610348906113ad565b80156103955780601f1061036a57610100808354040283529160200191610395565b820191906000526020600020905b81548152906001019060200180831161037857829003601f168201915b5050505050905090565b60006103b36103ac6108d4565b84846108dc565b6001905092915050565b6000600354905090565b60006103d4848484610aa7565b6000600160008673ffffffffffffffffffffffffffffffffffffffff1673ffffffffffffffffffffffffffffffffffffffff168152602001908152602001600020600061041f6108d4565b73ffffffffffffffffffffffffffffffffffffffff1673ffffffffffffffffffffffffffffffffffffffff1681526020019081526020016000205490508281101561049f576040517f08c379a000000000000000000000000000000000000000000000000000000000815260040161049690611451565b60405180910390fd5b6104b3856104ab6108d4565b8584036108dc565b60019150509392505050565b60006012905090565b600061056a6104d56108d4565b8484600160006104e36108d4565b73ffffffffffffffffffffffffffffffffffffffff1673ffffffffffffffffffffffffffffffffffffffff16815260200190815260200160002060008873ffffffffffffffffffffffffffffffffffffffff1673ffffffffffffffffffffffffffffffffffffffff1681526020019081526020016000205461056591906114a0565b6108dc565b6001905092915050565b600260009054906101000a900473ffffffffffffffffffffffffffffffffffffffff1673ffffffffffffffffffffffffffffffffffffffff163373ffffffffffffffffffffffffffffffffffffffff16146105ce57600080fd5b6105d88282610d28565b5050565b60008060008373ffffffffffffffffffffffffffffffffffffffff1673ffffffffffffffffffffffffffffffffffffffff168152602001908152602001600020549050919050565b600260009054906101000a900473ffffffffffffffffffffffffffffffffffffffff1681565b606060058054610659906113ad565b80601f0160208091040260200160405190810160405280929190818152602001828054610685906113ad565b80156106d25780601f106106a7576101008083540402835291602001916106d2565b820191906000526020600020905b8154815290600101906020018083116106b557829003601f168201915b5050505050905090565b600260009054906101000a900473ffffffffffffffffffffffffffffffffffffffff1673ffffffffffffffffffffffffffffffffffffffff163373ffffffffffffffffffffffffffffffffffffffff161461073657600080fd5b6107408282610e88565b5050565b600080600160006107536108d4565b73ffffffffffffffffffffffffffffffffffffffff1673ffffffffffffffffffffffffffffffffffffffff16815260200190815260200160002060008573ffffffffffffffffffffffffffffffffffffffff1673ffffffffffffffffffffffffffffffffffffffff16815260200190815260200160002054905082811015610810576040517f08c379a000000000000000000000000000000000000000000000000000000000815260040161080790611568565b60405180910390fd5b61082461081b6108d4565b858584036108dc565b600191505092915050565b600061084361083c6108d4565b8484610aa7565b6001905092915050565b6000600160008473ffffffffffffffffffffffffffffffffffffffff1673ffffffffffffffffffffffffffffffffffffffff16815260200190815260200160002060008373ffffffffffffffffffffffffffffffffffffffff1673ffffffffffffffffffffffffffffffffffffffff16815260200190815260200160002054905092915050565b600033905090565b600073ffffffffffffffffffffffffffffffffffffffff168373ffffffffffffffffffffffffffffffffffffffff16141561094c576040517f08c379a0000000000000000000000000000000000000000000000000000000008152600401610943906115fa565b60405180910390fd5b600073ffffffffffffffffffffffffffffffffffffffff168273ffffffffffffffffffffffffffffffffffffffff1614156109bc576040517f08c379a00000000000000000000000000000000000000000000000000000000081526004016109b39061168c565b60405180910390fd5b80600160008573ffffffffffffffffffffffffffffffffffffffff1673ffffffffffffffffffffffffffffffffffffffff16815260200190815260200160002060008473ffffffffffffffffffffffffffffffffffffffff1673ffffffffffffffffffffffffffffffffffffffff168152602001908152602001600020819055508173ffffffffffffffffffffffffffffffffffffffff168373ffffffffffffffffffffffffffffffffffffffff167f8c5be1e5ebec7d5bd14f71427d1e84f3dd0314c0f7b2291e5b200ac8c7c3b92583604051610a9a9190611242565b60405180910390a3505050565b600073ffffffffffffffffffffffffffffffffffffffff168373ffffffffffffffffffffffffffffffffffffffff161415610b17576040517f08c379a0000000000000000000000000000000000000000000000000000000008152600401610b0e9061171e565b60405180910390fd5b600073ffffffffffffffffffffffffffffffffffffffff168273ffffffffffffffffffffffffffffffffffffffff161415610b87576040517f08c379a0000000000000000000000000000000000000000000000000000000008152600401610b7e906117b0565b60405180910390fd5b610b9283838361105f565b60008060008573ffffffffffffffffffffffffffffffffffffffff1673ffffffffffffffffffffffffffffffffffffffff16815260200190815260200160002054905081811015610c18576040517f08c379a0000000000000000000000000000000000000000000000000000000008152600401610c0f90611842565b60405180910390fd5b8181036000808673ffffffffffffffffffffffffffffffffffffffff1673ffffffffffffffffffffffffffffffffffffffff16815260200190815260200160002081905550816000808573ffffffffffffffffffffffffffffffffffffffff1673ffffffffffffffffffffffffffffffffffffffff1681526020019081526020016000206000828254610cab91906114a0565b925050819055508273ffffffffffffffffffffffffffffffffffffffff168473ffffffffffffffffffffffffffffffffffffffff167fddf252ad1be2c89b69c2b068fc378daa952ba7f163c4a11628f55a4df523b3ef84604051610d0f9190611242565b60405180910390a3610d22848484611064565b50505050565b600073ffffffffffffffffffffffffffffffffffffffff168273ffffffffffffffffffffffffffffffffffffffff161415610d98576040517f08c379a0000000000000000000000000000000000000000000000000000000008152600401610d8f906118ae565b60405180910390fd5b610da46000838361105f565b8060036000828254610db691906114a0565b92505081905550806000808473ffffffffffffffffffffffffffffffffffffffff1673ffffffffffffffffffffffffffffffffffffffff1681526020019081526020016000206000828254610e0b91906114a0565b925050819055508173ffffffffffffffffffffffffffffffffffffffff16600073ffffffffffffffffffffffffffffffffffffffff167fddf252ad1be2c89b69c2b068fc378daa952ba7f163c4a11628f55a4df523b3ef83604051610e709190611242565b60405180910390a3610e8460008383611064565b5050565b600073ffffffffffffffffffffffffffffffffffffffff168273ffffffffffffffffffffffffffffffffffffffff161415610ef8576040517f08c379a0000000000000000000000000000000000000000000000000000000008152600401610eef90611940565b60405180910390fd5b610f048260008361105f565b60008060008473ffffffffffffffffffffffffffffffffffffffff1673ffffffffffffffffffffffffffffffffffffffff16815260200190815260200160002054905081811015610f8a576040517f08c379a0000000000000000000000000000000000000000000000000000000008152600401610f81906119d2565b60405180910390fd5b8181036000808573ffffffffffffffffffffffffffffffffffffffff1673ffffffffffffffffffffffffffffffffffffffff168152602001908152602001600020819055508160036000828254610fe191906119f2565b92505081905550600073ffffffffffffffffffffffffffffffffffffffff168373ffffffffffffffffffffffffffffffffffffffff167fddf252ad1be2c89b69c2b068fc378daa952ba7f163c4a11628f55a4df523b3ef846040516110469190611242565b60405180910390a361105a83600084611064565b505050565b505050565b505050565b600081519050919050565b600082825260208201905092915050565b60005b838110156110a3578082015181840152602081019050611088565b838111156110b2576000848401525b50505050565b6000601f19601f8301169050919050565b60006110d482611069565b6110de8185611074565b93506110ee818560208601611085565b6110f7816110b8565b840191505092915050565b6000602082019050818103600083015261111c81846110c9565b905092915050565b600080fd5b600073ffffffffffffffffffffffffffffffffffffffff82169050919050565b600061115482611129565b9050919050565b61116481611149565b811461116f57600080fd5b50565b6000813590506111818161115b565b92915050565b6000819050919050565b61119a81611187565b81146111a557600080fd5b50565b6000813590506111b781611191565b92915050565b600080604083850312156111d4576111d3611124565b5b60006111e285828601611172565b92505060206111f3858286016111a8565b9150509250929050565b60008115159050919050565b611212816111fd565b82525050565b600060208201905061122d6000830184611209565b92915050565b61123c81611187565b82525050565b60006020820190506112576000830184611233565b92915050565b60008060006060848603121561127657611275611124565b5b600061128486828701611172565b935050602061129586828701611172565b92505060406112a6868287016111a8565b9150509250925092565b600060ff82169050919050565b6112c6816112b0565b82525050565b60006020820190506112e160008301846112bd565b92915050565b6000602082840312156112fd576112fc611124565b5b600061130b84828501611172565b91505092915050565b61131d81611149565b82525050565b60006020820190506113386000830184611314565b92915050565b6000806040838503121561135557611354611124565b5b600061136385828601611172565b925050602061137485828601611172565b9150509250929050565b7f4e487b7100000000000000000000000000000000000000000000000000000000600052602260045260246000fd5b600060028204905060018216806113c557607f821691505b602082108114156113d9576113d861137e565b5b50919050565b7f45524332303a207472616e7366657220616d6f756e742065786365656473206160008201527f6c6c6f77616e6365000000000000000000000000000000000000000000000000602082015250565b600061143b602883611074565b9150611446826113df565b604082019050919050565b6000602082019050818103600083015261146a8161142e565b9050919050565b7f4e487b7100000000000000000000000000000000000000000000000000000000600052601160045260246000fd5b60006114ab82611187565b91506114b683611187565b9250827fffffffffffffffffffffffffffffffffffffffffffffffffffffffffffffffff038211156114eb576114ea611471565b5b828201905092915050565b7f45524332303a2064656372656173656420616c6c6f77616e63652062656c6f7760008201527f207a65726f000000000000000000000000000000000000000000000000000000602082015250565b6000611552602583611074565b915061155d826114f6565b604082019050919050565b6000602082019050818103600083015261158181611545565b9050919050565b7f45524332303a20617070726f76652066726f6d20746865207a65726f2061646460008201527f7265737300000000000000000000000000000000000000000000000000000000602082015250565b60006115e4602483611074565b91506115ef82611588565b604082019050919050565b60006020820190508181036000830152611613816115d7565b9050919050565b7f45524332303a20617070726f766520746f20746865207a65726f20616464726560008201527f7373000000000000000000000000000000000000000000000000000000000000602082015250565b6000611676602283611074565b91506116818261161a565b604082019050919050565b600060208201905081810360008301526116a581611669565b9050919050565b7f45524332303a207472616e736665722066726f6d20746865207a65726f20616460008201527f6472657373000000000000000000000000000000000000000000000000000000602082015250565b6000611708602583611074565b9150611713826116ac565b604082019050919050565b60006020820190508181036000830152611737816116fb565b9050919050565b7f45524332303a207472616e7366657220746f20746865207a65726f206164647260008201527f6573730000000000000000000000000000000000000000000000000000000000602082015250565b600061179a602383611074565b91506117a58261173e565b604082019050919050565b600060208201905081810360008301526117c98161178d565b9050919050565b7f45524332303a207472616e7366657220616d6f756e742065786365656473206260008201527f616c616e63650000000000000000000000000000000000000000000000000000602082015250565b600061182c602683611074565b9150611837826117d0565b604082019050919050565b6000602082019050818103600083015261185b8161181f565b9050919050565b7f45524332303a206d696e7420746f20746865207a65726f206164647265737300600082015250565b6000611898601f83611074565b91506118a382611862565b602082019050919050565b600060208201905081810360008301526118c78161188b565b9050919050565b7f45524332303a206275726e2066726f6d20746865207a65726f2061646472657360008201527f7300000000000000000000000000000000000000000000000000000000000000602082015250565b600061192a602183611074565b9150611935826118ce565b604082019050919050565b600060208201905081810360008301526119598161191d565b9050919050565b7f45524332303a206275726e20616d6f756e7420657863656564732062616c616e60008201527f6365000000000000000000000000000000000000000000000000000000000000602082015250565b60006119bc602283611074565b91506119c782611960565b604082019050919050565b600060208201905081810360008301526119eb816119af565b9050919050565b60006119fd82611187565b9150611a0883611187565b925082821015611a1b57611a1a611471565b5b82820390509291505056fea2646970667358221220504d0f653faf4cdf4d2dfe99a8dc2d5e9745f6fd945b62629d62417e526eb11364736f6c634300080a0033",
  "devdoc": {
    "kind": "dev",
    "methods": {
      "allowance(address,address)": {
        "details": "Returns the remaining number of tokens that `spender` will be allowed to spend on behalf of `owner` through {transferFrom}. This is zero by default. This value changes when {approve} or {transferFrom} are called."
      },
      "approve(address,uint256)": {
        "details": "Sets `amount` as the allowance of `spender` over the caller's tokens. Returns a boolean value indicating whether the operation succeeded. IMPORTANT: Beware that changing an allowance with this method brings the risk that someone may use both the old and the new allowance by unfortunate transaction ordering. One possible solution to mitigate this race condition is to first reduce the spender's allowance to 0 and set the desired value afterwards: https://github.com/ethereum/EIPs/issues/20#issuecomment-263524729 Emits an {Approval} event."
      },
      "balanceOf(address)": {
        "details": "Returns the amount of tokens owned by `account`."
      },
      "decimals()": {
        "details": "Returns the decimals places of the token."
      },
      "name()": {
        "details": "Returns the name of the token."
      },
      "symbol()": {
        "details": "Returns the symbol of the token."
      },
      "totalSupply()": {
        "details": "Returns the amount of tokens in existence."
      },
      "transfer(address,uint256)": {
        "details": "Moves `amount` tokens from the caller's account to `recipient`. Returns a boolean value indicating whether the operation succeeded. Emits a {Transfer} event."
      },
      "transferFrom(address,address,uint256)": {
        "details": "Moves `amount` tokens from `sender` to `recipient` using the allowance mechanism. `amount` is then deducted from the caller's allowance. Returns a boolean value indicating whether the operation succeeded. Emits a {Transfer} event."
      }
    },
    "version": 1
  },
  "userdoc": {
    "kind": "user",
    "methods": {},
    "version": 1
  },
  "storageLayout": {
    "storage": [
      {
        "astId": 3536,
        "contract": "contracts/ShareToken.sol:ShareToken",
        "label": "_balances",
        "offset": 0,
        "slot": "0",
        "type": "t_mapping(t_address,t_uint256)"
      },
      {
        "astId": 3542,
        "contract": "contracts/ShareToken.sol:ShareToken",
        "label": "_allowances",
        "offset": 0,
        "slot": "1",
        "type": "t_mapping(t_address,t_mapping(t_address,t_uint256))"
      },
      {
        "astId": 3544,
        "contract": "contracts/ShareToken.sol:ShareToken",
        "label": "protocol",
        "offset": 0,
        "slot": "2",
        "type": "t_address"
      },
      {
        "astId": 3546,
        "contract": "contracts/ShareToken.sol:ShareToken",
        "label": "_totalSupply",
        "offset": 0,
        "slot": "3",
        "type": "t_uint256"
      },
      {
        "astId": 3548,
        "contract": "contracts/ShareToken.sol:ShareToken",
        "label": "_name",
        "offset": 0,
        "slot": "4",
        "type": "t_string_storage"
      },
      {
        "astId": 3550,
        "contract": "contracts/ShareToken.sol:ShareToken",
        "label": "_symbol",
        "offset": 0,
        "slot": "5",
        "type": "t_string_storage"
      }
    ],
    "types": {
      "t_address": {
        "encoding": "inplace",
        "label": "address",
        "numberOfBytes": "20"
      },
      "t_mapping(t_address,t_mapping(t_address,t_uint256))": {
        "encoding": "mapping",
        "key": "t_address",
        "label": "mapping(address => mapping(address => uint256))",
        "numberOfBytes": "32",
        "value": "t_mapping(t_address,t_uint256)"
      },
      "t_mapping(t_address,t_uint256)": {
        "encoding": "mapping",
        "key": "t_address",
        "label": "mapping(address => uint256)",
        "numberOfBytes": "32",
        "value": "t_uint256"
      },
      "t_string_storage": {
        "encoding": "bytes",
        "label": "string",
        "numberOfBytes": "32"
      },
      "t_uint256": {
        "encoding": "inplace",
        "label": "uint256",
        "numberOfBytes": "32"
      }
    }
  }
}