{
  "address": "0xCf7Ed3AccA5a467e9e704C703E8D87F634fB0Fc9",
  "abi": [
    {
      "inputs": [
        {
          "internalType": "address",
          "name": "_lnx",
          "type": "address"
        },
        {
          "internalType": "address",
          "name": "_vault",
          "type": "address"
        }
      ],
      "stateMutability": "nonpayable",
      "type": "constructor"
    },
    {
      "inputs": [],
      "name": "WGLP",
      "outputs": [
        {
          "internalType": "address",
          "name": "",
          "type": "address"
        }
      ],
      "stateMutability": "view",
      "type": "function"
    },
    {
      "inputs": [
        {
          "internalType": "address",
          "name": "account",
          "type": "address"
        }
      ],
      "name": "claimRewards",
      "outputs": [],
      "stateMutability": "nonpayable",
      "type": "function"
    },
    {
      "inputs": [
        {
          "internalType": "address",
          "name": "account",
          "type": "address"
        },
        {
          "internalType": "address",
          "name": "token",
          "type": "address"
        }
      ],
      "name": "claimableRewards",
      "outputs": [
        {
          "internalType": "uint256",
          "name": "",
          "type": "uint256"
        }
      ],
      "stateMutability": "view",
      "type": "function"
    },
    {
      "inputs": [],
      "name": "governance",
      "outputs": [
        {
          "internalType": "address",
          "name": "",
          "type": "address"
        }
      ],
      "stateMutability": "view",
      "type": "function"
    },
    {
      "inputs": [],
      "name": "lnx",
      "outputs": [
        {
          "internalType": "contract IERC20",
          "name": "",
          "type": "address"
        }
      ],
      "stateMutability": "view",
      "type": "function"
    },
    {
      "inputs": [],
      "name": "protocol",
      "outputs": [
        {
          "internalType": "address",
          "name": "",
          "type": "address"
        }
      ],
      "stateMutability": "view",
      "type": "function"
    },
    {
      "inputs": [
        {
          "internalType": "address",
          "name": "token",
          "type": "address"
        },
        {
          "internalType": "uint256",
          "name": "amount",
          "type": "uint256"
        }
      ],
      "name": "receiveRewards",
      "outputs": [],
      "stateMutability": "nonpayable",
      "type": "function"
    },
    {
      "inputs": [
        {
          "internalType": "address",
          "name": "_protocol",
          "type": "address"
        }
      ],
      "name": "setProtocol",
      "outputs": [],
      "stateMutability": "nonpayable",
      "type": "function"
    },
    {
      "inputs": [
        {
          "internalType": "address",
          "name": "_WGLP",
          "type": "address"
        }
      ],
      "name": "setWGLP",
      "outputs": [],
      "stateMutability": "nonpayable",
      "type": "function"
    },
    {
      "inputs": [
        {
          "internalType": "uint256",
          "name": "amount",
          "type": "uint256"
        }
      ],
      "name": "stake",
      "outputs": [],
      "stateMutability": "nonpayable",
      "type": "function"
    },
    {
      "inputs": [
        {
          "internalType": "address",
          "name": "",
          "type": "address"
        }
      ],
      "name": "tokensRewarded",
      "outputs": [
        {
          "internalType": "uint256",
          "name": "",
          "type": "uint256"
        }
      ],
      "stateMutability": "view",
      "type": "function"
    },
    {
      "inputs": [],
      "name": "totalStaked",
      "outputs": [
        {
          "internalType": "uint256",
          "name": "",
          "type": "uint256"
        }
      ],
      "stateMutability": "view",
      "type": "function"
    },
    {
      "inputs": [
        {
          "internalType": "uint256",
          "name": "amount",
          "type": "uint256"
        }
      ],
      "name": "unstake",
      "outputs": [],
      "stateMutability": "nonpayable",
      "type": "function"
    },
    {
      "inputs": [
        {
          "internalType": "address",
          "name": "",
          "type": "address"
        },
        {
          "internalType": "address",
          "name": "",
          "type": "address"
        }
      ],
      "name": "userClaimed",
      "outputs": [
        {
          "internalType": "uint256",
          "name": "",
          "type": "uint256"
        }
      ],
      "stateMutability": "view",
      "type": "function"
    },
    {
      "inputs": [
        {
          "internalType": "address",
          "name": "",
          "type": "address"
        }
      ],
      "name": "userStaked",
      "outputs": [
        {
          "internalType": "uint256",
          "name": "",
          "type": "uint256"
        }
      ],
      "stateMutability": "view",
      "type": "function"
    },
    {
      "inputs": [],
      "name": "vault",
      "outputs": [
        {
          "internalType": "contract IVault",
          "name": "",
          "type": "address"
        }
      ],
      "stateMutability": "view",
      "type": "function"
    }
  ],
  "transactionHash": "0x846ed935c9a14722a1ff156cf8f2c9b8617d25646dd13ba6866c1edc7627af13",
  "args": [
    "0x5FbDB2315678afecb367f032d93F642f64180aa3",
    "0x489ee077994B6658eAfA855C308275EAd8097C4A"
  ],
  "solcInputHash": "a80d3f68f915b916ebf68a61cfb6b68b",
  "bytecode": "0x60806040523480156200001157600080fd5b50604051620019423803806200194283398181016040528101906200003791906200016b565b816000806101000a81548173ffffffffffffffffffffffffffffffffffffffff021916908373ffffffffffffffffffffffffffffffffffffffff16021790555033600460006101000a81548173ffffffffffffffffffffffffffffffffffffffff021916908373ffffffffffffffffffffffffffffffffffffffff16021790555080600360006101000a81548173ffffffffffffffffffffffffffffffffffffffff021916908373ffffffffffffffffffffffffffffffffffffffff1602179055505050620001b2565b600080fd5b600073ffffffffffffffffffffffffffffffffffffffff82169050919050565b6000620001338262000106565b9050919050565b620001458162000126565b81146200015157600080fd5b50565b60008151905062000165816200013a565b92915050565b6000806040838503121562000185576200018462000101565b5b6000620001958582860162000154565b9250506020620001a88582860162000154565b9150509250929050565b61178080620001c26000396000f3fe608060405234801561001057600080fd5b50600436106101005760003560e01c8063817b1cd211610097578063a694fc3a11610066578063a694fc3a1461029b578063acc3a939146102b7578063ef5cfb8c146102e7578063fbfa77cf1461030357610100565b8063817b1cd2146102255780638ce7442614610243578063906c78bb146102615780639aa498641461027f57610100565b80635aa6e675116100d35780635aa6e675146101895780635bf2d5ef146101a75780636be9dcce146101c557806370ce170c146101f557610100565b80630a9d793d14610105578063289b2df11461012157806329147fab146101515780632e17de781461016d575b600080fd5b61011f600480360381019061011a91906111ae565b610321565b005b61013b600480360381019061013691906111db565b6103bf565b6040516101489190611234565b60405180910390f35b61016b600480360381019061016691906111ae565b6103e4565b005b6101876004803603810190610182919061127b565b610482565b005b6101916105df565b60405161019e91906112b7565b60405180910390f35b6101af610605565b6040516101bc91906112b7565b60405180910390f35b6101df60048036038101906101da91906111db565b61062b565b6040516101ec9190611234565b60405180910390f35b61020f600480360381019061020a91906111ae565b610773565b60405161021c9190611234565b60405180910390f35b61022d61078b565b60405161023a9190611234565b60405180910390f35b61024b610791565b60405161025891906112b7565b60405180910390f35b6102696107b7565b6040516102769190611331565b60405180910390f35b6102996004803603810190610294919061134c565b6107db565b005b6102b560048036038101906102b0919061127b565b610932565b005b6102d160048036038101906102cc91906111ae565b610a45565b6040516102de9190611234565b60405180910390f35b61030160048036038101906102fc91906111ae565b610a5d565b005b61030b6110e3565b60405161031891906113ad565b60405180910390f35b600460009054906101000a900473ffffffffffffffffffffffffffffffffffffffff1673ffffffffffffffffffffffffffffffffffffffff163373ffffffffffffffffffffffffffffffffffffffff161461037b57600080fd5b80600160006101000a81548173ffffffffffffffffffffffffffffffffffffffff021916908373ffffffffffffffffffffffffffffffffffffffff16021790555050565b6007602052816000526040600020602052806000526040600020600091509150505481565b600460009054906101000a900473ffffffffffffffffffffffffffffffffffffffff1673ffffffffffffffffffffffffffffffffffffffff163373ffffffffffffffffffffffffffffffffffffffff161461043e57600080fd5b80600260006101000a81548173ffffffffffffffffffffffffffffffffffffffff021916908373ffffffffffffffffffffffffffffffffffffffff16021790555050565b80600560003373ffffffffffffffffffffffffffffffffffffffff1673ffffffffffffffffffffffffffffffffffffffff1681526020019081526020016000205410156104ce57600080fd5b80600660008282546104e091906113f7565b9250508190555080600560003373ffffffffffffffffffffffffffffffffffffffff1673ffffffffffffffffffffffffffffffffffffffff168152602001908152602001600020600082825461053691906113f7565b9250508190555060008054906101000a900473ffffffffffffffffffffffffffffffffffffffff1673ffffffffffffffffffffffffffffffffffffffff1663a9059cbb33836040518363ffffffff1660e01b815260040161059892919061142b565b6020604051808303816000875af11580156105b7573d6000803e3d6000fd5b505050506040513d601f19601f820116820180604052508101906105db919061148c565b5050565b600460009054906101000a900473ffffffffffffffffffffffffffffffffffffffff1681565b600260009054906101000a900473ffffffffffffffffffffffffffffffffffffffff1681565b600080600860008473ffffffffffffffffffffffffffffffffffffffff1673ffffffffffffffffffffffffffffffffffffffff1681526020019081526020016000205490506000610766600654610758600560008973ffffffffffffffffffffffffffffffffffffffff1673ffffffffffffffffffffffffffffffffffffffff1681526020019081526020016000205461074a600760008b73ffffffffffffffffffffffffffffffffffffffff1673ffffffffffffffffffffffffffffffffffffffff16815260200190815260200160002060008a73ffffffffffffffffffffffffffffffffffffffff1673ffffffffffffffffffffffffffffffffffffffff168152602001908152602001600020548761110990919063ffffffff16565b61111f90919063ffffffff16565b61113590919063ffffffff16565b9050809250505092915050565b60086020528060005260406000206000915090505481565b60065481565b600160009054906101000a900473ffffffffffffffffffffffffffffffffffffffff1681565b60008054906101000a900473ffffffffffffffffffffffffffffffffffffffff1681565b600160009054906101000a900473ffffffffffffffffffffffffffffffffffffffff1673ffffffffffffffffffffffffffffffffffffffff163373ffffffffffffffffffffffffffffffffffffffff161461083557600080fd5b8173ffffffffffffffffffffffffffffffffffffffff166323b872dd600160009054906101000a900473ffffffffffffffffffffffffffffffffffffffff1630846040518463ffffffff1660e01b8152600401610894939291906114b9565b6020604051808303816000875af11580156108b3573d6000803e3d6000fd5b505050506040513d601f19601f820116820180604052508101906108d7919061148c565b5080600860008473ffffffffffffffffffffffffffffffffffffffff1673ffffffffffffffffffffffffffffffffffffffff168152602001908152602001600020600082825461092791906114f0565b925050819055505050565b60008054906101000a900473ffffffffffffffffffffffffffffffffffffffff1673ffffffffffffffffffffffffffffffffffffffff166323b872dd3330846040518463ffffffff1660e01b815260040161098f939291906114b9565b6020604051808303816000875af11580156109ae573d6000803e3d6000fd5b505050506040513d601f19601f820116820180604052508101906109d2919061148c565b5080600660008282546109e591906114f0565b9250508190555080600560003373ffffffffffffffffffffffffffffffffffffffff1673ffffffffffffffffffffffffffffffffffffffff1681526020019081526020016000206000828254610a3b91906114f0565b9250508190555050565b60056020528060005260406000206000915090505481565b8073ffffffffffffffffffffffffffffffffffffffff163373ffffffffffffffffffffffffffffffffffffffff161480610ae45750600160009054906101000a900473ffffffffffffffffffffffffffffffffffffffff1673ffffffffffffffffffffffffffffffffffffffff163373ffffffffffffffffffffffffffffffffffffffff16145b610b23576040517f08c379a0000000000000000000000000000000000000000000000000000000008152600401610b1a906115a3565b60405180910390fd5b60008060005b600360009054906101000a900473ffffffffffffffffffffffffffffffffffffffff1673ffffffffffffffffffffffffffffffffffffffff16630842b0766040518163ffffffff1660e01b8152600401602060405180830381865afa158015610b96573d6000803e3d6000fd5b505050506040513d601f19601f82011682018060405250810190610bba91906115d8565b811015610e9557600360009054906101000a900473ffffffffffffffffffffffffffffffffffffffff1673ffffffffffffffffffffffffffffffffffffffff1663e468baf0826040518263ffffffff1660e01b8152600401610c1c9190611234565b602060405180830381865afa158015610c39573d6000803e3d6000fd5b505050506040513d601f19601f82011682018060405250810190610c5d919061161a565b92506000610c6b858561062b565b1415610d3657600860008473ffffffffffffffffffffffffffffffffffffffff1673ffffffffffffffffffffffffffffffffffffffff16815260200190815260200160002054600760008673ffffffffffffffffffffffffffffffffffffffff1673ffffffffffffffffffffffffffffffffffffffff16815260200190815260200160002060008573ffffffffffffffffffffffffffffffffffffffff1673ffffffffffffffffffffffffffffffffffffffff16815260200190815260200160002081905550610e82565b610d40848461062b565b91508273ffffffffffffffffffffffffffffffffffffffff1663a9059cbb85846040518363ffffffff1660e01b8152600401610d7d92919061142b565b6020604051808303816000875af1158015610d9c573d6000803e3d6000fd5b505050506040513d601f19601f82011682018060405250810190610dc0919061148c565b50600860008473ffffffffffffffffffffffffffffffffffffffff1673ffffffffffffffffffffffffffffffffffffffff16815260200190815260200160002054600760008673ffffffffffffffffffffffffffffffffffffffff1673ffffffffffffffffffffffffffffffffffffffff16815260200190815260200160002060008573ffffffffffffffffffffffffffffffffffffffff1673ffffffffffffffffffffffffffffffffffffffff168152602001908152602001600020819055505b8080610e8d90611647565b915050610b29565b50600260009054906101000a900473ffffffffffffffffffffffffffffffffffffffff1691506000610ec7848461062b565b1415610f9257600860008373ffffffffffffffffffffffffffffffffffffffff1673ffffffffffffffffffffffffffffffffffffffff16815260200190815260200160002054600760008573ffffffffffffffffffffffffffffffffffffffff1673ffffffffffffffffffffffffffffffffffffffff16815260200190815260200160002060008473ffffffffffffffffffffffffffffffffffffffff1673ffffffffffffffffffffffffffffffffffffffff168152602001908152602001600020819055506110de565b610f9c838361062b565b90508173ffffffffffffffffffffffffffffffffffffffff1663a9059cbb84836040518363ffffffff1660e01b8152600401610fd992919061142b565b6020604051808303816000875af1158015610ff8573d6000803e3d6000fd5b505050506040513d601f19601f8201168201806040525081019061101c919061148c565b50600860008373ffffffffffffffffffffffffffffffffffffffff1673ffffffffffffffffffffffffffffffffffffffff16815260200190815260200160002054600760008573ffffffffffffffffffffffffffffffffffffffff1673ffffffffffffffffffffffffffffffffffffffff16815260200190815260200160002060008473ffffffffffffffffffffffffffffffffffffffff1673ffffffffffffffffffffffffffffffffffffffff168152602001908152602001600020819055505b505050565b600360009054906101000a900473ffffffffffffffffffffffffffffffffffffffff1681565b6000818361111791906113f7565b905092915050565b6000818361112d9190611690565b905092915050565b600081836111439190611719565b905092915050565b600080fd5b600073ffffffffffffffffffffffffffffffffffffffff82169050919050565b600061117b82611150565b9050919050565b61118b81611170565b811461119657600080fd5b50565b6000813590506111a881611182565b92915050565b6000602082840312156111c4576111c361114b565b5b60006111d284828501611199565b91505092915050565b600080604083850312156111f2576111f161114b565b5b600061120085828601611199565b925050602061121185828601611199565b9150509250929050565b6000819050919050565b61122e8161121b565b82525050565b60006020820190506112496000830184611225565b92915050565b6112588161121b565b811461126357600080fd5b50565b6000813590506112758161124f565b92915050565b6000602082840312156112915761129061114b565b5b600061129f84828501611266565b91505092915050565b6112b181611170565b82525050565b60006020820190506112cc60008301846112a8565b92915050565b6000819050919050565b60006112f76112f26112ed84611150565b6112d2565b611150565b9050919050565b6000611309826112dc565b9050919050565b600061131b826112fe565b9050919050565b61132b81611310565b82525050565b60006020820190506113466000830184611322565b92915050565b600080604083850312156113635761136261114b565b5b600061137185828601611199565b925050602061138285828601611266565b9150509250929050565b6000611397826112fe565b9050919050565b6113a78161138c565b82525050565b60006020820190506113c2600083018461139e565b92915050565b7f4e487b7100000000000000000000000000000000000000000000000000000000600052601160045260246000fd5b60006114028261121b565b915061140d8361121b565b9250828210156114205761141f6113c8565b5b828203905092915050565b600060408201905061144060008301856112a8565b61144d6020830184611225565b9392505050565b60008115159050919050565b61146981611454565b811461147457600080fd5b50565b60008151905061148681611460565b92915050565b6000602082840312156114a2576114a161114b565b5b60006114b084828501611477565b91505092915050565b60006060820190506114ce60008301866112a8565b6114db60208301856112a8565b6114e86040830184611225565b949350505050565b60006114fb8261121b565b91506115068361121b565b9250827fffffffffffffffffffffffffffffffffffffffffffffffffffffffffffffffff0382111561153b5761153a6113c8565b5b828201905092915050565b600082825260208201905092915050565b7f43616e6e6f7420636c61696d20666f7220616e6f74686572206163636f756e74600082015250565b600061158d602083611546565b915061159882611557565b602082019050919050565b600060208201905081810360008301526115bc81611580565b9050919050565b6000815190506115d28161124f565b92915050565b6000602082840312156115ee576115ed61114b565b5b60006115fc848285016115c3565b91505092915050565b60008151905061161481611182565b92915050565b6000602082840312156116305761162f61114b565b5b600061163e84828501611605565b91505092915050565b60006116528261121b565b91507fffffffffffffffffffffffffffffffffffffffffffffffffffffffffffffffff821415611685576116846113c8565b5b600182019050919050565b600061169b8261121b565b91506116a68361121b565b9250817fffffffffffffffffffffffffffffffffffffffffffffffffffffffffffffffff04831182151516156116df576116de6113c8565b5b828202905092915050565b7f4e487b7100000000000000000000000000000000000000000000000000000000600052601260045260246000fd5b60006117248261121b565b915061172f8361121b565b92508261173f5761173e6116ea565b5b82820490509291505056fea264697066735822122091142c332c7a687df9f67f2fd0cf5b8b1a65539d221a0f717a61c084e9f5871764736f6c634300080a0033",
  "devdoc": {
    "kind": "dev",
    "methods": {},
    "version": 1
  },
  "userdoc": {
    "kind": "user",
    "methods": {},
    "version": 1
  },
  "storageLayout": {
    "storage": [
      {
        "astId": 2327,
        "contract": "contracts/StakeRewards.sol:StakeRewards",
        "label": "lnx",
        "offset": 0,
        "slot": "0",
        "type": "t_contract(IERC20)2308"
      },
      {
        "astId": 2329,
        "contract": "contracts/StakeRewards.sol:StakeRewards",
        "label": "protocol",
        "offset": 0,
        "slot": "1",
        "type": "t_address"
      },
      {
        "astId": 2331,
        "contract": "contracts/StakeRewards.sol:StakeRewards",
        "label": "WGLP",
        "offset": 0,
        "slot": "2",
        "type": "t_address"
      },
      {
        "astId": 2334,
        "contract": "contracts/StakeRewards.sol:StakeRewards",
        "label": "vault",
        "offset": 0,
        "slot": "3",
        "type": "t_contract(IVault)2321"
      },
      {
        "astId": 2336,
        "contract": "contracts/StakeRewards.sol:StakeRewards",
        "label": "governance",
        "offset": 0,
        "slot": "4",
        "type": "t_address"
      },
      {
        "astId": 2340,
        "contract": "contracts/StakeRewards.sol:StakeRewards",
        "label": "userStaked",
        "offset": 0,
        "slot": "5",
        "type": "t_mapping(t_address,t_uint256)"
      },
      {
        "astId": 2342,
        "contract": "contracts/StakeRewards.sol:StakeRewards",
        "label": "totalStaked",
        "offset": 0,
        "slot": "6",
        "type": "t_uint256"
      },
      {
        "astId": 2348,
        "contract": "contracts/StakeRewards.sol:StakeRewards",
        "label": "userClaimed",
        "offset": 0,
        "slot": "7",
        "type": "t_mapping(t_address,t_mapping(t_address,t_uint256))"
      },
      {
        "astId": 2352,
        "contract": "contracts/StakeRewards.sol:StakeRewards",
        "label": "tokensRewarded",
        "offset": 0,
        "slot": "8",
        "type": "t_mapping(t_address,t_uint256)"
      }
    ],
    "types": {
      "t_address": {
        "encoding": "inplace",
        "label": "address",
        "numberOfBytes": "20"
      },
      "t_contract(IERC20)2308": {
        "encoding": "inplace",
        "label": "contract IERC20",
        "numberOfBytes": "20"
      },
      "t_contract(IVault)2321": {
        "encoding": "inplace",
        "label": "contract IVault",
        "numberOfBytes": "20"
      },
      "t_mapping(t_address,t_mapping(t_address,t_uint256))": {
        "encoding": "mapping",
        "key": "t_address",
        "label": "mapping(address => mapping(address => uint256))",
        "numberOfBytes": "32",
        "value": "t_mapping(t_address,t_uint256)"
      },
      "t_mapping(t_address,t_uint256)": {
        "encoding": "mapping",
        "key": "t_address",
        "label": "mapping(address => uint256)",
        "numberOfBytes": "32",
        "value": "t_uint256"
      },
      "t_uint256": {
        "encoding": "inplace",
        "label": "uint256",
        "numberOfBytes": "32"
      }
    }
  }
}