{
  "_format": "hh-sol-artifact-1",
  "contractName": "Protocol",
  "sourceName": "contracts/Protocol.sol",
  "abi": [
    {
      "inputs": [
        {
          "internalType": "address",
          "name": "_vault",
          "type": "address"
        },
        {
          "internalType": "address",
          "name": "_rewardsRouter",
          "type": "address"
        },
        {
          "internalType": "address",
          "name": "_GLP",
          "type": "address"
        },
        {
          "internalType": "address",
          "name": "_weth",
          "type": "address"
        },
        {
          "internalType": "address",
          "name": "_lnxReward",
          "type": "address"
        },
        {
          "internalType": "address",
          "name": "_stakeReward",
          "type": "address"
        },
        {
          "internalType": "address",
          "name": "_priceFeed",
          "type": "address"
        },
        {
          "internalType": "address",
          "name": "_GLPManager",
          "type": "address"
        }
      ],
      "stateMutability": "nonpayable",
      "type": "constructor"
    },
    {
      "inputs": [],
      "name": "GLP",
      "outputs": [
        {
          "internalType": "contract IERC20",
          "name": "",
          "type": "address"
        }
      ],
      "stateMutability": "view",
      "type": "function"
    },
    {
      "inputs": [],
      "name": "GLPManager",
      "outputs": [
        {
          "internalType": "address",
          "name": "",
          "type": "address"
        }
      ],
      "stateMutability": "view",
      "type": "function"
    },
    {
      "inputs": [],
      "name": "GLPShare",
      "outputs": [
        {
          "internalType": "contract IERC20",
          "name": "",
          "type": "address"
        }
      ],
      "stateMutability": "view",
      "type": "function"
    },
    {
      "inputs": [
        {
          "internalType": "address",
          "name": "account",
          "type": "address"
        }
      ],
      "name": "accountBorrowedValue",
      "outputs": [
        {
          "internalType": "uint256",
          "name": "",
          "type": "uint256"
        }
      ],
      "stateMutability": "view",
      "type": "function"
    },
    {
      "inputs": [
        {
          "internalType": "address",
          "name": "account",
          "type": "address"
        }
      ],
      "name": "accountCollateralValue",
      "outputs": [
        {
          "internalType": "uint256",
          "name": "",
          "type": "uint256"
        }
      ],
      "stateMutability": "view",
      "type": "function"
    },
    {
      "inputs": [
        {
          "internalType": "address",
          "name": "account",
          "type": "address"
        }
      ],
      "name": "accountHealth",
      "outputs": [
        {
          "internalType": "uint256",
          "name": "",
          "type": "uint256"
        }
      ],
      "stateMutability": "view",
      "type": "function"
    },
    {
      "inputs": [
        {
          "internalType": "address",
          "name": "account",
          "type": "address"
        }
      ],
      "name": "accountLentValue",
      "outputs": [
        {
          "internalType": "uint256",
          "name": "",
          "type": "uint256"
        }
      ],
      "stateMutability": "view",
      "type": "function"
    },
    {
      "inputs": [
        {
          "internalType": "address",
          "name": "token",
          "type": "address"
        },
        {
          "internalType": "uint256",
          "name": "tokenAmount",
          "type": "uint256"
        }
      ],
      "name": "borrow",
      "outputs": [],
      "stateMutability": "nonpayable",
      "type": "function"
    },
    {
      "inputs": [
        {
          "internalType": "address",
          "name": "",
          "type": "address"
        }
      ],
      "name": "borrowShare",
      "outputs": [
        {
          "internalType": "address",
          "name": "",
          "type": "address"
        }
      ],
      "stateMutability": "view",
      "type": "function"
    },
    {
      "inputs": [
        {
          "internalType": "address",
          "name": "",
          "type": "address"
        }
      ],
      "name": "borrowToken",
      "outputs": [
        {
          "internalType": "bool",
          "name": "",
          "type": "bool"
        }
      ],
      "stateMutability": "view",
      "type": "function"
    },
    {
      "inputs": [
        {
          "internalType": "address",
          "name": "",
          "type": "address"
        }
      ],
      "name": "borrowTokenBalance",
      "outputs": [
        {
          "internalType": "uint256",
          "name": "",
          "type": "uint256"
        }
      ],
      "stateMutability": "view",
      "type": "function"
    },
    {
      "inputs": [
        {
          "internalType": "address",
          "name": "",
          "type": "address"
        },
        {
          "internalType": "address",
          "name": "",
          "type": "address"
        }
      ],
      "name": "borrowedAmount",
      "outputs": [
        {
          "internalType": "uint256",
          "name": "",
          "type": "uint256"
        }
      ],
      "stateMutability": "view",
      "type": "function"
    },
    {
      "inputs": [
        {
          "internalType": "address",
          "name": "account",
          "type": "address"
        },
        {
          "internalType": "address",
          "name": "token",
          "type": "address"
        }
      ],
      "name": "borrowingPower",
      "outputs": [
        {
          "internalType": "uint256",
          "name": "",
          "type": "uint256"
        }
      ],
      "stateMutability": "view",
      "type": "function"
    },
    {
      "inputs": [
        {
          "internalType": "address",
          "name": "account",
          "type": "address"
        }
      ],
      "name": "borrowingPowerUSD",
      "outputs": [
        {
          "internalType": "uint256",
          "name": "",
          "type": "uint256"
        }
      ],
      "stateMutability": "view",
      "type": "function"
    },
    {
      "inputs": [
        {
          "internalType": "address",
          "name": "token",
          "type": "address"
        }
      ],
      "name": "debtValue",
      "outputs": [
        {
          "internalType": "uint256",
          "name": "",
          "type": "uint256"
        }
      ],
      "stateMutability": "view",
      "type": "function"
    },
    {
      "inputs": [
        {
          "internalType": "address",
          "name": "",
          "type": "address"
        }
      ],
      "name": "decimalMultiplier",
      "outputs": [
        {
          "internalType": "uint256",
          "name": "",
          "type": "uint256"
        }
      ],
      "stateMutability": "view",
      "type": "function"
    },
    {
      "inputs": [
        {
          "internalType": "address",
          "name": "token",
          "type": "address"
        },
        {
          "internalType": "uint256",
          "name": "amount",
          "type": "uint256"
        }
      ],
      "name": "depositCollateral",
      "outputs": [],
      "stateMutability": "nonpayable",
      "type": "function"
    },
    {
      "inputs": [],
      "name": "getCollateralPrice",
      "outputs": [
        {
          "internalType": "uint256",
          "name": "",
          "type": "uint256"
        }
      ],
      "stateMutability": "view",
      "type": "function"
    },
    {
      "inputs": [],
      "name": "getCollateralShareValue",
      "outputs": [
        {
          "internalType": "uint256",
          "name": "",
          "type": "uint256"
        }
      ],
      "stateMutability": "view",
      "type": "function"
    },
    {
      "inputs": [
        {
          "internalType": "address",
          "name": "token",
          "type": "address"
        }
      ],
      "name": "getShareValue",
      "outputs": [
        {
          "internalType": "uint256",
          "name": "",
          "type": "uint256"
        }
      ],
      "stateMutability": "view",
      "type": "function"
    },
    {
      "inputs": [
        {
          "internalType": "address",
          "name": "token",
          "type": "address"
        }
      ],
      "name": "getTokenAccruedInterest",
      "outputs": [
        {
          "internalType": "uint256",
          "name": "",
          "type": "uint256"
        }
      ],
      "stateMutability": "view",
      "type": "function"
    },
    {
      "inputs": [],
      "name": "governance",
      "outputs": [
        {
          "internalType": "address",
          "name": "",
          "type": "address"
        }
      ],
      "stateMutability": "view",
      "type": "function"
    },
    {
      "inputs": [
        {
          "internalType": "address",
          "name": "",
          "type": "address"
        }
      ],
      "name": "interestCheckpoint",
      "outputs": [
        {
          "internalType": "uint256",
          "name": "",
          "type": "uint256"
        }
      ],
      "stateMutability": "view",
      "type": "function"
    },
    {
      "inputs": [
        {
          "internalType": "address",
          "name": "token",
          "type": "address"
        }
      ],
      "name": "interestRate",
      "outputs": [
        {
          "internalType": "uint256",
          "name": "",
          "type": "uint256"
        }
      ],
      "stateMutability": "view",
      "type": "function"
    },
    {
      "inputs": [
        {
          "internalType": "address",
          "name": "token",
          "type": "address"
        },
        {
          "internalType": "uint256",
          "name": "amount",
          "type": "uint256"
        }
      ],
      "name": "lend",
      "outputs": [],
      "stateMutability": "nonpayable",
      "type": "function"
    },
    {
      "inputs": [
        {
          "internalType": "address",
          "name": "account",
          "type": "address"
        }
      ],
      "name": "liquidate",
      "outputs": [],
      "stateMutability": "nonpayable",
      "type": "function"
    },
    {
      "inputs": [],
      "name": "lnxReward",
      "outputs": [
        {
          "internalType": "address",
          "name": "",
          "type": "address"
        }
      ],
      "stateMutability": "view",
      "type": "function"
    },
    {
      "inputs": [],
      "name": "ltv",
      "outputs": [
        {
          "internalType": "uint256",
          "name": "",
          "type": "uint256"
        }
      ],
      "stateMutability": "view",
      "type": "function"
    },
    {
      "inputs": [],
      "name": "priceFeed",
      "outputs": [
        {
          "internalType": "contract IPriceFeed",
          "name": "",
          "type": "address"
        }
      ],
      "stateMutability": "view",
      "type": "function"
    },
    {
      "inputs": [
        {
          "internalType": "address",
          "name": "token",
          "type": "address"
        },
        {
          "internalType": "uint256",
          "name": "tokenAmount",
          "type": "uint256"
        }
      ],
      "name": "repay",
      "outputs": [],
      "stateMutability": "nonpayable",
      "type": "function"
    },
    {
      "inputs": [
        {
          "internalType": "address",
          "name": "token",
          "type": "address"
        }
      ],
      "name": "repayAll",
      "outputs": [],
      "stateMutability": "nonpayable",
      "type": "function"
    },
    {
      "inputs": [],
      "name": "rewardsRouter",
      "outputs": [
        {
          "internalType": "contract IRewardsRouter",
          "name": "",
          "type": "address"
        }
      ],
      "stateMutability": "view",
      "type": "function"
    },
    {
      "inputs": [
        {
          "internalType": "address",
          "name": "token",
          "type": "address"
        },
        {
          "internalType": "address",
          "name": "share",
          "type": "address"
        }
      ],
      "name": "setBorrowToken",
      "outputs": [],
      "stateMutability": "nonpayable",
      "type": "function"
    },
    {
      "inputs": [
        {
          "internalType": "address",
          "name": "token",
          "type": "address"
        },
        {
          "internalType": "bool",
          "name": "allowed",
          "type": "bool"
        }
      ],
      "name": "setBorrowTokenAllowed",
      "outputs": [],
      "stateMutability": "nonpayable",
      "type": "function"
    },
    {
      "inputs": [
        {
          "internalType": "address",
          "name": "_GLPShare",
          "type": "address"
        }
      ],
      "name": "setGLPShare",
      "outputs": [],
      "stateMutability": "nonpayable",
      "type": "function"
    },
    {
      "inputs": [
        {
          "internalType": "address",
          "name": "_governance",
          "type": "address"
        }
      ],
      "name": "setGovernance",
      "outputs": [],
      "stateMutability": "nonpayable",
      "type": "function"
    },
    {
      "inputs": [
        {
          "internalType": "uint256",
          "name": "_ltv",
          "type": "uint256"
        }
      ],
      "name": "setltv",
      "outputs": [],
      "stateMutability": "nonpayable",
      "type": "function"
    },
    {
      "inputs": [],
      "name": "stakeReward",
      "outputs": [
        {
          "internalType": "address",
          "name": "",
          "type": "address"
        }
      ],
      "stateMutability": "view",
      "type": "function"
    },
    {
      "inputs": [
        {
          "internalType": "address",
          "name": "",
          "type": "address"
        }
      ],
      "name": "tokenDebt",
      "outputs": [
        {
          "internalType": "uint256",
          "name": "",
          "type": "uint256"
        }
      ],
      "stateMutability": "view",
      "type": "function"
    },
    {
      "inputs": [
        {
          "internalType": "address",
          "name": "token",
          "type": "address"
        }
      ],
      "name": "totalBorrowedAmount",
      "outputs": [
        {
          "internalType": "uint256",
          "name": "",
          "type": "uint256"
        }
      ],
      "stateMutability": "view",
      "type": "function"
    },
    {
      "inputs": [],
      "name": "totalCollateral",
      "outputs": [
        {
          "internalType": "uint256",
          "name": "",
          "type": "uint256"
        }
      ],
      "stateMutability": "view",
      "type": "function"
    },
    {
      "inputs": [],
      "name": "totalLentValue",
      "outputs": [
        {
          "internalType": "uint256",
          "name": "",
          "type": "uint256"
        }
      ],
      "stateMutability": "view",
      "type": "function"
    },
    {
      "inputs": [
        {
          "internalType": "address",
          "name": "account",
          "type": "address"
        },
        {
          "internalType": "address",
          "name": "token",
          "type": "address"
        }
      ],
      "name": "userDebt",
      "outputs": [
        {
          "internalType": "uint256",
          "name": "",
          "type": "uint256"
        }
      ],
      "stateMutability": "view",
      "type": "function"
    },
    {
      "inputs": [
        {
          "internalType": "address",
          "name": "account",
          "type": "address"
        },
        {
          "internalType": "address",
          "name": "token",
          "type": "address"
        }
      ],
      "name": "userDebtUSD",
      "outputs": [
        {
          "internalType": "uint256",
          "name": "",
          "type": "uint256"
        }
      ],
      "stateMutability": "view",
      "type": "function"
    },
    {
      "inputs": [],
      "name": "vault",
      "outputs": [
        {
          "internalType": "contract IVault",
          "name": "",
          "type": "address"
        }
      ],
      "stateMutability": "view",
      "type": "function"
    },
    {
      "inputs": [],
      "name": "weth",
      "outputs": [
        {
          "internalType": "address",
          "name": "",
          "type": "address"
        }
      ],
      "stateMutability": "view",
      "type": "function"
    },
    {
      "inputs": [
        {
          "internalType": "address",
          "name": "token",
          "type": "address"
        },
        {
          "internalType": "uint256",
          "name": "shareAmount",
          "type": "uint256"
        }
      ],
      "name": "withdraw",
      "outputs": [],
      "stateMutability": "nonpayable",
      "type": "function"
    },
    {
      "inputs": [
        {
          "internalType": "address",
          "name": "token",
          "type": "address"
        }
      ],
      "name": "withdrawAll",
      "outputs": [],
      "stateMutability": "nonpayable",
      "type": "function"
    },
    {
      "inputs": [
        {
          "internalType": "uint256",
          "name": "shareAmount",
          "type": "uint256"
        }
      ],
      "name": "withdrawCollateral",
      "outputs": [
        {
          "internalType": "uint256",
          "name": "",
          "type": "uint256"
        }
      ],
      "stateMutability": "nonpayable",
      "type": "function"
    },
    {
      "inputs": [],
      "name": "withdrawCollateralAll",
      "outputs": [],
      "stateMutability": "nonpayable",
      "type": "function"
    }
  ],
  "bytecode": "0x60806040526032600e553480156200001657600080fd5b506040516200611a3803806200611a83398181016040528101906200003c9190620002fd565b33600860006101000a81548173ffffffffffffffffffffffffffffffffffffffff021916908373ffffffffffffffffffffffffffffffffffffffff16021790555087600960006101000a81548173ffffffffffffffffffffffffffffffffffffffff021916908373ffffffffffffffffffffffffffffffffffffffff16021790555086600a60006101000a81548173ffffffffffffffffffffffffffffffffffffffff021916908373ffffffffffffffffffffffffffffffffffffffff16021790555085600c60006101000a81548173ffffffffffffffffffffffffffffffffffffffff021916908373ffffffffffffffffffffffffffffffffffffffff16021790555084600d60006101000a81548173ffffffffffffffffffffffffffffffffffffffff021916908373ffffffffffffffffffffffffffffffffffffffff16021790555083600f60006101000a81548173ffffffffffffffffffffffffffffffffffffffff021916908373ffffffffffffffffffffffffffffffffffffffff16021790555082601060006101000a81548173ffffffffffffffffffffffffffffffffffffffff021916908373ffffffffffffffffffffffffffffffffffffffff16021790555081601160006101000a81548173ffffffffffffffffffffffffffffffffffffffff021916908373ffffffffffffffffffffffffffffffffffffffff16021790555080601260006101000a81548173ffffffffffffffffffffffffffffffffffffffff021916908373ffffffffffffffffffffffffffffffffffffffff1602179055505050505050505050620003c6565b600080fd5b600073ffffffffffffffffffffffffffffffffffffffff82169050919050565b6000620002c58262000298565b9050919050565b620002d781620002b8565b8114620002e357600080fd5b50565b600081519050620002f781620002cc565b92915050565b600080600080600080600080610100898b03121562000321576200032062000293565b5b6000620003318b828c01620002e6565b9850506020620003448b828c01620002e6565b9750506040620003578b828c01620002e6565b96505060606200036a8b828c01620002e6565b95505060806200037d8b828c01620002e6565b94505060a0620003908b828c01620002e6565b93505060c0620003a38b828c01620002e6565b92505060e0620003b68b828c01620002e6565b9150509295985092959890939650565b615d4480620003d66000396000f3fe608060405234801561001057600080fd5b50600436106102d55760003560e01c806388d595db11610182578063c09f66aa116100e9578063f18ea6d8116100a2578063f7683bbc1161007c578063f7683bbc1461097a578063f9c019d514610998578063fa09e630146109c8578063fbfa77cf146109e4576102d5565b8063f18ea6d8146108fe578063f3e1abe11461092e578063f3fef3a31461095e576102d5565b8063c09f66aa1461083a578063c9f005af14610844578063cc4c336b14610874578063d196943c146108a4578063e152c34a146108c2578063e68802e3146108e0576102d5565b8063a2fb342d1161013b578063a2fb342d1461077a578063a5d5db0c14610796578063ab033ea9146107b2578063afbff212146107ce578063b28147d9146107ec578063b9637e491461080a576102d5565b806388d595db1461068057806389e02a581461069c5780638b96b280146106ba5780638f2b6270146106ea57806397ea86051461071a578063983ff6151461074a576102d5565b80635aa6e6751161024157806372665438116101fa578063770089f1116101d4578063770089f1146105d45780637a8f4605146106045780637c27383b146106345780637c2c69c014610650576102d5565b80637266543814610556578063741bef1a146105865780637558abc8146105a4576102d5565b80635aa6e675146104805780635bf12feb1461049e5780636112fe2e146104bc57806368cb7e8d146104ec5780636ac9ce6c146105085780636fb49d7314610538576102d5565b80632f865568116102935780632f865568146103c05780633fc8cef3146103dc5780634414e1af146103fa578063474fefaa1461042a5780634ac8eb5f146104465780634b8a352914610464576102d5565b80623aadee146102da57806314c8ad2c146102f657806314f47dcc1461032657806322867d781461034457806323eafe1e146103605780632c9cbca214610390575b600080fd5b6102f460048036038101906102ef9190614f24565b610a02565b005b610310600480360381019061030b9190614f64565b610aec565b60405161031d9190614fbd565b60405180910390f35b61032e610ba7565b60405161033b9190614fe7565b60405180910390f35b61035e6004803603810190610359919061502e565b610bcd565b005b61037a60048036038101906103759190614f64565b611283565b6040516103879190614fbd565b60405180910390f35b6103aa60048036038101906103a5919061506e565b6112cb565b6040516103b79190614fe7565b60405180910390f35b6103da60048036038101906103d5919061506e565b6112fe565b005b6103e4611a76565b6040516103f19190614fe7565b60405180910390f35b610414600480360381019061040f919061506e565b611a9c565b6040516104219190614fbd565b60405180910390f35b610444600480360381019061043f9190614f64565b611d84565b005b61044e612141565b60405161045b9190614fbd565b60405180910390f35b61047e6004803603810190610479919061502e565b612147565b005b6104886124ec565b6040516104959190614fe7565b60405180910390f35b6104a6612512565b6040516104b39190614fe7565b60405180910390f35b6104d660048036038101906104d1919061509b565b612538565b6040516104e39190614fbd565b60405180910390f35b6105066004803603810190610501919061506e565b612742565b005b610522600480360381019061051d919061506e565b6128a7565b60405161052f9190614fbd565b60405180910390f35b610540612ae3565b60405161054d9190614fbd565b60405180910390f35b610570600480360381019061056b9190614f64565b612ae9565b60405161057d9190614fbd565b60405180910390f35b61058e612b0e565b60405161059b9190615127565b60405180910390f35b6105be60048036038101906105b9919061506e565b612b34565b6040516105cb9190614fbd565b60405180910390f35b6105ee60048036038101906105e9919061506e565b612b4c565b6040516105fb9190614fbd565b60405180910390f35b61061e6004803603810190610619919061506e565b612b64565b60405161062b9190614fbd565b60405180910390f35b61064e6004803603810190610649919061506e565b612c95565b005b61066a6004803603810190610665919061506e565b612d08565b6040516106779190614fbd565b60405180910390f35b61069a6004803603810190610695919061509b565b612d85565b005b6106a4612e70565b6040516106b19190614fe7565b60405180910390f35b6106d460048036038101906106cf919061506e565b612e96565b6040516106e19190614fbd565b60405180910390f35b61070460048036038101906106ff919061506e565b612f5c565b6040516107119190614fbd565b60405180910390f35b610734600480360381019061072f919061506e565b61305f565b6040516107419190614fbd565b60405180910390f35b610764600480360381019061075f919061506e565b61312c565b6040516107719190614fbd565b60405180910390f35b610794600480360381019061078f919061502e565b613158565b005b6107b060048036038101906107ab919061502e565b613560565b005b6107cc60048036038101906107c7919061506e565b613782565b005b6107d6613856565b6040516107e39190615163565b60405180910390f35b6107f461387c565b6040516108019190615163565b60405180910390f35b610824600480360381019061081f919061506e565b6138a2565b6040516108319190614fbd565b60405180910390f35b61084261395a565b005b61085e60048036038101906108599190614f64565b613a52565b60405161086b9190614fbd565b60405180910390f35b61088e6004803603810190610889919061506e565b613ab3565b60405161089b919061518d565b60405180910390f35b6108ac613ad3565b6040516108b99190614fbd565b60405180910390f35b6108ca613cae565b6040516108d791906151c9565b60405180910390f35b6108e8613cd4565b6040516108f59190614fbd565b60405180910390f35b6109186004803603810190610913919061506e565b613e43565b6040516109259190614fbd565b60405180910390f35b6109486004803603810190610943919061506e565b613e5b565b6040516109559190614fbd565b60405180910390f35b6109786004803603810190610973919061502e565b613e73565b005b6109826142f6565b60405161098f9190614fbd565b60405180910390f35b6109b260048036038101906109ad919061506e565b614762565b6040516109bf9190614fbd565b60405180910390f35b6109e260048036038101906109dd919061506e565b61498a565b005b6109ec614a75565b6040516109f99190615205565b60405180910390f35b600860009054906101000a900473ffffffffffffffffffffffffffffffffffffffff1673ffffffffffffffffffffffffffffffffffffffff163373ffffffffffffffffffffffffffffffffffffffff1614610a92576040517f08c379a0000000000000000000000000000000000000000000000000000000008152600401610a899061527d565b60405180910390fd5b806000808473ffffffffffffffffffffffffffffffffffffffff1673ffffffffffffffffffffffffffffffffffffffff16815260200190815260200160002060006101000a81548160ff0219169083151502179055505050565b6000610b9f670de0b6b3a7640000610b91610b06856138a2565b600560008873ffffffffffffffffffffffffffffffffffffffff1673ffffffffffffffffffffffffffffffffffffffff16815260200190815260200160002060008773ffffffffffffffffffffffffffffffffffffffff1673ffffffffffffffffffffffffffffffffffffffff16815260200190815260200160002054614a9b90919063ffffffff16565b614ab190919063ffffffff16565b905092915050565b601060009054906101000a900473ffffffffffffffffffffffffffffffffffffffff1681565b6000610db3610da4600160008673ffffffffffffffffffffffffffffffffffffffff1673ffffffffffffffffffffffffffffffffffffffff16815260200190815260200160002060009054906101000a900473ffffffffffffffffffffffffffffffffffffffff1673ffffffffffffffffffffffffffffffffffffffff166318160ddd6040518163ffffffff1660e01b8152600401602060405180830381865afa158015610c7f573d6000803e3d6000fd5b505050506040513d601f19601f82011682018060405250810190610ca391906152b2565b610d96600160008873ffffffffffffffffffffffffffffffffffffffff1673ffffffffffffffffffffffffffffffffffffffff16815260200190815260200160002060009054906101000a900473ffffffffffffffffffffffffffffffffffffffff1673ffffffffffffffffffffffffffffffffffffffff166370a08231336040518263ffffffff1660e01b8152600401610d3e9190614fe7565b602060405180830381865afa158015610d5b573d6000803e3d6000fd5b505050506040513d601f19601f82011682018060405250810190610d7f91906152b2565b610d8888612b64565b614a9b90919063ffffffff16565b614ab190919063ffffffff16565b83614ac790919063ffffffff16565b9050610dbf3384610aec565b610e1d600360008673ffffffffffffffffffffffffffffffffffffffff1673ffffffffffffffffffffffffffffffffffffffff16815260200190815260200160002054600a610e0e9190615441565b84614a9b90919063ffffffff16565b1115610e5e576040517f08c379a0000000000000000000000000000000000000000000000000000000008152600401610e55906154d8565b60405180910390fd5b610ef0610e6a846138a2565b610ee2600360008773ffffffffffffffffffffffffffffffffffffffff1673ffffffffffffffffffffffffffffffffffffffff16815260200190815260200160002054600a610eb99190615441565b610ed4670de0b6b3a764000087614a9b90919063ffffffff16565b614a9b90919063ffffffff16565b614ab190919063ffffffff16565b600560003373ffffffffffffffffffffffffffffffffffffffff1673ffffffffffffffffffffffffffffffffffffffff16815260200190815260200160002060008573ffffffffffffffffffffffffffffffffffffffff1673ffffffffffffffffffffffffffffffffffffffff1681526020019081526020016000206000828254610f7b91906154f8565b92505081905550610f8b8361305f565b600460008573ffffffffffffffffffffffffffffffffffffffff1673ffffffffffffffffffffffffffffffffffffffff1681526020019081526020016000206000828254610fd9919061552c565b9250508190555042600660008573ffffffffffffffffffffffffffffffffffffffff1673ffffffffffffffffffffffffffffffffffffffff16815260200190815260200160002081905550611082600360008573ffffffffffffffffffffffffffffffffffffffff1673ffffffffffffffffffffffffffffffffffffffff16815260200190815260200160002054600a6110739190615441565b83614a9b90919063ffffffff16565b600460008573ffffffffffffffffffffffffffffffffffffffff1673ffffffffffffffffffffffffffffffffffffffff16815260200190815260200160002060008282546110d091906154f8565b925050819055508273ffffffffffffffffffffffffffffffffffffffff166323b872dd3330856040518463ffffffff1660e01b815260040161111493929190615582565b6020604051808303816000875af1158015611133573d6000803e3d6000fd5b505050506040513d601f19601f8201168201806040525081019061115791906155ce565b50601060009054906101000a900473ffffffffffffffffffffffffffffffffffffffff1673ffffffffffffffffffffffffffffffffffffffff16639aa49864846111ab600485614ab190919063ffffffff16565b6040518363ffffffff1660e01b81526004016111c89291906155fb565b600060405180830381600087803b1580156111e257600080fd5b505af11580156111f6573d6000803e3d6000fd5b505050506112216004611213600384614a9b90919063ffffffff16565b614ab190919063ffffffff16565b600260008573ffffffffffffffffffffffffffffffffffffffff1673ffffffffffffffffffffffffffffffffffffffff168152602001908152602001600020600082825461126f919061552c565b9250508190555061127e614add565b505050565b60006112c3670de0b6b3a76400006112b561129d85614da9565b6112a78787610aec565b614a9b90919063ffffffff16565b614ab190919063ffffffff16565b905092915050565b60016020528060005260406000206000915054906101000a900473ffffffffffffffffffffffffffffffffffffffff1681565b670de0b6b3a764000061131082612e96565b10611350576040517f08c379a000000000000000000000000000000000000000000000000000000000815260040161134790615670565b60405180910390fd5b600061135b826128a7565b905060008060005b600960009054906101000a900473ffffffffffffffffffffffffffffffffffffffff1673ffffffffffffffffffffffffffffffffffffffff16630842b0766040518163ffffffff1660e01b8152600401602060405180830381865afa1580156113d0573d6000803e3d6000fd5b505050506040513d601f19601f820116820180604052508101906113f491906152b2565b811015611a6f5760006114078684611283565b1115611a5c57600960009054906101000a900473ffffffffffffffffffffffffffffffffffffffff1673ffffffffffffffffffffffffffffffffffffffff1663e468baf0826040518263ffffffff1660e01b81526004016114689190614fbd565b602060405180830381865afa158015611485573d6000803e3d6000fd5b505050506040513d601f19601f820116820180604052508101906114a991906156a5565b9150600a60009054906101000a900473ffffffffffffffffffffffffffffffffffffffff1673ffffffffffffffffffffffffffffffffffffffff16630f3aa554836115e6876115d86114fb8b89611283565b6115ca611520670de0b6b3a7640000611512613cd4565b614ab190919063ffffffff16565b600b60009054906101000a900473ffffffffffffffffffffffffffffffffffffffff1673ffffffffffffffffffffffffffffffffffffffff166370a082318f6040518263ffffffff1660e01b815260040161157b9190614fe7565b602060405180830381865afa158015611598573d6000803e3d6000fd5b505050506040513d601f19601f820116820180604052508101906115bc91906152b2565b614a9b90919063ffffffff16565b614a9b90919063ffffffff16565b614ab190919063ffffffff16565b6001306040518563ffffffff1660e01b8152600401611608949392919061570d565b6020604051808303816000875af1158015611627573d6000803e3d6000fd5b505050506040513d601f19601f8201168201806040525081019061164b91906152b2565b92508173ffffffffffffffffffffffffffffffffffffffff1663a9059cbb336116916064611683600589614a9b90919063ffffffff16565b614ab190919063ffffffff16565b6040518363ffffffff1660e01b81526004016116ae9291906155fb565b6020604051808303816000875af11580156116cd573d6000803e3d6000fd5b505050506040513d601f19601f820116820180604052508101906116f191906155ce565b508173ffffffffffffffffffffffffffffffffffffffff1663a9059cbb601060009054906101000a900473ffffffffffffffffffffffffffffffffffffffff16611758606461174a600589614a9b90919063ffffffff16565b614ab190919063ffffffff16565b6040518363ffffffff1660e01b81526004016117759291906155fb565b6020604051808303816000875af1158015611794573d6000803e3d6000fd5b505050506040513d601f19601f820116820180604052508101906117b891906155ce565b506117c28261305f565b600460008473ffffffffffffffffffffffffffffffffffffffff1673ffffffffffffffffffffffffffffffffffffffff1681526020019081526020016000206000828254611810919061552c565b9250508190555042600660008473ffffffffffffffffffffffffffffffffffffffff1673ffffffffffffffffffffffffffffffffffffffff16815260200190815260200160002081905550600560008673ffffffffffffffffffffffffffffffffffffffff1673ffffffffffffffffffffffffffffffffffffffff16815260200190815260200160002060008373ffffffffffffffffffffffffffffffffffffffff1673ffffffffffffffffffffffffffffffffffffffff16815260200190815260200160002054600260008473ffffffffffffffffffffffffffffffffffffffff1673ffffffffffffffffffffffffffffffffffffffff168152602001908152602001600020600082825461192691906154f8565b925050819055506000600560008773ffffffffffffffffffffffffffffffffffffffff1673ffffffffffffffffffffffffffffffffffffffff16815260200190815260200160002060008473ffffffffffffffffffffffffffffffffffffffff1673ffffffffffffffffffffffffffffffffffffffff1681526020019081526020016000208190555082600260008473ffffffffffffffffffffffffffffffffffffffff1673ffffffffffffffffffffffffffffffffffffffff16815260200190815260200160002060008282546119fe919061552c565b9250508190555082600460008473ffffffffffffffffffffffffffffffffffffffff1673ffffffffffffffffffffffffffffffffffffffff1681526020019081526020016000206000828254611a5491906154f8565b925050819055505b8080611a6790615752565b915050611363565b5050505050565b600d60009054906101000a900473ffffffffffffffffffffffffffffffffffffffff1681565b60008060005b600960009054906101000a900473ffffffffffffffffffffffffffffffffffffffff1673ffffffffffffffffffffffffffffffffffffffff16630842b0766040518163ffffffff1660e01b8152600401602060405180830381865afa158015611b0f573d6000803e3d6000fd5b505050506040513d601f19601f82011682018060405250810190611b3391906152b2565b811015611d7a576000600960009054906101000a900473ffffffffffffffffffffffffffffffffffffffff1673ffffffffffffffffffffffffffffffffffffffff1663e468baf0836040518263ffffffff1660e01b8152600401611b979190614fbd565b602060405180830381865afa158015611bb4573d6000803e3d6000fd5b505050506040513d601f19601f82011682018060405250810190611bd891906156a5565b9050611d596ec097ce7bc90715b34b9f1000000000611d4b611bf984614da9565b611d3d611c0586614762565b611d2f600160008973ffffffffffffffffffffffffffffffffffffffff1673ffffffffffffffffffffffffffffffffffffffff16815260200190815260200160002060009054906101000a900473ffffffffffffffffffffffffffffffffffffffff1673ffffffffffffffffffffffffffffffffffffffff166370a082318d6040518263ffffffff1660e01b8152600401611ca09190614fe7565b602060405180830381865afa158015611cbd573d6000803e3d6000fd5b505050506040513d601f19601f82011682018060405250810190611ce191906152b2565b600260008a73ffffffffffffffffffffffffffffffffffffffff1673ffffffffffffffffffffffffffffffffffffffff16815260200190815260200160002054614a9b90919063ffffffff16565b614a9b90919063ffffffff16565b614a9b90919063ffffffff16565b614ab190919063ffffffff16565b83611d64919061552c565b9250508080611d7290615752565b915050611aa2565b5080915050919050565b600860009054906101000a900473ffffffffffffffffffffffffffffffffffffffff1673ffffffffffffffffffffffffffffffffffffffff163373ffffffffffffffffffffffffffffffffffffffff1614611e14576040517f08c379a0000000000000000000000000000000000000000000000000000000008152600401611e0b9061527d565b60405180910390fd5b600073ffffffffffffffffffffffffffffffffffffffff16600160008473ffffffffffffffffffffffffffffffffffffffff1673ffffffffffffffffffffffffffffffffffffffff16815260200190815260200160002060009054906101000a900473ffffffffffffffffffffffffffffffffffffffff1673ffffffffffffffffffffffffffffffffffffffff1614611ee2576040517f08c379a0000000000000000000000000000000000000000000000000000000008152600401611ed99061527d565b60405180910390fd5b80600160008473ffffffffffffffffffffffffffffffffffffffff1673ffffffffffffffffffffffffffffffffffffffff16815260200190815260200160002060006101000a81548173ffffffffffffffffffffffffffffffffffffffff021916908373ffffffffffffffffffffffffffffffffffffffff16021790555060016000808473ffffffffffffffffffffffffffffffffffffffff1673ffffffffffffffffffffffffffffffffffffffff16815260200190815260200160002060006101000a81548160ff0219169083151502179055506120398273ffffffffffffffffffffffffffffffffffffffff1663313ce5676040518163ffffffff1660e01b8152600401602060405180830381865afa158015612005573d6000803e3d6000fd5b505050506040513d601f19601f8201168201806040525081019061202991906152b2565b6012614ac790919063ffffffff16565b600360008473ffffffffffffffffffffffffffffffffffffffff1673ffffffffffffffffffffffffffffffffffffffff168152602001908152602001600020819055508173ffffffffffffffffffffffffffffffffffffffff1663095ea7b3601260009054906101000a900473ffffffffffffffffffffffffffffffffffffffff167fffffffffffffffffffffffffffffffffffffffffffffffffffffffffffffffff6040518363ffffffff1660e01b81526004016120f99291906155fb565b6020604051808303816000875af1158015612118573d6000803e3d6000fd5b505050506040513d601f19601f8201168201806040525081019061213c91906155ce565b505050565b60075481565b6121a5600360008473ffffffffffffffffffffffffffffffffffffffff1673ffffffffffffffffffffffffffffffffffffffff16815260200190815260200160002054600a6121969190615441565b82614a9b90919063ffffffff16565b6121af3384613a52565b10156121f0576040517f08c379a00000000000000000000000000000000000000000000000000000000081526004016121e7906157e7565b60405180910390fd5b6121f98261305f565b600460008473ffffffffffffffffffffffffffffffffffffffff1673ffffffffffffffffffffffffffffffffffffffff1681526020019081526020016000206000828254612247919061552c565b9250508190555042600660008473ffffffffffffffffffffffffffffffffffffffff1673ffffffffffffffffffffffffffffffffffffffff168152602001908152602001600020819055506122f0600360008473ffffffffffffffffffffffffffffffffffffffff1673ffffffffffffffffffffffffffffffffffffffff16815260200190815260200160002054600a6122e19190615441565b82614a9b90919063ffffffff16565b600460008473ffffffffffffffffffffffffffffffffffffffff1673ffffffffffffffffffffffffffffffffffffffff168152602001908152602001600020600082825461233e919061552c565b925050819055506123d7612351836138a2565b6123c96123ba600360008773ffffffffffffffffffffffffffffffffffffffff1673ffffffffffffffffffffffffffffffffffffffff16815260200190815260200160002054600a6123a39190615441565b670de0b6b3a7640000614a9b90919063ffffffff16565b84614a9b90919063ffffffff16565b614ab190919063ffffffff16565b600560003373ffffffffffffffffffffffffffffffffffffffff1673ffffffffffffffffffffffffffffffffffffffff16815260200190815260200160002060008473ffffffffffffffffffffffffffffffffffffffff1673ffffffffffffffffffffffffffffffffffffffff1681526020019081526020016000206000828254612462919061552c565b925050819055508173ffffffffffffffffffffffffffffffffffffffff1663a9059cbb33836040518363ffffffff1660e01b81526004016124a49291906155fb565b6020604051808303816000875af11580156124c3573d6000803e3d6000fd5b505050506040513d601f19601f820116820180604052508101906124e791906155ce565b505050565b600860009054906101000a900473ffffffffffffffffffffffffffffffffffffffff1681565b601260009054906101000a900473ffffffffffffffffffffffffffffffffffffffff1681565b6000600b60009054906101000a900473ffffffffffffffffffffffffffffffffffffffff1673ffffffffffffffffffffffffffffffffffffffff16639dc29fac33846040518363ffffffff1660e01b81526004016125979291906155fb565b600060405180830381600087803b1580156125b157600080fd5b505af11580156125c5573d6000803e3d6000fd5b5050505060006125ff670de0b6b3a76400006125f16125e2613cd4565b86614a9b90919063ffffffff16565b614ab190919063ffffffff16565b90506000600a60009054906101000a900473ffffffffffffffffffffffffffffffffffffffff1673ffffffffffffffffffffffffffffffffffffffff16630f3aa554600d60009054906101000a900473ffffffffffffffffffffffffffffffffffffffff16846001336040518563ffffffff1660e01b8152600401612687949392919061570d565b6020604051808303816000875af11580156126a6573d6000803e3d6000fd5b505050506040513d601f19601f820116820180604052508101906126ca91906152b2565b905081600760008282546126de91906154f8565b92505081905550670de0b6b3a76400006126f733612e96565b1015612738576040517f08c379a000000000000000000000000000000000000000000000000000000000815260040161272f90615879565b60405180910390fd5b8092505050919050565b600860009054906101000a900473ffffffffffffffffffffffffffffffffffffffff1673ffffffffffffffffffffffffffffffffffffffff163373ffffffffffffffffffffffffffffffffffffffff16146127d2576040517f08c379a00000000000000000000000000000000000000000000000000000000081526004016127c99061527d565b60405180910390fd5b600073ffffffffffffffffffffffffffffffffffffffff16600b60009054906101000a900473ffffffffffffffffffffffffffffffffffffffff1673ffffffffffffffffffffffffffffffffffffffff1614612863576040517f08c379a000000000000000000000000000000000000000000000000000000000815260040161285a906158e5565b60405180910390fd5b80600b60006101000a81548173ffffffffffffffffffffffffffffffffffffffff021916908373ffffffffffffffffffffffffffffffffffffffff16021790555050565b60008060005b600960009054906101000a900473ffffffffffffffffffffffffffffffffffffffff1673ffffffffffffffffffffffffffffffffffffffff16630842b0766040518163ffffffff1660e01b8152600401602060405180830381865afa15801561291a573d6000803e3d6000fd5b505050506040513d601f19601f8201168201806040525081019061293e91906152b2565b811015612ad957612ab9670de0b6b3a7640000612aab6129f8600960009054906101000a900473ffffffffffffffffffffffffffffffffffffffff1673ffffffffffffffffffffffffffffffffffffffff1663e468baf0866040518263ffffffff1660e01b81526004016129b29190614fbd565b602060405180830381865afa1580156129cf573d6000803e3d6000fd5b505050506040513d601f19601f820116820180604052508101906129f391906156a5565b614da9565b612a9d88600960009054906101000a900473ffffffffffffffffffffffffffffffffffffffff1673ffffffffffffffffffffffffffffffffffffffff1663e468baf0886040518263ffffffff1660e01b8152600401612a579190614fbd565b602060405180830381865afa158015612a74573d6000803e3d6000fd5b505050506040513d601f19601f82011682018060405250810190612a9891906156a5565b610aec565b614a9b90919063ffffffff16565b614ab190919063ffffffff16565b82612ac4919061552c565b91508080612ad190615752565b9150506128ad565b5080915050919050565b600e5481565b6005602052816000526040600020602052806000526040600020600091509150505481565b601160009054906101000a900473ffffffffffffffffffffffffffffffffffffffff1681565b60046020528060005260406000206000915090505481565b60026020528060005260406000206000915090505481565b6000612c8e612c40600360008573ffffffffffffffffffffffffffffffffffffffff1673ffffffffffffffffffffffffffffffffffffffff16815260200190815260200160002054600a612bb89190615441565b8473ffffffffffffffffffffffffffffffffffffffff166370a08231306040518263ffffffff1660e01b8152600401612bf19190614fe7565b602060405180830381865afa158015612c0e573d6000803e3d6000fd5b505050506040513d601f19601f82011682018060405250810190612c3291906152b2565b614a9b90919063ffffffff16565b600260008573ffffffffffffffffffffffffffffffffffffffff1673ffffffffffffffffffffffffffffffffffffffff16815260200190815260200160002054614ac790919063ffffffff16565b9050919050565b612d0581612d00600360008573ffffffffffffffffffffffffffffffffffffffff1673ffffffffffffffffffffffffffffffffffffffff16815260200190815260200160002054600a612ce89190615441565b612cf23386610aec565b614ab190919063ffffffff16565b610bcd565b50565b6000612d7e600260008473ffffffffffffffffffffffffffffffffffffffff1673ffffffffffffffffffffffffffffffffffffffff16815260200190815260200160002054612d70670de0b6b3a7640000612d6286612b64565b614a9b90919063ffffffff16565b614ab190919063ffffffff16565b9050919050565b600860009054906101000a900473ffffffffffffffffffffffffffffffffffffffff1673ffffffffffffffffffffffffffffffffffffffff163373ffffffffffffffffffffffffffffffffffffffff1614612e15576040517f08c379a0000000000000000000000000000000000000000000000000000000008152600401612e0c9061527d565b60405180910390fd5b605a8111158015612e27575060328110155b612e66576040517f08c379a0000000000000000000000000000000000000000000000000000000008152600401612e5d90615951565b60405180910390fd5b80600e8190555050565b600f60009054906101000a900473ffffffffffffffffffffffffffffffffffffffff1681565b600080612ea2836128a7565b1415612eb95768056bc75e2d631000009050612f57565b68056bc75e2d63100000612f00612ecf846128a7565b612ef2670de0b6b3a7640000612ee487612f5c565b614a9b90919063ffffffff16565b614ab190919063ffffffff16565b1115612f175768056bc75e2d631000009050612f57565b612f54612f23836128a7565b612f46670de0b6b3a7640000612f3886612f5c565b614a9b90919063ffffffff16565b614ab190919063ffffffff16565b90505b919050565b6000806130546064613046600e54613038612f756142f6565b61302a612f80613cd4565b600b60009054906101000a900473ffffffffffffffffffffffffffffffffffffffff1673ffffffffffffffffffffffffffffffffffffffff166370a082318c6040518263ffffffff1660e01b8152600401612fdb9190614fe7565b602060405180830381865afa158015612ff8573d6000803e3d6000fd5b505050506040513d601f19601f8201168201806040525081019061301c91906152b2565b614a9b90919063ffffffff16565b614a9b90919063ffffffff16565b614a9b90919063ffffffff16565b614ab190919063ffffffff16565b905080915050919050565b6000806130b4600660008573ffffffffffffffffffffffffffffffffffffffff1673ffffffffffffffffffffffffffffffffffffffff1681526020019081526020016000205442614ac790919063ffffffff16565b905060006131206301e1338061311284600460008973ffffffffffffffffffffffffffffffffffffffff1673ffffffffffffffffffffffffffffffffffffffff16815260200190815260200160002054614a9b90919063ffffffff16565b614ab190919063ffffffff16565b90508092505050919050565b600061315161313a836128a7565b61314384612f5c565b614ac790919063ffffffff16565b9050919050565b600f60009054906101000a900473ffffffffffffffffffffffffffffffffffffffff1673ffffffffffffffffffffffffffffffffffffffff1663ef5cfb8c336040518263ffffffff1660e01b81526004016131b39190614fe7565b600060405180830381600087803b1580156131cd57600080fd5b505af11580156131e1573d6000803e3d6000fd5b505050506000819050613248600360008573ffffffffffffffffffffffffffffffffffffffff1673ffffffffffffffffffffffffffffffffffffffff16815260200190815260200160002054600a6132399190615441565b83614a9b90919063ffffffff16565b9150600115156000808573ffffffffffffffffffffffffffffffffffffffff1673ffffffffffffffffffffffffffffffffffffffff16815260200190815260200160002060009054906101000a900460ff161515146132dc576040517f08c379a00000000000000000000000000000000000000000000000000000000081526004016132d3906159bd565b60405180910390fd5b60006133136132ea85614762565b613305670de0b6b3a764000086614a9b90919063ffffffff16565b614ab190919063ffffffff16565b905061331e8461305f565b600460008673ffffffffffffffffffffffffffffffffffffffff1673ffffffffffffffffffffffffffffffffffffffff168152602001908152602001600020600082825461336c919061552c565b9250508190555042600660008673ffffffffffffffffffffffffffffffffffffffff1673ffffffffffffffffffffffffffffffffffffffff168152602001908152602001600020819055508373ffffffffffffffffffffffffffffffffffffffff166323b872dd3330856040518463ffffffff1660e01b81526004016133f493929190615582565b6020604051808303816000875af1158015613413573d6000803e3d6000fd5b505050506040513d601f19601f8201168201806040525081019061343791906155ce565b50600160008573ffffffffffffffffffffffffffffffffffffffff1673ffffffffffffffffffffffffffffffffffffffff16815260200190815260200160002060009054906101000a900473ffffffffffffffffffffffffffffffffffffffff1673ffffffffffffffffffffffffffffffffffffffff166340c10f1933836040518363ffffffff1660e01b81526004016134d29291906155fb565b600060405180830381600087803b1580156134ec57600080fd5b505af1158015613500573d6000803e3d6000fd5b5050505082600260008673ffffffffffffffffffffffffffffffffffffffff1673ffffffffffffffffffffffffffffffffffffffff1681526020019081526020016000206000828254613553919061552c565b9250508190555050505050565b6000600754111561357457613573614add565b5b8173ffffffffffffffffffffffffffffffffffffffff166323b872dd3330846040518463ffffffff1660e01b81526004016135b193929190615582565b6020604051808303816000875af11580156135d0573d6000803e3d6000fd5b505050506040513d601f19601f820116820180604052508101906135f491906155ce565b50600a60009054906101000a900473ffffffffffffffffffffffffffffffffffffffff1673ffffffffffffffffffffffffffffffffffffffff1663364e23118383600060016040518563ffffffff1660e01b81526004016136589493929190615a18565b6020604051808303816000875af1158015613677573d6000803e3d6000fd5b505050506040513d601f19601f8201168201806040525081019061369b91906152b2565b905060006136d36136aa613cd4565b6136c5670de0b6b3a764000085614a9b90919063ffffffff16565b614ab190919063ffffffff16565b9050600b60009054906101000a900473ffffffffffffffffffffffffffffffffffffffff1673ffffffffffffffffffffffffffffffffffffffff166340c10f1933836040518363ffffffff1660e01b81526004016137329291906155fb565b600060405180830381600087803b15801561374c57600080fd5b505af1158015613760573d6000803e3d6000fd5b505050508160076000828254613776919061552c565b92505081905550505050565b600860009054906101000a900473ffffffffffffffffffffffffffffffffffffffff1673ffffffffffffffffffffffffffffffffffffffff163373ffffffffffffffffffffffffffffffffffffffff1614613812576040517f08c379a00000000000000000000000000000000000000000000000000000000081526004016138099061527d565b60405180910390fd5b80600860006101000a81548173ffffffffffffffffffffffffffffffffffffffff021916908373ffffffffffffffffffffffffffffffffffffffff16021790555050565b600b60009054906101000a900473ffffffffffffffffffffffffffffffffffffffff1681565b600c60009054906101000a900473ffffffffffffffffffffffffffffffffffffffff1681565b6000806138ae83612b64565b14156138c457670de0b6b3a76400009050613955565b6139526138d083612b64565b613944670de0b6b3a76400006139366138e88761305f565b600460008973ffffffffffffffffffffffffffffffffffffffff1673ffffffffffffffffffffffffffffffffffffffff16815260200190815260200160002054614e7390919063ffffffff16565b614a9b90919063ffffffff16565b614ab190919063ffffffff16565b90505b919050565b6000613965336128a7565b146139a5576040517f08c379a000000000000000000000000000000000000000000000000000000000815260040161399c90615aa9565b60405180910390fd5b6000600b60009054906101000a900473ffffffffffffffffffffffffffffffffffffffff1673ffffffffffffffffffffffffffffffffffffffff166370a08231336040518263ffffffff1660e01b8152600401613a029190614fe7565b602060405180830381865afa158015613a1f573d6000803e3d6000fd5b505050506040513d601f19601f82011682018060405250810190613a4391906152b2565b9050613a4e81612538565b5050565b6000613aab613a6083614da9565b613a9d670de0b6b3a7640000613a8f613a78886128a7565b613a8189612f5c565b614ac790919063ffffffff16565b614a9b90919063ffffffff16565b614ab190919063ffffffff16565b905092915050565b60006020528060005260406000206000915054906101000a900460ff1681565b60008060005b600960009054906101000a900473ffffffffffffffffffffffffffffffffffffffff1673ffffffffffffffffffffffffffffffffffffffff16630842b0766040518163ffffffff1660e01b8152600401602060405180830381865afa158015613b46573d6000803e3d6000fd5b505050506040513d601f19601f82011682018060405250810190613b6a91906152b2565b811015613ca6576000600960009054906101000a900473ffffffffffffffffffffffffffffffffffffffff1673ffffffffffffffffffffffffffffffffffffffff1663e468baf0836040518263ffffffff1660e01b8152600401613bce9190614fbd565b602060405180830381865afa158015613beb573d6000803e3d6000fd5b505050506040513d601f19601f82011682018060405250810190613c0f91906156a5565b9050613c85670de0b6b3a7640000613c77613c2984614da9565b600260008673ffffffffffffffffffffffffffffffffffffffff1673ffffffffffffffffffffffffffffffffffffffff16815260200190815260200160002054614a9b90919063ffffffff16565b614ab190919063ffffffff16565b83613c90919061552c565b9250508080613c9e90615752565b915050613ad9565b508091505090565b600a60009054906101000a900473ffffffffffffffffffffffffffffffffffffffff1681565b600080600b60009054906101000a900473ffffffffffffffffffffffffffffffffffffffff1673ffffffffffffffffffffffffffffffffffffffff166318160ddd6040518163ffffffff1660e01b8152600401602060405180830381865afa158015613d44573d6000803e3d6000fd5b505050506040513d601f19601f82011682018060405250810190613d6891906152b2565b1415613d7e57670de0b6b3a76400009050613e40565b613e3d600b60009054906101000a900473ffffffffffffffffffffffffffffffffffffffff1673ffffffffffffffffffffffffffffffffffffffff166318160ddd6040518163ffffffff1660e01b8152600401602060405180830381865afa158015613dee573d6000803e3d6000fd5b505050506040513d601f19601f82011682018060405250810190613e1291906152b2565b613e2f670de0b6b3a7640000600754614a9b90919063ffffffff16565b614ab190919063ffffffff16565b90505b90565b60036020528060005260406000206000915090505481565b60066020528060005260406000206000915090505481565b600f60009054906101000a900473ffffffffffffffffffffffffffffffffffffffff1673ffffffffffffffffffffffffffffffffffffffff1663ef5cfb8c336040518263ffffffff1660e01b8152600401613ece9190614fe7565b600060405180830381600087803b158015613ee857600080fd5b505af1158015613efc573d6000803e3d6000fd5b505050506000613f37670de0b6b3a7640000613f29613f1a86614762565b85614a9b90919063ffffffff16565b614ab190919063ffffffff16565b9050614010600360008573ffffffffffffffffffffffffffffffffffffffff1673ffffffffffffffffffffffffffffffffffffffff16815260200190815260200160002054600a613f889190615441565b8473ffffffffffffffffffffffffffffffffffffffff166370a08231306040518263ffffffff1660e01b8152600401613fc19190614fe7565b602060405180830381865afa158015613fde573d6000803e3d6000fd5b505050506040513d601f19601f8201168201806040525081019061400291906152b2565b614a9b90919063ffffffff16565b8111614051576040517f08c379a000000000000000000000000000000000000000000000000000000000815260040161404890615b3b565b60405180910390fd5b600160008473ffffffffffffffffffffffffffffffffffffffff1673ffffffffffffffffffffffffffffffffffffffff16815260200190815260200160002060009054906101000a900473ffffffffffffffffffffffffffffffffffffffff1673ffffffffffffffffffffffffffffffffffffffff16639dc29fac33846040518363ffffffff1660e01b81526004016140eb9291906155fb565b600060405180830381600087803b15801561410557600080fd5b505af1158015614119573d6000803e3d6000fd5b5050505080600260008573ffffffffffffffffffffffffffffffffffffffff1673ffffffffffffffffffffffffffffffffffffffff168152602001908152602001600020600082825461416c91906154f8565b9250508190555061417c8361305f565b600460008573ffffffffffffffffffffffffffffffffffffffff1673ffffffffffffffffffffffffffffffffffffffff16815260200190815260200160002060008282546141ca919061552c565b9250508190555042600660008573ffffffffffffffffffffffffffffffffffffffff1673ffffffffffffffffffffffffffffffffffffffff168152602001908152602001600020819055508273ffffffffffffffffffffffffffffffffffffffff1663a9059cbb33614290600360008873ffffffffffffffffffffffffffffffffffffffff1673ffffffffffffffffffffffffffffffffffffffff16815260200190815260200160002054600a6142819190615441565b85614ab190919063ffffffff16565b6040518363ffffffff1660e01b81526004016142ad9291906155fb565b6020604051808303816000875af11580156142cc573d6000803e3d6000fd5b505050506040513d601f19601f820116820180604052508101906142f091906155ce565b50505050565b60008060005b600960009054906101000a900473ffffffffffffffffffffffffffffffffffffffff1673ffffffffffffffffffffffffffffffffffffffff16630842b0766040518163ffffffff1660e01b8152600401602060405180830381865afa158015614369573d6000803e3d6000fd5b505050506040513d601f19601f8201168201806040525081019061438d91906152b2565b811015614698576146786145c660036000600960009054906101000a900473ffffffffffffffffffffffffffffffffffffffff1673ffffffffffffffffffffffffffffffffffffffff1663e468baf0866040518263ffffffff1660e01b81526004016143f99190614fbd565b602060405180830381865afa158015614416573d6000803e3d6000fd5b505050506040513d601f19601f8201168201806040525081019061443a91906156a5565b73ffffffffffffffffffffffffffffffffffffffff1673ffffffffffffffffffffffffffffffffffffffff16815260200190815260200160002054600a6144819190615441565b600960009054906101000a900473ffffffffffffffffffffffffffffffffffffffff1673ffffffffffffffffffffffffffffffffffffffff1663e468baf0856040518263ffffffff1660e01b81526004016144dc9190614fbd565b602060405180830381865afa1580156144f9573d6000803e3d6000fd5b505050506040513d601f19601f8201168201806040525081019061451d91906156a5565b73ffffffffffffffffffffffffffffffffffffffff166370a08231600960009054906101000a900473ffffffffffffffffffffffffffffffffffffffff166040518263ffffffff1660e01b81526004016145779190614fe7565b602060405180830381865afa158015614594573d6000803e3d6000fd5b505050506040513d601f19601f820116820180604052508101906145b891906152b2565b614a9b90919063ffffffff16565b61466a600960009054906101000a900473ffffffffffffffffffffffffffffffffffffffff1673ffffffffffffffffffffffffffffffffffffffff1663e468baf0856040518263ffffffff1660e01b81526004016146249190614fbd565b602060405180830381865afa158015614641573d6000803e3d6000fd5b505050506040513d601f19601f8201168201806040525081019061466591906156a5565b614da9565b614a9b90919063ffffffff16565b82614683919061552c565b9150808061469090615752565b9150506142fc565b506000614758600c60009054906101000a900473ffffffffffffffffffffffffffffffffffffffff1673ffffffffffffffffffffffffffffffffffffffff166318160ddd6040518163ffffffff1660e01b8152600401602060405180830381865afa15801561470b573d6000803e3d6000fd5b505050506040513d601f19601f8201168201806040525081019061472f91906152b2565b61474a670de0b6b3a764000085614a9b90919063ffffffff16565b614ab190919063ffffffff16565b9050809250505090565b600080600160008473ffffffffffffffffffffffffffffffffffffffff1673ffffffffffffffffffffffffffffffffffffffff16815260200190815260200160002060009054906101000a900473ffffffffffffffffffffffffffffffffffffffff1673ffffffffffffffffffffffffffffffffffffffff166318160ddd6040518163ffffffff1660e01b8152600401602060405180830381865afa15801561480f573d6000803e3d6000fd5b505050506040513d601f19601f8201168201806040525081019061483391906152b2565b141561484957670de0b6b3a76400009050614985565b614982600160008473ffffffffffffffffffffffffffffffffffffffff1673ffffffffffffffffffffffffffffffffffffffff16815260200190815260200160002060009054906101000a900473ffffffffffffffffffffffffffffffffffffffff1673ffffffffffffffffffffffffffffffffffffffff166318160ddd6040518163ffffffff1660e01b8152600401602060405180830381865afa1580156148f6573d6000803e3d6000fd5b505050506040513d601f19601f8201168201806040525081019061491a91906152b2565b614974670de0b6b3a7640000600260008773ffffffffffffffffffffffffffffffffffffffff1673ffffffffffffffffffffffffffffffffffffffff16815260200190815260200160002054614a9b90919063ffffffff16565b614ab190919063ffffffff16565b90505b919050565b6000600160008373ffffffffffffffffffffffffffffffffffffffff1673ffffffffffffffffffffffffffffffffffffffff16815260200190815260200160002060009054906101000a900473ffffffffffffffffffffffffffffffffffffffff1673ffffffffffffffffffffffffffffffffffffffff166370a08231336040518263ffffffff1660e01b8152600401614a249190614fe7565b602060405180830381865afa158015614a41573d6000803e3d6000fd5b505050506040513d601f19601f82011682018060405250810190614a6591906152b2565b9050614a718282613e73565b5050565b600960009054906101000a900473ffffffffffffffffffffffffffffffffffffffff1681565b60008183614aa99190615b5b565b905092915050565b60008183614abf9190615be4565b905092915050565b60008183614ad591906154f8565b905092915050565b6000600d60009054906101000a900473ffffffffffffffffffffffffffffffffffffffff1673ffffffffffffffffffffffffffffffffffffffff166370a08231306040518263ffffffff1660e01b8152600401614b3a9190614fe7565b602060405180830381865afa158015614b57573d6000803e3d6000fd5b505050506040513d601f19601f82011682018060405250810190614b7b91906152b2565b9050600a60009054906101000a900473ffffffffffffffffffffffffffffffffffffffff1673ffffffffffffffffffffffffffffffffffffffff166330b7000260008060018060018060006040518863ffffffff1660e01b8152600401614be89796959493929190615c15565b600060405180830381600087803b158015614c0257600080fd5b505af1158015614c16573d6000803e3d6000fd5b50505050600a60009054906101000a900473ffffffffffffffffffffffffffffffffffffffff1673ffffffffffffffffffffffffffffffffffffffff1663364e2311600d60009054906101000a900473ffffffffffffffffffffffffffffffffffffffff16614d2984600d60009054906101000a900473ffffffffffffffffffffffffffffffffffffffff1673ffffffffffffffffffffffffffffffffffffffff166370a08231306040518263ffffffff1660e01b8152600401614cda9190614fe7565b602060405180830381865afa158015614cf7573d6000803e3d6000fd5b505050506040513d601f19601f82011682018060405250810190614d1b91906152b2565b614ac790919063ffffffff16565b6001806040518563ffffffff1660e01b8152600401614d4b9493929190615c84565b6020604051808303816000875af1158015614d6a573d6000803e3d6000fd5b505050506040513d601f19601f82011682018060405250810190614d8e91906152b2565b60076000828254614d9f919061552c565b9250508190555050565b600080601160009054906101000a900473ffffffffffffffffffffffffffffffffffffffff1673ffffffffffffffffffffffffffffffffffffffff16632fc3a70a846000600160006040518563ffffffff1660e01b8152600401614e109493929190615cc9565b602060405180830381865afa158015614e2d573d6000803e3d6000fd5b505050506040513d601f19601f82011682018060405250810190614e5191906152b2565b9050614e6b64e8d4a5100082614ab190919063ffffffff16565b915050919050565b60008183614e81919061552c565b905092915050565b600080fd5b600073ffffffffffffffffffffffffffffffffffffffff82169050919050565b6000614eb982614e8e565b9050919050565b614ec981614eae565b8114614ed457600080fd5b50565b600081359050614ee681614ec0565b92915050565b60008115159050919050565b614f0181614eec565b8114614f0c57600080fd5b50565b600081359050614f1e81614ef8565b92915050565b60008060408385031215614f3b57614f3a614e89565b5b6000614f4985828601614ed7565b9250506020614f5a85828601614f0f565b9150509250929050565b60008060408385031215614f7b57614f7a614e89565b5b6000614f8985828601614ed7565b9250506020614f9a85828601614ed7565b9150509250929050565b6000819050919050565b614fb781614fa4565b82525050565b6000602082019050614fd26000830184614fae565b92915050565b614fe181614eae565b82525050565b6000602082019050614ffc6000830184614fd8565b92915050565b61500b81614fa4565b811461501657600080fd5b50565b60008135905061502881615002565b92915050565b6000806040838503121561504557615044614e89565b5b600061505385828601614ed7565b925050602061506485828601615019565b9150509250929050565b60006020828403121561508457615083614e89565b5b600061509284828501614ed7565b91505092915050565b6000602082840312156150b1576150b0614e89565b5b60006150bf84828501615019565b91505092915050565b6000819050919050565b60006150ed6150e86150e384614e8e565b6150c8565b614e8e565b9050919050565b60006150ff826150d2565b9050919050565b6000615111826150f4565b9050919050565b61512181615106565b82525050565b600060208201905061513c6000830184615118565b92915050565b600061514d826150f4565b9050919050565b61515d81615142565b82525050565b60006020820190506151786000830184615154565b92915050565b61518781614eec565b82525050565b60006020820190506151a2600083018461517e565b92915050565b60006151b3826150f4565b9050919050565b6151c3816151a8565b82525050565b60006020820190506151de60008301846151ba565b92915050565b60006151ef826150f4565b9050919050565b6151ff816151e4565b82525050565b600060208201905061521a60008301846151f6565b92915050565b600082825260208201905092915050565b7f21476f7665726e616e6365000000000000000000000000000000000000000000600082015250565b6000615267600b83615220565b915061527282615231565b602082019050919050565b600060208201905081810360008301526152968161525a565b9050919050565b6000815190506152ac81615002565b92915050565b6000602082840312156152c8576152c7614e89565b5b60006152d68482850161529d565b91505092915050565b7f4e487b7100000000000000000000000000000000000000000000000000000000600052601160045260246000fd5b60008160011c9050919050565b6000808291508390505b600185111561536557808604811115615341576153406152df565b5b60018516156153505780820291505b808102905061535e8561530e565b9450615325565b94509492505050565b60008261537e576001905061543a565b8161538c576000905061543a565b81600181146153a257600281146153ac576153db565b600191505061543a565b60ff8411156153be576153bd6152df565b5b8360020a9150848211156153d5576153d46152df565b5b5061543a565b5060208310610133831016604e8410600b84101617156154105782820a90508381111561540b5761540a6152df565b5b61543a565b61541d848484600161531b565b92509050818404811115615434576154336152df565b5b81810290505b9392505050565b600061544c82614fa4565b915061545783614fa4565b92506154847fffffffffffffffffffffffffffffffffffffffffffffffffffffffffffffffff848461536e565b905092915050565b7f5265706179696e6720746f6f206d756368000000000000000000000000000000600082015250565b60006154c2601183615220565b91506154cd8261548c565b602082019050919050565b600060208201905081810360008301526154f1816154b5565b9050919050565b600061550382614fa4565b915061550e83614fa4565b925082821015615521576155206152df565b5b828203905092915050565b600061553782614fa4565b915061554283614fa4565b9250827fffffffffffffffffffffffffffffffffffffffffffffffffffffffffffffffff03821115615577576155766152df565b5b828201905092915050565b60006060820190506155976000830186614fd8565b6155a46020830185614fd8565b6155b16040830184614fae565b949350505050565b6000815190506155c881614ef8565b92915050565b6000602082840312156155e4576155e3614e89565b5b60006155f2848285016155b9565b91505092915050565b60006040820190506156106000830185614fd8565b61561d6020830184614fae565b9392505050565b7f4163636f756e74206865616c7468790000000000000000000000000000000000600082015250565b600061565a600f83615220565b915061566582615624565b602082019050919050565b600060208201905081810360008301526156898161564d565b9050919050565b60008151905061569f81614ec0565b92915050565b6000602082840312156156bb576156ba614e89565b5b60006156c984828501615690565b91505092915050565b6000819050919050565b60006156f76156f26156ed846156d2565b6150c8565b614fa4565b9050919050565b615707816156dc565b82525050565b60006080820190506157226000830187614fd8565b61572f6020830186614fae565b61573c60408301856156fe565b6157496060830184614fd8565b95945050505050565b600061575d82614fa4565b91507fffffffffffffffffffffffffffffffffffffffffffffffffffffffffffffffff8214156157905761578f6152df565b5b600182019050919050565b7f4e6f7420656e6f75676820626f72726f77696e6720706f776572000000000000600082015250565b60006157d1601a83615220565b91506157dc8261579b565b602082019050919050565b60006020820190508181036000830152615800816157c4565b9050919050565b7f4163636f756e74206e6f74206865616c7468792061667465722077697468647260008201527f6177000000000000000000000000000000000000000000000000000000000000602082015250565b6000615863602283615220565b915061586e82615807565b604082019050919050565b6000602082019050818103600083015261589281615856565b9050919050565b7f474c5020536861726520616c7265616479207365742100000000000000000000600082015250565b60006158cf601683615220565b91506158da82615899565b602082019050919050565b600060208201905081810360008301526158fe816158c2565b9050919050565b7f496e76616c6964204c5456000000000000000000000000000000000000000000600082015250565b600061593b600b83615220565b915061594682615905565b602082019050919050565b6000602082019050818103600083015261596a8161592e565b9050919050565b7f546f6b656e206e6f7420616c6c6f776564000000000000000000000000000000600082015250565b60006159a7601183615220565b91506159b282615971565b602082019050919050565b600060208201905081810360008301526159d68161599a565b9050919050565b6000819050919050565b6000615a026159fd6159f8846159dd565b6150c8565b614fa4565b9050919050565b615a12816159e7565b82525050565b6000608082019050615a2d6000830187614fd8565b615a3a6020830186614fae565b615a476040830185615a09565b615a5460608301846156fe565b95945050505050565b7f4163636f756e7420686173206465627400000000000000000000000000000000600082015250565b6000615a93601083615220565b9150615a9e82615a5d565b602082019050919050565b60006020820190508181036000830152615ac281615a86565b9050919050565b7f546f6f206d75636820626f72726f7765642066726f6d206c697175696469747960008201527f20746f2077697468647261770000000000000000000000000000000000000000602082015250565b6000615b25602c83615220565b9150615b3082615ac9565b604082019050919050565b60006020820190508181036000830152615b5481615b18565b9050919050565b6000615b6682614fa4565b9150615b7183614fa4565b9250817fffffffffffffffffffffffffffffffffffffffffffffffffffffffffffffffff0483118215151615615baa57615ba96152df565b5b828202905092915050565b7f4e487b7100000000000000000000000000000000000000000000000000000000600052601260045260246000fd5b6000615bef82614fa4565b9150615bfa83614fa4565b925082615c0a57615c09615bb5565b5b828204905092915050565b600060e082019050615c2a600083018a61517e565b615c37602083018961517e565b615c44604083018861517e565b615c51606083018761517e565b615c5e608083018661517e565b615c6b60a083018561517e565b615c7860c083018461517e565b98975050505050505050565b6000608082019050615c996000830187614fd8565b615ca66020830186614fae565b615cb360408301856156fe565b615cc060608301846156fe565b95945050505050565b6000608082019050615cde6000830187614fd8565b615ceb602083018661517e565b615cf8604083018561517e565b615d05606083018461517e565b9594505050505056fea26469706673582212208d1bae3799aafedbf85b325fae027bbd05aee2f950df3ea8aec9c7a5f83a122b64736f6c634300080a0033",
  "linkReferences": {},
  "deployedLinkReferences": {}
}