{
  "_format": "hh-sol-artifact-1",
  "contractName": "Protocol",
  "sourceName": "contracts/Protocol.sol",
  "abi": [
    {
      "inputs": [
        {
          "internalType": "address",
          "name": "_vault",
          "type": "address"
        },
        {
          "internalType": "address",
          "name": "_rewardsRouter",
          "type": "address"
        },
        {
          "internalType": "address",
          "name": "_GLP",
          "type": "address"
        },
        {
          "internalType": "address",
          "name": "_weth",
          "type": "address"
        },
        {
          "internalType": "address",
          "name": "_lnxReward",
          "type": "address"
        },
        {
          "internalType": "address",
          "name": "_stakeReward",
          "type": "address"
        },
        {
          "internalType": "address",
          "name": "_priceFeed",
          "type": "address"
        },
        {
          "internalType": "address",
          "name": "_GLPManager",
          "type": "address"
        }
      ],
      "stateMutability": "nonpayable",
      "type": "constructor"
    },
    {
      "inputs": [],
      "name": "GLP",
      "outputs": [
        {
          "internalType": "contract IERC20",
          "name": "",
          "type": "address"
        }
      ],
      "stateMutability": "view",
      "type": "function"
    },
    {
      "inputs": [],
      "name": "GLPManager",
      "outputs": [
        {
          "internalType": "address",
          "name": "",
          "type": "address"
        }
      ],
      "stateMutability": "view",
      "type": "function"
    },
    {
      "inputs": [],
      "name": "GLPShare",
      "outputs": [
        {
          "internalType": "contract IERC20",
          "name": "",
          "type": "address"
        }
      ],
      "stateMutability": "view",
      "type": "function"
    },
    {
      "inputs": [
        {
          "internalType": "address",
          "name": "account",
          "type": "address"
        }
      ],
      "name": "accountBorrowedValue",
      "outputs": [
        {
          "internalType": "uint256",
          "name": "",
          "type": "uint256"
        }
      ],
      "stateMutability": "view",
      "type": "function"
    },
    {
      "inputs": [
        {
          "internalType": "address",
          "name": "account",
          "type": "address"
        }
      ],
      "name": "accountCollateralValue",
      "outputs": [
        {
          "internalType": "uint256",
          "name": "",
          "type": "uint256"
        }
      ],
      "stateMutability": "view",
      "type": "function"
    },
    {
      "inputs": [
        {
          "internalType": "address",
          "name": "account",
          "type": "address"
        }
      ],
      "name": "accountHealth",
      "outputs": [
        {
          "internalType": "uint256",
          "name": "",
          "type": "uint256"
        }
      ],
      "stateMutability": "view",
      "type": "function"
    },
    {
      "inputs": [
        {
          "internalType": "address",
          "name": "account",
          "type": "address"
        }
      ],
      "name": "accountLentValue",
      "outputs": [
        {
          "internalType": "uint256",
          "name": "",
          "type": "uint256"
        }
      ],
      "stateMutability": "view",
      "type": "function"
    },
    {
      "inputs": [
        {
          "internalType": "address",
          "name": "token",
          "type": "address"
        },
        {
          "internalType": "uint256",
          "name": "tokenAmount",
          "type": "uint256"
        }
      ],
      "name": "borrow",
      "outputs": [],
      "stateMutability": "nonpayable",
      "type": "function"
    },
    {
      "inputs": [
        {
          "internalType": "address",
          "name": "",
          "type": "address"
        }
      ],
      "name": "borrowShare",
      "outputs": [
        {
          "internalType": "address",
          "name": "",
          "type": "address"
        }
      ],
      "stateMutability": "view",
      "type": "function"
    },
    {
      "inputs": [
        {
          "internalType": "address",
          "name": "",
          "type": "address"
        }
      ],
      "name": "borrowToken",
      "outputs": [
        {
          "internalType": "bool",
          "name": "",
          "type": "bool"
        }
      ],
      "stateMutability": "view",
      "type": "function"
    },
    {
      "inputs": [
        {
          "internalType": "address",
          "name": "",
          "type": "address"
        }
      ],
      "name": "borrowTokenBalance",
      "outputs": [
        {
          "internalType": "uint256",
          "name": "",
          "type": "uint256"
        }
      ],
      "stateMutability": "view",
      "type": "function"
    },
    {
      "inputs": [
        {
          "internalType": "address",
          "name": "",
          "type": "address"
        },
        {
          "internalType": "address",
          "name": "",
          "type": "address"
        }
      ],
      "name": "borrowedAmount",
      "outputs": [
        {
          "internalType": "uint256",
          "name": "",
          "type": "uint256"
        }
      ],
      "stateMutability": "view",
      "type": "function"
    },
    {
      "inputs": [
        {
          "internalType": "address",
          "name": "account",
          "type": "address"
        },
        {
          "internalType": "address",
          "name": "token",
          "type": "address"
        }
      ],
      "name": "borrowingPower",
      "outputs": [
        {
          "internalType": "uint256",
          "name": "",
          "type": "uint256"
        }
      ],
      "stateMutability": "view",
      "type": "function"
    },
    {
      "inputs": [
        {
          "internalType": "address",
          "name": "account",
          "type": "address"
        }
      ],
      "name": "borrowingPowerUSD",
      "outputs": [
        {
          "internalType": "uint256",
          "name": "",
          "type": "uint256"
        }
      ],
      "stateMutability": "view",
      "type": "function"
    },
    {
      "inputs": [
        {
          "internalType": "address",
          "name": "token",
          "type": "address"
        }
      ],
      "name": "debtValue",
      "outputs": [
        {
          "internalType": "uint256",
          "name": "",
          "type": "uint256"
        }
      ],
      "stateMutability": "view",
      "type": "function"
    },
    {
      "inputs": [
        {
          "internalType": "address",
          "name": "",
          "type": "address"
        }
      ],
      "name": "decimalMultiplier",
      "outputs": [
        {
          "internalType": "uint256",
          "name": "",
          "type": "uint256"
        }
      ],
      "stateMutability": "view",
      "type": "function"
    },
    {
      "inputs": [
        {
          "internalType": "address",
          "name": "token",
          "type": "address"
        },
        {
          "internalType": "uint256",
          "name": "amount",
          "type": "uint256"
        }
      ],
      "name": "depositCollateral",
      "outputs": [],
      "stateMutability": "nonpayable",
      "type": "function"
    },
    {
      "inputs": [],
      "name": "getCollateralPrice",
      "outputs": [
        {
          "internalType": "uint256",
          "name": "",
          "type": "uint256"
        }
      ],
      "stateMutability": "view",
      "type": "function"
    },
    {
      "inputs": [],
      "name": "getCollateralShareValue",
      "outputs": [
        {
          "internalType": "uint256",
          "name": "",
          "type": "uint256"
        }
      ],
      "stateMutability": "view",
      "type": "function"
    },
    {
      "inputs": [
        {
          "internalType": "address",
          "name": "token",
          "type": "address"
        }
      ],
      "name": "getShareValue",
      "outputs": [
        {
          "internalType": "uint256",
          "name": "",
          "type": "uint256"
        }
      ],
      "stateMutability": "view",
      "type": "function"
    },
    {
      "inputs": [
        {
          "internalType": "address",
          "name": "token",
          "type": "address"
        }
      ],
      "name": "getTokenAccruedInterest",
      "outputs": [
        {
          "internalType": "uint256",
          "name": "",
          "type": "uint256"
        }
      ],
      "stateMutability": "view",
      "type": "function"
    },
    {
      "inputs": [],
      "name": "governance",
      "outputs": [
        {
          "internalType": "address",
          "name": "",
          "type": "address"
        }
      ],
      "stateMutability": "view",
      "type": "function"
    },
    {
      "inputs": [
        {
          "internalType": "address",
          "name": "",
          "type": "address"
        }
      ],
      "name": "interestCheckpoint",
      "outputs": [
        {
          "internalType": "uint256",
          "name": "",
          "type": "uint256"
        }
      ],
      "stateMutability": "view",
      "type": "function"
    },
    {
      "inputs": [
        {
          "internalType": "address",
          "name": "token",
          "type": "address"
        }
      ],
      "name": "interestRate",
      "outputs": [
        {
          "internalType": "uint256",
          "name": "",
          "type": "uint256"
        }
      ],
      "stateMutability": "view",
      "type": "function"
    },
    {
      "inputs": [
        {
          "internalType": "address",
          "name": "token",
          "type": "address"
        },
        {
          "internalType": "uint256",
          "name": "amount",
          "type": "uint256"
        }
      ],
      "name": "lend",
      "outputs": [],
      "stateMutability": "nonpayable",
      "type": "function"
    },
    {
      "inputs": [
        {
          "internalType": "address",
          "name": "account",
          "type": "address"
        }
      ],
      "name": "liquidate",
      "outputs": [],
      "stateMutability": "nonpayable",
      "type": "function"
    },
    {
      "inputs": [],
      "name": "lnxReward",
      "outputs": [
        {
          "internalType": "address",
          "name": "",
          "type": "address"
        }
      ],
      "stateMutability": "view",
      "type": "function"
    },
    {
      "inputs": [],
      "name": "ltv",
      "outputs": [
        {
          "internalType": "uint256",
          "name": "",
          "type": "uint256"
        }
      ],
      "stateMutability": "view",
      "type": "function"
    },
    {
      "inputs": [],
      "name": "priceFeed",
      "outputs": [
        {
          "internalType": "contract IPriceFeed",
          "name": "",
          "type": "address"
        }
      ],
      "stateMutability": "view",
      "type": "function"
    },
    {
      "inputs": [
        {
          "internalType": "address",
          "name": "token",
          "type": "address"
        },
        {
          "internalType": "uint256",
          "name": "tokenAmount",
          "type": "uint256"
        }
      ],
      "name": "repay",
      "outputs": [],
      "stateMutability": "nonpayable",
      "type": "function"
    },
    {
      "inputs": [
        {
          "internalType": "address",
          "name": "token",
          "type": "address"
        }
      ],
      "name": "repayAll",
      "outputs": [],
      "stateMutability": "nonpayable",
      "type": "function"
    },
    {
      "inputs": [],
      "name": "rewardsRouter",
      "outputs": [
        {
          "internalType": "contract IRewardsRouter",
          "name": "",
          "type": "address"
        }
      ],
      "stateMutability": "view",
      "type": "function"
    },
    {
      "inputs": [
        {
          "internalType": "address",
          "name": "token",
          "type": "address"
        },
        {
          "internalType": "address",
          "name": "share",
          "type": "address"
        }
      ],
      "name": "setBorrowToken",
      "outputs": [],
      "stateMutability": "nonpayable",
      "type": "function"
    },
    {
      "inputs": [
        {
          "internalType": "address",
          "name": "token",
          "type": "address"
        },
        {
          "internalType": "bool",
          "name": "allowed",
          "type": "bool"
        }
      ],
      "name": "setBorrowTokenAllowed",
      "outputs": [],
      "stateMutability": "nonpayable",
      "type": "function"
    },
    {
      "inputs": [
        {
          "internalType": "address",
          "name": "_GLPShare",
          "type": "address"
        }
      ],
      "name": "setGLPShare",
      "outputs": [],
      "stateMutability": "nonpayable",
      "type": "function"
    },
    {
      "inputs": [
        {
          "internalType": "address",
          "name": "_governance",
          "type": "address"
        }
      ],
      "name": "setGovernance",
      "outputs": [],
      "stateMutability": "nonpayable",
      "type": "function"
    },
    {
      "inputs": [
        {
          "internalType": "uint256",
          "name": "_ltv",
          "type": "uint256"
        }
      ],
      "name": "setltv",
      "outputs": [],
      "stateMutability": "nonpayable",
      "type": "function"
    },
    {
      "inputs": [],
      "name": "stakeReward",
      "outputs": [
        {
          "internalType": "address",
          "name": "",
          "type": "address"
        }
      ],
      "stateMutability": "view",
      "type": "function"
    },
    {
      "inputs": [
        {
          "internalType": "address",
          "name": "",
          "type": "address"
        }
      ],
      "name": "tokenDebt",
      "outputs": [
        {
          "internalType": "uint256",
          "name": "",
          "type": "uint256"
        }
      ],
      "stateMutability": "view",
      "type": "function"
    },
    {
      "inputs": [
        {
          "internalType": "address",
          "name": "token",
          "type": "address"
        }
      ],
      "name": "totalBorrowedAmount",
      "outputs": [
        {
          "internalType": "uint256",
          "name": "",
          "type": "uint256"
        }
      ],
      "stateMutability": "view",
      "type": "function"
    },
    {
      "inputs": [],
      "name": "totalCollateral",
      "outputs": [
        {
          "internalType": "uint256",
          "name": "",
          "type": "uint256"
        }
      ],
      "stateMutability": "view",
      "type": "function"
    },
    {
      "inputs": [],
      "name": "totalLentValue",
      "outputs": [
        {
          "internalType": "uint256",
          "name": "",
          "type": "uint256"
        }
      ],
      "stateMutability": "view",
      "type": "function"
    },
    {
      "inputs": [
        {
          "internalType": "address",
          "name": "account",
          "type": "address"
        },
        {
          "internalType": "address",
          "name": "token",
          "type": "address"
        }
      ],
      "name": "userDebt",
      "outputs": [
        {
          "internalType": "uint256",
          "name": "",
          "type": "uint256"
        }
      ],
      "stateMutability": "view",
      "type": "function"
    },
    {
      "inputs": [
        {
          "internalType": "address",
          "name": "account",
          "type": "address"
        },
        {
          "internalType": "address",
          "name": "token",
          "type": "address"
        }
      ],
      "name": "userDebtUSD",
      "outputs": [
        {
          "internalType": "uint256",
          "name": "",
          "type": "uint256"
        }
      ],
      "stateMutability": "view",
      "type": "function"
    },
    {
      "inputs": [],
      "name": "vault",
      "outputs": [
        {
          "internalType": "contract IVault",
          "name": "",
          "type": "address"
        }
      ],
      "stateMutability": "view",
      "type": "function"
    },
    {
      "inputs": [],
      "name": "weth",
      "outputs": [
        {
          "internalType": "address",
          "name": "",
          "type": "address"
        }
      ],
      "stateMutability": "view",
      "type": "function"
    },
    {
      "inputs": [
        {
          "internalType": "address",
          "name": "token",
          "type": "address"
        },
        {
          "internalType": "uint256",
          "name": "shareAmount",
          "type": "uint256"
        }
      ],
      "name": "withdraw",
      "outputs": [],
      "stateMutability": "nonpayable",
      "type": "function"
    },
    {
      "inputs": [
        {
          "internalType": "address",
          "name": "token",
          "type": "address"
        }
      ],
      "name": "withdrawAll",
      "outputs": [],
      "stateMutability": "nonpayable",
      "type": "function"
    },
    {
      "inputs": [
        {
          "internalType": "uint256",
          "name": "shareAmount",
          "type": "uint256"
        }
      ],
      "name": "withdrawCollateral",
      "outputs": [
        {
          "internalType": "uint256",
          "name": "",
          "type": "uint256"
        }
      ],
      "stateMutability": "nonpayable",
      "type": "function"
    },
    {
      "inputs": [],
      "name": "withdrawCollateralAll",
      "outputs": [],
      "stateMutability": "nonpayable",
      "type": "function"
    }
  ],
  "bytecode": "0x60806040526032600e553480156200001657600080fd5b5060405162005e3738038062005e3783398181016040528101906200003c9190620002fd565b33600860006101000a81548173ffffffffffffffffffffffffffffffffffffffff021916908373ffffffffffffffffffffffffffffffffffffffff16021790555087600960006101000a81548173ffffffffffffffffffffffffffffffffffffffff021916908373ffffffffffffffffffffffffffffffffffffffff16021790555086600a60006101000a81548173ffffffffffffffffffffffffffffffffffffffff021916908373ffffffffffffffffffffffffffffffffffffffff16021790555085600c60006101000a81548173ffffffffffffffffffffffffffffffffffffffff021916908373ffffffffffffffffffffffffffffffffffffffff16021790555084600d60006101000a81548173ffffffffffffffffffffffffffffffffffffffff021916908373ffffffffffffffffffffffffffffffffffffffff16021790555083600f60006101000a81548173ffffffffffffffffffffffffffffffffffffffff021916908373ffffffffffffffffffffffffffffffffffffffff16021790555082601060006101000a81548173ffffffffffffffffffffffffffffffffffffffff021916908373ffffffffffffffffffffffffffffffffffffffff16021790555081601160006101000a81548173ffffffffffffffffffffffffffffffffffffffff021916908373ffffffffffffffffffffffffffffffffffffffff16021790555080601260006101000a81548173ffffffffffffffffffffffffffffffffffffffff021916908373ffffffffffffffffffffffffffffffffffffffff1602179055505050505050505050620003c6565b600080fd5b600073ffffffffffffffffffffffffffffffffffffffff82169050919050565b6000620002c58262000298565b9050919050565b620002d781620002b8565b8114620002e357600080fd5b50565b600081519050620002f781620002cc565b92915050565b600080600080600080600080610100898b03121562000321576200032062000293565b5b6000620003318b828c01620002e6565b9850506020620003448b828c01620002e6565b9750506040620003578b828c01620002e6565b96505060606200036a8b828c01620002e6565b95505060806200037d8b828c01620002e6565b94505060a0620003908b828c01620002e6565b93505060c0620003a38b828c01620002e6565b92505060e0620003b68b828c01620002e6565b9150509295985092959890939650565b615a6180620003d66000396000f3fe608060405234801561001057600080fd5b50600436106102d55760003560e01c806388d595db11610182578063c09f66aa116100e9578063f18ea6d8116100a2578063f7683bbc1161007c578063f7683bbc1461097a578063f9c019d514610998578063fa09e630146109c8578063fbfa77cf146109e4576102d5565b8063f18ea6d8146108fe578063f3e1abe11461092e578063f3fef3a31461095e576102d5565b8063c09f66aa1461083a578063c9f005af14610844578063cc4c336b14610874578063d196943c146108a4578063e152c34a146108c2578063e68802e3146108e0576102d5565b8063a2fb342d1161013b578063a2fb342d1461077a578063a5d5db0c14610796578063ab033ea9146107b2578063afbff212146107ce578063b28147d9146107ec578063b9637e491461080a576102d5565b806388d595db1461068057806389e02a581461069c5780638b96b280146106ba5780638f2b6270146106ea57806397ea86051461071a578063983ff6151461074a576102d5565b80635aa6e6751161024157806372665438116101fa578063770089f1116101d4578063770089f1146105d45780637a8f4605146106045780637c27383b146106345780637c2c69c014610650576102d5565b80637266543814610556578063741bef1a146105865780637558abc8146105a4576102d5565b80635aa6e675146104805780635bf12feb1461049e5780636112fe2e146104bc57806368cb7e8d146104ec5780636ac9ce6c146105085780636fb49d7314610538576102d5565b80632f865568116102935780632f865568146103c05780633fc8cef3146103dc5780634414e1af146103fa578063474fefaa1461042a5780634ac8eb5f146104465780634b8a352914610464576102d5565b80623aadee146102da57806314c8ad2c146102f657806314f47dcc1461032657806322867d781461034457806323eafe1e146103605780632c9cbca214610390575b600080fd5b6102f460048036038101906102ef9190614c41565b610a02565b005b610310600480360381019061030b9190614c81565b610aec565b60405161031d9190614cda565b60405180910390f35b61032e610ba7565b60405161033b9190614d04565b60405180910390f35b61035e60048036038101906103599190614d4b565b610bcd565b005b61037a60048036038101906103759190614c81565b611283565b6040516103879190614cda565b60405180910390f35b6103aa60048036038101906103a59190614d8b565b6112cb565b6040516103b79190614d04565b60405180910390f35b6103da60048036038101906103d59190614d8b565b6112fe565b005b6103e4611a76565b6040516103f19190614d04565b60405180910390f35b610414600480360381019061040f9190614d8b565b611a9c565b6040516104219190614cda565b60405180910390f35b610444600480360381019061043f9190614c81565b611d8c565b005b61044e612149565b60405161045b9190614cda565b60405180910390f35b61047e60048036038101906104799190614d4b565b61214f565b005b6104886124f4565b6040516104959190614d04565b60405180910390f35b6104a661251a565b6040516104b39190614d04565b60405180910390f35b6104d660048036038101906104d19190614db8565b612540565b6040516104e39190614cda565b60405180910390f35b61050660048036038101906105019190614d8b565b61274a565b005b610522600480360381019061051d9190614d8b565b6128af565b60405161052f9190614cda565b60405180910390f35b610540612aeb565b60405161054d9190614cda565b60405180910390f35b610570600480360381019061056b9190614c81565b612af1565b60405161057d9190614cda565b60405180910390f35b61058e612b16565b60405161059b9190614e44565b60405180910390f35b6105be60048036038101906105b99190614d8b565b612b3c565b6040516105cb9190614cda565b60405180910390f35b6105ee60048036038101906105e99190614d8b565b612b54565b6040516105fb9190614cda565b60405180910390f35b61061e60048036038101906106199190614d8b565b612b6c565b60405161062b9190614cda565b60405180910390f35b61064e60048036038101906106499190614d8b565b612c9d565b005b61066a60048036038101906106659190614d8b565b612d10565b6040516106779190614cda565b60405180910390f35b61069a60048036038101906106959190614db8565b612d8d565b005b6106a4612e78565b6040516106b19190614d04565b60405180910390f35b6106d460048036038101906106cf9190614d8b565b612e9e565b6040516106e19190614cda565b60405180910390f35b61070460048036038101906106ff9190614d8b565b612f64565b6040516107119190614cda565b60405180910390f35b610734600480360381019061072f9190614d8b565b613088565b6040516107419190614cda565b60405180910390f35b610764600480360381019061075f9190614d8b565b613155565b6040516107719190614cda565b60405180910390f35b610794600480360381019061078f9190614d4b565b613181565b005b6107b060048036038101906107ab9190614d4b565b613589565b005b6107cc60048036038101906107c79190614d8b565b6137ab565b005b6107d661387f565b6040516107e39190614e80565b60405180910390f35b6107f46138a5565b6040516108019190614e80565b60405180910390f35b610824600480360381019061081f9190614d8b565b6138cb565b6040516108319190614cda565b60405180910390f35b610842613983565b005b61085e60048036038101906108599190614c81565b613a7b565b60405161086b9190614cda565b60405180910390f35b61088e60048036038101906108899190614d8b565b613adc565b60405161089b9190614eaa565b60405180910390f35b6108ac613afc565b6040516108b99190614cda565b60405180910390f35b6108ca613cd7565b6040516108d79190614ee6565b60405180910390f35b6108e8613cfd565b6040516108f59190614cda565b60405180910390f35b61091860048036038101906109139190614d8b565b613e6c565b6040516109259190614cda565b60405180910390f35b61094860048036038101906109439190614d8b565b613e84565b6040516109559190614cda565b60405180910390f35b61097860048036038101906109739190614d4b565b613e9c565b005b61098261431f565b60405161098f9190614cda565b60405180910390f35b6109b260048036038101906109ad9190614d8b565b61447f565b6040516109bf9190614cda565b60405180910390f35b6109e260048036038101906109dd9190614d8b565b6146a7565b005b6109ec614792565b6040516109f99190614f22565b60405180910390f35b600860009054906101000a900473ffffffffffffffffffffffffffffffffffffffff1673ffffffffffffffffffffffffffffffffffffffff163373ffffffffffffffffffffffffffffffffffffffff1614610a92576040517f08c379a0000000000000000000000000000000000000000000000000000000008152600401610a8990614f9a565b60405180910390fd5b806000808473ffffffffffffffffffffffffffffffffffffffff1673ffffffffffffffffffffffffffffffffffffffff16815260200190815260200160002060006101000a81548160ff0219169083151502179055505050565b6000610b9f670de0b6b3a7640000610b91610b06856138cb565b600560008873ffffffffffffffffffffffffffffffffffffffff1673ffffffffffffffffffffffffffffffffffffffff16815260200190815260200160002060008773ffffffffffffffffffffffffffffffffffffffff1673ffffffffffffffffffffffffffffffffffffffff168152602001908152602001600020546147b890919063ffffffff16565b6147ce90919063ffffffff16565b905092915050565b601060009054906101000a900473ffffffffffffffffffffffffffffffffffffffff1681565b6000610db3610da4600160008673ffffffffffffffffffffffffffffffffffffffff1673ffffffffffffffffffffffffffffffffffffffff16815260200190815260200160002060009054906101000a900473ffffffffffffffffffffffffffffffffffffffff1673ffffffffffffffffffffffffffffffffffffffff166318160ddd6040518163ffffffff1660e01b8152600401602060405180830381865afa158015610c7f573d6000803e3d6000fd5b505050506040513d601f19601f82011682018060405250810190610ca39190614fcf565b610d96600160008873ffffffffffffffffffffffffffffffffffffffff1673ffffffffffffffffffffffffffffffffffffffff16815260200190815260200160002060009054906101000a900473ffffffffffffffffffffffffffffffffffffffff1673ffffffffffffffffffffffffffffffffffffffff166370a08231336040518263ffffffff1660e01b8152600401610d3e9190614d04565b602060405180830381865afa158015610d5b573d6000803e3d6000fd5b505050506040513d601f19601f82011682018060405250810190610d7f9190614fcf565b610d8888612b6c565b6147b890919063ffffffff16565b6147ce90919063ffffffff16565b836147e490919063ffffffff16565b9050610dbf3384610aec565b610e1d600360008673ffffffffffffffffffffffffffffffffffffffff1673ffffffffffffffffffffffffffffffffffffffff16815260200190815260200160002054600a610e0e919061515e565b846147b890919063ffffffff16565b1115610e5e576040517f08c379a0000000000000000000000000000000000000000000000000000000008152600401610e55906151f5565b60405180910390fd5b610ef0610e6a846138cb565b610ee2600360008773ffffffffffffffffffffffffffffffffffffffff1673ffffffffffffffffffffffffffffffffffffffff16815260200190815260200160002054600a610eb9919061515e565b610ed4670de0b6b3a7640000876147b890919063ffffffff16565b6147b890919063ffffffff16565b6147ce90919063ffffffff16565b600560003373ffffffffffffffffffffffffffffffffffffffff1673ffffffffffffffffffffffffffffffffffffffff16815260200190815260200160002060008573ffffffffffffffffffffffffffffffffffffffff1673ffffffffffffffffffffffffffffffffffffffff1681526020019081526020016000206000828254610f7b9190615215565b92505081905550610f8b83613088565b600460008573ffffffffffffffffffffffffffffffffffffffff1673ffffffffffffffffffffffffffffffffffffffff1681526020019081526020016000206000828254610fd99190615249565b9250508190555042600660008573ffffffffffffffffffffffffffffffffffffffff1673ffffffffffffffffffffffffffffffffffffffff16815260200190815260200160002081905550611082600360008573ffffffffffffffffffffffffffffffffffffffff1673ffffffffffffffffffffffffffffffffffffffff16815260200190815260200160002054600a611073919061515e565b836147b890919063ffffffff16565b600460008573ffffffffffffffffffffffffffffffffffffffff1673ffffffffffffffffffffffffffffffffffffffff16815260200190815260200160002060008282546110d09190615215565b925050819055508273ffffffffffffffffffffffffffffffffffffffff166323b872dd3330856040518463ffffffff1660e01b81526004016111149392919061529f565b6020604051808303816000875af1158015611133573d6000803e3d6000fd5b505050506040513d601f19601f8201168201806040525081019061115791906152eb565b50601060009054906101000a900473ffffffffffffffffffffffffffffffffffffffff1673ffffffffffffffffffffffffffffffffffffffff16639aa49864846111ab6004856147ce90919063ffffffff16565b6040518363ffffffff1660e01b81526004016111c8929190615318565b600060405180830381600087803b1580156111e257600080fd5b505af11580156111f6573d6000803e3d6000fd5b5050505061122160046112136003846147b890919063ffffffff16565b6147ce90919063ffffffff16565b600260008573ffffffffffffffffffffffffffffffffffffffff1673ffffffffffffffffffffffffffffffffffffffff168152602001908152602001600020600082825461126f9190615249565b9250508190555061127e6147fa565b505050565b60006112c3670de0b6b3a76400006112b561129d85614ac6565b6112a78787610aec565b6147b890919063ffffffff16565b6147ce90919063ffffffff16565b905092915050565b60016020528060005260406000206000915054906101000a900473ffffffffffffffffffffffffffffffffffffffff1681565b670de0b6b3a764000061131082612e9e565b10611350576040517f08c379a00000000000000000000000000000000000000000000000000000000081526004016113479061538d565b60405180910390fd5b600061135b826128af565b905060008060005b600960009054906101000a900473ffffffffffffffffffffffffffffffffffffffff1673ffffffffffffffffffffffffffffffffffffffff16630842b0766040518163ffffffff1660e01b8152600401602060405180830381865afa1580156113d0573d6000803e3d6000fd5b505050506040513d601f19601f820116820180604052508101906113f49190614fcf565b811015611a6f5760006114078684611283565b1115611a5c57600960009054906101000a900473ffffffffffffffffffffffffffffffffffffffff1673ffffffffffffffffffffffffffffffffffffffff1663e468baf0826040518263ffffffff1660e01b81526004016114689190614cda565b602060405180830381865afa158015611485573d6000803e3d6000fd5b505050506040513d601f19601f820116820180604052508101906114a991906153c2565b9150600a60009054906101000a900473ffffffffffffffffffffffffffffffffffffffff1673ffffffffffffffffffffffffffffffffffffffff16630f3aa554836115e6876115d86114fb8b89611283565b6115ca611520670de0b6b3a7640000611512613cfd565b6147ce90919063ffffffff16565b600b60009054906101000a900473ffffffffffffffffffffffffffffffffffffffff1673ffffffffffffffffffffffffffffffffffffffff166370a082318f6040518263ffffffff1660e01b815260040161157b9190614d04565b602060405180830381865afa158015611598573d6000803e3d6000fd5b505050506040513d601f19601f820116820180604052508101906115bc9190614fcf565b6147b890919063ffffffff16565b6147b890919063ffffffff16565b6147ce90919063ffffffff16565b6001306040518563ffffffff1660e01b8152600401611608949392919061542a565b6020604051808303816000875af1158015611627573d6000803e3d6000fd5b505050506040513d601f19601f8201168201806040525081019061164b9190614fcf565b92508173ffffffffffffffffffffffffffffffffffffffff1663a9059cbb3361169160646116836005896147b890919063ffffffff16565b6147ce90919063ffffffff16565b6040518363ffffffff1660e01b81526004016116ae929190615318565b6020604051808303816000875af11580156116cd573d6000803e3d6000fd5b505050506040513d601f19601f820116820180604052508101906116f191906152eb565b508173ffffffffffffffffffffffffffffffffffffffff1663a9059cbb601060009054906101000a900473ffffffffffffffffffffffffffffffffffffffff16611758606461174a6005896147b890919063ffffffff16565b6147ce90919063ffffffff16565b6040518363ffffffff1660e01b8152600401611775929190615318565b6020604051808303816000875af1158015611794573d6000803e3d6000fd5b505050506040513d601f19601f820116820180604052508101906117b891906152eb565b506117c282613088565b600460008473ffffffffffffffffffffffffffffffffffffffff1673ffffffffffffffffffffffffffffffffffffffff16815260200190815260200160002060008282546118109190615249565b9250508190555042600660008473ffffffffffffffffffffffffffffffffffffffff1673ffffffffffffffffffffffffffffffffffffffff16815260200190815260200160002081905550600560008673ffffffffffffffffffffffffffffffffffffffff1673ffffffffffffffffffffffffffffffffffffffff16815260200190815260200160002060008373ffffffffffffffffffffffffffffffffffffffff1673ffffffffffffffffffffffffffffffffffffffff16815260200190815260200160002054600260008473ffffffffffffffffffffffffffffffffffffffff1673ffffffffffffffffffffffffffffffffffffffff16815260200190815260200160002060008282546119269190615215565b925050819055506000600560008773ffffffffffffffffffffffffffffffffffffffff1673ffffffffffffffffffffffffffffffffffffffff16815260200190815260200160002060008473ffffffffffffffffffffffffffffffffffffffff1673ffffffffffffffffffffffffffffffffffffffff1681526020019081526020016000208190555082600260008473ffffffffffffffffffffffffffffffffffffffff1673ffffffffffffffffffffffffffffffffffffffff16815260200190815260200160002060008282546119fe9190615249565b9250508190555082600460008473ffffffffffffffffffffffffffffffffffffffff1673ffffffffffffffffffffffffffffffffffffffff1681526020019081526020016000206000828254611a549190615215565b925050819055505b8080611a679061546f565b915050611363565b5050505050565b600d60009054906101000a900473ffffffffffffffffffffffffffffffffffffffff1681565b60008060005b600960009054906101000a900473ffffffffffffffffffffffffffffffffffffffff1673ffffffffffffffffffffffffffffffffffffffff16630842b0766040518163ffffffff1660e01b8152600401602060405180830381865afa158015611b0f573d6000803e3d6000fd5b505050506040513d601f19601f82011682018060405250810190611b339190614fcf565b811015611d82576000600960009054906101000a900473ffffffffffffffffffffffffffffffffffffffff1673ffffffffffffffffffffffffffffffffffffffff1663e468baf0836040518263ffffffff1660e01b8152600401611b979190614cda565b602060405180830381865afa158015611bb4573d6000803e3d6000fd5b505050506040513d601f19601f82011682018060405250810190611bd891906153c2565b9050611d61760a70c3c40a64e6c51999090b65f67d9240000000000000611d53611c0184614ac6565b611d45611c0d8661447f565b611d37600160008973ffffffffffffffffffffffffffffffffffffffff1673ffffffffffffffffffffffffffffffffffffffff16815260200190815260200160002060009054906101000a900473ffffffffffffffffffffffffffffffffffffffff1673ffffffffffffffffffffffffffffffffffffffff166370a082318d6040518263ffffffff1660e01b8152600401611ca89190614d04565b602060405180830381865afa158015611cc5573d6000803e3d6000fd5b505050506040513d601f19601f82011682018060405250810190611ce99190614fcf565b600260008a73ffffffffffffffffffffffffffffffffffffffff1673ffffffffffffffffffffffffffffffffffffffff168152602001908152602001600020546147b890919063ffffffff16565b6147b890919063ffffffff16565b6147b890919063ffffffff16565b6147ce90919063ffffffff16565b83611d6c9190615249565b9250508080611d7a9061546f565b915050611aa2565b5080915050919050565b600860009054906101000a900473ffffffffffffffffffffffffffffffffffffffff1673ffffffffffffffffffffffffffffffffffffffff163373ffffffffffffffffffffffffffffffffffffffff1614611e1c576040517f08c379a0000000000000000000000000000000000000000000000000000000008152600401611e1390614f9a565b60405180910390fd5b600073ffffffffffffffffffffffffffffffffffffffff16600160008473ffffffffffffffffffffffffffffffffffffffff1673ffffffffffffffffffffffffffffffffffffffff16815260200190815260200160002060009054906101000a900473ffffffffffffffffffffffffffffffffffffffff1673ffffffffffffffffffffffffffffffffffffffff1614611eea576040517f08c379a0000000000000000000000000000000000000000000000000000000008152600401611ee190614f9a565b60405180910390fd5b80600160008473ffffffffffffffffffffffffffffffffffffffff1673ffffffffffffffffffffffffffffffffffffffff16815260200190815260200160002060006101000a81548173ffffffffffffffffffffffffffffffffffffffff021916908373ffffffffffffffffffffffffffffffffffffffff16021790555060016000808473ffffffffffffffffffffffffffffffffffffffff1673ffffffffffffffffffffffffffffffffffffffff16815260200190815260200160002060006101000a81548160ff0219169083151502179055506120418273ffffffffffffffffffffffffffffffffffffffff1663313ce5676040518163ffffffff1660e01b8152600401602060405180830381865afa15801561200d573d6000803e3d6000fd5b505050506040513d601f19601f820116820180604052508101906120319190614fcf565b60126147e490919063ffffffff16565b600360008473ffffffffffffffffffffffffffffffffffffffff1673ffffffffffffffffffffffffffffffffffffffff168152602001908152602001600020819055508173ffffffffffffffffffffffffffffffffffffffff1663095ea7b3601260009054906101000a900473ffffffffffffffffffffffffffffffffffffffff167fffffffffffffffffffffffffffffffffffffffffffffffffffffffffffffffff6040518363ffffffff1660e01b8152600401612101929190615318565b6020604051808303816000875af1158015612120573d6000803e3d6000fd5b505050506040513d601f19601f8201168201806040525081019061214491906152eb565b505050565b60075481565b6121ad600360008473ffffffffffffffffffffffffffffffffffffffff1673ffffffffffffffffffffffffffffffffffffffff16815260200190815260200160002054600a61219e919061515e565b826147b890919063ffffffff16565b6121b73384613a7b565b10156121f8576040517f08c379a00000000000000000000000000000000000000000000000000000000081526004016121ef90615504565b60405180910390fd5b61220182613088565b600460008473ffffffffffffffffffffffffffffffffffffffff1673ffffffffffffffffffffffffffffffffffffffff168152602001908152602001600020600082825461224f9190615249565b9250508190555042600660008473ffffffffffffffffffffffffffffffffffffffff1673ffffffffffffffffffffffffffffffffffffffff168152602001908152602001600020819055506122f8600360008473ffffffffffffffffffffffffffffffffffffffff1673ffffffffffffffffffffffffffffffffffffffff16815260200190815260200160002054600a6122e9919061515e565b826147b890919063ffffffff16565b600460008473ffffffffffffffffffffffffffffffffffffffff1673ffffffffffffffffffffffffffffffffffffffff16815260200190815260200160002060008282546123469190615249565b925050819055506123df612359836138cb565b6123d16123c2600360008773ffffffffffffffffffffffffffffffffffffffff1673ffffffffffffffffffffffffffffffffffffffff16815260200190815260200160002054600a6123ab919061515e565b670de0b6b3a76400006147b890919063ffffffff16565b846147b890919063ffffffff16565b6147ce90919063ffffffff16565b600560003373ffffffffffffffffffffffffffffffffffffffff1673ffffffffffffffffffffffffffffffffffffffff16815260200190815260200160002060008473ffffffffffffffffffffffffffffffffffffffff1673ffffffffffffffffffffffffffffffffffffffff168152602001908152602001600020600082825461246a9190615249565b925050819055508173ffffffffffffffffffffffffffffffffffffffff1663a9059cbb33836040518363ffffffff1660e01b81526004016124ac929190615318565b6020604051808303816000875af11580156124cb573d6000803e3d6000fd5b505050506040513d601f19601f820116820180604052508101906124ef91906152eb565b505050565b600860009054906101000a900473ffffffffffffffffffffffffffffffffffffffff1681565b601260009054906101000a900473ffffffffffffffffffffffffffffffffffffffff1681565b6000600b60009054906101000a900473ffffffffffffffffffffffffffffffffffffffff1673ffffffffffffffffffffffffffffffffffffffff16639dc29fac33846040518363ffffffff1660e01b815260040161259f929190615318565b600060405180830381600087803b1580156125b957600080fd5b505af11580156125cd573d6000803e3d6000fd5b505050506000612607670de0b6b3a76400006125f96125ea613cfd565b866147b890919063ffffffff16565b6147ce90919063ffffffff16565b90506000600a60009054906101000a900473ffffffffffffffffffffffffffffffffffffffff1673ffffffffffffffffffffffffffffffffffffffff16630f3aa554600d60009054906101000a900473ffffffffffffffffffffffffffffffffffffffff16846001336040518563ffffffff1660e01b815260040161268f949392919061542a565b6020604051808303816000875af11580156126ae573d6000803e3d6000fd5b505050506040513d601f19601f820116820180604052508101906126d29190614fcf565b905081600760008282546126e69190615215565b92505081905550670de0b6b3a76400006126ff33612e9e565b1015612740576040517f08c379a000000000000000000000000000000000000000000000000000000000815260040161273790615596565b60405180910390fd5b8092505050919050565b600860009054906101000a900473ffffffffffffffffffffffffffffffffffffffff1673ffffffffffffffffffffffffffffffffffffffff163373ffffffffffffffffffffffffffffffffffffffff16146127da576040517f08c379a00000000000000000000000000000000000000000000000000000000081526004016127d190614f9a565b60405180910390fd5b600073ffffffffffffffffffffffffffffffffffffffff16600b60009054906101000a900473ffffffffffffffffffffffffffffffffffffffff1673ffffffffffffffffffffffffffffffffffffffff161461286b576040517f08c379a000000000000000000000000000000000000000000000000000000000815260040161286290615602565b60405180910390fd5b80600b60006101000a81548173ffffffffffffffffffffffffffffffffffffffff021916908373ffffffffffffffffffffffffffffffffffffffff16021790555050565b60008060005b600960009054906101000a900473ffffffffffffffffffffffffffffffffffffffff1673ffffffffffffffffffffffffffffffffffffffff16630842b0766040518163ffffffff1660e01b8152600401602060405180830381865afa158015612922573d6000803e3d6000fd5b505050506040513d601f19601f820116820180604052508101906129469190614fcf565b811015612ae157612ac1670de0b6b3a7640000612ab3612a00600960009054906101000a900473ffffffffffffffffffffffffffffffffffffffff1673ffffffffffffffffffffffffffffffffffffffff1663e468baf0866040518263ffffffff1660e01b81526004016129ba9190614cda565b602060405180830381865afa1580156129d7573d6000803e3d6000fd5b505050506040513d601f19601f820116820180604052508101906129fb91906153c2565b614ac6565b612aa588600960009054906101000a900473ffffffffffffffffffffffffffffffffffffffff1673ffffffffffffffffffffffffffffffffffffffff1663e468baf0886040518263ffffffff1660e01b8152600401612a5f9190614cda565b602060405180830381865afa158015612a7c573d6000803e3d6000fd5b505050506040513d601f19601f82011682018060405250810190612aa091906153c2565b610aec565b6147b890919063ffffffff16565b6147ce90919063ffffffff16565b82612acc9190615249565b91508080612ad99061546f565b9150506128b5565b5080915050919050565b600e5481565b6005602052816000526040600020602052806000526040600020600091509150505481565b601160009054906101000a900473ffffffffffffffffffffffffffffffffffffffff1681565b60046020528060005260406000206000915090505481565b60026020528060005260406000206000915090505481565b6000612c96612c48600360008573ffffffffffffffffffffffffffffffffffffffff1673ffffffffffffffffffffffffffffffffffffffff16815260200190815260200160002054600a612bc0919061515e565b8473ffffffffffffffffffffffffffffffffffffffff166370a08231306040518263ffffffff1660e01b8152600401612bf99190614d04565b602060405180830381865afa158015612c16573d6000803e3d6000fd5b505050506040513d601f19601f82011682018060405250810190612c3a9190614fcf565b6147b890919063ffffffff16565b600260008573ffffffffffffffffffffffffffffffffffffffff1673ffffffffffffffffffffffffffffffffffffffff168152602001908152602001600020546147e490919063ffffffff16565b9050919050565b612d0d81612d08600360008573ffffffffffffffffffffffffffffffffffffffff1673ffffffffffffffffffffffffffffffffffffffff16815260200190815260200160002054600a612cf0919061515e565b612cfa3386610aec565b6147ce90919063ffffffff16565b610bcd565b50565b6000612d86600260008473ffffffffffffffffffffffffffffffffffffffff1673ffffffffffffffffffffffffffffffffffffffff16815260200190815260200160002054612d78670de0b6b3a7640000612d6a86612b6c565b6147b890919063ffffffff16565b6147ce90919063ffffffff16565b9050919050565b600860009054906101000a900473ffffffffffffffffffffffffffffffffffffffff1673ffffffffffffffffffffffffffffffffffffffff163373ffffffffffffffffffffffffffffffffffffffff1614612e1d576040517f08c379a0000000000000000000000000000000000000000000000000000000008152600401612e1490614f9a565b60405180910390fd5b605a8111158015612e2f575060328110155b612e6e576040517f08c379a0000000000000000000000000000000000000000000000000000000008152600401612e659061566e565b60405180910390fd5b80600e8190555050565b600f60009054906101000a900473ffffffffffffffffffffffffffffffffffffffff1681565b600080612eaa836128af565b1415612ec15768056bc75e2d631000009050612f5f565b68056bc75e2d63100000612f08612ed7846128af565b612efa670de0b6b3a7640000612eec87612f64565b6147b890919063ffffffff16565b6147ce90919063ffffffff16565b1115612f1f5768056bc75e2d631000009050612f5f565b612f5c612f2b836128af565b612f4e670de0b6b3a7640000612f4086612f64565b6147b890919063ffffffff16565b6147ce90919063ffffffff16565b90505b919050565b60008061307d606461306f6ec097ce7bc90715b34b9f1000000000613061600e54613053612f9061431f565b613045612f9b613cfd565b600b60009054906101000a900473ffffffffffffffffffffffffffffffffffffffff1673ffffffffffffffffffffffffffffffffffffffff166370a082318e6040518263ffffffff1660e01b8152600401612ff69190614d04565b602060405180830381865afa158015613013573d6000803e3d6000fd5b505050506040513d601f19601f820116820180604052508101906130379190614fcf565b6147b890919063ffffffff16565b6147b890919063ffffffff16565b6147b890919063ffffffff16565b6147ce90919063ffffffff16565b6147ce90919063ffffffff16565b905080915050919050565b6000806130dd600660008573ffffffffffffffffffffffffffffffffffffffff1673ffffffffffffffffffffffffffffffffffffffff16815260200190815260200160002054426147e490919063ffffffff16565b905060006131496301e1338061313b84600460008973ffffffffffffffffffffffffffffffffffffffff1673ffffffffffffffffffffffffffffffffffffffff168152602001908152602001600020546147b890919063ffffffff16565b6147ce90919063ffffffff16565b90508092505050919050565b600061317a613163836128af565b61316c84612f64565b6147e490919063ffffffff16565b9050919050565b600f60009054906101000a900473ffffffffffffffffffffffffffffffffffffffff1673ffffffffffffffffffffffffffffffffffffffff1663ef5cfb8c336040518263ffffffff1660e01b81526004016131dc9190614d04565b600060405180830381600087803b1580156131f657600080fd5b505af115801561320a573d6000803e3d6000fd5b505050506000819050613271600360008573ffffffffffffffffffffffffffffffffffffffff1673ffffffffffffffffffffffffffffffffffffffff16815260200190815260200160002054600a613262919061515e565b836147b890919063ffffffff16565b9150600115156000808573ffffffffffffffffffffffffffffffffffffffff1673ffffffffffffffffffffffffffffffffffffffff16815260200190815260200160002060009054906101000a900460ff16151514613305576040517f08c379a00000000000000000000000000000000000000000000000000000000081526004016132fc906156da565b60405180910390fd5b600061333c6133138561447f565b61332e670de0b6b3a7640000866147b890919063ffffffff16565b6147ce90919063ffffffff16565b905061334784613088565b600460008673ffffffffffffffffffffffffffffffffffffffff1673ffffffffffffffffffffffffffffffffffffffff16815260200190815260200160002060008282546133959190615249565b9250508190555042600660008673ffffffffffffffffffffffffffffffffffffffff1673ffffffffffffffffffffffffffffffffffffffff168152602001908152602001600020819055508373ffffffffffffffffffffffffffffffffffffffff166323b872dd3330856040518463ffffffff1660e01b815260040161341d9392919061529f565b6020604051808303816000875af115801561343c573d6000803e3d6000fd5b505050506040513d601f19601f8201168201806040525081019061346091906152eb565b50600160008573ffffffffffffffffffffffffffffffffffffffff1673ffffffffffffffffffffffffffffffffffffffff16815260200190815260200160002060009054906101000a900473ffffffffffffffffffffffffffffffffffffffff1673ffffffffffffffffffffffffffffffffffffffff166340c10f1933836040518363ffffffff1660e01b81526004016134fb929190615318565b600060405180830381600087803b15801561351557600080fd5b505af1158015613529573d6000803e3d6000fd5b5050505082600260008673ffffffffffffffffffffffffffffffffffffffff1673ffffffffffffffffffffffffffffffffffffffff168152602001908152602001600020600082825461357c9190615249565b9250508190555050505050565b6000600754111561359d5761359c6147fa565b5b8173ffffffffffffffffffffffffffffffffffffffff166323b872dd3330846040518463ffffffff1660e01b81526004016135da9392919061529f565b6020604051808303816000875af11580156135f9573d6000803e3d6000fd5b505050506040513d601f19601f8201168201806040525081019061361d91906152eb565b50600a60009054906101000a900473ffffffffffffffffffffffffffffffffffffffff1673ffffffffffffffffffffffffffffffffffffffff1663364e23118383600060016040518563ffffffff1660e01b81526004016136819493929190615735565b6020604051808303816000875af11580156136a0573d6000803e3d6000fd5b505050506040513d601f19601f820116820180604052508101906136c49190614fcf565b905060006136fc6136d3613cfd565b6136ee670de0b6b3a7640000856147b890919063ffffffff16565b6147ce90919063ffffffff16565b9050600b60009054906101000a900473ffffffffffffffffffffffffffffffffffffffff1673ffffffffffffffffffffffffffffffffffffffff166340c10f1933836040518363ffffffff1660e01b815260040161375b929190615318565b600060405180830381600087803b15801561377557600080fd5b505af1158015613789573d6000803e3d6000fd5b50505050816007600082825461379f9190615249565b92505081905550505050565b600860009054906101000a900473ffffffffffffffffffffffffffffffffffffffff1673ffffffffffffffffffffffffffffffffffffffff163373ffffffffffffffffffffffffffffffffffffffff161461383b576040517f08c379a000000000000000000000000000000000000000000000000000000000815260040161383290614f9a565b60405180910390fd5b80600860006101000a81548173ffffffffffffffffffffffffffffffffffffffff021916908373ffffffffffffffffffffffffffffffffffffffff16021790555050565b600b60009054906101000a900473ffffffffffffffffffffffffffffffffffffffff1681565b600c60009054906101000a900473ffffffffffffffffffffffffffffffffffffffff1681565b6000806138d783612b6c565b14156138ed57670de0b6b3a7640000905061397e565b61397b6138f983612b6c565b61396d670de0b6b3a764000061395f61391187613088565b600460008973ffffffffffffffffffffffffffffffffffffffff1673ffffffffffffffffffffffffffffffffffffffff16815260200190815260200160002054614b9090919063ffffffff16565b6147b890919063ffffffff16565b6147ce90919063ffffffff16565b90505b919050565b600061398e336128af565b146139ce576040517f08c379a00000000000000000000000000000000000000000000000000000000081526004016139c5906157c6565b60405180910390fd5b6000600b60009054906101000a900473ffffffffffffffffffffffffffffffffffffffff1673ffffffffffffffffffffffffffffffffffffffff166370a08231336040518263ffffffff1660e01b8152600401613a2b9190614d04565b602060405180830381865afa158015613a48573d6000803e3d6000fd5b505050506040513d601f19601f82011682018060405250810190613a6c9190614fcf565b9050613a7781612540565b5050565b6000613ad4613a8983614ac6565b613ac6670de0b6b3a7640000613ab8613aa1886128af565b613aaa89612f64565b6147e490919063ffffffff16565b6147b890919063ffffffff16565b6147ce90919063ffffffff16565b905092915050565b60006020528060005260406000206000915054906101000a900460ff1681565b60008060005b600960009054906101000a900473ffffffffffffffffffffffffffffffffffffffff1673ffffffffffffffffffffffffffffffffffffffff16630842b0766040518163ffffffff1660e01b8152600401602060405180830381865afa158015613b6f573d6000803e3d6000fd5b505050506040513d601f19601f82011682018060405250810190613b939190614fcf565b811015613ccf576000600960009054906101000a900473ffffffffffffffffffffffffffffffffffffffff1673ffffffffffffffffffffffffffffffffffffffff1663e468baf0836040518263ffffffff1660e01b8152600401613bf79190614cda565b602060405180830381865afa158015613c14573d6000803e3d6000fd5b505050506040513d601f19601f82011682018060405250810190613c3891906153c2565b9050613cae670de0b6b3a7640000613ca0613c5284614ac6565b600260008673ffffffffffffffffffffffffffffffffffffffff1673ffffffffffffffffffffffffffffffffffffffff168152602001908152602001600020546147b890919063ffffffff16565b6147ce90919063ffffffff16565b83613cb99190615249565b9250508080613cc79061546f565b915050613b02565b508091505090565b600a60009054906101000a900473ffffffffffffffffffffffffffffffffffffffff1681565b600080600b60009054906101000a900473ffffffffffffffffffffffffffffffffffffffff1673ffffffffffffffffffffffffffffffffffffffff166318160ddd6040518163ffffffff1660e01b8152600401602060405180830381865afa158015613d6d573d6000803e3d6000fd5b505050506040513d601f19601f82011682018060405250810190613d919190614fcf565b1415613da757670de0b6b3a76400009050613e69565b613e66600b60009054906101000a900473ffffffffffffffffffffffffffffffffffffffff1673ffffffffffffffffffffffffffffffffffffffff166318160ddd6040518163ffffffff1660e01b8152600401602060405180830381865afa158015613e17573d6000803e3d6000fd5b505050506040513d601f19601f82011682018060405250810190613e3b9190614fcf565b613e58670de0b6b3a76400006007546147b890919063ffffffff16565b6147ce90919063ffffffff16565b90505b90565b60036020528060005260406000206000915090505481565b60066020528060005260406000206000915090505481565b600f60009054906101000a900473ffffffffffffffffffffffffffffffffffffffff1673ffffffffffffffffffffffffffffffffffffffff1663ef5cfb8c336040518263ffffffff1660e01b8152600401613ef79190614d04565b600060405180830381600087803b158015613f1157600080fd5b505af1158015613f25573d6000803e3d6000fd5b505050506000613f60670de0b6b3a7640000613f52613f438661447f565b856147b890919063ffffffff16565b6147ce90919063ffffffff16565b9050614039600360008573ffffffffffffffffffffffffffffffffffffffff1673ffffffffffffffffffffffffffffffffffffffff16815260200190815260200160002054600a613fb1919061515e565b8473ffffffffffffffffffffffffffffffffffffffff166370a08231306040518263ffffffff1660e01b8152600401613fea9190614d04565b602060405180830381865afa158015614007573d6000803e3d6000fd5b505050506040513d601f19601f8201168201806040525081019061402b9190614fcf565b6147b890919063ffffffff16565b811161407a576040517f08c379a000000000000000000000000000000000000000000000000000000000815260040161407190615858565b60405180910390fd5b600160008473ffffffffffffffffffffffffffffffffffffffff1673ffffffffffffffffffffffffffffffffffffffff16815260200190815260200160002060009054906101000a900473ffffffffffffffffffffffffffffffffffffffff1673ffffffffffffffffffffffffffffffffffffffff16639dc29fac33846040518363ffffffff1660e01b8152600401614114929190615318565b600060405180830381600087803b15801561412e57600080fd5b505af1158015614142573d6000803e3d6000fd5b5050505080600260008573ffffffffffffffffffffffffffffffffffffffff1673ffffffffffffffffffffffffffffffffffffffff16815260200190815260200160002060008282546141959190615215565b925050819055506141a583613088565b600460008573ffffffffffffffffffffffffffffffffffffffff1673ffffffffffffffffffffffffffffffffffffffff16815260200190815260200160002060008282546141f39190615249565b9250508190555042600660008573ffffffffffffffffffffffffffffffffffffffff1673ffffffffffffffffffffffffffffffffffffffff168152602001908152602001600020819055508273ffffffffffffffffffffffffffffffffffffffff1663a9059cbb336142b9600360008873ffffffffffffffffffffffffffffffffffffffff1673ffffffffffffffffffffffffffffffffffffffff16815260200190815260200160002054600a6142aa919061515e565b856147ce90919063ffffffff16565b6040518363ffffffff1660e01b81526004016142d6929190615318565b6020604051808303816000875af11580156142f5573d6000803e3d6000fd5b505050506040513d601f19601f8201168201806040525081019061431991906152eb565b50505050565b600061447a600c60009054906101000a900473ffffffffffffffffffffffffffffffffffffffff1673ffffffffffffffffffffffffffffffffffffffff166318160ddd6040518163ffffffff1660e01b8152600401602060405180830381865afa158015614391573d6000803e3d6000fd5b505050506040513d601f19601f820116820180604052508101906143b59190614fcf565b61446c670de0b6b3a7640000601260009054906101000a900473ffffffffffffffffffffffffffffffffffffffff1673ffffffffffffffffffffffffffffffffffffffff166368a0a3e060016040518263ffffffff1660e01b815260040161441d9190614eaa565b602060405180830381865afa15801561443a573d6000803e3d6000fd5b505050506040513d601f19601f8201168201806040525081019061445e9190614fcf565b6147b890919063ffffffff16565b6147ce90919063ffffffff16565b905090565b600080600160008473ffffffffffffffffffffffffffffffffffffffff1673ffffffffffffffffffffffffffffffffffffffff16815260200190815260200160002060009054906101000a900473ffffffffffffffffffffffffffffffffffffffff1673ffffffffffffffffffffffffffffffffffffffff166318160ddd6040518163ffffffff1660e01b8152600401602060405180830381865afa15801561452c573d6000803e3d6000fd5b505050506040513d601f19601f820116820180604052508101906145509190614fcf565b141561456657670de0b6b3a764000090506146a2565b61469f600160008473ffffffffffffffffffffffffffffffffffffffff1673ffffffffffffffffffffffffffffffffffffffff16815260200190815260200160002060009054906101000a900473ffffffffffffffffffffffffffffffffffffffff1673ffffffffffffffffffffffffffffffffffffffff166318160ddd6040518163ffffffff1660e01b8152600401602060405180830381865afa158015614613573d6000803e3d6000fd5b505050506040513d601f19601f820116820180604052508101906146379190614fcf565b614691670de0b6b3a7640000600260008773ffffffffffffffffffffffffffffffffffffffff1673ffffffffffffffffffffffffffffffffffffffff168152602001908152602001600020546147b890919063ffffffff16565b6147ce90919063ffffffff16565b90505b919050565b6000600160008373ffffffffffffffffffffffffffffffffffffffff1673ffffffffffffffffffffffffffffffffffffffff16815260200190815260200160002060009054906101000a900473ffffffffffffffffffffffffffffffffffffffff1673ffffffffffffffffffffffffffffffffffffffff166370a08231336040518263ffffffff1660e01b81526004016147419190614d04565b602060405180830381865afa15801561475e573d6000803e3d6000fd5b505050506040513d601f19601f820116820180604052508101906147829190614fcf565b905061478e8282613e9c565b5050565b600960009054906101000a900473ffffffffffffffffffffffffffffffffffffffff1681565b600081836147c69190615878565b905092915050565b600081836147dc9190615901565b905092915050565b600081836147f29190615215565b905092915050565b6000600d60009054906101000a900473ffffffffffffffffffffffffffffffffffffffff1673ffffffffffffffffffffffffffffffffffffffff166370a08231306040518263ffffffff1660e01b81526004016148579190614d04565b602060405180830381865afa158015614874573d6000803e3d6000fd5b505050506040513d601f19601f820116820180604052508101906148989190614fcf565b9050600a60009054906101000a900473ffffffffffffffffffffffffffffffffffffffff1673ffffffffffffffffffffffffffffffffffffffff166330b7000260008060018060018060006040518863ffffffff1660e01b81526004016149059796959493929190615932565b600060405180830381600087803b15801561491f57600080fd5b505af1158015614933573d6000803e3d6000fd5b50505050600a60009054906101000a900473ffffffffffffffffffffffffffffffffffffffff1673ffffffffffffffffffffffffffffffffffffffff1663364e2311600d60009054906101000a900473ffffffffffffffffffffffffffffffffffffffff16614a4684600d60009054906101000a900473ffffffffffffffffffffffffffffffffffffffff1673ffffffffffffffffffffffffffffffffffffffff166370a08231306040518263ffffffff1660e01b81526004016149f79190614d04565b602060405180830381865afa158015614a14573d6000803e3d6000fd5b505050506040513d601f19601f82011682018060405250810190614a389190614fcf565b6147e490919063ffffffff16565b6001806040518563ffffffff1660e01b8152600401614a6894939291906159a1565b6020604051808303816000875af1158015614a87573d6000803e3d6000fd5b505050506040513d601f19601f82011682018060405250810190614aab9190614fcf565b60076000828254614abc9190615249565b9250508190555050565b600080601160009054906101000a900473ffffffffffffffffffffffffffffffffffffffff1673ffffffffffffffffffffffffffffffffffffffff16632fc3a70a846000600160006040518563ffffffff1660e01b8152600401614b2d94939291906159e6565b602060405180830381865afa158015614b4a573d6000803e3d6000fd5b505050506040513d601f19601f82011682018060405250810190614b6e9190614fcf565b9050614b8864e8d4a51000826147ce90919063ffffffff16565b915050919050565b60008183614b9e9190615249565b905092915050565b600080fd5b600073ffffffffffffffffffffffffffffffffffffffff82169050919050565b6000614bd682614bab565b9050919050565b614be681614bcb565b8114614bf157600080fd5b50565b600081359050614c0381614bdd565b92915050565b60008115159050919050565b614c1e81614c09565b8114614c2957600080fd5b50565b600081359050614c3b81614c15565b92915050565b60008060408385031215614c5857614c57614ba6565b5b6000614c6685828601614bf4565b9250506020614c7785828601614c2c565b9150509250929050565b60008060408385031215614c9857614c97614ba6565b5b6000614ca685828601614bf4565b9250506020614cb785828601614bf4565b9150509250929050565b6000819050919050565b614cd481614cc1565b82525050565b6000602082019050614cef6000830184614ccb565b92915050565b614cfe81614bcb565b82525050565b6000602082019050614d196000830184614cf5565b92915050565b614d2881614cc1565b8114614d3357600080fd5b50565b600081359050614d4581614d1f565b92915050565b60008060408385031215614d6257614d61614ba6565b5b6000614d7085828601614bf4565b9250506020614d8185828601614d36565b9150509250929050565b600060208284031215614da157614da0614ba6565b5b6000614daf84828501614bf4565b91505092915050565b600060208284031215614dce57614dcd614ba6565b5b6000614ddc84828501614d36565b91505092915050565b6000819050919050565b6000614e0a614e05614e0084614bab565b614de5565b614bab565b9050919050565b6000614e1c82614def565b9050919050565b6000614e2e82614e11565b9050919050565b614e3e81614e23565b82525050565b6000602082019050614e596000830184614e35565b92915050565b6000614e6a82614e11565b9050919050565b614e7a81614e5f565b82525050565b6000602082019050614e956000830184614e71565b92915050565b614ea481614c09565b82525050565b6000602082019050614ebf6000830184614e9b565b92915050565b6000614ed082614e11565b9050919050565b614ee081614ec5565b82525050565b6000602082019050614efb6000830184614ed7565b92915050565b6000614f0c82614e11565b9050919050565b614f1c81614f01565b82525050565b6000602082019050614f376000830184614f13565b92915050565b600082825260208201905092915050565b7f21476f7665726e616e6365000000000000000000000000000000000000000000600082015250565b6000614f84600b83614f3d565b9150614f8f82614f4e565b602082019050919050565b60006020820190508181036000830152614fb381614f77565b9050919050565b600081519050614fc981614d1f565b92915050565b600060208284031215614fe557614fe4614ba6565b5b6000614ff384828501614fba565b91505092915050565b7f4e487b7100000000000000000000000000000000000000000000000000000000600052601160045260246000fd5b60008160011c9050919050565b6000808291508390505b60018511156150825780860481111561505e5761505d614ffc565b5b600185161561506d5780820291505b808102905061507b8561502b565b9450615042565b94509492505050565b60008261509b5760019050615157565b816150a95760009050615157565b81600181146150bf57600281146150c9576150f8565b6001915050615157565b60ff8411156150db576150da614ffc565b5b8360020a9150848211156150f2576150f1614ffc565b5b50615157565b5060208310610133831016604e8410600b841016171561512d5782820a90508381111561512857615127614ffc565b5b615157565b61513a8484846001615038565b9250905081840481111561515157615150614ffc565b5b81810290505b9392505050565b600061516982614cc1565b915061517483614cc1565b92506151a17fffffffffffffffffffffffffffffffffffffffffffffffffffffffffffffffff848461508b565b905092915050565b7f5265706179696e6720746f6f206d756368000000000000000000000000000000600082015250565b60006151df601183614f3d565b91506151ea826151a9565b602082019050919050565b6000602082019050818103600083015261520e816151d2565b9050919050565b600061522082614cc1565b915061522b83614cc1565b92508282101561523e5761523d614ffc565b5b828203905092915050565b600061525482614cc1565b915061525f83614cc1565b9250827fffffffffffffffffffffffffffffffffffffffffffffffffffffffffffffffff0382111561529457615293614ffc565b5b828201905092915050565b60006060820190506152b46000830186614cf5565b6152c16020830185614cf5565b6152ce6040830184614ccb565b949350505050565b6000815190506152e581614c15565b92915050565b60006020828403121561530157615300614ba6565b5b600061530f848285016152d6565b91505092915050565b600060408201905061532d6000830185614cf5565b61533a6020830184614ccb565b9392505050565b7f4163636f756e74206865616c7468790000000000000000000000000000000000600082015250565b6000615377600f83614f3d565b915061538282615341565b602082019050919050565b600060208201905081810360008301526153a68161536a565b9050919050565b6000815190506153bc81614bdd565b92915050565b6000602082840312156153d8576153d7614ba6565b5b60006153e6848285016153ad565b91505092915050565b6000819050919050565b600061541461540f61540a846153ef565b614de5565b614cc1565b9050919050565b615424816153f9565b82525050565b600060808201905061543f6000830187614cf5565b61544c6020830186614ccb565b615459604083018561541b565b6154666060830184614cf5565b95945050505050565b600061547a82614cc1565b91507fffffffffffffffffffffffffffffffffffffffffffffffffffffffffffffffff8214156154ad576154ac614ffc565b5b600182019050919050565b7f4e6f7420656e6f75676820626f72726f77696e6720706f776572000000000000600082015250565b60006154ee601a83614f3d565b91506154f9826154b8565b602082019050919050565b6000602082019050818103600083015261551d816154e1565b9050919050565b7f4163636f756e74206e6f74206865616c7468792061667465722077697468647260008201527f6177000000000000000000000000000000000000000000000000000000000000602082015250565b6000615580602283614f3d565b915061558b82615524565b604082019050919050565b600060208201905081810360008301526155af81615573565b9050919050565b7f474c5020536861726520616c7265616479207365742100000000000000000000600082015250565b60006155ec601683614f3d565b91506155f7826155b6565b602082019050919050565b6000602082019050818103600083015261561b816155df565b9050919050565b7f496e76616c6964204c5456000000000000000000000000000000000000000000600082015250565b6000615658600b83614f3d565b915061566382615622565b602082019050919050565b600060208201905081810360008301526156878161564b565b9050919050565b7f546f6b656e206e6f7420616c6c6f776564000000000000000000000000000000600082015250565b60006156c4601183614f3d565b91506156cf8261568e565b602082019050919050565b600060208201905081810360008301526156f3816156b7565b9050919050565b6000819050919050565b600061571f61571a615715846156fa565b614de5565b614cc1565b9050919050565b61572f81615704565b82525050565b600060808201905061574a6000830187614cf5565b6157576020830186614ccb565b6157646040830185615726565b615771606083018461541b565b95945050505050565b7f4163636f756e7420686173206465627400000000000000000000000000000000600082015250565b60006157b0601083614f3d565b91506157bb8261577a565b602082019050919050565b600060208201905081810360008301526157df816157a3565b9050919050565b7f546f6f206d75636820626f72726f7765642066726f6d206c697175696469747960008201527f20746f2077697468647261770000000000000000000000000000000000000000602082015250565b6000615842602c83614f3d565b915061584d826157e6565b604082019050919050565b6000602082019050818103600083015261587181615835565b9050919050565b600061588382614cc1565b915061588e83614cc1565b9250817fffffffffffffffffffffffffffffffffffffffffffffffffffffffffffffffff04831182151516156158c7576158c6614ffc565b5b828202905092915050565b7f4e487b7100000000000000000000000000000000000000000000000000000000600052601260045260246000fd5b600061590c82614cc1565b915061591783614cc1565b925082615927576159266158d2565b5b828204905092915050565b600060e082019050615947600083018a614e9b565b6159546020830189614e9b565b6159616040830188614e9b565b61596e6060830187614e9b565b61597b6080830186614e9b565b61598860a0830185614e9b565b61599560c0830184614e9b565b98975050505050505050565b60006080820190506159b66000830187614cf5565b6159c36020830186614ccb565b6159d0604083018561541b565b6159dd606083018461541b565b95945050505050565b60006080820190506159fb6000830187614cf5565b615a086020830186614e9b565b615a156040830185614e9b565b615a226060830184614e9b565b9594505050505056fea2646970667358221220093f5cc495b76177aa7da6dd2dc99283cf139a892789e32dab85ed99b8540f6c64736f6c634300080a0033",
  "linkReferences": {},
  "deployedLinkReferences": {}
}