{
  "_format": "hh-sol-artifact-1",
  "contractName": "Protocol",
  "sourceName": "contracts/Protocol.sol",
  "abi": [
    {
      "inputs": [
        {
          "internalType": "address",
          "name": "_vault",
          "type": "address"
        },
        {
          "internalType": "address",
          "name": "_rewardsRouter",
          "type": "address"
        },
        {
          "internalType": "address",
          "name": "_GLP",
          "type": "address"
        },
        {
          "internalType": "address",
          "name": "_weth",
          "type": "address"
        },
        {
          "internalType": "address",
          "name": "_lnxReward",
          "type": "address"
        },
        {
          "internalType": "address",
          "name": "_stakeReward",
          "type": "address"
        },
        {
          "internalType": "address",
          "name": "_priceFeed",
          "type": "address"
        }
      ],
      "stateMutability": "nonpayable",
      "type": "constructor"
    },
    {
      "inputs": [],
      "name": "GLP",
      "outputs": [
        {
          "internalType": "contract IERC20",
          "name": "",
          "type": "address"
        }
      ],
      "stateMutability": "view",
      "type": "function"
    },
    {
      "inputs": [],
      "name": "GLPShare",
      "outputs": [
        {
          "internalType": "contract IERC20",
          "name": "",
          "type": "address"
        }
      ],
      "stateMutability": "view",
      "type": "function"
    },
    {
      "inputs": [
        {
          "internalType": "address",
          "name": "account",
          "type": "address"
        }
      ],
      "name": "accountBorrowedValue",
      "outputs": [
        {
          "internalType": "uint256",
          "name": "",
          "type": "uint256"
        }
      ],
      "stateMutability": "view",
      "type": "function"
    },
    {
      "inputs": [
        {
          "internalType": "address",
          "name": "account",
          "type": "address"
        }
      ],
      "name": "accountCollateralValue",
      "outputs": [
        {
          "internalType": "uint256",
          "name": "",
          "type": "uint256"
        }
      ],
      "stateMutability": "view",
      "type": "function"
    },
    {
      "inputs": [
        {
          "internalType": "address",
          "name": "account",
          "type": "address"
        }
      ],
      "name": "accountHealth",
      "outputs": [
        {
          "internalType": "uint256",
          "name": "",
          "type": "uint256"
        }
      ],
      "stateMutability": "view",
      "type": "function"
    },
    {
      "inputs": [
        {
          "internalType": "address",
          "name": "account",
          "type": "address"
        }
      ],
      "name": "accountLentValue",
      "outputs": [
        {
          "internalType": "uint256",
          "name": "",
          "type": "uint256"
        }
      ],
      "stateMutability": "view",
      "type": "function"
    },
    {
      "inputs": [
        {
          "internalType": "address",
          "name": "token",
          "type": "address"
        },
        {
          "internalType": "uint256",
          "name": "tokenAmount",
          "type": "uint256"
        }
      ],
      "name": "borrow",
      "outputs": [],
      "stateMutability": "nonpayable",
      "type": "function"
    },
    {
      "inputs": [
        {
          "internalType": "address",
          "name": "",
          "type": "address"
        }
      ],
      "name": "borrowShare",
      "outputs": [
        {
          "internalType": "address",
          "name": "",
          "type": "address"
        }
      ],
      "stateMutability": "view",
      "type": "function"
    },
    {
      "inputs": [
        {
          "internalType": "address",
          "name": "",
          "type": "address"
        }
      ],
      "name": "borrowToken",
      "outputs": [
        {
          "internalType": "bool",
          "name": "",
          "type": "bool"
        }
      ],
      "stateMutability": "view",
      "type": "function"
    },
    {
      "inputs": [
        {
          "internalType": "address",
          "name": "",
          "type": "address"
        }
      ],
      "name": "borrowTokenBalance",
      "outputs": [
        {
          "internalType": "uint256",
          "name": "",
          "type": "uint256"
        }
      ],
      "stateMutability": "view",
      "type": "function"
    },
    {
      "inputs": [
        {
          "internalType": "address",
          "name": "",
          "type": "address"
        },
        {
          "internalType": "address",
          "name": "",
          "type": "address"
        }
      ],
      "name": "borrowedAmount",
      "outputs": [
        {
          "internalType": "uint256",
          "name": "",
          "type": "uint256"
        }
      ],
      "stateMutability": "view",
      "type": "function"
    },
    {
      "inputs": [
        {
          "internalType": "address",
          "name": "account",
          "type": "address"
        },
        {
          "internalType": "address",
          "name": "token",
          "type": "address"
        }
      ],
      "name": "borrowingPower",
      "outputs": [
        {
          "internalType": "uint256",
          "name": "",
          "type": "uint256"
        }
      ],
      "stateMutability": "view",
      "type": "function"
    },
    {
      "inputs": [
        {
          "internalType": "address",
          "name": "account",
          "type": "address"
        }
      ],
      "name": "borrowingPowerUSD",
      "outputs": [
        {
          "internalType": "uint256",
          "name": "",
          "type": "uint256"
        }
      ],
      "stateMutability": "view",
      "type": "function"
    },
    {
      "inputs": [
        {
          "internalType": "address",
          "name": "token",
          "type": "address"
        }
      ],
      "name": "debtValue",
      "outputs": [
        {
          "internalType": "uint256",
          "name": "",
          "type": "uint256"
        }
      ],
      "stateMutability": "view",
      "type": "function"
    },
    {
      "inputs": [
        {
          "internalType": "address",
          "name": "",
          "type": "address"
        }
      ],
      "name": "decimalMultiplier",
      "outputs": [
        {
          "internalType": "uint256",
          "name": "",
          "type": "uint256"
        }
      ],
      "stateMutability": "view",
      "type": "function"
    },
    {
      "inputs": [
        {
          "internalType": "address",
          "name": "token",
          "type": "address"
        },
        {
          "internalType": "uint256",
          "name": "amount",
          "type": "uint256"
        }
      ],
      "name": "depositCollateral",
      "outputs": [],
      "stateMutability": "nonpayable",
      "type": "function"
    },
    {
      "inputs": [],
      "name": "getCollateralPrice",
      "outputs": [
        {
          "internalType": "uint256",
          "name": "",
          "type": "uint256"
        }
      ],
      "stateMutability": "view",
      "type": "function"
    },
    {
      "inputs": [],
      "name": "getCollateralShareValue",
      "outputs": [
        {
          "internalType": "uint256",
          "name": "",
          "type": "uint256"
        }
      ],
      "stateMutability": "view",
      "type": "function"
    },
    {
      "inputs": [
        {
          "internalType": "address",
          "name": "token",
          "type": "address"
        }
      ],
      "name": "getShareValue",
      "outputs": [
        {
          "internalType": "uint256",
          "name": "",
          "type": "uint256"
        }
      ],
      "stateMutability": "view",
      "type": "function"
    },
    {
      "inputs": [
        {
          "internalType": "address",
          "name": "token",
          "type": "address"
        }
      ],
      "name": "getTokenAccruedInterest",
      "outputs": [
        {
          "internalType": "uint256",
          "name": "",
          "type": "uint256"
        }
      ],
      "stateMutability": "view",
      "type": "function"
    },
    {
      "inputs": [],
      "name": "governance",
      "outputs": [
        {
          "internalType": "address",
          "name": "",
          "type": "address"
        }
      ],
      "stateMutability": "view",
      "type": "function"
    },
    {
      "inputs": [
        {
          "internalType": "address",
          "name": "",
          "type": "address"
        }
      ],
      "name": "interestCheckpoint",
      "outputs": [
        {
          "internalType": "uint256",
          "name": "",
          "type": "uint256"
        }
      ],
      "stateMutability": "view",
      "type": "function"
    },
    {
      "inputs": [
        {
          "internalType": "address",
          "name": "token",
          "type": "address"
        }
      ],
      "name": "interestRate",
      "outputs": [
        {
          "internalType": "uint256",
          "name": "",
          "type": "uint256"
        }
      ],
      "stateMutability": "view",
      "type": "function"
    },
    {
      "inputs": [
        {
          "internalType": "address",
          "name": "token",
          "type": "address"
        },
        {
          "internalType": "uint256",
          "name": "amount",
          "type": "uint256"
        }
      ],
      "name": "lend",
      "outputs": [],
      "stateMutability": "nonpayable",
      "type": "function"
    },
    {
      "inputs": [
        {
          "internalType": "address",
          "name": "account",
          "type": "address"
        }
      ],
      "name": "liquidate",
      "outputs": [],
      "stateMutability": "nonpayable",
      "type": "function"
    },
    {
      "inputs": [],
      "name": "lnxReward",
      "outputs": [
        {
          "internalType": "address",
          "name": "",
          "type": "address"
        }
      ],
      "stateMutability": "view",
      "type": "function"
    },
    {
      "inputs": [],
      "name": "ltv",
      "outputs": [
        {
          "internalType": "uint256",
          "name": "",
          "type": "uint256"
        }
      ],
      "stateMutability": "view",
      "type": "function"
    },
    {
      "inputs": [],
      "name": "priceFeed",
      "outputs": [
        {
          "internalType": "contract IPriceFeed",
          "name": "",
          "type": "address"
        }
      ],
      "stateMutability": "view",
      "type": "function"
    },
    {
      "inputs": [
        {
          "internalType": "address",
          "name": "token",
          "type": "address"
        },
        {
          "internalType": "uint256",
          "name": "tokenAmount",
          "type": "uint256"
        }
      ],
      "name": "repay",
      "outputs": [],
      "stateMutability": "nonpayable",
      "type": "function"
    },
    {
      "inputs": [
        {
          "internalType": "address",
          "name": "token",
          "type": "address"
        }
      ],
      "name": "repayAll",
      "outputs": [],
      "stateMutability": "nonpayable",
      "type": "function"
    },
    {
      "inputs": [],
      "name": "rewardsRouter",
      "outputs": [
        {
          "internalType": "contract IRewardsRouter",
          "name": "",
          "type": "address"
        }
      ],
      "stateMutability": "view",
      "type": "function"
    },
    {
      "inputs": [
        {
          "internalType": "address",
          "name": "token",
          "type": "address"
        },
        {
          "internalType": "address",
          "name": "share",
          "type": "address"
        }
      ],
      "name": "setBorrowToken",
      "outputs": [],
      "stateMutability": "nonpayable",
      "type": "function"
    },
    {
      "inputs": [
        {
          "internalType": "address",
          "name": "token",
          "type": "address"
        },
        {
          "internalType": "bool",
          "name": "allowed",
          "type": "bool"
        }
      ],
      "name": "setBorrowTokenAllowed",
      "outputs": [],
      "stateMutability": "nonpayable",
      "type": "function"
    },
    {
      "inputs": [
        {
          "internalType": "address",
          "name": "_governance",
          "type": "address"
        }
      ],
      "name": "setGovernance",
      "outputs": [],
      "stateMutability": "nonpayable",
      "type": "function"
    },
    {
      "inputs": [
        {
          "internalType": "uint256",
          "name": "_ltv",
          "type": "uint256"
        }
      ],
      "name": "setltv",
      "outputs": [],
      "stateMutability": "nonpayable",
      "type": "function"
    },
    {
      "inputs": [],
      "name": "stakeReward",
      "outputs": [
        {
          "internalType": "address",
          "name": "",
          "type": "address"
        }
      ],
      "stateMutability": "view",
      "type": "function"
    },
    {
      "inputs": [
        {
          "internalType": "address",
          "name": "",
          "type": "address"
        }
      ],
      "name": "tokenDebt",
      "outputs": [
        {
          "internalType": "uint256",
          "name": "",
          "type": "uint256"
        }
      ],
      "stateMutability": "view",
      "type": "function"
    },
    {
      "inputs": [
        {
          "internalType": "address",
          "name": "token",
          "type": "address"
        }
      ],
      "name": "totalBorrowedAmount",
      "outputs": [
        {
          "internalType": "uint256",
          "name": "",
          "type": "uint256"
        }
      ],
      "stateMutability": "view",
      "type": "function"
    },
    {
      "inputs": [],
      "name": "totalCollateral",
      "outputs": [
        {
          "internalType": "uint256",
          "name": "",
          "type": "uint256"
        }
      ],
      "stateMutability": "view",
      "type": "function"
    },
    {
      "inputs": [],
      "name": "totalLentValue",
      "outputs": [
        {
          "internalType": "uint256",
          "name": "",
          "type": "uint256"
        }
      ],
      "stateMutability": "view",
      "type": "function"
    },
    {
      "inputs": [
        {
          "internalType": "address",
          "name": "account",
          "type": "address"
        },
        {
          "internalType": "address",
          "name": "token",
          "type": "address"
        }
      ],
      "name": "userDebt",
      "outputs": [
        {
          "internalType": "uint256",
          "name": "",
          "type": "uint256"
        }
      ],
      "stateMutability": "view",
      "type": "function"
    },
    {
      "inputs": [
        {
          "internalType": "address",
          "name": "account",
          "type": "address"
        },
        {
          "internalType": "address",
          "name": "token",
          "type": "address"
        }
      ],
      "name": "userDebtUSD",
      "outputs": [
        {
          "internalType": "uint256",
          "name": "",
          "type": "uint256"
        }
      ],
      "stateMutability": "view",
      "type": "function"
    },
    {
      "inputs": [],
      "name": "vault",
      "outputs": [
        {
          "internalType": "contract IVault",
          "name": "",
          "type": "address"
        }
      ],
      "stateMutability": "view",
      "type": "function"
    },
    {
      "inputs": [],
      "name": "weth",
      "outputs": [
        {
          "internalType": "address",
          "name": "",
          "type": "address"
        }
      ],
      "stateMutability": "view",
      "type": "function"
    },
    {
      "inputs": [
        {
          "internalType": "address",
          "name": "token",
          "type": "address"
        },
        {
          "internalType": "uint256",
          "name": "shareAmount",
          "type": "uint256"
        }
      ],
      "name": "withdraw",
      "outputs": [],
      "stateMutability": "nonpayable",
      "type": "function"
    },
    {
      "inputs": [
        {
          "internalType": "address",
          "name": "token",
          "type": "address"
        }
      ],
      "name": "withdrawAll",
      "outputs": [],
      "stateMutability": "nonpayable",
      "type": "function"
    },
    {
      "inputs": [
        {
          "internalType": "uint256",
          "name": "shareAmount",
          "type": "uint256"
        }
      ],
      "name": "withdrawCollateral",
      "outputs": [
        {
          "internalType": "uint256",
          "name": "",
          "type": "uint256"
        }
      ],
      "stateMutability": "nonpayable",
      "type": "function"
    },
    {
      "inputs": [],
      "name": "withdrawCollateralAll",
      "outputs": [],
      "stateMutability": "nonpayable",
      "type": "function"
    }
  ],
  "bytecode": "0x60806040526032600e553480156200001657600080fd5b5060405162005cb238038062005cb283398181016040528101906200003c9190620002bb565b33600860006101000a81548173ffffffffffffffffffffffffffffffffffffffff021916908373ffffffffffffffffffffffffffffffffffffffff16021790555085600a60006101000a81548173ffffffffffffffffffffffffffffffffffffffff021916908373ffffffffffffffffffffffffffffffffffffffff16021790555086600960006101000a81548173ffffffffffffffffffffffffffffffffffffffff021916908373ffffffffffffffffffffffffffffffffffffffff16021790555084600c60006101000a81548173ffffffffffffffffffffffffffffffffffffffff021916908373ffffffffffffffffffffffffffffffffffffffff16021790555083600d60006101000a81548173ffffffffffffffffffffffffffffffffffffffff021916908373ffffffffffffffffffffffffffffffffffffffff16021790555082600f60006101000a81548173ffffffffffffffffffffffffffffffffffffffff021916908373ffffffffffffffffffffffffffffffffffffffff16021790555081601060006101000a81548173ffffffffffffffffffffffffffffffffffffffff021916908373ffffffffffffffffffffffffffffffffffffffff16021790555080601160006101000a81548173ffffffffffffffffffffffffffffffffffffffff021916908373ffffffffffffffffffffffffffffffffffffffff160217905550505050505050506200036e565b600080fd5b600073ffffffffffffffffffffffffffffffffffffffff82169050919050565b6000620002838262000256565b9050919050565b620002958162000276565b8114620002a157600080fd5b50565b600081519050620002b5816200028a565b92915050565b600080600080600080600060e0888a031215620002dd57620002dc62000251565b5b6000620002ed8a828b01620002a4565b9750506020620003008a828b01620002a4565b9650506040620003138a828b01620002a4565b9550506060620003268a828b01620002a4565b9450506080620003398a828b01620002a4565b93505060a06200034c8a828b01620002a4565b92505060c06200035f8a828b01620002a4565b91505092959891949750929550565b615934806200037e6000396000f3fe608060405234801561001057600080fd5b506004361061029f5760003560e01c806389e02a5811610167578063c9f005af116100ce578063f3e1abe111610087578063f3e1abe1146108be578063f3fef3a3146108ee578063f7683bbc1461090a578063f9c019d514610928578063fa09e63014610958578063fbfa77cf146109745761029f565b8063c9f005af146107d4578063cc4c336b14610804578063d196943c14610834578063e152c34a14610852578063e68802e314610870578063f18ea6d81461088e5761029f565b8063a5d5db0c11610120578063a5d5db0c14610726578063ab033ea914610742578063afbff2121461075e578063b28147d91461077c578063b9637e491461079a578063c09f66aa146107ca5761029f565b806389e02a581461062c5780638b96b2801461064a5780638f2b62701461067a57806397ea8605146106aa578063983ff615146106da578063a2fb342d1461070a5761029f565b80635aa6e6751161020b5780637558abc8116101c45780637558abc814610534578063770089f1146105645780637a8f4605146105945780637c27383b146105c45780637c2c69c0146105e057806388d595db146106105761029f565b80635aa6e6751461044a5780636112fe2e146104685780636ac9ce6c146104985780636fb49d73146104c857806372665438146104e6578063741bef1a146105165761029f565b80632f8655681161025d5780632f8655681461038a5780633fc8cef3146103a65780634414e1af146103c4578063474fefaa146103f45780634ac8eb5f146104105780634b8a35291461042e5761029f565b80623aadee146102a457806314c8ad2c146102c057806314f47dcc146102f057806322867d781461030e57806323eafe1e1461032a5780632c9cbca21461035a575b600080fd5b6102be60048036038101906102b99190614c00565b610992565b005b6102da60048036038101906102d59190614c40565b610a7c565b6040516102e79190614c99565b60405180910390f35b6102f8610b37565b6040516103059190614cc3565b60405180910390f35b61032860048036038101906103239190614d0a565b610b5d565b005b610344600480360381019061033f9190614c40565b611213565b6040516103519190614c99565b60405180910390f35b610374600480360381019061036f9190614d4a565b61125b565b6040516103819190614cc3565b60405180910390f35b6103a4600480360381019061039f9190614d4a565b61128e565b005b6103ae611a06565b6040516103bb9190614cc3565b60405180910390f35b6103de60048036038101906103d99190614d4a565b611a2c565b6040516103eb9190614c99565b60405180910390f35b61040e60048036038101906104099190614c40565b611dd2565b005b6104186120ce565b6040516104259190614c99565b60405180910390f35b61044860048036038101906104439190614d0a565b6120d4565b005b610452612479565b60405161045f9190614cc3565b60405180910390f35b610482600480360381019061047d9190614d77565b61249f565b60405161048f9190614c99565b60405180910390f35b6104b260048036038101906104ad9190614d4a565b6126a9565b6040516104bf9190614c99565b60405180910390f35b6104d06128e5565b6040516104dd9190614c99565b60405180910390f35b61050060048036038101906104fb9190614c40565b6128eb565b60405161050d9190614c99565b60405180910390f35b61051e612910565b60405161052b9190614e03565b60405180910390f35b61054e60048036038101906105499190614d4a565b612936565b60405161055b9190614c99565b60405180910390f35b61057e60048036038101906105799190614d4a565b61294e565b60405161058b9190614c99565b60405180910390f35b6105ae60048036038101906105a99190614d4a565b612966565b6040516105bb9190614c99565b60405180910390f35b6105de60048036038101906105d99190614d4a565b612a97565b005b6105fa60048036038101906105f59190614d4a565b612b0a565b6040516106079190614c99565b60405180910390f35b61062a60048036038101906106259190614d77565b612b87565b005b610634612c72565b6040516106419190614cc3565b60405180910390f35b610664600480360381019061065f9190614d4a565b612c98565b6040516106719190614c99565b60405180910390f35b610694600480360381019061068f9190614d4a565b612d5e565b6040516106a19190614c99565b60405180910390f35b6106c460048036038101906106bf9190614d4a565b612e61565b6040516106d19190614c99565b60405180910390f35b6106f460048036038101906106ef9190614d4a565b612f2e565b6040516107019190614c99565b60405180910390f35b610724600480360381019061071f9190614d0a565b612f74565b005b610740600480360381019061073b9190614d0a565b61337c565b005b61075c60048036038101906107579190614d4a565b613591565b005b610766613665565b6040516107739190614e3f565b60405180910390f35b61078461368b565b6040516107919190614e3f565b60405180910390f35b6107b460048036038101906107af9190614d4a565b6136b1565b6040516107c19190614c99565b60405180910390f35b6107d2613748565b005b6107ee60048036038101906107e99190614c40565b613840565b6040516107fb9190614c99565b60405180910390f35b61081e60048036038101906108199190614d4a565b613887565b60405161082b9190614e69565b60405180910390f35b61083c6138a7565b6040516108499190614c99565b60405180910390f35b61085a613a82565b6040516108679190614ea5565b60405180910390f35b610878613aa8565b6040516108859190614c99565b60405180910390f35b6108a860048036038101906108a39190614d4a565b613c17565b6040516108b59190614c99565b60405180910390f35b6108d860048036038101906108d39190614d4a565b613c2f565b6040516108e59190614c99565b60405180910390f35b61090860048036038101906109039190614d0a565b613c47565b005b6109126140ca565b60405161091f9190614c99565b60405180910390f35b610942600480360381019061093d9190614d4a565b61443e565b60405161094f9190614c99565b60405180910390f35b610972600480360381019061096d9190614d4a565b614666565b005b61097c614751565b6040516109899190614ee1565b60405180910390f35b600860009054906101000a900473ffffffffffffffffffffffffffffffffffffffff1673ffffffffffffffffffffffffffffffffffffffff163373ffffffffffffffffffffffffffffffffffffffff1614610a22576040517f08c379a0000000000000000000000000000000000000000000000000000000008152600401610a1990614f59565b60405180910390fd5b806000808473ffffffffffffffffffffffffffffffffffffffff1673ffffffffffffffffffffffffffffffffffffffff16815260200190815260200160002060006101000a81548160ff0219169083151502179055505050565b6000610b2f670de0b6b3a7640000610b21610a96856136b1565b600560008873ffffffffffffffffffffffffffffffffffffffff1673ffffffffffffffffffffffffffffffffffffffff16815260200190815260200160002060008773ffffffffffffffffffffffffffffffffffffffff1673ffffffffffffffffffffffffffffffffffffffff1681526020019081526020016000205461477790919063ffffffff16565b61478d90919063ffffffff16565b905092915050565b601060009054906101000a900473ffffffffffffffffffffffffffffffffffffffff1681565b6000610d43610d34600160008673ffffffffffffffffffffffffffffffffffffffff1673ffffffffffffffffffffffffffffffffffffffff16815260200190815260200160002060009054906101000a900473ffffffffffffffffffffffffffffffffffffffff1673ffffffffffffffffffffffffffffffffffffffff166318160ddd6040518163ffffffff1660e01b8152600401602060405180830381865afa158015610c0f573d6000803e3d6000fd5b505050506040513d601f19601f82011682018060405250810190610c339190614f8e565b610d26600160008873ffffffffffffffffffffffffffffffffffffffff1673ffffffffffffffffffffffffffffffffffffffff16815260200190815260200160002060009054906101000a900473ffffffffffffffffffffffffffffffffffffffff1673ffffffffffffffffffffffffffffffffffffffff166370a08231336040518263ffffffff1660e01b8152600401610cce9190614cc3565b602060405180830381865afa158015610ceb573d6000803e3d6000fd5b505050506040513d601f19601f82011682018060405250810190610d0f9190614f8e565b610d1888612966565b61477790919063ffffffff16565b61478d90919063ffffffff16565b836147a390919063ffffffff16565b9050610d4f3384610a7c565b610dad600360008673ffffffffffffffffffffffffffffffffffffffff1673ffffffffffffffffffffffffffffffffffffffff16815260200190815260200160002054600a610d9e919061511d565b8461477790919063ffffffff16565b1115610dee576040517f08c379a0000000000000000000000000000000000000000000000000000000008152600401610de5906151b4565b60405180910390fd5b610e80610dfa846136b1565b610e72600360008773ffffffffffffffffffffffffffffffffffffffff1673ffffffffffffffffffffffffffffffffffffffff16815260200190815260200160002054600a610e49919061511d565b610e64670de0b6b3a76400008761477790919063ffffffff16565b61477790919063ffffffff16565b61478d90919063ffffffff16565b600560003373ffffffffffffffffffffffffffffffffffffffff1673ffffffffffffffffffffffffffffffffffffffff16815260200190815260200160002060008573ffffffffffffffffffffffffffffffffffffffff1673ffffffffffffffffffffffffffffffffffffffff1681526020019081526020016000206000828254610f0b91906151d4565b92505081905550610f1b83612e61565b600460008573ffffffffffffffffffffffffffffffffffffffff1673ffffffffffffffffffffffffffffffffffffffff1681526020019081526020016000206000828254610f699190615208565b9250508190555042600660008573ffffffffffffffffffffffffffffffffffffffff1673ffffffffffffffffffffffffffffffffffffffff16815260200190815260200160002081905550611012600360008573ffffffffffffffffffffffffffffffffffffffff1673ffffffffffffffffffffffffffffffffffffffff16815260200190815260200160002054600a611003919061511d565b8361477790919063ffffffff16565b600460008573ffffffffffffffffffffffffffffffffffffffff1673ffffffffffffffffffffffffffffffffffffffff168152602001908152602001600020600082825461106091906151d4565b925050819055508273ffffffffffffffffffffffffffffffffffffffff166323b872dd3330856040518463ffffffff1660e01b81526004016110a49392919061525e565b6020604051808303816000875af11580156110c3573d6000803e3d6000fd5b505050506040513d601f19601f820116820180604052508101906110e791906152aa565b50601060009054906101000a900473ffffffffffffffffffffffffffffffffffffffff1673ffffffffffffffffffffffffffffffffffffffff16639aa498648461113b60048561478d90919063ffffffff16565b6040518363ffffffff1660e01b81526004016111589291906152d7565b600060405180830381600087803b15801561117257600080fd5b505af1158015611186573d6000803e3d6000fd5b505050506111b160046111a360038461477790919063ffffffff16565b61478d90919063ffffffff16565b600260008573ffffffffffffffffffffffffffffffffffffffff1673ffffffffffffffffffffffffffffffffffffffff16815260200190815260200160002060008282546111ff9190615208565b9250508190555061120e6147b9565b505050565b6000611253670de0b6b3a764000061124561122d85614a85565b6112378787610a7c565b61477790919063ffffffff16565b61478d90919063ffffffff16565b905092915050565b60016020528060005260406000206000915054906101000a900473ffffffffffffffffffffffffffffffffffffffff1681565b670de0b6b3a76400006112a082612c98565b106112e0576040517f08c379a00000000000000000000000000000000000000000000000000000000081526004016112d79061534c565b60405180910390fd5b60006112eb826126a9565b905060008060005b600960009054906101000a900473ffffffffffffffffffffffffffffffffffffffff1673ffffffffffffffffffffffffffffffffffffffff16630842b0766040518163ffffffff1660e01b8152600401602060405180830381865afa158015611360573d6000803e3d6000fd5b505050506040513d601f19601f820116820180604052508101906113849190614f8e565b8110156119ff5760006113978684611213565b11156119ec57600960009054906101000a900473ffffffffffffffffffffffffffffffffffffffff1673ffffffffffffffffffffffffffffffffffffffff1663e468baf0826040518263ffffffff1660e01b81526004016113f89190614c99565b602060405180830381865afa158015611415573d6000803e3d6000fd5b505050506040513d601f19601f820116820180604052508101906114399190615381565b9150600a60009054906101000a900473ffffffffffffffffffffffffffffffffffffffff1673ffffffffffffffffffffffffffffffffffffffff16630f3aa554836115768761156861148b8b89611213565b61155a6114b0670de0b6b3a76400006114a2613aa8565b61478d90919063ffffffff16565b600b60009054906101000a900473ffffffffffffffffffffffffffffffffffffffff1673ffffffffffffffffffffffffffffffffffffffff166370a082318f6040518263ffffffff1660e01b815260040161150b9190614cc3565b602060405180830381865afa158015611528573d6000803e3d6000fd5b505050506040513d601f19601f8201168201806040525081019061154c9190614f8e565b61477790919063ffffffff16565b61477790919063ffffffff16565b61478d90919063ffffffff16565b6001306040518563ffffffff1660e01b815260040161159894939291906153e9565b6020604051808303816000875af11580156115b7573d6000803e3d6000fd5b505050506040513d601f19601f820116820180604052508101906115db9190614f8e565b92508173ffffffffffffffffffffffffffffffffffffffff1663a9059cbb33611621606461161360058961477790919063ffffffff16565b61478d90919063ffffffff16565b6040518363ffffffff1660e01b815260040161163e9291906152d7565b6020604051808303816000875af115801561165d573d6000803e3d6000fd5b505050506040513d601f19601f8201168201806040525081019061168191906152aa565b508173ffffffffffffffffffffffffffffffffffffffff1663a9059cbb601060009054906101000a900473ffffffffffffffffffffffffffffffffffffffff166116e860646116da60058961477790919063ffffffff16565b61478d90919063ffffffff16565b6040518363ffffffff1660e01b81526004016117059291906152d7565b6020604051808303816000875af1158015611724573d6000803e3d6000fd5b505050506040513d601f19601f8201168201806040525081019061174891906152aa565b5061175282612e61565b600460008473ffffffffffffffffffffffffffffffffffffffff1673ffffffffffffffffffffffffffffffffffffffff16815260200190815260200160002060008282546117a09190615208565b9250508190555042600660008473ffffffffffffffffffffffffffffffffffffffff1673ffffffffffffffffffffffffffffffffffffffff16815260200190815260200160002081905550600560008673ffffffffffffffffffffffffffffffffffffffff1673ffffffffffffffffffffffffffffffffffffffff16815260200190815260200160002060008373ffffffffffffffffffffffffffffffffffffffff1673ffffffffffffffffffffffffffffffffffffffff16815260200190815260200160002054600260008473ffffffffffffffffffffffffffffffffffffffff1673ffffffffffffffffffffffffffffffffffffffff16815260200190815260200160002060008282546118b691906151d4565b925050819055506000600560008773ffffffffffffffffffffffffffffffffffffffff1673ffffffffffffffffffffffffffffffffffffffff16815260200190815260200160002060008473ffffffffffffffffffffffffffffffffffffffff1673ffffffffffffffffffffffffffffffffffffffff1681526020019081526020016000208190555082600260008473ffffffffffffffffffffffffffffffffffffffff1673ffffffffffffffffffffffffffffffffffffffff168152602001908152602001600020600082825461198e9190615208565b9250508190555082600460008473ffffffffffffffffffffffffffffffffffffffff1673ffffffffffffffffffffffffffffffffffffffff16815260200190815260200160002060008282546119e491906151d4565b925050819055505b80806119f79061542e565b9150506112f3565b5050505050565b600d60009054906101000a900473ffffffffffffffffffffffffffffffffffffffff1681565b60008060005b600960009054906101000a900473ffffffffffffffffffffffffffffffffffffffff1673ffffffffffffffffffffffffffffffffffffffff16630842b0766040518163ffffffff1660e01b8152600401602060405180830381865afa158015611a9f573d6000803e3d6000fd5b505050506040513d601f19601f82011682018060405250810190611ac39190614f8e565b811015611dc8576000600960009054906101000a900473ffffffffffffffffffffffffffffffffffffffff1673ffffffffffffffffffffffffffffffffffffffff1663e468baf0836040518263ffffffff1660e01b8152600401611b279190614c99565b602060405180830381865afa158015611b44573d6000803e3d6000fd5b505050506040513d601f19601f82011682018060405250810190611b689190615381565b9050611da7670de0b6b3a7640000611d99600160008573ffffffffffffffffffffffffffffffffffffffff1673ffffffffffffffffffffffffffffffffffffffff16815260200190815260200160002060009054906101000a900473ffffffffffffffffffffffffffffffffffffffff1673ffffffffffffffffffffffffffffffffffffffff166318160ddd6040518163ffffffff1660e01b8152600401602060405180830381865afa158015611c23573d6000803e3d6000fd5b505050506040513d601f19601f82011682018060405250810190611c479190614f8e565b611d8b611c5386614a85565b611d7d600160008973ffffffffffffffffffffffffffffffffffffffff1673ffffffffffffffffffffffffffffffffffffffff16815260200190815260200160002060009054906101000a900473ffffffffffffffffffffffffffffffffffffffff1673ffffffffffffffffffffffffffffffffffffffff166370a082318d6040518263ffffffff1660e01b8152600401611cee9190614cc3565b602060405180830381865afa158015611d0b573d6000803e3d6000fd5b505050506040513d601f19601f82011682018060405250810190611d2f9190614f8e565b600260008a73ffffffffffffffffffffffffffffffffffffffff1673ffffffffffffffffffffffffffffffffffffffff1681526020019081526020016000205461477790919063ffffffff16565b61477790919063ffffffff16565b61478d90919063ffffffff16565b61478d90919063ffffffff16565b83611db29190615208565b9250508080611dc09061542e565b915050611a32565b5080915050919050565b600860009054906101000a900473ffffffffffffffffffffffffffffffffffffffff1673ffffffffffffffffffffffffffffffffffffffff163373ffffffffffffffffffffffffffffffffffffffff1614611e62576040517f08c379a0000000000000000000000000000000000000000000000000000000008152600401611e5990614f59565b60405180910390fd5b600073ffffffffffffffffffffffffffffffffffffffff16600160008473ffffffffffffffffffffffffffffffffffffffff1673ffffffffffffffffffffffffffffffffffffffff16815260200190815260200160002060009054906101000a900473ffffffffffffffffffffffffffffffffffffffff1673ffffffffffffffffffffffffffffffffffffffff1614611f30576040517f08c379a0000000000000000000000000000000000000000000000000000000008152600401611f2790614f59565b60405180910390fd5b80600160008473ffffffffffffffffffffffffffffffffffffffff1673ffffffffffffffffffffffffffffffffffffffff16815260200190815260200160002060006101000a81548173ffffffffffffffffffffffffffffffffffffffff021916908373ffffffffffffffffffffffffffffffffffffffff16021790555060016000808473ffffffffffffffffffffffffffffffffffffffff1673ffffffffffffffffffffffffffffffffffffffff16815260200190815260200160002060006101000a81548160ff0219169083151502179055506120878273ffffffffffffffffffffffffffffffffffffffff1663313ce5676040518163ffffffff1660e01b8152600401602060405180830381865afa158015612053573d6000803e3d6000fd5b505050506040513d601f19601f820116820180604052508101906120779190614f8e565b60126147a390919063ffffffff16565b600360008473ffffffffffffffffffffffffffffffffffffffff1673ffffffffffffffffffffffffffffffffffffffff168152602001908152602001600020819055505050565b60075481565b612132600360008473ffffffffffffffffffffffffffffffffffffffff1673ffffffffffffffffffffffffffffffffffffffff16815260200190815260200160002054600a612123919061511d565b8261477790919063ffffffff16565b61213c3384613840565b101561217d576040517f08c379a0000000000000000000000000000000000000000000000000000000008152600401612174906154c3565b60405180910390fd5b61218682612e61565b600460008473ffffffffffffffffffffffffffffffffffffffff1673ffffffffffffffffffffffffffffffffffffffff16815260200190815260200160002060008282546121d49190615208565b9250508190555042600660008473ffffffffffffffffffffffffffffffffffffffff1673ffffffffffffffffffffffffffffffffffffffff1681526020019081526020016000208190555061227d600360008473ffffffffffffffffffffffffffffffffffffffff1673ffffffffffffffffffffffffffffffffffffffff16815260200190815260200160002054600a61226e919061511d565b8261477790919063ffffffff16565b600460008473ffffffffffffffffffffffffffffffffffffffff1673ffffffffffffffffffffffffffffffffffffffff16815260200190815260200160002060008282546122cb9190615208565b925050819055506123646122de836136b1565b612356612347600360008773ffffffffffffffffffffffffffffffffffffffff1673ffffffffffffffffffffffffffffffffffffffff16815260200190815260200160002054600a612330919061511d565b670de0b6b3a764000061477790919063ffffffff16565b8461477790919063ffffffff16565b61478d90919063ffffffff16565b600560003373ffffffffffffffffffffffffffffffffffffffff1673ffffffffffffffffffffffffffffffffffffffff16815260200190815260200160002060008473ffffffffffffffffffffffffffffffffffffffff1673ffffffffffffffffffffffffffffffffffffffff16815260200190815260200160002060008282546123ef9190615208565b925050819055508173ffffffffffffffffffffffffffffffffffffffff1663a9059cbb33836040518363ffffffff1660e01b81526004016124319291906152d7565b6020604051808303816000875af1158015612450573d6000803e3d6000fd5b505050506040513d601f19601f8201168201806040525081019061247491906152aa565b505050565b600860009054906101000a900473ffffffffffffffffffffffffffffffffffffffff1681565b6000600b60009054906101000a900473ffffffffffffffffffffffffffffffffffffffff1673ffffffffffffffffffffffffffffffffffffffff16639dc29fac33846040518363ffffffff1660e01b81526004016124fe9291906152d7565b600060405180830381600087803b15801561251857600080fd5b505af115801561252c573d6000803e3d6000fd5b505050506000612566670de0b6b3a7640000612558612549613aa8565b8661477790919063ffffffff16565b61478d90919063ffffffff16565b90506000600a60009054906101000a900473ffffffffffffffffffffffffffffffffffffffff1673ffffffffffffffffffffffffffffffffffffffff16630f3aa554600d60009054906101000a900473ffffffffffffffffffffffffffffffffffffffff16846001336040518563ffffffff1660e01b81526004016125ee94939291906153e9565b6020604051808303816000875af115801561260d573d6000803e3d6000fd5b505050506040513d601f19601f820116820180604052508101906126319190614f8e565b9050816007600082825461264591906151d4565b92505081905550670de0b6b3a764000061265e33612c98565b101561269f576040517f08c379a000000000000000000000000000000000000000000000000000000000815260040161269690615555565b60405180910390fd5b8092505050919050565b60008060005b600960009054906101000a900473ffffffffffffffffffffffffffffffffffffffff1673ffffffffffffffffffffffffffffffffffffffff16630842b0766040518163ffffffff1660e01b8152600401602060405180830381865afa15801561271c573d6000803e3d6000fd5b505050506040513d601f19601f820116820180604052508101906127409190614f8e565b8110156128db576128bb670de0b6b3a76400006128ad6127fa600960009054906101000a900473ffffffffffffffffffffffffffffffffffffffff1673ffffffffffffffffffffffffffffffffffffffff1663e468baf0866040518263ffffffff1660e01b81526004016127b49190614c99565b602060405180830381865afa1580156127d1573d6000803e3d6000fd5b505050506040513d601f19601f820116820180604052508101906127f59190615381565b614a85565b61289f88600960009054906101000a900473ffffffffffffffffffffffffffffffffffffffff1673ffffffffffffffffffffffffffffffffffffffff1663e468baf0886040518263ffffffff1660e01b81526004016128599190614c99565b602060405180830381865afa158015612876573d6000803e3d6000fd5b505050506040513d601f19601f8201168201806040525081019061289a9190615381565b610a7c565b61477790919063ffffffff16565b61478d90919063ffffffff16565b826128c69190615208565b915080806128d39061542e565b9150506126af565b5080915050919050565b600e5481565b6005602052816000526040600020602052806000526040600020600091509150505481565b601160009054906101000a900473ffffffffffffffffffffffffffffffffffffffff1681565b60046020528060005260406000206000915090505481565b60026020528060005260406000206000915090505481565b6000612a90612a42600360008573ffffffffffffffffffffffffffffffffffffffff1673ffffffffffffffffffffffffffffffffffffffff16815260200190815260200160002054600a6129ba919061511d565b8473ffffffffffffffffffffffffffffffffffffffff166370a08231306040518263ffffffff1660e01b81526004016129f39190614cc3565b602060405180830381865afa158015612a10573d6000803e3d6000fd5b505050506040513d601f19601f82011682018060405250810190612a349190614f8e565b61477790919063ffffffff16565b600260008573ffffffffffffffffffffffffffffffffffffffff1673ffffffffffffffffffffffffffffffffffffffff168152602001908152602001600020546147a390919063ffffffff16565b9050919050565b612b0781612b02600360008573ffffffffffffffffffffffffffffffffffffffff1673ffffffffffffffffffffffffffffffffffffffff16815260200190815260200160002054600a612aea919061511d565b612af43386610a7c565b61478d90919063ffffffff16565b610b5d565b50565b6000612b80600260008473ffffffffffffffffffffffffffffffffffffffff1673ffffffffffffffffffffffffffffffffffffffff16815260200190815260200160002054612b72670de0b6b3a7640000612b6486612966565b61477790919063ffffffff16565b61478d90919063ffffffff16565b9050919050565b600860009054906101000a900473ffffffffffffffffffffffffffffffffffffffff1673ffffffffffffffffffffffffffffffffffffffff163373ffffffffffffffffffffffffffffffffffffffff1614612c17576040517f08c379a0000000000000000000000000000000000000000000000000000000008152600401612c0e90614f59565b60405180910390fd5b605a8111158015612c29575060328110155b612c68576040517f08c379a0000000000000000000000000000000000000000000000000000000008152600401612c5f906155c1565b60405180910390fd5b80600e8190555050565b600f60009054906101000a900473ffffffffffffffffffffffffffffffffffffffff1681565b600080612ca4836126a9565b1415612cbb5768056bc75e2d631000009050612d59565b68056bc75e2d63100000612d02612cd1846126a9565b612cf4670de0b6b3a7640000612ce687612d5e565b61477790919063ffffffff16565b61478d90919063ffffffff16565b1115612d195768056bc75e2d631000009050612d59565b612d56612d25836126a9565b612d48670de0b6b3a7640000612d3a86612d5e565b61477790919063ffffffff16565b61478d90919063ffffffff16565b90505b919050565b600080612e566064612e48600e54612e3a612d776140ca565b612e2c612d82613aa8565b600b60009054906101000a900473ffffffffffffffffffffffffffffffffffffffff1673ffffffffffffffffffffffffffffffffffffffff166370a082318c6040518263ffffffff1660e01b8152600401612ddd9190614cc3565b602060405180830381865afa158015612dfa573d6000803e3d6000fd5b505050506040513d601f19601f82011682018060405250810190612e1e9190614f8e565b61477790919063ffffffff16565b61477790919063ffffffff16565b61477790919063ffffffff16565b61478d90919063ffffffff16565b905080915050919050565b600080612eb6600660008573ffffffffffffffffffffffffffffffffffffffff1673ffffffffffffffffffffffffffffffffffffffff16815260200190815260200160002054426147a390919063ffffffff16565b90506000612f226301e13380612f1484600460008973ffffffffffffffffffffffffffffffffffffffff1673ffffffffffffffffffffffffffffffffffffffff1681526020019081526020016000205461477790919063ffffffff16565b61478d90919063ffffffff16565b90508092505050919050565b6000612f6d670de0b6b3a7640000612f5f612f4885612c98565b612f51866126a9565b61477790919063ffffffff16565b61478d90919063ffffffff16565b9050919050565b600f60009054906101000a900473ffffffffffffffffffffffffffffffffffffffff1673ffffffffffffffffffffffffffffffffffffffff1663ef5cfb8c336040518263ffffffff1660e01b8152600401612fcf9190614cc3565b600060405180830381600087803b158015612fe957600080fd5b505af1158015612ffd573d6000803e3d6000fd5b505050506000819050613064600360008573ffffffffffffffffffffffffffffffffffffffff1673ffffffffffffffffffffffffffffffffffffffff16815260200190815260200160002054600a613055919061511d565b8361477790919063ffffffff16565b9150600115156000808573ffffffffffffffffffffffffffffffffffffffff1673ffffffffffffffffffffffffffffffffffffffff16815260200190815260200160002060009054906101000a900460ff161515146130f8576040517f08c379a00000000000000000000000000000000000000000000000000000000081526004016130ef9061562d565b60405180910390fd5b600061312f6131068561443e565b613121670de0b6b3a76400008661477790919063ffffffff16565b61478d90919063ffffffff16565b905061313a84612e61565b600460008673ffffffffffffffffffffffffffffffffffffffff1673ffffffffffffffffffffffffffffffffffffffff16815260200190815260200160002060008282546131889190615208565b9250508190555042600660008673ffffffffffffffffffffffffffffffffffffffff1673ffffffffffffffffffffffffffffffffffffffff168152602001908152602001600020819055508373ffffffffffffffffffffffffffffffffffffffff166323b872dd3330856040518463ffffffff1660e01b81526004016132109392919061525e565b6020604051808303816000875af115801561322f573d6000803e3d6000fd5b505050506040513d601f19601f8201168201806040525081019061325391906152aa565b50600160008573ffffffffffffffffffffffffffffffffffffffff1673ffffffffffffffffffffffffffffffffffffffff16815260200190815260200160002060009054906101000a900473ffffffffffffffffffffffffffffffffffffffff1673ffffffffffffffffffffffffffffffffffffffff166340c10f1933836040518363ffffffff1660e01b81526004016132ee9291906152d7565b600060405180830381600087803b15801561330857600080fd5b505af115801561331c573d6000803e3d6000fd5b5050505082600260008673ffffffffffffffffffffffffffffffffffffffff1673ffffffffffffffffffffffffffffffffffffffff168152602001908152602001600020600082825461336f9190615208565b9250508190555050505050565b6133846147b9565b8173ffffffffffffffffffffffffffffffffffffffff166323b872dd3330846040518463ffffffff1660e01b81526004016133c19392919061525e565b6020604051808303816000875af11580156133e0573d6000803e3d6000fd5b505050506040513d601f19601f8201168201806040525081019061340491906152aa565b50600a60009054906101000a900473ffffffffffffffffffffffffffffffffffffffff1673ffffffffffffffffffffffffffffffffffffffff1663364e231183836001806040518563ffffffff1660e01b8152600401613467949392919061564d565b6020604051808303816000875af1158015613486573d6000803e3d6000fd5b505050506040513d601f19601f820116820180604052508101906134aa9190614f8e565b905060006134e26134b9613aa8565b6134d4670de0b6b3a76400008561477790919063ffffffff16565b61478d90919063ffffffff16565b9050600b60009054906101000a900473ffffffffffffffffffffffffffffffffffffffff1673ffffffffffffffffffffffffffffffffffffffff166340c10f1933836040518363ffffffff1660e01b81526004016135419291906152d7565b600060405180830381600087803b15801561355b57600080fd5b505af115801561356f573d6000803e3d6000fd5b5050505081600760008282546135859190615208565b92505081905550505050565b600860009054906101000a900473ffffffffffffffffffffffffffffffffffffffff1673ffffffffffffffffffffffffffffffffffffffff163373ffffffffffffffffffffffffffffffffffffffff1614613621576040517f08c379a000000000000000000000000000000000000000000000000000000000815260040161361890614f59565b60405180910390fd5b80600860006101000a81548173ffffffffffffffffffffffffffffffffffffffff021916908373ffffffffffffffffffffffffffffffffffffffff16021790555050565b600b60009054906101000a900473ffffffffffffffffffffffffffffffffffffffff1681565b600c60009054906101000a900473ffffffffffffffffffffffffffffffffffffffff1681565b60006137416136bf83612966565b613733670de0b6b3a76400006137256136d787612e61565b600460008973ffffffffffffffffffffffffffffffffffffffff1673ffffffffffffffffffffffffffffffffffffffff16815260200190815260200160002054614b4f90919063ffffffff16565b61477790919063ffffffff16565b61478d90919063ffffffff16565b9050919050565b6000613753336126a9565b14613793576040517f08c379a000000000000000000000000000000000000000000000000000000000815260040161378a906156de565b60405180910390fd5b6000600b60009054906101000a900473ffffffffffffffffffffffffffffffffffffffff1673ffffffffffffffffffffffffffffffffffffffff166370a08231336040518263ffffffff1660e01b81526004016137f09190614cc3565b602060405180830381865afa15801561380d573d6000803e3d6000fd5b505050506040513d601f19601f820116820180604052508101906138319190614f8e565b905061383c8161249f565b5050565b600061387f61384e83614a85565b61387161385a86612c98565b613863876126a9565b61477790919063ffffffff16565b61478d90919063ffffffff16565b905092915050565b60006020528060005260406000206000915054906101000a900460ff1681565b60008060005b600960009054906101000a900473ffffffffffffffffffffffffffffffffffffffff1673ffffffffffffffffffffffffffffffffffffffff16630842b0766040518163ffffffff1660e01b8152600401602060405180830381865afa15801561391a573d6000803e3d6000fd5b505050506040513d601f19601f8201168201806040525081019061393e9190614f8e565b811015613a7a576000600960009054906101000a900473ffffffffffffffffffffffffffffffffffffffff1673ffffffffffffffffffffffffffffffffffffffff1663e468baf0836040518263ffffffff1660e01b81526004016139a29190614c99565b602060405180830381865afa1580156139bf573d6000803e3d6000fd5b505050506040513d601f19601f820116820180604052508101906139e39190615381565b9050613a59670de0b6b3a7640000613a4b6139fd84614a85565b600260008673ffffffffffffffffffffffffffffffffffffffff1673ffffffffffffffffffffffffffffffffffffffff1681526020019081526020016000205461477790919063ffffffff16565b61478d90919063ffffffff16565b83613a649190615208565b9250508080613a729061542e565b9150506138ad565b508091505090565b600a60009054906101000a900473ffffffffffffffffffffffffffffffffffffffff1681565b600080600b60009054906101000a900473ffffffffffffffffffffffffffffffffffffffff1673ffffffffffffffffffffffffffffffffffffffff166318160ddd6040518163ffffffff1660e01b8152600401602060405180830381865afa158015613b18573d6000803e3d6000fd5b505050506040513d601f19601f82011682018060405250810190613b3c9190614f8e565b1415613b5257670de0b6b3a76400009050613c14565b613c11600b60009054906101000a900473ffffffffffffffffffffffffffffffffffffffff1673ffffffffffffffffffffffffffffffffffffffff166318160ddd6040518163ffffffff1660e01b8152600401602060405180830381865afa158015613bc2573d6000803e3d6000fd5b505050506040513d601f19601f82011682018060405250810190613be69190614f8e565b613c03670de0b6b3a764000060075461477790919063ffffffff16565b61478d90919063ffffffff16565b90505b90565b60036020528060005260406000206000915090505481565b60066020528060005260406000206000915090505481565b600f60009054906101000a900473ffffffffffffffffffffffffffffffffffffffff1673ffffffffffffffffffffffffffffffffffffffff1663ef5cfb8c336040518263ffffffff1660e01b8152600401613ca29190614cc3565b600060405180830381600087803b158015613cbc57600080fd5b505af1158015613cd0573d6000803e3d6000fd5b505050506000613d0b670de0b6b3a7640000613cfd613cee8661443e565b8561477790919063ffffffff16565b61478d90919063ffffffff16565b9050613de4600360008573ffffffffffffffffffffffffffffffffffffffff1673ffffffffffffffffffffffffffffffffffffffff16815260200190815260200160002054600a613d5c919061511d565b8473ffffffffffffffffffffffffffffffffffffffff166370a08231306040518263ffffffff1660e01b8152600401613d959190614cc3565b602060405180830381865afa158015613db2573d6000803e3d6000fd5b505050506040513d601f19601f82011682018060405250810190613dd69190614f8e565b61477790919063ffffffff16565b8111613e25576040517f08c379a0000000000000000000000000000000000000000000000000000000008152600401613e1c90615770565b60405180910390fd5b600160008473ffffffffffffffffffffffffffffffffffffffff1673ffffffffffffffffffffffffffffffffffffffff16815260200190815260200160002060009054906101000a900473ffffffffffffffffffffffffffffffffffffffff1673ffffffffffffffffffffffffffffffffffffffff16639dc29fac33846040518363ffffffff1660e01b8152600401613ebf9291906152d7565b600060405180830381600087803b158015613ed957600080fd5b505af1158015613eed573d6000803e3d6000fd5b5050505080600260008573ffffffffffffffffffffffffffffffffffffffff1673ffffffffffffffffffffffffffffffffffffffff1681526020019081526020016000206000828254613f4091906151d4565b92505081905550613f5083612e61565b600460008573ffffffffffffffffffffffffffffffffffffffff1673ffffffffffffffffffffffffffffffffffffffff1681526020019081526020016000206000828254613f9e9190615208565b9250508190555042600660008573ffffffffffffffffffffffffffffffffffffffff1673ffffffffffffffffffffffffffffffffffffffff168152602001908152602001600020819055508273ffffffffffffffffffffffffffffffffffffffff1663a9059cbb33614064600360008873ffffffffffffffffffffffffffffffffffffffff1673ffffffffffffffffffffffffffffffffffffffff16815260200190815260200160002054600a614055919061511d565b8561478d90919063ffffffff16565b6040518363ffffffff1660e01b81526004016140819291906152d7565b6020604051808303816000875af11580156140a0573d6000803e3d6000fd5b505050506040513d601f19601f820116820180604052508101906140c491906152aa565b50505050565b60008060005b600960009054906101000a900473ffffffffffffffffffffffffffffffffffffffff1673ffffffffffffffffffffffffffffffffffffffff16630842b0766040518163ffffffff1660e01b8152600401602060405180830381865afa15801561413d573d6000803e3d6000fd5b505050506040513d601f19601f820116820180604052508101906141619190614f8e565b81101561437457614354600960009054906101000a900473ffffffffffffffffffffffffffffffffffffffff1673ffffffffffffffffffffffffffffffffffffffff1663e468baf0836040518263ffffffff1660e01b81526004016141c69190614c99565b602060405180830381865afa1580156141e3573d6000803e3d6000fd5b505050506040513d601f19601f820116820180604052508101906142079190615381565b73ffffffffffffffffffffffffffffffffffffffff166370a08231600960009054906101000a900473ffffffffffffffffffffffffffffffffffffffff166040518263ffffffff1660e01b81526004016142619190614cc3565b602060405180830381865afa15801561427e573d6000803e3d6000fd5b505050506040513d601f19601f820116820180604052508101906142a29190614f8e565b614346600960009054906101000a900473ffffffffffffffffffffffffffffffffffffffff1673ffffffffffffffffffffffffffffffffffffffff1663e468baf0856040518263ffffffff1660e01b81526004016143009190614c99565b602060405180830381865afa15801561431d573d6000803e3d6000fd5b505050506040513d601f19601f820116820180604052508101906143419190615381565b614a85565b61477790919063ffffffff16565b8261435f9190615208565b9150808061436c9061542e565b9150506140d0565b506000614434600c60009054906101000a900473ffffffffffffffffffffffffffffffffffffffff1673ffffffffffffffffffffffffffffffffffffffff166318160ddd6040518163ffffffff1660e01b8152600401602060405180830381865afa1580156143e7573d6000803e3d6000fd5b505050506040513d601f19601f8201168201806040525081019061440b9190614f8e565b614426670de0b6b3a76400008561477790919063ffffffff16565b61478d90919063ffffffff16565b9050809250505090565b600080600160008473ffffffffffffffffffffffffffffffffffffffff1673ffffffffffffffffffffffffffffffffffffffff16815260200190815260200160002060009054906101000a900473ffffffffffffffffffffffffffffffffffffffff1673ffffffffffffffffffffffffffffffffffffffff166318160ddd6040518163ffffffff1660e01b8152600401602060405180830381865afa1580156144eb573d6000803e3d6000fd5b505050506040513d601f19601f8201168201806040525081019061450f9190614f8e565b141561452557670de0b6b3a76400009050614661565b61465e600160008473ffffffffffffffffffffffffffffffffffffffff1673ffffffffffffffffffffffffffffffffffffffff16815260200190815260200160002060009054906101000a900473ffffffffffffffffffffffffffffffffffffffff1673ffffffffffffffffffffffffffffffffffffffff166318160ddd6040518163ffffffff1660e01b8152600401602060405180830381865afa1580156145d2573d6000803e3d6000fd5b505050506040513d601f19601f820116820180604052508101906145f69190614f8e565b614650670de0b6b3a7640000600260008773ffffffffffffffffffffffffffffffffffffffff1673ffffffffffffffffffffffffffffffffffffffff1681526020019081526020016000205461477790919063ffffffff16565b61478d90919063ffffffff16565b90505b919050565b6000600160008373ffffffffffffffffffffffffffffffffffffffff1673ffffffffffffffffffffffffffffffffffffffff16815260200190815260200160002060009054906101000a900473ffffffffffffffffffffffffffffffffffffffff1673ffffffffffffffffffffffffffffffffffffffff166370a08231336040518263ffffffff1660e01b81526004016147009190614cc3565b602060405180830381865afa15801561471d573d6000803e3d6000fd5b505050506040513d601f19601f820116820180604052508101906147419190614f8e565b905061474d8282613c47565b5050565b600960009054906101000a900473ffffffffffffffffffffffffffffffffffffffff1681565b600081836147859190615790565b905092915050565b6000818361479b9190615819565b905092915050565b600081836147b191906151d4565b905092915050565b6000600d60009054906101000a900473ffffffffffffffffffffffffffffffffffffffff1673ffffffffffffffffffffffffffffffffffffffff166370a08231306040518263ffffffff1660e01b81526004016148169190614cc3565b602060405180830381865afa158015614833573d6000803e3d6000fd5b505050506040513d601f19601f820116820180604052508101906148579190614f8e565b9050600a60009054906101000a900473ffffffffffffffffffffffffffffffffffffffff1673ffffffffffffffffffffffffffffffffffffffff166330b7000260008060018060018060006040518863ffffffff1660e01b81526004016148c4979695949392919061584a565b600060405180830381600087803b1580156148de57600080fd5b505af11580156148f2573d6000803e3d6000fd5b50505050600a60009054906101000a900473ffffffffffffffffffffffffffffffffffffffff1673ffffffffffffffffffffffffffffffffffffffff1663364e2311600d60009054906101000a900473ffffffffffffffffffffffffffffffffffffffff16614a0584600d60009054906101000a900473ffffffffffffffffffffffffffffffffffffffff1673ffffffffffffffffffffffffffffffffffffffff166370a08231306040518263ffffffff1660e01b81526004016149b69190614cc3565b602060405180830381865afa1580156149d3573d6000803e3d6000fd5b505050506040513d601f19601f820116820180604052508101906149f79190614f8e565b6147a390919063ffffffff16565b6001806040518563ffffffff1660e01b8152600401614a27949392919061564d565b6020604051808303816000875af1158015614a46573d6000803e3d6000fd5b505050506040513d601f19601f82011682018060405250810190614a6a9190614f8e565b60076000828254614a7b9190615208565b9250508190555050565b600080601160009054906101000a900473ffffffffffffffffffffffffffffffffffffffff1673ffffffffffffffffffffffffffffffffffffffff16632fc3a70a846000600160006040518563ffffffff1660e01b8152600401614aec94939291906158b9565b602060405180830381865afa158015614b09573d6000803e3d6000fd5b505050506040513d601f19601f82011682018060405250810190614b2d9190614f8e565b9050614b4764e8d4a510008261478d90919063ffffffff16565b915050919050565b60008183614b5d9190615208565b905092915050565b600080fd5b600073ffffffffffffffffffffffffffffffffffffffff82169050919050565b6000614b9582614b6a565b9050919050565b614ba581614b8a565b8114614bb057600080fd5b50565b600081359050614bc281614b9c565b92915050565b60008115159050919050565b614bdd81614bc8565b8114614be857600080fd5b50565b600081359050614bfa81614bd4565b92915050565b60008060408385031215614c1757614c16614b65565b5b6000614c2585828601614bb3565b9250506020614c3685828601614beb565b9150509250929050565b60008060408385031215614c5757614c56614b65565b5b6000614c6585828601614bb3565b9250506020614c7685828601614bb3565b9150509250929050565b6000819050919050565b614c9381614c80565b82525050565b6000602082019050614cae6000830184614c8a565b92915050565b614cbd81614b8a565b82525050565b6000602082019050614cd86000830184614cb4565b92915050565b614ce781614c80565b8114614cf257600080fd5b50565b600081359050614d0481614cde565b92915050565b60008060408385031215614d2157614d20614b65565b5b6000614d2f85828601614bb3565b9250506020614d4085828601614cf5565b9150509250929050565b600060208284031215614d6057614d5f614b65565b5b6000614d6e84828501614bb3565b91505092915050565b600060208284031215614d8d57614d8c614b65565b5b6000614d9b84828501614cf5565b91505092915050565b6000819050919050565b6000614dc9614dc4614dbf84614b6a565b614da4565b614b6a565b9050919050565b6000614ddb82614dae565b9050919050565b6000614ded82614dd0565b9050919050565b614dfd81614de2565b82525050565b6000602082019050614e186000830184614df4565b92915050565b6000614e2982614dd0565b9050919050565b614e3981614e1e565b82525050565b6000602082019050614e546000830184614e30565b92915050565b614e6381614bc8565b82525050565b6000602082019050614e7e6000830184614e5a565b92915050565b6000614e8f82614dd0565b9050919050565b614e9f81614e84565b82525050565b6000602082019050614eba6000830184614e96565b92915050565b6000614ecb82614dd0565b9050919050565b614edb81614ec0565b82525050565b6000602082019050614ef66000830184614ed2565b92915050565b600082825260208201905092915050565b7f21476f7665726e616e6365000000000000000000000000000000000000000000600082015250565b6000614f43600b83614efc565b9150614f4e82614f0d565b602082019050919050565b60006020820190508181036000830152614f7281614f36565b9050919050565b600081519050614f8881614cde565b92915050565b600060208284031215614fa457614fa3614b65565b5b6000614fb284828501614f79565b91505092915050565b7f4e487b7100000000000000000000000000000000000000000000000000000000600052601160045260246000fd5b60008160011c9050919050565b6000808291508390505b60018511156150415780860481111561501d5761501c614fbb565b5b600185161561502c5780820291505b808102905061503a85614fea565b9450615001565b94509492505050565b60008261505a5760019050615116565b816150685760009050615116565b816001811461507e5760028114615088576150b7565b6001915050615116565b60ff84111561509a57615099614fbb565b5b8360020a9150848211156150b1576150b0614fbb565b5b50615116565b5060208310610133831016604e8410600b84101617156150ec5782820a9050838111156150e7576150e6614fbb565b5b615116565b6150f98484846001614ff7565b925090508184048111156151105761510f614fbb565b5b81810290505b9392505050565b600061512882614c80565b915061513383614c80565b92506151607fffffffffffffffffffffffffffffffffffffffffffffffffffffffffffffffff848461504a565b905092915050565b7f5265706179696e6720746f6f206d756368000000000000000000000000000000600082015250565b600061519e601183614efc565b91506151a982615168565b602082019050919050565b600060208201905081810360008301526151cd81615191565b9050919050565b60006151df82614c80565b91506151ea83614c80565b9250828210156151fd576151fc614fbb565b5b828203905092915050565b600061521382614c80565b915061521e83614c80565b9250827fffffffffffffffffffffffffffffffffffffffffffffffffffffffffffffffff0382111561525357615252614fbb565b5b828201905092915050565b60006060820190506152736000830186614cb4565b6152806020830185614cb4565b61528d6040830184614c8a565b949350505050565b6000815190506152a481614bd4565b92915050565b6000602082840312156152c0576152bf614b65565b5b60006152ce84828501615295565b91505092915050565b60006040820190506152ec6000830185614cb4565b6152f96020830184614c8a565b9392505050565b7f4163636f756e74206865616c7468790000000000000000000000000000000000600082015250565b6000615336600f83614efc565b915061534182615300565b602082019050919050565b6000602082019050818103600083015261536581615329565b9050919050565b60008151905061537b81614b9c565b92915050565b60006020828403121561539757615396614b65565b5b60006153a58482850161536c565b91505092915050565b6000819050919050565b60006153d36153ce6153c9846153ae565b614da4565b614c80565b9050919050565b6153e3816153b8565b82525050565b60006080820190506153fe6000830187614cb4565b61540b6020830186614c8a565b61541860408301856153da565b6154256060830184614cb4565b95945050505050565b600061543982614c80565b91507fffffffffffffffffffffffffffffffffffffffffffffffffffffffffffffffff82141561546c5761546b614fbb565b5b600182019050919050565b7f4e6f7420656e6f75676820626f72726f77696e6720706f776572000000000000600082015250565b60006154ad601a83614efc565b91506154b882615477565b602082019050919050565b600060208201905081810360008301526154dc816154a0565b9050919050565b7f4163636f756e74206e6f74206865616c7468792061667465722077697468647260008201527f6177000000000000000000000000000000000000000000000000000000000000602082015250565b600061553f602283614efc565b915061554a826154e3565b604082019050919050565b6000602082019050818103600083015261556e81615532565b9050919050565b7f496e76616c6964204c5456000000000000000000000000000000000000000000600082015250565b60006155ab600b83614efc565b91506155b682615575565b602082019050919050565b600060208201905081810360008301526155da8161559e565b9050919050565b7f546f6b656e206e6f7420616c6c6f776564000000000000000000000000000000600082015250565b6000615617601183614efc565b9150615622826155e1565b602082019050919050565b600060208201905081810360008301526156468161560a565b9050919050565b60006080820190506156626000830187614cb4565b61566f6020830186614c8a565b61567c60408301856153da565b61568960608301846153da565b95945050505050565b7f4163636f756e7420686173206465627400000000000000000000000000000000600082015250565b60006156c8601083614efc565b91506156d382615692565b602082019050919050565b600060208201905081810360008301526156f7816156bb565b9050919050565b7f546f6f206d75636820626f72726f7765642066726f6d206c697175696469747960008201527f20746f2077697468647261770000000000000000000000000000000000000000602082015250565b600061575a602c83614efc565b9150615765826156fe565b604082019050919050565b600060208201905081810360008301526157898161574d565b9050919050565b600061579b82614c80565b91506157a683614c80565b9250817fffffffffffffffffffffffffffffffffffffffffffffffffffffffffffffffff04831182151516156157df576157de614fbb565b5b828202905092915050565b7f4e487b7100000000000000000000000000000000000000000000000000000000600052601260045260246000fd5b600061582482614c80565b915061582f83614c80565b92508261583f5761583e6157ea565b5b828204905092915050565b600060e08201905061585f600083018a614e5a565b61586c6020830189614e5a565b6158796040830188614e5a565b6158866060830187614e5a565b6158936080830186614e5a565b6158a060a0830185614e5a565b6158ad60c0830184614e5a565b98975050505050505050565b60006080820190506158ce6000830187614cb4565b6158db6020830186614e5a565b6158e86040830185614e5a565b6158f56060830184614e5a565b9594505050505056fea264697066735822122095905a75867864b4675e542637dcf2c42912435b6d2a346b8e9fd33ac7c4583964736f6c634300080a0033",
  "linkReferences": {},
  "deployedLinkReferences": {}
}