{
  "_format": "hh-sol-artifact-1",
  "contractName": "Protocol",
  "sourceName": "contracts/Protocol.sol",
  "abi": [
    {
      "inputs": [
        {
          "internalType": "address",
          "name": "_vault",
          "type": "address"
        },
        {
          "internalType": "address",
          "name": "_rewardsRouter",
          "type": "address"
        },
        {
          "internalType": "address",
          "name": "_GLP",
          "type": "address"
        },
        {
          "internalType": "address",
          "name": "_weth",
          "type": "address"
        },
        {
          "internalType": "address",
          "name": "_lnxReward",
          "type": "address"
        },
        {
          "internalType": "address",
          "name": "_stakeReward",
          "type": "address"
        },
        {
          "internalType": "address",
          "name": "_priceFeed",
          "type": "address"
        },
        {
          "internalType": "address",
          "name": "_GLPManager",
          "type": "address"
        }
      ],
      "stateMutability": "nonpayable",
      "type": "constructor"
    },
    {
      "inputs": [],
      "name": "GLP",
      "outputs": [
        {
          "internalType": "contract IERC20",
          "name": "",
          "type": "address"
        }
      ],
      "stateMutability": "view",
      "type": "function"
    },
    {
      "inputs": [],
      "name": "GLPManager",
      "outputs": [
        {
          "internalType": "address",
          "name": "",
          "type": "address"
        }
      ],
      "stateMutability": "view",
      "type": "function"
    },
    {
      "inputs": [],
      "name": "WGLP",
      "outputs": [
        {
          "internalType": "contract IERC20",
          "name": "",
          "type": "address"
        }
      ],
      "stateMutability": "view",
      "type": "function"
    },
    {
      "inputs": [],
      "name": "WGLPManager",
      "outputs": [
        {
          "internalType": "contract IWGLPManager",
          "name": "",
          "type": "address"
        }
      ],
      "stateMutability": "view",
      "type": "function"
    },
    {
      "inputs": [
        {
          "internalType": "address",
          "name": "account",
          "type": "address"
        }
      ],
      "name": "accountBorrowedValue",
      "outputs": [
        {
          "internalType": "uint256",
          "name": "",
          "type": "uint256"
        }
      ],
      "stateMutability": "view",
      "type": "function"
    },
    {
      "inputs": [
        {
          "internalType": "address",
          "name": "account",
          "type": "address"
        }
      ],
      "name": "accountCollateralValue",
      "outputs": [
        {
          "internalType": "uint256",
          "name": "",
          "type": "uint256"
        }
      ],
      "stateMutability": "view",
      "type": "function"
    },
    {
      "inputs": [
        {
          "internalType": "address",
          "name": "account",
          "type": "address"
        }
      ],
      "name": "accountHealth",
      "outputs": [
        {
          "internalType": "uint256",
          "name": "",
          "type": "uint256"
        }
      ],
      "stateMutability": "view",
      "type": "function"
    },
    {
      "inputs": [
        {
          "internalType": "address",
          "name": "account",
          "type": "address"
        }
      ],
      "name": "accountLentValue",
      "outputs": [
        {
          "internalType": "uint256",
          "name": "",
          "type": "uint256"
        }
      ],
      "stateMutability": "view",
      "type": "function"
    },
    {
      "inputs": [
        {
          "internalType": "address",
          "name": "token",
          "type": "address"
        },
        {
          "internalType": "uint256",
          "name": "tokenAmount",
          "type": "uint256"
        }
      ],
      "name": "borrow",
      "outputs": [],
      "stateMutability": "nonpayable",
      "type": "function"
    },
    {
      "inputs": [
        {
          "internalType": "address",
          "name": "",
          "type": "address"
        }
      ],
      "name": "borrowShare",
      "outputs": [
        {
          "internalType": "address",
          "name": "",
          "type": "address"
        }
      ],
      "stateMutability": "view",
      "type": "function"
    },
    {
      "inputs": [
        {
          "internalType": "address",
          "name": "",
          "type": "address"
        }
      ],
      "name": "borrowToken",
      "outputs": [
        {
          "internalType": "bool",
          "name": "",
          "type": "bool"
        }
      ],
      "stateMutability": "view",
      "type": "function"
    },
    {
      "inputs": [
        {
          "internalType": "address",
          "name": "",
          "type": "address"
        }
      ],
      "name": "borrowTokenBalance",
      "outputs": [
        {
          "internalType": "uint256",
          "name": "",
          "type": "uint256"
        }
      ],
      "stateMutability": "view",
      "type": "function"
    },
    {
      "inputs": [
        {
          "internalType": "address",
          "name": "",
          "type": "address"
        },
        {
          "internalType": "address",
          "name": "",
          "type": "address"
        }
      ],
      "name": "borrowedAmount",
      "outputs": [
        {
          "internalType": "uint256",
          "name": "",
          "type": "uint256"
        }
      ],
      "stateMutability": "view",
      "type": "function"
    },
    {
      "inputs": [
        {
          "internalType": "address",
          "name": "account",
          "type": "address"
        },
        {
          "internalType": "address",
          "name": "token",
          "type": "address"
        }
      ],
      "name": "borrowingPower",
      "outputs": [
        {
          "internalType": "uint256",
          "name": "",
          "type": "uint256"
        }
      ],
      "stateMutability": "view",
      "type": "function"
    },
    {
      "inputs": [
        {
          "internalType": "address",
          "name": "account",
          "type": "address"
        }
      ],
      "name": "borrowingPowerUSD",
      "outputs": [
        {
          "internalType": "uint256",
          "name": "",
          "type": "uint256"
        }
      ],
      "stateMutability": "view",
      "type": "function"
    },
    {
      "inputs": [
        {
          "internalType": "address",
          "name": "token",
          "type": "address"
        }
      ],
      "name": "debtValue",
      "outputs": [
        {
          "internalType": "uint256",
          "name": "",
          "type": "uint256"
        }
      ],
      "stateMutability": "view",
      "type": "function"
    },
    {
      "inputs": [
        {
          "internalType": "address",
          "name": "",
          "type": "address"
        }
      ],
      "name": "decimalMultiplier",
      "outputs": [
        {
          "internalType": "uint256",
          "name": "",
          "type": "uint256"
        }
      ],
      "stateMutability": "view",
      "type": "function"
    },
    {
      "inputs": [
        {
          "internalType": "uint256",
          "name": "amount",
          "type": "uint256"
        }
      ],
      "name": "depositCollateral",
      "outputs": [],
      "stateMutability": "nonpayable",
      "type": "function"
    },
    {
      "inputs": [],
      "name": "getCollateralPrice",
      "outputs": [
        {
          "internalType": "uint256",
          "name": "",
          "type": "uint256"
        }
      ],
      "stateMutability": "view",
      "type": "function"
    },
    {
      "inputs": [],
      "name": "getCollateralShareValue",
      "outputs": [
        {
          "internalType": "uint256",
          "name": "",
          "type": "uint256"
        }
      ],
      "stateMutability": "view",
      "type": "function"
    },
    {
      "inputs": [
        {
          "internalType": "address",
          "name": "token",
          "type": "address"
        }
      ],
      "name": "getShareValue",
      "outputs": [
        {
          "internalType": "uint256",
          "name": "",
          "type": "uint256"
        }
      ],
      "stateMutability": "view",
      "type": "function"
    },
    {
      "inputs": [
        {
          "internalType": "address",
          "name": "token",
          "type": "address"
        }
      ],
      "name": "getTokenAccruedInterest",
      "outputs": [
        {
          "internalType": "uint256",
          "name": "",
          "type": "uint256"
        }
      ],
      "stateMutability": "view",
      "type": "function"
    },
    {
      "inputs": [],
      "name": "governance",
      "outputs": [
        {
          "internalType": "address",
          "name": "",
          "type": "address"
        }
      ],
      "stateMutability": "view",
      "type": "function"
    },
    {
      "inputs": [
        {
          "internalType": "address",
          "name": "",
          "type": "address"
        }
      ],
      "name": "initialLentAmount",
      "outputs": [
        {
          "internalType": "uint256",
          "name": "",
          "type": "uint256"
        }
      ],
      "stateMutability": "view",
      "type": "function"
    },
    {
      "inputs": [
        {
          "internalType": "address",
          "name": "",
          "type": "address"
        }
      ],
      "name": "interestCheckpoint",
      "outputs": [
        {
          "internalType": "uint256",
          "name": "",
          "type": "uint256"
        }
      ],
      "stateMutability": "view",
      "type": "function"
    },
    {
      "inputs": [
        {
          "internalType": "address",
          "name": "token",
          "type": "address"
        }
      ],
      "name": "interestRate",
      "outputs": [
        {
          "internalType": "uint256",
          "name": "",
          "type": "uint256"
        }
      ],
      "stateMutability": "view",
      "type": "function"
    },
    {
      "inputs": [
        {
          "internalType": "address",
          "name": "token",
          "type": "address"
        },
        {
          "internalType": "uint256",
          "name": "amount",
          "type": "uint256"
        }
      ],
      "name": "lend",
      "outputs": [],
      "stateMutability": "nonpayable",
      "type": "function"
    },
    {
      "inputs": [
        {
          "internalType": "address",
          "name": "account",
          "type": "address"
        }
      ],
      "name": "liquidate",
      "outputs": [],
      "stateMutability": "nonpayable",
      "type": "function"
    },
    {
      "inputs": [],
      "name": "lnxReward",
      "outputs": [
        {
          "internalType": "address",
          "name": "",
          "type": "address"
        }
      ],
      "stateMutability": "view",
      "type": "function"
    },
    {
      "inputs": [],
      "name": "ltv",
      "outputs": [
        {
          "internalType": "uint256",
          "name": "",
          "type": "uint256"
        }
      ],
      "stateMutability": "view",
      "type": "function"
    },
    {
      "inputs": [],
      "name": "priceFeed",
      "outputs": [
        {
          "internalType": "contract IPriceFeed",
          "name": "",
          "type": "address"
        }
      ],
      "stateMutability": "view",
      "type": "function"
    },
    {
      "inputs": [
        {
          "internalType": "address",
          "name": "token",
          "type": "address"
        },
        {
          "internalType": "uint256",
          "name": "tokenAmount",
          "type": "uint256"
        }
      ],
      "name": "repay",
      "outputs": [],
      "stateMutability": "nonpayable",
      "type": "function"
    },
    {
      "inputs": [
        {
          "internalType": "address",
          "name": "token",
          "type": "address"
        }
      ],
      "name": "repayAll",
      "outputs": [],
      "stateMutability": "nonpayable",
      "type": "function"
    },
    {
      "inputs": [
        {
          "internalType": "address",
          "name": "token",
          "type": "address"
        }
      ],
      "name": "rescueExcess",
      "outputs": [],
      "stateMutability": "nonpayable",
      "type": "function"
    },
    {
      "inputs": [],
      "name": "rewardsRouter",
      "outputs": [
        {
          "internalType": "contract IRewardsRouter",
          "name": "",
          "type": "address"
        }
      ],
      "stateMutability": "view",
      "type": "function"
    },
    {
      "inputs": [
        {
          "internalType": "address",
          "name": "token",
          "type": "address"
        },
        {
          "internalType": "address",
          "name": "share",
          "type": "address"
        }
      ],
      "name": "setBorrowToken",
      "outputs": [],
      "stateMutability": "nonpayable",
      "type": "function"
    },
    {
      "inputs": [
        {
          "internalType": "address",
          "name": "token",
          "type": "address"
        },
        {
          "internalType": "bool",
          "name": "allowed",
          "type": "bool"
        }
      ],
      "name": "setBorrowTokenAllowed",
      "outputs": [],
      "stateMutability": "nonpayable",
      "type": "function"
    },
    {
      "inputs": [
        {
          "internalType": "address",
          "name": "_governance",
          "type": "address"
        }
      ],
      "name": "setGovernance",
      "outputs": [],
      "stateMutability": "nonpayable",
      "type": "function"
    },
    {
      "inputs": [
        {
          "internalType": "address",
          "name": "_WGLP",
          "type": "address"
        }
      ],
      "name": "setWGLP",
      "outputs": [],
      "stateMutability": "nonpayable",
      "type": "function"
    },
    {
      "inputs": [
        {
          "internalType": "address",
          "name": "_WGLPManager",
          "type": "address"
        }
      ],
      "name": "setWGLPManager",
      "outputs": [],
      "stateMutability": "nonpayable",
      "type": "function"
    },
    {
      "inputs": [
        {
          "internalType": "uint256",
          "name": "_ltv",
          "type": "uint256"
        }
      ],
      "name": "setltv",
      "outputs": [],
      "stateMutability": "nonpayable",
      "type": "function"
    },
    {
      "inputs": [],
      "name": "stakeReward",
      "outputs": [
        {
          "internalType": "address",
          "name": "",
          "type": "address"
        }
      ],
      "stateMutability": "view",
      "type": "function"
    },
    {
      "inputs": [
        {
          "internalType": "address",
          "name": "",
          "type": "address"
        }
      ],
      "name": "tokenDebt",
      "outputs": [
        {
          "internalType": "uint256",
          "name": "",
          "type": "uint256"
        }
      ],
      "stateMutability": "view",
      "type": "function"
    },
    {
      "inputs": [
        {
          "internalType": "address",
          "name": "",
          "type": "address"
        }
      ],
      "name": "tokenPendingLiquidationUSD",
      "outputs": [
        {
          "internalType": "uint256",
          "name": "",
          "type": "uint256"
        }
      ],
      "stateMutability": "view",
      "type": "function"
    },
    {
      "inputs": [
        {
          "internalType": "address",
          "name": "token",
          "type": "address"
        }
      ],
      "name": "totalBorrowedAmount",
      "outputs": [
        {
          "internalType": "uint256",
          "name": "",
          "type": "uint256"
        }
      ],
      "stateMutability": "view",
      "type": "function"
    },
    {
      "inputs": [],
      "name": "totalCollateral",
      "outputs": [
        {
          "internalType": "uint256",
          "name": "",
          "type": "uint256"
        }
      ],
      "stateMutability": "view",
      "type": "function"
    },
    {
      "inputs": [],
      "name": "totalLentValue",
      "outputs": [
        {
          "internalType": "uint256",
          "name": "",
          "type": "uint256"
        }
      ],
      "stateMutability": "view",
      "type": "function"
    },
    {
      "inputs": [],
      "name": "totalPendingLiquidationUSD",
      "outputs": [
        {
          "internalType": "uint256",
          "name": "",
          "type": "uint256"
        }
      ],
      "stateMutability": "view",
      "type": "function"
    },
    {
      "inputs": [],
      "name": "totalPendingLiquidationWGLP",
      "outputs": [
        {
          "internalType": "uint256",
          "name": "",
          "type": "uint256"
        }
      ],
      "stateMutability": "view",
      "type": "function"
    },
    {
      "inputs": [
        {
          "internalType": "address",
          "name": "",
          "type": "address"
        }
      ],
      "name": "userCollateral",
      "outputs": [
        {
          "internalType": "uint256",
          "name": "",
          "type": "uint256"
        }
      ],
      "stateMutability": "view",
      "type": "function"
    },
    {
      "inputs": [
        {
          "internalType": "address",
          "name": "account",
          "type": "address"
        },
        {
          "internalType": "address",
          "name": "token",
          "type": "address"
        }
      ],
      "name": "userDebt",
      "outputs": [
        {
          "internalType": "uint256",
          "name": "",
          "type": "uint256"
        }
      ],
      "stateMutability": "view",
      "type": "function"
    },
    {
      "inputs": [
        {
          "internalType": "address",
          "name": "account",
          "type": "address"
        },
        {
          "internalType": "address",
          "name": "token",
          "type": "address"
        }
      ],
      "name": "userDebtUSD",
      "outputs": [
        {
          "internalType": "uint256",
          "name": "",
          "type": "uint256"
        }
      ],
      "stateMutability": "view",
      "type": "function"
    },
    {
      "inputs": [],
      "name": "vault",
      "outputs": [
        {
          "internalType": "contract IVault",
          "name": "",
          "type": "address"
        }
      ],
      "stateMutability": "view",
      "type": "function"
    },
    {
      "inputs": [],
      "name": "weth",
      "outputs": [
        {
          "internalType": "address",
          "name": "",
          "type": "address"
        }
      ],
      "stateMutability": "view",
      "type": "function"
    },
    {
      "inputs": [
        {
          "internalType": "address",
          "name": "token",
          "type": "address"
        },
        {
          "internalType": "uint256",
          "name": "shareAmount",
          "type": "uint256"
        }
      ],
      "name": "withdraw",
      "outputs": [],
      "stateMutability": "nonpayable",
      "type": "function"
    },
    {
      "inputs": [
        {
          "internalType": "address",
          "name": "token",
          "type": "address"
        }
      ],
      "name": "withdrawAll",
      "outputs": [],
      "stateMutability": "nonpayable",
      "type": "function"
    },
    {
      "inputs": [
        {
          "internalType": "uint256",
          "name": "amount",
          "type": "uint256"
        }
      ],
      "name": "withdrawCollateral",
      "outputs": [],
      "stateMutability": "nonpayable",
      "type": "function"
    },
    {
      "inputs": [],
      "name": "withdrawCollateralAll",
      "outputs": [],
      "stateMutability": "nonpayable",
      "type": "function"
    }
  ],
  "bytecode": "0x608060405260326013553480156200001657600080fd5b5060405162005c7838038062005c7883398181016040528101906200003c9190620002fd565b33600d60006101000a81548173ffffffffffffffffffffffffffffffffffffffff021916908373ffffffffffffffffffffffffffffffffffffffff16021790555087600e60006101000a81548173ffffffffffffffffffffffffffffffffffffffff021916908373ffffffffffffffffffffffffffffffffffffffff16021790555086600f60006101000a81548173ffffffffffffffffffffffffffffffffffffffff021916908373ffffffffffffffffffffffffffffffffffffffff16021790555085601160006101000a81548173ffffffffffffffffffffffffffffffffffffffff021916908373ffffffffffffffffffffffffffffffffffffffff16021790555084601260006101000a81548173ffffffffffffffffffffffffffffffffffffffff021916908373ffffffffffffffffffffffffffffffffffffffff16021790555083601460006101000a81548173ffffffffffffffffffffffffffffffffffffffff021916908373ffffffffffffffffffffffffffffffffffffffff16021790555082601560006101000a81548173ffffffffffffffffffffffffffffffffffffffff021916908373ffffffffffffffffffffffffffffffffffffffff16021790555081601660006101000a81548173ffffffffffffffffffffffffffffffffffffffff021916908373ffffffffffffffffffffffffffffffffffffffff16021790555080601760006101000a81548173ffffffffffffffffffffffffffffffffffffffff021916908373ffffffffffffffffffffffffffffffffffffffff1602179055505050505050505050620003c6565b600080fd5b600073ffffffffffffffffffffffffffffffffffffffff82169050919050565b6000620002c58262000298565b9050919050565b620002d781620002b8565b8114620002e357600080fd5b50565b600081519050620002f781620002cc565b92915050565b600080600080600080600080610100898b03121562000321576200032062000293565b5b6000620003318b828c01620002e6565b9850506020620003448b828c01620002e6565b9750506040620003578b828c01620002e6565b96505060606200036a8b828c01620002e6565b95505060806200037d8b828c01620002e6565b94505060a0620003908b828c01620002e6565b93505060c0620003a38b828c01620002e6565b92505060e0620003b68b828c01620002e6565b9150509295985092959890939650565b6158a280620003d66000396000f3fe608060405234801561001057600080fd5b506004361061038d5760003560e01c806387c884b3116101de578063c3e2566d1161010f578063f3e1abe1116100ad578063f9c019d51161007c578063f9c019d514610b40578063fa09e63014610b70578063fbfa77cf14610b8c578063ffdbfbae14610baa5761038d565b8063f3e1abe114610aa6578063f3fef3a314610ad6578063f69f1e4a14610af2578063f7683bbc14610b225761038d565b8063d196943c116100e9578063d196943c14610a1c578063e152c34a14610a3a578063e68802e314610a58578063f18ea6d814610a765761038d565b8063c3e2566d1461098c578063c9f005af146109bc578063cc4c336b146109ec5761038d565b8063983ff6151161017c578063b28147d911610156578063b28147d914610918578063b9637e4914610936578063bad4a01f14610966578063c09f66aa146109825761038d565b8063983ff615146108b0578063a2fb342d146108e0578063ab033ea9146108fc5761038d565b80638b96b280116101b85780638b96b280146107f05780638f2b62701461082057806394e1de581461085057806397ea8605146108805761038d565b806387c884b31461079a57806388d595db146107b657806389e02a58146107d25761038d565b80635aa6e675116102c357806372665438116102615780637a8f4605116102305780637a8f4605146107025780637a978fcd146107325780637c27383b1461074e5780637c2c69c01461076a5761038d565b80637266543814610654578063741bef1a146106845780637558abc8146106a2578063770089f1146106d25761038d565b80636112fe2e1161029d5780636112fe2e146105cc5780636ac9ce6c146105e85780636d6b57b4146106185780636fb49d73146106365761038d565b80635aa6e675146105725780635bf12feb146105905780635bf2d5ef146105ae5761038d565b80632c9cbca2116103305780634414e1af1161030a5780634414e1af146104ec578063474fefaa1461051c5780634ac8eb5f146105385780634b8a3529146105565761038d565b80632c9cbca2146104825780632f865568146104b25780633fc8cef3146104ce5761038d565b806322867d781161036c57806322867d78146103fc57806323e7d6501461041857806323eafe1e1461043657806329147fab146104665761038d565b80623aadee1461039257806314c8ad2c146103ae57806314f47dcc146103de575b600080fd5b6103ac60048036038101906103a79190614b8e565b610bc8565b005b6103c860048036038101906103c39190614bce565b610cb2565b6040516103d59190614c27565b60405180910390f35b6103e6610d6d565b6040516103f39190614c51565b60405180910390f35b61041660048036038101906104119190614c98565b610d93565b005b6104206113b1565b60405161042d9190614d37565b60405180910390f35b610450600480360381019061044b9190614bce565b6113d7565b60405161045d9190614c27565b60405180910390f35b610480600480360381019061047b9190614d52565b61141f565b005b61049c60048036038101906104979190614d52565b611584565b6040516104a99190614c51565b60405180910390f35b6104cc60048036038101906104c79190614d52565b6115b7565b005b6104d6611d15565b6040516104e39190614c51565b60405180910390f35b61050660048036038101906105019190614d52565b611d3b565b6040516105139190614c27565b60405180910390f35b61053660048036038101906105319190614bce565b61202b565b005b6105406124a9565b60405161054d9190614c27565b60405180910390f35b610570600480360381019061056b9190614c98565b6124af565b005b61057a612907565b6040516105879190614c51565b60405180910390f35b61059861292d565b6040516105a59190614c51565b60405180910390f35b6105b6612953565b6040516105c39190614da0565b60405180910390f35b6105e660048036038101906105e19190614dbb565b612979565b005b61060260048036038101906105fd9190614d52565b612a3e565b60405161060f9190614c27565b60405180910390f35b610620612c7a565b60405161062d9190614c27565b60405180910390f35b61063e612c80565b60405161064b9190614c27565b60405180910390f35b61066e60048036038101906106699190614bce565b612c86565b60405161067b9190614c27565b60405180910390f35b61068c612cab565b6040516106999190614e09565b60405180910390f35b6106bc60048036038101906106b79190614d52565b612cd1565b6040516106c99190614c27565b60405180910390f35b6106ec60048036038101906106e79190614d52565b612ce9565b6040516106f99190614c27565b60405180910390f35b61071c60048036038101906107179190614d52565b612d01565b6040516107299190614c27565b60405180910390f35b61074c60048036038101906107479190614d52565b612d4a565b005b61076860048036038101906107639190614d52565b612e43565b005b610784600480360381019061077f9190614d52565b612eb6565b6040516107919190614c27565b60405180910390f35b6107b460048036038101906107af9190614d52565b612f33565b005b6107d060048036038101906107cb9190614dbb565b6131f0565b005b6107da6132db565b6040516107e79190614c51565b60405180910390f35b61080a60048036038101906108059190614d52565b613301565b6040516108179190614c27565b60405180910390f35b61083a60048036038101906108359190614d52565b6133c7565b6040516108479190614c27565b60405180910390f35b61086a60048036038101906108659190614d52565b61348f565b6040516108779190614c27565b60405180910390f35b61089a60048036038101906108959190614d52565b6134a7565b6040516108a79190614c27565b60405180910390f35b6108ca60048036038101906108c59190614d52565b613574565b6040516108d79190614c27565b60405180910390f35b6108fa60048036038101906108f59190614c98565b6135c2565b005b61091660048036038101906109119190614d52565b6139ca565b005b610920613a9e565b60405161092d9190614da0565b60405180910390f35b610950600480360381019061094b9190614d52565b613ac4565b60405161095d9190614c27565b60405180910390f35b610980600480360381019061097b9190614dbb565b613b7c565b005b61098a613c78565b005b6109a660048036038101906109a19190614d52565b613d13565b6040516109b39190614c27565b60405180910390f35b6109d660048036038101906109d19190614bce565b613d2b565b6040516109e39190614c27565b60405180910390f35b610a066004803603810190610a019190614d52565b613dae565b604051610a139190614e33565b60405180910390f35b610a24613dce565b604051610a319190614c27565b60405180910390f35b610a42613fa9565b604051610a4f9190614e6f565b60405180910390f35b610a60613fcf565b604051610a6d9190614c27565b60405180910390f35b610a906004803603810190610a8b9190614d52565b614067565b604051610a9d9190614c27565b60405180910390f35b610ac06004803603810190610abb9190614d52565b61407f565b604051610acd9190614c27565b60405180910390f35b610af06004803603810190610aeb9190614c98565b614097565b005b610b0c6004803603810190610b079190614d52565b61451a565b604051610b199190614c27565b60405180910390f35b610b2a614532565b604051610b379190614c27565b60405180910390f35b610b5a6004803603810190610b559190614d52565b614692565b604051610b679190614c27565b60405180910390f35b610b8a6004803603810190610b859190614d52565b6148ba565b005b610b946149a5565b604051610ba19190614eab565b60405180910390f35b610bb26149cb565b604051610bbf9190614c27565b60405180910390f35b600d60009054906101000a900473ffffffffffffffffffffffffffffffffffffffff1673ffffffffffffffffffffffffffffffffffffffff163373ffffffffffffffffffffffffffffffffffffffff1614610c58576040517f08c379a0000000000000000000000000000000000000000000000000000000008152600401610c4f90614f23565b60405180910390fd5b806000808473ffffffffffffffffffffffffffffffffffffffff1673ffffffffffffffffffffffffffffffffffffffff16815260200190815260200160002060006101000a81548160ff0219169083151502179055505050565b6000610d65670de0b6b3a7640000610d57610ccc85613ac4565b600660008873ffffffffffffffffffffffffffffffffffffffff1673ffffffffffffffffffffffffffffffffffffffff16815260200190815260200160002060008773ffffffffffffffffffffffffffffffffffffffff1673ffffffffffffffffffffffffffffffffffffffff168152602001908152602001600020546149d190919063ffffffff16565b6149e790919063ffffffff16565b905092915050565b601560009054906101000a900473ffffffffffffffffffffffffffffffffffffffff1681565b610df1600460008473ffffffffffffffffffffffffffffffffffffffff1673ffffffffffffffffffffffffffffffffffffffff16815260200190815260200160002054600a610de291906150a5565b826149d190919063ffffffff16565b90506000610e8d600660008573ffffffffffffffffffffffffffffffffffffffff1673ffffffffffffffffffffffffffffffffffffffff16815260200190815260200160002060003373ffffffffffffffffffffffffffffffffffffffff1673ffffffffffffffffffffffffffffffffffffffff16815260200190815260200160002054610e7f3386610cb2565b6149fd90919063ffffffff16565b90506000818310610ea057819050610ea4565b8290505b610eae3385610cb2565b831115610ef0576040517f08c379a0000000000000000000000000000000000000000000000000000000008152600401610ee79061513c565b60405180910390fd5b610ef9846134a7565b600560008673ffffffffffffffffffffffffffffffffffffffff1673ffffffffffffffffffffffffffffffffffffffff1681526020019081526020016000206000828254610f47919061515c565b9250508190555042600760008673ffffffffffffffffffffffffffffffffffffffff1673ffffffffffffffffffffffffffffffffffffffff16815260200190815260200160002081905550610fa581846149fd90919063ffffffff16565b600660003373ffffffffffffffffffffffffffffffffffffffff1673ffffffffffffffffffffffffffffffffffffffff16815260200190815260200160002060008673ffffffffffffffffffffffffffffffffffffffff1673ffffffffffffffffffffffffffffffffffffffff168152602001908152602001600020600082825461103091906151b2565b9250508190555061104a81846149fd90919063ffffffff16565b600360008673ffffffffffffffffffffffffffffffffffffffff1673ffffffffffffffffffffffffffffffffffffffff168152602001908152602001600020600082825461109891906151b2565b9250508190555082600560008673ffffffffffffffffffffffffffffffffffffffff1673ffffffffffffffffffffffffffffffffffffffff16815260200190815260200160002060008282546110ee91906151b2565b925050819055508373ffffffffffffffffffffffffffffffffffffffff166323b872dd3330611171600460008a73ffffffffffffffffffffffffffffffffffffffff1673ffffffffffffffffffffffffffffffffffffffff16815260200190815260200160002054600a61116291906150a5565b886149e790919063ffffffff16565b6040518463ffffffff1660e01b815260040161118f939291906151e6565b6020604051808303816000875af11580156111ae573d6000803e3d6000fd5b505050506040513d601f19601f820116820180604052508101906111d29190615232565b50601560009054906101000a900473ffffffffffffffffffffffffffffffffffffffff1673ffffffffffffffffffffffffffffffffffffffff16639aa4986485611283600460008973ffffffffffffffffffffffffffffffffffffffff1673ffffffffffffffffffffffffffffffffffffffff16815260200190815260200160002054600a61126191906150a5565b6112756004876149e790919063ffffffff16565b6149e790919063ffffffff16565b6040518363ffffffff1660e01b81526004016112a092919061525f565b600060405180830381600087803b1580156112ba57600080fd5b505af11580156112ce573d6000803e3d6000fd5b50505050611356600460008673ffffffffffffffffffffffffffffffffffffffff1673ffffffffffffffffffffffffffffffffffffffff16815260200190815260200160002054600a61132191906150a5565b611348600461133a6003866149d190919063ffffffff16565b6149e790919063ffffffff16565b6149e790919063ffffffff16565b600260008673ffffffffffffffffffffffffffffffffffffffff1673ffffffffffffffffffffffffffffffffffffffff16815260200190815260200160002060008282546113a4919061515c565b9250508190555050505050565b601860009054906101000a900473ffffffffffffffffffffffffffffffffffffffff1681565b6000611417670de0b6b3a76400006114096113f185614a13565b6113fb8787610cb2565b6149d190919063ffffffff16565b6149e790919063ffffffff16565b905092915050565b600d60009054906101000a900473ffffffffffffffffffffffffffffffffffffffff1673ffffffffffffffffffffffffffffffffffffffff163373ffffffffffffffffffffffffffffffffffffffff16146114af576040517f08c379a00000000000000000000000000000000000000000000000000000000081526004016114a690614f23565b60405180910390fd5b600073ffffffffffffffffffffffffffffffffffffffff16601060009054906101000a900473ffffffffffffffffffffffffffffffffffffffff1673ffffffffffffffffffffffffffffffffffffffff1614611540576040517f08c379a0000000000000000000000000000000000000000000000000000000008152600401611537906152d4565b60405180910390fd5b80601060006101000a81548173ffffffffffffffffffffffffffffffffffffffff021916908373ffffffffffffffffffffffffffffffffffffffff16021790555050565b60016020528060005260406000206000915054906101000a900473ffffffffffffffffffffffffffffffffffffffff1681565b670de0b6b3a76400006115c982613301565b10611609576040517f08c379a000000000000000000000000000000000000000000000000000000000815260040161160090615340565b60405180910390fd5b6000600960008373ffffffffffffffffffffffffffffffffffffffff1673ffffffffffffffffffffffffffffffffffffffff168152602001908152602001600020549050611674600a6116666009846149d190919063ffffffff16565b6149e790919063ffffffff16565b600b6000828254611685919061515c565b925050819055506000600960008473ffffffffffffffffffffffffffffffffffffffff1673ffffffffffffffffffffffffffffffffffffffff1681526020019081526020016000208190555080600860008282546116e391906151b2565b92505081905550601060009054906101000a900473ffffffffffffffffffffffffffffffffffffffff1673ffffffffffffffffffffffffffffffffffffffff1663a9059cbb3361175060646117426005876149d190919063ffffffff16565b6149e790919063ffffffff16565b6040518363ffffffff1660e01b815260040161176d92919061525f565b6020604051808303816000875af115801561178c573d6000803e3d6000fd5b505050506040513d601f19601f820116820180604052508101906117b09190615232565b50601560009054906101000a900473ffffffffffffffffffffffffffffffffffffffff1673ffffffffffffffffffffffffffffffffffffffff16639aa49864601060009054906101000a900473ffffffffffffffffffffffffffffffffffffffff16611839606461182b6005876149d190919063ffffffff16565b6149e790919063ffffffff16565b6040518363ffffffff1660e01b815260040161185692919061525f565b600060405180830381600087803b15801561187057600080fd5b505af1158015611884573d6000803e3d6000fd5b505050506000806000600e60009054906101000a900473ffffffffffffffffffffffffffffffffffffffff1673ffffffffffffffffffffffffffffffffffffffff16630842b0766040518163ffffffff1660e01b8152600401602060405180830381865afa1580156118fa573d6000803e3d6000fd5b505050506040513d601f19601f8201168201806040525081019061191e9190615375565b905060005b81811015611a6157600e60009054906101000a900473ffffffffffffffffffffffffffffffffffffffff1673ffffffffffffffffffffffffffffffffffffffff1663e468baf0826040518263ffffffff1660e01b81526004016119869190614c27565b602060405180830381865afa1580156119a3573d6000803e3d6000fd5b505050506040513d601f19601f820116820180604052508101906119c791906153b7565b93506119d386856113d7565b92506000831115611a4e5782600c60008673ffffffffffffffffffffffffffffffffffffffff1673ffffffffffffffffffffffffffffffffffffffff1681526020019081526020016000206000828254611a2d919061515c565b9250508190555082600a6000828254611a46919061515c565b925050819055505b8080611a59906153e4565b915050611923565b5060011515601860009054906101000a900473ffffffffffffffffffffffffffffffffffffffff1673ffffffffffffffffffffffffffffffffffffffff1663b51459fe6040518163ffffffff1660e01b8152600401602060405180830381865afa158015611ad3573d6000803e3d6000fd5b505050506040513d601f19601f82011682018060405250810190611af79190615232565b15151415611d0e5760005b81811015611d0c57600e60009054906101000a900473ffffffffffffffffffffffffffffffffffffffff1673ffffffffffffffffffffffffffffffffffffffff1663e468baf0826040518263ffffffff1660e01b8152600401611b659190614c27565b602060405180830381865afa158015611b82573d6000803e3d6000fd5b505050506040513d601f19601f82011682018060405250810190611ba691906153b7565b93506000600c60008673ffffffffffffffffffffffffffffffffffffffff1673ffffffffffffffffffffffffffffffffffffffff168152602001908152602001600020541115611cf957601860009054906101000a900473ffffffffffffffffffffffffffffffffffffffff1673ffffffffffffffffffffffffffffffffffffffff1663f3fef3a385611c97600a54611c89600c60008b73ffffffffffffffffffffffffffffffffffffffff1673ffffffffffffffffffffffffffffffffffffffff16815260200190815260200160002054600b546149d190919063ffffffff16565b6149e790919063ffffffff16565b6040518363ffffffff1660e01b8152600401611cb492919061525f565b6020604051808303816000875af1158015611cd3573d6000803e3d6000fd5b505050506040513d601f19601f82011682018060405250810190611cf79190615375565b505b8080611d04906153e4565b915050611b02565b505b5050505050565b601260009054906101000a900473ffffffffffffffffffffffffffffffffffffffff1681565b60008060005b600e60009054906101000a900473ffffffffffffffffffffffffffffffffffffffff1673ffffffffffffffffffffffffffffffffffffffff16630842b0766040518163ffffffff1660e01b8152600401602060405180830381865afa158015611dae573d6000803e3d6000fd5b505050506040513d601f19601f82011682018060405250810190611dd29190615375565b811015612021576000600e60009054906101000a900473ffffffffffffffffffffffffffffffffffffffff1673ffffffffffffffffffffffffffffffffffffffff1663e468baf0836040518263ffffffff1660e01b8152600401611e369190614c27565b602060405180830381865afa158015611e53573d6000803e3d6000fd5b505050506040513d601f19601f82011682018060405250810190611e7791906153b7565b9050612000760a70c3c40a64e6c51999090b65f67d9240000000000000611ff2611ea084614a13565b611fe4611eac86614692565b611fd6600160008973ffffffffffffffffffffffffffffffffffffffff1673ffffffffffffffffffffffffffffffffffffffff16815260200190815260200160002060009054906101000a900473ffffffffffffffffffffffffffffffffffffffff1673ffffffffffffffffffffffffffffffffffffffff166370a082318d6040518263ffffffff1660e01b8152600401611f479190614c51565b602060405180830381865afa158015611f64573d6000803e3d6000fd5b505050506040513d601f19601f82011682018060405250810190611f889190615375565b600260008a73ffffffffffffffffffffffffffffffffffffffff1673ffffffffffffffffffffffffffffffffffffffff168152602001908152602001600020546149d190919063ffffffff16565b6149d190919063ffffffff16565b6149d190919063ffffffff16565b6149e790919063ffffffff16565b8361200b919061515c565b9250508080612019906153e4565b915050611d41565b5080915050919050565b600d60009054906101000a900473ffffffffffffffffffffffffffffffffffffffff1673ffffffffffffffffffffffffffffffffffffffff163373ffffffffffffffffffffffffffffffffffffffff16146120bb576040517f08c379a00000000000000000000000000000000000000000000000000000000081526004016120b290614f23565b60405180910390fd5b600073ffffffffffffffffffffffffffffffffffffffff16600160008473ffffffffffffffffffffffffffffffffffffffff1673ffffffffffffffffffffffffffffffffffffffff16815260200190815260200160002060009054906101000a900473ffffffffffffffffffffffffffffffffffffffff1673ffffffffffffffffffffffffffffffffffffffff1614612189576040517f08c379a000000000000000000000000000000000000000000000000000000000815260040161218090614f23565b60405180910390fd5b80600160008473ffffffffffffffffffffffffffffffffffffffff1673ffffffffffffffffffffffffffffffffffffffff16815260200190815260200160002060006101000a81548173ffffffffffffffffffffffffffffffffffffffff021916908373ffffffffffffffffffffffffffffffffffffffff16021790555060016000808473ffffffffffffffffffffffffffffffffffffffff1673ffffffffffffffffffffffffffffffffffffffff16815260200190815260200160002060006101000a81548160ff0219169083151502179055506122e08273ffffffffffffffffffffffffffffffffffffffff1663313ce5676040518163ffffffff1660e01b8152600401602060405180830381865afa1580156122ac573d6000803e3d6000fd5b505050506040513d601f19601f820116820180604052508101906122d09190615375565b60126149fd90919063ffffffff16565b600460008473ffffffffffffffffffffffffffffffffffffffff1673ffffffffffffffffffffffffffffffffffffffff168152602001908152602001600020819055508173ffffffffffffffffffffffffffffffffffffffff1663095ea7b3601760009054906101000a900473ffffffffffffffffffffffffffffffffffffffff167fffffffffffffffffffffffffffffffffffffffffffffffffffffffffffffffff6040518363ffffffff1660e01b81526004016123a092919061525f565b6020604051808303816000875af11580156123bf573d6000803e3d6000fd5b505050506040513d601f19601f820116820180604052508101906123e39190615232565b508173ffffffffffffffffffffffffffffffffffffffff1663095ea7b3601560009054906101000a900473ffffffffffffffffffffffffffffffffffffffff167fffffffffffffffffffffffffffffffffffffffffffffffffffffffffffffffff6040518363ffffffff1660e01b815260040161246192919061525f565b6020604051808303816000875af1158015612480573d6000803e3d6000fd5b505050506040513d601f19601f820116820180604052508101906124a49190615232565b505050565b60085481565b61250d600460008473ffffffffffffffffffffffffffffffffffffffff1673ffffffffffffffffffffffffffffffffffffffff16815260200190815260200160002054600a6124fe91906150a5565b826149d190919063ffffffff16565b6125173384613d2b565b1015612558576040517f08c379a000000000000000000000000000000000000000000000000000000000815260040161254f90615479565b60405180910390fd5b612561826134a7565b600560008473ffffffffffffffffffffffffffffffffffffffff1673ffffffffffffffffffffffffffffffffffffffff16815260200190815260200160002060008282546125af919061515c565b9250508190555042600760008473ffffffffffffffffffffffffffffffffffffffff1673ffffffffffffffffffffffffffffffffffffffff1681526020019081526020016000208190555061268c61260683613ac4565b61267e61266f600460008773ffffffffffffffffffffffffffffffffffffffff1673ffffffffffffffffffffffffffffffffffffffff16815260200190815260200160002054600a61265891906150a5565b670de0b6b3a76400006149d190919063ffffffff16565b846149d190919063ffffffff16565b6149e790919063ffffffff16565b600660003373ffffffffffffffffffffffffffffffffffffffff1673ffffffffffffffffffffffffffffffffffffffff16815260200190815260200160002060008473ffffffffffffffffffffffffffffffffffffffff1673ffffffffffffffffffffffffffffffffffffffff1681526020019081526020016000206000828254612717919061515c565b9250508190555061277c600460008473ffffffffffffffffffffffffffffffffffffffff1673ffffffffffffffffffffffffffffffffffffffff16815260200190815260200160002054600a61276d91906150a5565b826149d190919063ffffffff16565b600360008473ffffffffffffffffffffffffffffffffffffffff1673ffffffffffffffffffffffffffffffffffffffff16815260200190815260200160002060008282546127ca919061515c565b9250508190555061282f600460008473ffffffffffffffffffffffffffffffffffffffff1673ffffffffffffffffffffffffffffffffffffffff16815260200190815260200160002054600a61282091906150a5565b826149d190919063ffffffff16565b600560008473ffffffffffffffffffffffffffffffffffffffff1673ffffffffffffffffffffffffffffffffffffffff168152602001908152602001600020600082825461287d919061515c565b925050819055508173ffffffffffffffffffffffffffffffffffffffff1663a9059cbb33836040518363ffffffff1660e01b81526004016128bf92919061525f565b6020604051808303816000875af11580156128de573d6000803e3d6000fd5b505050506040513d601f19601f820116820180604052508101906129029190615232565b505050565b600d60009054906101000a900473ffffffffffffffffffffffffffffffffffffffff1681565b601760009054906101000a900473ffffffffffffffffffffffffffffffffffffffff1681565b601060009054906101000a900473ffffffffffffffffffffffffffffffffffffffff1681565b806008600082825461298b91906151b2565b9250508190555080600960003373ffffffffffffffffffffffffffffffffffffffff1673ffffffffffffffffffffffffffffffffffffffff16815260200190815260200160002060008282546129e191906151b2565b92505081905550670de0b6b3a76400006129fa33613301565b1015612a3b576040517f08c379a0000000000000000000000000000000000000000000000000000000008152600401612a329061550b565b60405180910390fd5b50565b60008060005b600e60009054906101000a900473ffffffffffffffffffffffffffffffffffffffff1673ffffffffffffffffffffffffffffffffffffffff16630842b0766040518163ffffffff1660e01b8152600401602060405180830381865afa158015612ab1573d6000803e3d6000fd5b505050506040513d601f19601f82011682018060405250810190612ad59190615375565b811015612c7057612c50670de0b6b3a7640000612c42612b8f600e60009054906101000a900473ffffffffffffffffffffffffffffffffffffffff1673ffffffffffffffffffffffffffffffffffffffff1663e468baf0866040518263ffffffff1660e01b8152600401612b499190614c27565b602060405180830381865afa158015612b66573d6000803e3d6000fd5b505050506040513d601f19601f82011682018060405250810190612b8a91906153b7565b614a13565b612c3488600e60009054906101000a900473ffffffffffffffffffffffffffffffffffffffff1673ffffffffffffffffffffffffffffffffffffffff1663e468baf0886040518263ffffffff1660e01b8152600401612bee9190614c27565b602060405180830381865afa158015612c0b573d6000803e3d6000fd5b505050506040513d601f19601f82011682018060405250810190612c2f91906153b7565b610cb2565b6149d190919063ffffffff16565b6149e790919063ffffffff16565b82612c5b919061515c565b91508080612c68906153e4565b915050612a44565b5080915050919050565b600b5481565b60135481565b6006602052816000526040600020602052806000526040600020600091509150505481565b601660009054906101000a900473ffffffffffffffffffffffffffffffffffffffff1681565b60056020528060005260406000206000915090505481565b60026020528060005260406000206000915090505481565b6000600360008373ffffffffffffffffffffffffffffffffffffffff1673ffffffffffffffffffffffffffffffffffffffff168152602001908152602001600020549050919050565b600d60009054906101000a900473ffffffffffffffffffffffffffffffffffffffff1673ffffffffffffffffffffffffffffffffffffffff163373ffffffffffffffffffffffffffffffffffffffff1614612da457600080fd5b600073ffffffffffffffffffffffffffffffffffffffff16601860009054906101000a900473ffffffffffffffffffffffffffffffffffffffff1673ffffffffffffffffffffffffffffffffffffffff1614612dff57600080fd5b80601860006101000a81548173ffffffffffffffffffffffffffffffffffffffff021916908373ffffffffffffffffffffffffffffffffffffffff16021790555050565b612eb381612eae600460008573ffffffffffffffffffffffffffffffffffffffff1673ffffffffffffffffffffffffffffffffffffffff16815260200190815260200160002054600a612e9691906150a5565b612ea03386610cb2565b6149e790919063ffffffff16565b610d93565b50565b6000612f2c600260008473ffffffffffffffffffffffffffffffffffffffff1673ffffffffffffffffffffffffffffffffffffffff16815260200190815260200160002054612f1e670de0b6b3a7640000612f1086612d01565b6149d190919063ffffffff16565b6149e790919063ffffffff16565b9050919050565b600d60009054906101000a900473ffffffffffffffffffffffffffffffffffffffff1673ffffffffffffffffffffffffffffffffffffffff163373ffffffffffffffffffffffffffffffffffffffff1614612f8d57600080fd5b601060009054906101000a900473ffffffffffffffffffffffffffffffffffffffff1673ffffffffffffffffffffffffffffffffffffffff168173ffffffffffffffffffffffffffffffffffffffff161415612fe857600080fd5b600061310661307e600360008573ffffffffffffffffffffffffffffffffffffffff1673ffffffffffffffffffffffffffffffffffffffff16815260200190815260200160002054600260008673ffffffffffffffffffffffffffffffffffffffff1673ffffffffffffffffffffffffffffffffffffffff168152602001908152602001600020546149fd90919063ffffffff16565b8373ffffffffffffffffffffffffffffffffffffffff166370a08231306040518263ffffffff1660e01b81526004016130b79190614c51565b602060405180830381865afa1580156130d4573d6000803e3d6000fd5b505050506040513d601f19601f820116820180604052508101906130f89190615375565b6149fd90919063ffffffff16565b90506000811161314b576040517f08c379a000000000000000000000000000000000000000000000000000000000815260040161314290615577565b60405180910390fd5b8173ffffffffffffffffffffffffffffffffffffffff1663a9059cbb600d60009054906101000a900473ffffffffffffffffffffffffffffffffffffffff16836040518363ffffffff1660e01b81526004016131a892919061525f565b6020604051808303816000875af11580156131c7573d6000803e3d6000fd5b505050506040513d601f19601f820116820180604052508101906131eb9190615232565b505050565b600d60009054906101000a900473ffffffffffffffffffffffffffffffffffffffff1673ffffffffffffffffffffffffffffffffffffffff163373ffffffffffffffffffffffffffffffffffffffff1614613280576040517f08c379a000000000000000000000000000000000000000000000000000000000815260040161327790614f23565b60405180910390fd5b605a8111158015613292575060328110155b6132d1576040517f08c379a00000000000000000000000000000000000000000000000000000000081526004016132c8906155e3565b60405180910390fd5b8060138190555050565b601460009054906101000a900473ffffffffffffffffffffffffffffffffffffffff1681565b60008061330d83612a3e565b14156133245768056bc75e2d6310000090506133c2565b68056bc75e2d6310000061336b61333a84612a3e565b61335d670de0b6b3a764000061334f876133c7565b6149d190919063ffffffff16565b6149e790919063ffffffff16565b11156133825768056bc75e2d6310000090506133c2565b6133bf61338e83612a3e565b6133b1670de0b6b3a76400006133a3866133c7565b6149d190919063ffffffff16565b6149e790919063ffffffff16565b90505b919050565b60008061348460646134766ec097ce7bc90715b34b9f100000000061346860135461345a6133f3614532565b61344c6133fe613fcf565b600960008e73ffffffffffffffffffffffffffffffffffffffff1673ffffffffffffffffffffffffffffffffffffffff168152602001908152602001600020546149d190919063ffffffff16565b6149d190919063ffffffff16565b6149d190919063ffffffff16565b6149e790919063ffffffff16565b6149e790919063ffffffff16565b905080915050919050565b60036020528060005260406000206000915090505481565b6000806134fc600760008573ffffffffffffffffffffffffffffffffffffffff1673ffffffffffffffffffffffffffffffffffffffff16815260200190815260200160002054426149fd90919063ffffffff16565b905060006135686301e1338061355a84600560008973ffffffffffffffffffffffffffffffffffffffff1673ffffffffffffffffffffffffffffffffffffffff168152602001908152602001600020546149d190919063ffffffff16565b6149e790919063ffffffff16565b90508092505050919050565b600061357f826133c7565b61358883612a3e565b111561359757600090506135bd565b6135ba6135a383612a3e565b6135ac846133c7565b6149fd90919063ffffffff16565b90505b919050565b601460009054906101000a900473ffffffffffffffffffffffffffffffffffffffff1673ffffffffffffffffffffffffffffffffffffffff1663ef5cfb8c336040518263ffffffff1660e01b815260040161361d9190614c51565b600060405180830381600087803b15801561363757600080fd5b505af115801561364b573d6000803e3d6000fd5b5050505060008190506136b2600460008573ffffffffffffffffffffffffffffffffffffffff1673ffffffffffffffffffffffffffffffffffffffff16815260200190815260200160002054600a6136a391906150a5565b836149d190919063ffffffff16565b9150600115156000808573ffffffffffffffffffffffffffffffffffffffff1673ffffffffffffffffffffffffffffffffffffffff16815260200190815260200160002060009054906101000a900460ff16151514613746576040517f08c379a000000000000000000000000000000000000000000000000000000000815260040161373d9061564f565b60405180910390fd5b600061377d61375485614692565b61376f670de0b6b3a7640000866149d190919063ffffffff16565b6149e790919063ffffffff16565b9050613788846134a7565b600560008673ffffffffffffffffffffffffffffffffffffffff1673ffffffffffffffffffffffffffffffffffffffff16815260200190815260200160002060008282546137d6919061515c565b9250508190555042600760008673ffffffffffffffffffffffffffffffffffffffff1673ffffffffffffffffffffffffffffffffffffffff168152602001908152602001600020819055508373ffffffffffffffffffffffffffffffffffffffff166323b872dd3330856040518463ffffffff1660e01b815260040161385e939291906151e6565b6020604051808303816000875af115801561387d573d6000803e3d6000fd5b505050506040513d601f19601f820116820180604052508101906138a19190615232565b50600160008573ffffffffffffffffffffffffffffffffffffffff1673ffffffffffffffffffffffffffffffffffffffff16815260200190815260200160002060009054906101000a900473ffffffffffffffffffffffffffffffffffffffff1673ffffffffffffffffffffffffffffffffffffffff166340c10f1933836040518363ffffffff1660e01b815260040161393c92919061525f565b600060405180830381600087803b15801561395657600080fd5b505af115801561396a573d6000803e3d6000fd5b5050505082600260008673ffffffffffffffffffffffffffffffffffffffff1673ffffffffffffffffffffffffffffffffffffffff16815260200190815260200160002060008282546139bd919061515c565b9250508190555050505050565b600d60009054906101000a900473ffffffffffffffffffffffffffffffffffffffff1673ffffffffffffffffffffffffffffffffffffffff163373ffffffffffffffffffffffffffffffffffffffff1614613a5a576040517f08c379a0000000000000000000000000000000000000000000000000000000008152600401613a5190614f23565b60405180910390fd5b80600d60006101000a81548173ffffffffffffffffffffffffffffffffffffffff021916908373ffffffffffffffffffffffffffffffffffffffff16021790555050565b601160009054906101000a900473ffffffffffffffffffffffffffffffffffffffff1681565b600080613ad083612d01565b1415613ae657670de0b6b3a76400009050613b77565b613b74613af283612d01565b613b66670de0b6b3a7640000613b58613b0a876134a7565b600560008973ffffffffffffffffffffffffffffffffffffffff1673ffffffffffffffffffffffffffffffffffffffff16815260200190815260200160002054614add90919063ffffffff16565b6149d190919063ffffffff16565b6149e790919063ffffffff16565b90505b919050565b601060009054906101000a900473ffffffffffffffffffffffffffffffffffffffff1673ffffffffffffffffffffffffffffffffffffffff166323b872dd3330846040518463ffffffff1660e01b8152600401613bdb939291906151e6565b6020604051808303816000875af1158015613bfa573d6000803e3d6000fd5b505050506040513d601f19601f82011682018060405250810190613c1e9190615232565b5080600960003373ffffffffffffffffffffffffffffffffffffffff1673ffffffffffffffffffffffffffffffffffffffff1681526020019081526020016000206000828254613c6e919061515c565b9250508190555050565b6000613c8333612a3e565b14613cc3576040517f08c379a0000000000000000000000000000000000000000000000000000000008152600401613cba906156bb565b60405180910390fd5b6000600960003373ffffffffffffffffffffffffffffffffffffffff1673ffffffffffffffffffffffffffffffffffffffff168152602001908152602001600020549050613d1081612979565b50565b600c6020528060005260406000206000915090505481565b6000613d36836133c7565b613d3f84612a3e565b1115613d4e5760009050613da8565b613da5613d5a83614a13565b613d97670de0b6b3a7640000613d89613d7288612a3e565b613d7b896133c7565b6149fd90919063ffffffff16565b6149d190919063ffffffff16565b6149e790919063ffffffff16565b90505b92915050565b60006020528060005260406000206000915054906101000a900460ff1681565b60008060005b600e60009054906101000a900473ffffffffffffffffffffffffffffffffffffffff1673ffffffffffffffffffffffffffffffffffffffff16630842b0766040518163ffffffff1660e01b8152600401602060405180830381865afa158015613e41573d6000803e3d6000fd5b505050506040513d601f19601f82011682018060405250810190613e659190615375565b811015613fa1576000600e60009054906101000a900473ffffffffffffffffffffffffffffffffffffffff1673ffffffffffffffffffffffffffffffffffffffff1663e468baf0836040518263ffffffff1660e01b8152600401613ec99190614c27565b602060405180830381865afa158015613ee6573d6000803e3d6000fd5b505050506040513d601f19601f82011682018060405250810190613f0a91906153b7565b9050613f80670de0b6b3a7640000613f72613f2484614a13565b600260008673ffffffffffffffffffffffffffffffffffffffff1673ffffffffffffffffffffffffffffffffffffffff168152602001908152602001600020546149d190919063ffffffff16565b6149e790919063ffffffff16565b83613f8b919061515c565b9250508080613f99906153e4565b915050613dd4565b508091505090565b600f60009054906101000a900473ffffffffffffffffffffffffffffffffffffffff1681565b6000601860009054906101000a900473ffffffffffffffffffffffffffffffffffffffff1673ffffffffffffffffffffffffffffffffffffffff1663437c32896040518163ffffffff1660e01b8152600401602060405180830381865afa15801561403e573d6000803e3d6000fd5b505050506040513d601f19601f820116820180604052508101906140629190615375565b905090565b60046020528060005260406000206000915090505481565b60076020528060005260406000206000915090505481565b601460009054906101000a900473ffffffffffffffffffffffffffffffffffffffff1673ffffffffffffffffffffffffffffffffffffffff1663ef5cfb8c336040518263ffffffff1660e01b81526004016140f29190614c51565b600060405180830381600087803b15801561410c57600080fd5b505af1158015614120573d6000803e3d6000fd5b50505050600061415b670de0b6b3a764000061414d61413e86614692565b856149d190919063ffffffff16565b6149e790919063ffffffff16565b9050614234600460008573ffffffffffffffffffffffffffffffffffffffff1673ffffffffffffffffffffffffffffffffffffffff16815260200190815260200160002054600a6141ac91906150a5565b8473ffffffffffffffffffffffffffffffffffffffff166370a08231306040518263ffffffff1660e01b81526004016141e59190614c51565b602060405180830381865afa158015614202573d6000803e3d6000fd5b505050506040513d601f19601f820116820180604052508101906142269190615375565b6149d190919063ffffffff16565b8111614275576040517f08c379a000000000000000000000000000000000000000000000000000000000815260040161426c9061574d565b60405180910390fd5b600160008473ffffffffffffffffffffffffffffffffffffffff1673ffffffffffffffffffffffffffffffffffffffff16815260200190815260200160002060009054906101000a900473ffffffffffffffffffffffffffffffffffffffff1673ffffffffffffffffffffffffffffffffffffffff16639dc29fac33846040518363ffffffff1660e01b815260040161430f92919061525f565b600060405180830381600087803b15801561432957600080fd5b505af115801561433d573d6000803e3d6000fd5b5050505080600260008573ffffffffffffffffffffffffffffffffffffffff1673ffffffffffffffffffffffffffffffffffffffff168152602001908152602001600020600082825461439091906151b2565b925050819055506143a0836134a7565b600560008573ffffffffffffffffffffffffffffffffffffffff1673ffffffffffffffffffffffffffffffffffffffff16815260200190815260200160002060008282546143ee919061515c565b9250508190555042600760008573ffffffffffffffffffffffffffffffffffffffff1673ffffffffffffffffffffffffffffffffffffffff168152602001908152602001600020819055508273ffffffffffffffffffffffffffffffffffffffff1663a9059cbb336144b4600460008873ffffffffffffffffffffffffffffffffffffffff1673ffffffffffffffffffffffffffffffffffffffff16815260200190815260200160002054600a6144a591906150a5565b856149e790919063ffffffff16565b6040518363ffffffff1660e01b81526004016144d192919061525f565b6020604051808303816000875af11580156144f0573d6000803e3d6000fd5b505050506040513d601f19601f820116820180604052508101906145149190615232565b50505050565b60096020528060005260406000206000915090505481565b600061468d601160009054906101000a900473ffffffffffffffffffffffffffffffffffffffff1673ffffffffffffffffffffffffffffffffffffffff166318160ddd6040518163ffffffff1660e01b8152600401602060405180830381865afa1580156145a4573d6000803e3d6000fd5b505050506040513d601f19601f820116820180604052508101906145c89190615375565b61467f670de0b6b3a7640000601760009054906101000a900473ffffffffffffffffffffffffffffffffffffffff1673ffffffffffffffffffffffffffffffffffffffff166368a0a3e060016040518263ffffffff1660e01b81526004016146309190614e33565b602060405180830381865afa15801561464d573d6000803e3d6000fd5b505050506040513d601f19601f820116820180604052508101906146719190615375565b6149d190919063ffffffff16565b6149e790919063ffffffff16565b905090565b600080600160008473ffffffffffffffffffffffffffffffffffffffff1673ffffffffffffffffffffffffffffffffffffffff16815260200190815260200160002060009054906101000a900473ffffffffffffffffffffffffffffffffffffffff1673ffffffffffffffffffffffffffffffffffffffff166318160ddd6040518163ffffffff1660e01b8152600401602060405180830381865afa15801561473f573d6000803e3d6000fd5b505050506040513d601f19601f820116820180604052508101906147639190615375565b141561477957670de0b6b3a764000090506148b5565b6148b2600160008473ffffffffffffffffffffffffffffffffffffffff1673ffffffffffffffffffffffffffffffffffffffff16815260200190815260200160002060009054906101000a900473ffffffffffffffffffffffffffffffffffffffff1673ffffffffffffffffffffffffffffffffffffffff166318160ddd6040518163ffffffff1660e01b8152600401602060405180830381865afa158015614826573d6000803e3d6000fd5b505050506040513d601f19601f8201168201806040525081019061484a9190615375565b6148a4670de0b6b3a7640000600260008773ffffffffffffffffffffffffffffffffffffffff1673ffffffffffffffffffffffffffffffffffffffff168152602001908152602001600020546149d190919063ffffffff16565b6149e790919063ffffffff16565b90505b919050565b6000600160008373ffffffffffffffffffffffffffffffffffffffff1673ffffffffffffffffffffffffffffffffffffffff16815260200190815260200160002060009054906101000a900473ffffffffffffffffffffffffffffffffffffffff1673ffffffffffffffffffffffffffffffffffffffff166370a08231336040518263ffffffff1660e01b81526004016149549190614c51565b602060405180830381865afa158015614971573d6000803e3d6000fd5b505050506040513d601f19601f820116820180604052508101906149959190615375565b90506149a18282614097565b5050565b600e60009054906101000a900473ffffffffffffffffffffffffffffffffffffffff1681565b600a5481565b600081836149df919061576d565b905092915050565b600081836149f591906157f6565b905092915050565b60008183614a0b91906151b2565b905092915050565b600080601660009054906101000a900473ffffffffffffffffffffffffffffffffffffffff1673ffffffffffffffffffffffffffffffffffffffff16632fc3a70a846000600160006040518563ffffffff1660e01b8152600401614a7a9493929190615827565b602060405180830381865afa158015614a97573d6000803e3d6000fd5b505050506040513d601f19601f82011682018060405250810190614abb9190615375565b9050614ad564e8d4a51000826149e790919063ffffffff16565b915050919050565b60008183614aeb919061515c565b905092915050565b600080fd5b600073ffffffffffffffffffffffffffffffffffffffff82169050919050565b6000614b2382614af8565b9050919050565b614b3381614b18565b8114614b3e57600080fd5b50565b600081359050614b5081614b2a565b92915050565b60008115159050919050565b614b6b81614b56565b8114614b7657600080fd5b50565b600081359050614b8881614b62565b92915050565b60008060408385031215614ba557614ba4614af3565b5b6000614bb385828601614b41565b9250506020614bc485828601614b79565b9150509250929050565b60008060408385031215614be557614be4614af3565b5b6000614bf385828601614b41565b9250506020614c0485828601614b41565b9150509250929050565b6000819050919050565b614c2181614c0e565b82525050565b6000602082019050614c3c6000830184614c18565b92915050565b614c4b81614b18565b82525050565b6000602082019050614c666000830184614c42565b92915050565b614c7581614c0e565b8114614c8057600080fd5b50565b600081359050614c9281614c6c565b92915050565b60008060408385031215614caf57614cae614af3565b5b6000614cbd85828601614b41565b9250506020614cce85828601614c83565b9150509250929050565b6000819050919050565b6000614cfd614cf8614cf384614af8565b614cd8565b614af8565b9050919050565b6000614d0f82614ce2565b9050919050565b6000614d2182614d04565b9050919050565b614d3181614d16565b82525050565b6000602082019050614d4c6000830184614d28565b92915050565b600060208284031215614d6857614d67614af3565b5b6000614d7684828501614b41565b91505092915050565b6000614d8a82614d04565b9050919050565b614d9a81614d7f565b82525050565b6000602082019050614db56000830184614d91565b92915050565b600060208284031215614dd157614dd0614af3565b5b6000614ddf84828501614c83565b91505092915050565b6000614df382614d04565b9050919050565b614e0381614de8565b82525050565b6000602082019050614e1e6000830184614dfa565b92915050565b614e2d81614b56565b82525050565b6000602082019050614e486000830184614e24565b92915050565b6000614e5982614d04565b9050919050565b614e6981614e4e565b82525050565b6000602082019050614e846000830184614e60565b92915050565b6000614e9582614d04565b9050919050565b614ea581614e8a565b82525050565b6000602082019050614ec06000830184614e9c565b92915050565b600082825260208201905092915050565b7f21476f7665726e616e6365000000000000000000000000000000000000000000600082015250565b6000614f0d600b83614ec6565b9150614f1882614ed7565b602082019050919050565b60006020820190508181036000830152614f3c81614f00565b9050919050565b7f4e487b7100000000000000000000000000000000000000000000000000000000600052601160045260246000fd5b60008160011c9050919050565b6000808291508390505b6001851115614fc957808604811115614fa557614fa4614f43565b5b6001851615614fb45780820291505b8081029050614fc285614f72565b9450614f89565b94509492505050565b600082614fe2576001905061509e565b81614ff0576000905061509e565b816001811461500657600281146150105761503f565b600191505061509e565b60ff84111561502257615021614f43565b5b8360020a91508482111561503957615038614f43565b5b5061509e565b5060208310610133831016604e8410600b84101617156150745782820a90508381111561506f5761506e614f43565b5b61509e565b6150818484846001614f7f565b9250905081840481111561509857615097614f43565b5b81810290505b9392505050565b60006150b082614c0e565b91506150bb83614c0e565b92506150e87fffffffffffffffffffffffffffffffffffffffffffffffffffffffffffffffff8484614fd2565b905092915050565b7f5265706179696e6720746f6f206d756368000000000000000000000000000000600082015250565b6000615126601183614ec6565b9150615131826150f0565b602082019050919050565b6000602082019050818103600083015261515581615119565b9050919050565b600061516782614c0e565b915061517283614c0e565b9250827fffffffffffffffffffffffffffffffffffffffffffffffffffffffffffffffff038211156151a7576151a6614f43565b5b828201905092915050565b60006151bd82614c0e565b91506151c883614c0e565b9250828210156151db576151da614f43565b5b828203905092915050565b60006060820190506151fb6000830186614c42565b6152086020830185614c42565b6152156040830184614c18565b949350505050565b60008151905061522c81614b62565b92915050565b60006020828403121561524857615247614af3565b5b60006152568482850161521d565b91505092915050565b60006040820190506152746000830185614c42565b6152816020830184614c18565b9392505050565b7f57474c5020616c72656164792073657421000000000000000000000000000000600082015250565b60006152be601183614ec6565b91506152c982615288565b602082019050919050565b600060208201905081810360008301526152ed816152b1565b9050919050565b7f4163636f756e74206865616c7468790000000000000000000000000000000000600082015250565b600061532a600f83614ec6565b9150615335826152f4565b602082019050919050565b600060208201905081810360008301526153598161531d565b9050919050565b60008151905061536f81614c6c565b92915050565b60006020828403121561538b5761538a614af3565b5b600061539984828501615360565b91505092915050565b6000815190506153b181614b2a565b92915050565b6000602082840312156153cd576153cc614af3565b5b60006153db848285016153a2565b91505092915050565b60006153ef82614c0e565b91507fffffffffffffffffffffffffffffffffffffffffffffffffffffffffffffffff82141561542257615421614f43565b5b600182019050919050565b7f4e6f7420656e6f75676820626f72726f77696e6720706f776572000000000000600082015250565b6000615463601a83614ec6565b915061546e8261542d565b602082019050919050565b6000602082019050818103600083015261549281615456565b9050919050565b7f4163636f756e74206e6f74206865616c7468792061667465722077697468647260008201527f6177000000000000000000000000000000000000000000000000000000000000602082015250565b60006154f5602283614ec6565b915061550082615499565b604082019050919050565b60006020820190508181036000830152615524816154e8565b9050919050565b7f4e6f7468696e6720746f20726573637565000000000000000000000000000000600082015250565b6000615561601183614ec6565b915061556c8261552b565b602082019050919050565b6000602082019050818103600083015261559081615554565b9050919050565b7f496e76616c6964204c5456000000000000000000000000000000000000000000600082015250565b60006155cd600b83614ec6565b91506155d882615597565b602082019050919050565b600060208201905081810360008301526155fc816155c0565b9050919050565b7f546f6b656e206e6f7420616c6c6f776564000000000000000000000000000000600082015250565b6000615639601183614ec6565b915061564482615603565b602082019050919050565b600060208201905081810360008301526156688161562c565b9050919050565b7f4163636f756e7420686173206465627400000000000000000000000000000000600082015250565b60006156a5601083614ec6565b91506156b08261566f565b602082019050919050565b600060208201905081810360008301526156d481615698565b9050919050565b7f546f6f206d75636820626f72726f7765642066726f6d206c697175696469747960008201527f20746f2077697468647261770000000000000000000000000000000000000000602082015250565b6000615737602c83614ec6565b9150615742826156db565b604082019050919050565b600060208201905081810360008301526157668161572a565b9050919050565b600061577882614c0e565b915061578383614c0e565b9250817fffffffffffffffffffffffffffffffffffffffffffffffffffffffffffffffff04831182151516156157bc576157bb614f43565b5b828202905092915050565b7f4e487b7100000000000000000000000000000000000000000000000000000000600052601260045260246000fd5b600061580182614c0e565b915061580c83614c0e565b92508261581c5761581b6157c7565b5b828204905092915050565b600060808201905061583c6000830187614c42565b6158496020830186614e24565b6158566040830185614e24565b6158636060830184614e24565b9594505050505056fea2646970667358221220057379b8537f82e2bdbb8d591bbf237e17b5f6859b7879f21c35e6444be2334c64736f6c634300080a0033",
  "linkReferences": {},
  "deployedLinkReferences": {}
}