{
  "_format": "hh-sol-artifact-1",
  "contractName": "Protocol",
  "sourceName": "contracts/Protocol.sol",
  "abi": [
    {
      "inputs": [
        {
          "internalType": "address",
          "name": "_vault",
          "type": "address"
        },
        {
          "internalType": "address",
          "name": "_rewardsRouter",
          "type": "address"
        },
        {
          "internalType": "address",
          "name": "_GLP",
          "type": "address"
        },
        {
          "internalType": "address",
          "name": "_weth",
          "type": "address"
        },
        {
          "internalType": "address",
          "name": "_lnxReward",
          "type": "address"
        },
        {
          "internalType": "address",
          "name": "_stakeReward",
          "type": "address"
        }
      ],
      "stateMutability": "nonpayable",
      "type": "constructor"
    },
    {
      "inputs": [],
      "name": "GLP",
      "outputs": [
        {
          "internalType": "contract IERC20",
          "name": "",
          "type": "address"
        }
      ],
      "stateMutability": "view",
      "type": "function"
    },
    {
      "inputs": [],
      "name": "GLPShare",
      "outputs": [
        {
          "internalType": "contract IERC20",
          "name": "",
          "type": "address"
        }
      ],
      "stateMutability": "view",
      "type": "function"
    },
    {
      "inputs": [
        {
          "internalType": "address",
          "name": "account",
          "type": "address"
        }
      ],
      "name": "accountBorrowedValue",
      "outputs": [
        {
          "internalType": "uint256",
          "name": "",
          "type": "uint256"
        }
      ],
      "stateMutability": "view",
      "type": "function"
    },
    {
      "inputs": [
        {
          "internalType": "address",
          "name": "account",
          "type": "address"
        }
      ],
      "name": "accountCollateralValue",
      "outputs": [
        {
          "internalType": "uint256",
          "name": "",
          "type": "uint256"
        }
      ],
      "stateMutability": "view",
      "type": "function"
    },
    {
      "inputs": [
        {
          "internalType": "address",
          "name": "account",
          "type": "address"
        }
      ],
      "name": "accountHealth",
      "outputs": [
        {
          "internalType": "uint256",
          "name": "",
          "type": "uint256"
        }
      ],
      "stateMutability": "view",
      "type": "function"
    },
    {
      "inputs": [
        {
          "internalType": "address",
          "name": "account",
          "type": "address"
        }
      ],
      "name": "accountLentValue",
      "outputs": [
        {
          "internalType": "uint256",
          "name": "",
          "type": "uint256"
        }
      ],
      "stateMutability": "view",
      "type": "function"
    },
    {
      "inputs": [
        {
          "internalType": "address",
          "name": "token",
          "type": "address"
        },
        {
          "internalType": "uint256",
          "name": "tokenAmount",
          "type": "uint256"
        }
      ],
      "name": "borrow",
      "outputs": [],
      "stateMutability": "nonpayable",
      "type": "function"
    },
    {
      "inputs": [
        {
          "internalType": "address",
          "name": "",
          "type": "address"
        }
      ],
      "name": "borrowShare",
      "outputs": [
        {
          "internalType": "address",
          "name": "",
          "type": "address"
        }
      ],
      "stateMutability": "view",
      "type": "function"
    },
    {
      "inputs": [
        {
          "internalType": "address",
          "name": "",
          "type": "address"
        }
      ],
      "name": "borrowToken",
      "outputs": [
        {
          "internalType": "bool",
          "name": "",
          "type": "bool"
        }
      ],
      "stateMutability": "view",
      "type": "function"
    },
    {
      "inputs": [
        {
          "internalType": "address",
          "name": "",
          "type": "address"
        }
      ],
      "name": "borrowTokenBalance",
      "outputs": [
        {
          "internalType": "uint256",
          "name": "",
          "type": "uint256"
        }
      ],
      "stateMutability": "view",
      "type": "function"
    },
    {
      "inputs": [
        {
          "internalType": "address",
          "name": "",
          "type": "address"
        },
        {
          "internalType": "address",
          "name": "",
          "type": "address"
        }
      ],
      "name": "borrowedAmount",
      "outputs": [
        {
          "internalType": "uint256",
          "name": "",
          "type": "uint256"
        }
      ],
      "stateMutability": "view",
      "type": "function"
    },
    {
      "inputs": [
        {
          "internalType": "address",
          "name": "account",
          "type": "address"
        },
        {
          "internalType": "address",
          "name": "token",
          "type": "address"
        }
      ],
      "name": "borrowingPower",
      "outputs": [
        {
          "internalType": "uint256",
          "name": "",
          "type": "uint256"
        }
      ],
      "stateMutability": "view",
      "type": "function"
    },
    {
      "inputs": [
        {
          "internalType": "address",
          "name": "account",
          "type": "address"
        }
      ],
      "name": "borrowingPowerUSD",
      "outputs": [
        {
          "internalType": "uint256",
          "name": "",
          "type": "uint256"
        }
      ],
      "stateMutability": "view",
      "type": "function"
    },
    {
      "inputs": [
        {
          "internalType": "address",
          "name": "token",
          "type": "address"
        }
      ],
      "name": "debtValue",
      "outputs": [
        {
          "internalType": "uint256",
          "name": "",
          "type": "uint256"
        }
      ],
      "stateMutability": "view",
      "type": "function"
    },
    {
      "inputs": [
        {
          "internalType": "address",
          "name": "",
          "type": "address"
        }
      ],
      "name": "decimalMultiplier",
      "outputs": [
        {
          "internalType": "uint256",
          "name": "",
          "type": "uint256"
        }
      ],
      "stateMutability": "view",
      "type": "function"
    },
    {
      "inputs": [
        {
          "internalType": "address",
          "name": "token",
          "type": "address"
        },
        {
          "internalType": "uint256",
          "name": "amount",
          "type": "uint256"
        }
      ],
      "name": "depositCollateral",
      "outputs": [],
      "stateMutability": "nonpayable",
      "type": "function"
    },
    {
      "inputs": [],
      "name": "getCollateralPrice",
      "outputs": [
        {
          "internalType": "uint256",
          "name": "",
          "type": "uint256"
        }
      ],
      "stateMutability": "view",
      "type": "function"
    },
    {
      "inputs": [],
      "name": "getCollateralShareValue",
      "outputs": [
        {
          "internalType": "uint256",
          "name": "",
          "type": "uint256"
        }
      ],
      "stateMutability": "view",
      "type": "function"
    },
    {
      "inputs": [
        {
          "internalType": "address",
          "name": "token",
          "type": "address"
        }
      ],
      "name": "getShareValue",
      "outputs": [
        {
          "internalType": "uint256",
          "name": "",
          "type": "uint256"
        }
      ],
      "stateMutability": "view",
      "type": "function"
    },
    {
      "inputs": [
        {
          "internalType": "address",
          "name": "token",
          "type": "address"
        }
      ],
      "name": "getTokenAccruedInterest",
      "outputs": [
        {
          "internalType": "uint256",
          "name": "",
          "type": "uint256"
        }
      ],
      "stateMutability": "view",
      "type": "function"
    },
    {
      "inputs": [],
      "name": "governance",
      "outputs": [
        {
          "internalType": "address",
          "name": "",
          "type": "address"
        }
      ],
      "stateMutability": "view",
      "type": "function"
    },
    {
      "inputs": [
        {
          "internalType": "address",
          "name": "",
          "type": "address"
        }
      ],
      "name": "interestCheckpoint",
      "outputs": [
        {
          "internalType": "uint256",
          "name": "",
          "type": "uint256"
        }
      ],
      "stateMutability": "view",
      "type": "function"
    },
    {
      "inputs": [
        {
          "internalType": "address",
          "name": "token",
          "type": "address"
        }
      ],
      "name": "interestRate",
      "outputs": [
        {
          "internalType": "uint256",
          "name": "",
          "type": "uint256"
        }
      ],
      "stateMutability": "view",
      "type": "function"
    },
    {
      "inputs": [
        {
          "internalType": "address",
          "name": "token",
          "type": "address"
        },
        {
          "internalType": "uint256",
          "name": "amount",
          "type": "uint256"
        }
      ],
      "name": "lend",
      "outputs": [],
      "stateMutability": "nonpayable",
      "type": "function"
    },
    {
      "inputs": [
        {
          "internalType": "address",
          "name": "account",
          "type": "address"
        }
      ],
      "name": "liquidate",
      "outputs": [],
      "stateMutability": "nonpayable",
      "type": "function"
    },
    {
      "inputs": [],
      "name": "lnxReward",
      "outputs": [
        {
          "internalType": "address",
          "name": "",
          "type": "address"
        }
      ],
      "stateMutability": "view",
      "type": "function"
    },
    {
      "inputs": [],
      "name": "ltv",
      "outputs": [
        {
          "internalType": "uint256",
          "name": "",
          "type": "uint256"
        }
      ],
      "stateMutability": "view",
      "type": "function"
    },
    {
      "inputs": [
        {
          "internalType": "address",
          "name": "",
          "type": "address"
        }
      ],
      "name": "priceFeed",
      "outputs": [
        {
          "internalType": "address",
          "name": "",
          "type": "address"
        }
      ],
      "stateMutability": "view",
      "type": "function"
    },
    {
      "inputs": [
        {
          "internalType": "address",
          "name": "token",
          "type": "address"
        },
        {
          "internalType": "uint256",
          "name": "tokenAmount",
          "type": "uint256"
        }
      ],
      "name": "repay",
      "outputs": [],
      "stateMutability": "nonpayable",
      "type": "function"
    },
    {
      "inputs": [
        {
          "internalType": "address",
          "name": "token",
          "type": "address"
        }
      ],
      "name": "repayAll",
      "outputs": [],
      "stateMutability": "nonpayable",
      "type": "function"
    },
    {
      "inputs": [],
      "name": "rewardsRouter",
      "outputs": [
        {
          "internalType": "contract IRewardsRouter",
          "name": "",
          "type": "address"
        }
      ],
      "stateMutability": "view",
      "type": "function"
    },
    {
      "inputs": [
        {
          "internalType": "address",
          "name": "token",
          "type": "address"
        },
        {
          "internalType": "address",
          "name": "share",
          "type": "address"
        },
        {
          "internalType": "address",
          "name": "_priceFeed",
          "type": "address"
        }
      ],
      "name": "setBorrowToken",
      "outputs": [],
      "stateMutability": "nonpayable",
      "type": "function"
    },
    {
      "inputs": [
        {
          "internalType": "address",
          "name": "token",
          "type": "address"
        },
        {
          "internalType": "bool",
          "name": "allowed",
          "type": "bool"
        }
      ],
      "name": "setBorrowTokenAllowed",
      "outputs": [],
      "stateMutability": "nonpayable",
      "type": "function"
    },
    {
      "inputs": [
        {
          "internalType": "address",
          "name": "_governance",
          "type": "address"
        }
      ],
      "name": "setGovernance",
      "outputs": [],
      "stateMutability": "nonpayable",
      "type": "function"
    },
    {
      "inputs": [
        {
          "internalType": "address",
          "name": "token",
          "type": "address"
        },
        {
          "internalType": "address",
          "name": "feed",
          "type": "address"
        }
      ],
      "name": "setPriceFeed",
      "outputs": [],
      "stateMutability": "nonpayable",
      "type": "function"
    },
    {
      "inputs": [
        {
          "internalType": "uint256",
          "name": "_ltv",
          "type": "uint256"
        }
      ],
      "name": "setltv",
      "outputs": [],
      "stateMutability": "nonpayable",
      "type": "function"
    },
    {
      "inputs": [],
      "name": "stakeReward",
      "outputs": [
        {
          "internalType": "address",
          "name": "",
          "type": "address"
        }
      ],
      "stateMutability": "view",
      "type": "function"
    },
    {
      "inputs": [
        {
          "internalType": "address",
          "name": "",
          "type": "address"
        }
      ],
      "name": "tokenDebt",
      "outputs": [
        {
          "internalType": "uint256",
          "name": "",
          "type": "uint256"
        }
      ],
      "stateMutability": "view",
      "type": "function"
    },
    {
      "inputs": [
        {
          "internalType": "address",
          "name": "token",
          "type": "address"
        }
      ],
      "name": "totalBorrowedAmount",
      "outputs": [
        {
          "internalType": "uint256",
          "name": "",
          "type": "uint256"
        }
      ],
      "stateMutability": "view",
      "type": "function"
    },
    {
      "inputs": [],
      "name": "totalCollateral",
      "outputs": [
        {
          "internalType": "uint256",
          "name": "",
          "type": "uint256"
        }
      ],
      "stateMutability": "view",
      "type": "function"
    },
    {
      "inputs": [],
      "name": "totalLentValue",
      "outputs": [
        {
          "internalType": "uint256",
          "name": "",
          "type": "uint256"
        }
      ],
      "stateMutability": "view",
      "type": "function"
    },
    {
      "inputs": [
        {
          "internalType": "address",
          "name": "account",
          "type": "address"
        },
        {
          "internalType": "address",
          "name": "token",
          "type": "address"
        }
      ],
      "name": "userDebt",
      "outputs": [
        {
          "internalType": "uint256",
          "name": "",
          "type": "uint256"
        }
      ],
      "stateMutability": "view",
      "type": "function"
    },
    {
      "inputs": [
        {
          "internalType": "address",
          "name": "account",
          "type": "address"
        },
        {
          "internalType": "address",
          "name": "token",
          "type": "address"
        }
      ],
      "name": "userDebtUSD",
      "outputs": [
        {
          "internalType": "uint256",
          "name": "",
          "type": "uint256"
        }
      ],
      "stateMutability": "view",
      "type": "function"
    },
    {
      "inputs": [],
      "name": "vault",
      "outputs": [
        {
          "internalType": "contract IVault",
          "name": "",
          "type": "address"
        }
      ],
      "stateMutability": "view",
      "type": "function"
    },
    {
      "inputs": [],
      "name": "weth",
      "outputs": [
        {
          "internalType": "address",
          "name": "",
          "type": "address"
        }
      ],
      "stateMutability": "view",
      "type": "function"
    },
    {
      "inputs": [
        {
          "internalType": "address",
          "name": "token",
          "type": "address"
        },
        {
          "internalType": "uint256",
          "name": "shareAmount",
          "type": "uint256"
        }
      ],
      "name": "withdraw",
      "outputs": [],
      "stateMutability": "nonpayable",
      "type": "function"
    },
    {
      "inputs": [
        {
          "internalType": "address",
          "name": "token",
          "type": "address"
        }
      ],
      "name": "withdrawAll",
      "outputs": [],
      "stateMutability": "nonpayable",
      "type": "function"
    },
    {
      "inputs": [
        {
          "internalType": "uint256",
          "name": "shareAmount",
          "type": "uint256"
        }
      ],
      "name": "withdrawCollateral",
      "outputs": [
        {
          "internalType": "uint256",
          "name": "",
          "type": "uint256"
        }
      ],
      "stateMutability": "nonpayable",
      "type": "function"
    },
    {
      "inputs": [],
      "name": "withdrawCollateralAll",
      "outputs": [],
      "stateMutability": "nonpayable",
      "type": "function"
    }
  ],
  "bytecode": "0x60806040526032600f553480156200001657600080fd5b5060405162005f3238038062005f3283398181016040528101906200003c919062000279565b33600960006101000a81548173ffffffffffffffffffffffffffffffffffffffff021916908373ffffffffffffffffffffffffffffffffffffffff16021790555084600b60006101000a81548173ffffffffffffffffffffffffffffffffffffffff021916908373ffffffffffffffffffffffffffffffffffffffff16021790555085600a60006101000a81548173ffffffffffffffffffffffffffffffffffffffff021916908373ffffffffffffffffffffffffffffffffffffffff16021790555083600d60006101000a81548173ffffffffffffffffffffffffffffffffffffffff021916908373ffffffffffffffffffffffffffffffffffffffff16021790555082600e60006101000a81548173ffffffffffffffffffffffffffffffffffffffff021916908373ffffffffffffffffffffffffffffffffffffffff16021790555081601060006101000a81548173ffffffffffffffffffffffffffffffffffffffff021916908373ffffffffffffffffffffffffffffffffffffffff16021790555080601160006101000a81548173ffffffffffffffffffffffffffffffffffffffff021916908373ffffffffffffffffffffffffffffffffffffffff16021790555050505050505062000315565b600080fd5b600073ffffffffffffffffffffffffffffffffffffffff82169050919050565b6000620002418262000214565b9050919050565b620002538162000234565b81146200025f57600080fd5b50565b600081519050620002738162000248565b92915050565b60008060008060008060c087890312156200029957620002986200020f565b5b6000620002a989828a0162000262565b9650506020620002bc89828a0162000262565b9550506040620002cf89828a0162000262565b9450506060620002e289828a0162000262565b9350506080620002f589828a0162000262565b92505060a06200030889828a0162000262565b9150509295509295509295565b615c0d80620003256000396000f3fe608060405234801561001057600080fd5b50600436106102ba5760003560e01c806389e02a5811610182578063c9d777e2116100e9578063f18ea6d8116100a2578063f7683bbc1161007c578063f7683bbc14610953578063f9c019d514610971578063fa09e630146109a1578063fbfa77cf146109bd576102ba565b8063f18ea6d8146108d7578063f3e1abe114610907578063f3fef3a314610937576102ba565b8063c9d777e214610801578063c9f005af1461081d578063cc4c336b1461084d578063d196943c1461087d578063e152c34a1461089b578063e68802e3146108b9576102ba565b8063a5d5db0c1161013b578063a5d5db0c14610753578063ab033ea91461076f578063afbff2121461078b578063b28147d9146107a9578063b9637e49146107c7578063c09f66aa146107f7576102ba565b806389e02a58146106595780638b96b280146106775780638f2b6270146106a757806397ea8605146106d7578063983ff61514610707578063a2fb342d14610737576102ba565b80635aa6e6751161022657806376e11286116101df57806376e1128614610575578063770089f1146105915780637a8f4605146105c15780637c27383b146105f15780637c2c69c01461060d57806388d595db1461063d576102ba565b80635aa6e675146104795780636112fe2e146104975780636ac9ce6c146104c75780636fb49d73146104f757806372665438146105155780637558abc814610545576102ba565b80632c9cbca2116102785780632c9cbca2146103a55780632f865568146103d55780633fc8cef3146103f15780634414e1af1461040f5780634ac8eb5f1461043f5780634b8a35291461045d576102ba565b80623aadee146102bf57806314c8ad2c146102db57806314f47dcc1461030b5780631fd48b9a1461032957806322867d781461035957806323eafe1e14610375575b600080fd5b6102d960048036038101906102d49190614e14565b6109db565b005b6102f560048036038101906102f09190614e54565b610ac5565b6040516103029190614ead565b60405180910390f35b610313610b80565b6040516103209190614ed7565b60405180910390f35b610343600480360381019061033e9190614ef2565b610ba6565b6040516103509190614ed7565b60405180910390f35b610373600480360381019061036e9190614f4b565b610bd9565b005b61038f600480360381019061038a9190614e54565b61128f565b60405161039c9190614ead565b60405180910390f35b6103bf60048036038101906103ba9190614ef2565b6112d7565b6040516103cc9190614ed7565b60405180910390f35b6103ef60048036038101906103ea9190614ef2565b61130a565b005b6103f9611a82565b6040516104069190614ed7565b60405180910390f35b61042960048036038101906104249190614ef2565b611aa8565b6040516104369190614ead565b60405180910390f35b610447611e4e565b6040516104549190614ead565b60405180910390f35b61047760048036038101906104729190614f4b565b611e54565b005b6104816121f9565b60405161048e9190614ed7565b60405180910390f35b6104b160048036038101906104ac9190614f8b565b61221f565b6040516104be9190614ead565b60405180910390f35b6104e160048036038101906104dc9190614ef2565b612429565b6040516104ee9190614ead565b60405180910390f35b6104ff612665565b60405161050c9190614ead565b60405180910390f35b61052f600480360381019061052a9190614e54565b61266b565b60405161053c9190614ead565b60405180910390f35b61055f600480360381019061055a9190614ef2565b612690565b60405161056c9190614ead565b60405180910390f35b61058f600480360381019061058a9190614e54565b6126a8565b005b6105ab60048036038101906105a69190614ef2565b6127ba565b6040516105b89190614ead565b60405180910390f35b6105db60048036038101906105d69190614ef2565b6127d2565b6040516105e89190614ead565b60405180910390f35b61060b60048036038101906106069190614ef2565b612903565b005b61062760048036038101906106229190614ef2565b612976565b6040516106349190614ead565b60405180910390f35b61065760048036038101906106529190614f8b565b6129f3565b005b610661612ade565b60405161066e9190614ed7565b60405180910390f35b610691600480360381019061068c9190614ef2565b612b04565b60405161069e9190614ead565b60405180910390f35b6106c160048036038101906106bc9190614ef2565b612bca565b6040516106ce9190614ead565b60405180910390f35b6106f160048036038101906106ec9190614ef2565b612ccd565b6040516106fe9190614ead565b60405180910390f35b610721600480360381019061071c9190614ef2565b612d9a565b60405161072e9190614ead565b60405180910390f35b610751600480360381019061074c9190614f4b565b612de0565b005b61076d60048036038101906107689190614f4b565b6131e8565b005b61078960048036038101906107849190614ef2565b6133fd565b005b6107936134d1565b6040516107a09190615017565b60405180910390f35b6107b16134f7565b6040516107be9190615017565b60405180910390f35b6107e160048036038101906107dc9190614ef2565b61351d565b6040516107ee9190614ead565b60405180910390f35b6107ff6135b4565b005b61081b60048036038101906108169190615032565b6136ac565b005b61083760048036038101906108329190614e54565b613a27565b6040516108449190614ead565b60405180910390f35b61086760048036038101906108629190614ef2565b613a6e565b6040516108749190615094565b60405180910390f35b610885613a8e565b6040516108929190614ead565b60405180910390f35b6108a3613c69565b6040516108b091906150d0565b60405180910390f35b6108c1613c8f565b6040516108ce9190614ead565b60405180910390f35b6108f160048036038101906108ec9190614ef2565b613dfe565b6040516108fe9190614ead565b60405180910390f35b610921600480360381019061091c9190614ef2565b613e16565b60405161092e9190614ead565b60405180910390f35b610951600480360381019061094c9190614f4b565b613e2e565b005b61095b6142b1565b6040516109689190614ead565b60405180910390f35b61098b60048036038101906109869190614ef2565b614625565b6040516109989190614ead565b60405180910390f35b6109bb60048036038101906109b69190614ef2565b61484d565b005b6109c5614938565b6040516109d2919061510c565b60405180910390f35b600960009054906101000a900473ffffffffffffffffffffffffffffffffffffffff1673ffffffffffffffffffffffffffffffffffffffff163373ffffffffffffffffffffffffffffffffffffffff1614610a6b576040517f08c379a0000000000000000000000000000000000000000000000000000000008152600401610a6290615184565b60405180910390fd5b806000808473ffffffffffffffffffffffffffffffffffffffff1673ffffffffffffffffffffffffffffffffffffffff16815260200190815260200160002060006101000a81548160ff0219169083151502179055505050565b6000610b78670de0b6b3a7640000610b6a610adf8561351d565b600660008873ffffffffffffffffffffffffffffffffffffffff1673ffffffffffffffffffffffffffffffffffffffff16815260200190815260200160002060008773ffffffffffffffffffffffffffffffffffffffff1673ffffffffffffffffffffffffffffffffffffffff1681526020019081526020016000205461495e90919063ffffffff16565b61497490919063ffffffff16565b905092915050565b601160009054906101000a900473ffffffffffffffffffffffffffffffffffffffff1681565b60016020528060005260406000206000915054906101000a900473ffffffffffffffffffffffffffffffffffffffff1681565b6000610dbf610db0600260008673ffffffffffffffffffffffffffffffffffffffff1673ffffffffffffffffffffffffffffffffffffffff16815260200190815260200160002060009054906101000a900473ffffffffffffffffffffffffffffffffffffffff1673ffffffffffffffffffffffffffffffffffffffff166318160ddd6040518163ffffffff1660e01b8152600401602060405180830381865afa158015610c8b573d6000803e3d6000fd5b505050506040513d601f19601f82011682018060405250810190610caf91906151b9565b610da2600260008873ffffffffffffffffffffffffffffffffffffffff1673ffffffffffffffffffffffffffffffffffffffff16815260200190815260200160002060009054906101000a900473ffffffffffffffffffffffffffffffffffffffff1673ffffffffffffffffffffffffffffffffffffffff166370a08231336040518263ffffffff1660e01b8152600401610d4a9190614ed7565b602060405180830381865afa158015610d67573d6000803e3d6000fd5b505050506040513d601f19601f82011682018060405250810190610d8b91906151b9565b610d94886127d2565b61495e90919063ffffffff16565b61497490919063ffffffff16565b8361498a90919063ffffffff16565b9050610dcb3384610ac5565b610e29600460008673ffffffffffffffffffffffffffffffffffffffff1673ffffffffffffffffffffffffffffffffffffffff16815260200190815260200160002054600a610e1a9190615348565b8461495e90919063ffffffff16565b1115610e6a576040517f08c379a0000000000000000000000000000000000000000000000000000000008152600401610e61906153df565b60405180910390fd5b610efc610e768461351d565b610eee600460008773ffffffffffffffffffffffffffffffffffffffff1673ffffffffffffffffffffffffffffffffffffffff16815260200190815260200160002054600a610ec59190615348565b610ee0670de0b6b3a76400008761495e90919063ffffffff16565b61495e90919063ffffffff16565b61497490919063ffffffff16565b600660003373ffffffffffffffffffffffffffffffffffffffff1673ffffffffffffffffffffffffffffffffffffffff16815260200190815260200160002060008573ffffffffffffffffffffffffffffffffffffffff1673ffffffffffffffffffffffffffffffffffffffff1681526020019081526020016000206000828254610f8791906153ff565b92505081905550610f9783612ccd565b600560008573ffffffffffffffffffffffffffffffffffffffff1673ffffffffffffffffffffffffffffffffffffffff1681526020019081526020016000206000828254610fe59190615433565b9250508190555042600760008573ffffffffffffffffffffffffffffffffffffffff1673ffffffffffffffffffffffffffffffffffffffff1681526020019081526020016000208190555061108e600460008573ffffffffffffffffffffffffffffffffffffffff1673ffffffffffffffffffffffffffffffffffffffff16815260200190815260200160002054600a61107f9190615348565b8361495e90919063ffffffff16565b600560008573ffffffffffffffffffffffffffffffffffffffff1673ffffffffffffffffffffffffffffffffffffffff16815260200190815260200160002060008282546110dc91906153ff565b925050819055508273ffffffffffffffffffffffffffffffffffffffff166323b872dd3330856040518463ffffffff1660e01b815260040161112093929190615489565b6020604051808303816000875af115801561113f573d6000803e3d6000fd5b505050506040513d601f19601f8201168201806040525081019061116391906154d5565b50601160009054906101000a900473ffffffffffffffffffffffffffffffffffffffff1673ffffffffffffffffffffffffffffffffffffffff16639aa49864846111b760048561497490919063ffffffff16565b6040518363ffffffff1660e01b81526004016111d4929190615502565b600060405180830381600087803b1580156111ee57600080fd5b505af1158015611202573d6000803e3d6000fd5b5050505061122d600461121f60038461495e90919063ffffffff16565b61497490919063ffffffff16565b600360008573ffffffffffffffffffffffffffffffffffffffff1673ffffffffffffffffffffffffffffffffffffffff168152602001908152602001600020600082825461127b9190615433565b9250508190555061128a6149a0565b505050565b60006112cf670de0b6b3a76400006112c16112a985614c6c565b6112b38787610ac5565b61495e90919063ffffffff16565b61497490919063ffffffff16565b905092915050565b60026020528060005260406000206000915054906101000a900473ffffffffffffffffffffffffffffffffffffffff1681565b670de0b6b3a764000061131c82612b04565b1061135c576040517f08c379a000000000000000000000000000000000000000000000000000000000815260040161135390615577565b60405180910390fd5b600061136782612429565b905060008060005b600a60009054906101000a900473ffffffffffffffffffffffffffffffffffffffff1673ffffffffffffffffffffffffffffffffffffffff16630842b0766040518163ffffffff1660e01b8152600401602060405180830381865afa1580156113dc573d6000803e3d6000fd5b505050506040513d601f19601f8201168201806040525081019061140091906151b9565b811015611a7b576000611413868461128f565b1115611a6857600a60009054906101000a900473ffffffffffffffffffffffffffffffffffffffff1673ffffffffffffffffffffffffffffffffffffffff1663e468baf0826040518263ffffffff1660e01b81526004016114749190614ead565b602060405180830381865afa158015611491573d6000803e3d6000fd5b505050506040513d601f19601f820116820180604052508101906114b591906155ac565b9150600b60009054906101000a900473ffffffffffffffffffffffffffffffffffffffff1673ffffffffffffffffffffffffffffffffffffffff16630f3aa554836115f2876115e46115078b8961128f565b6115d661152c670de0b6b3a764000061151e613c8f565b61497490919063ffffffff16565b600c60009054906101000a900473ffffffffffffffffffffffffffffffffffffffff1673ffffffffffffffffffffffffffffffffffffffff166370a082318f6040518263ffffffff1660e01b81526004016115879190614ed7565b602060405180830381865afa1580156115a4573d6000803e3d6000fd5b505050506040513d601f19601f820116820180604052508101906115c891906151b9565b61495e90919063ffffffff16565b61495e90919063ffffffff16565b61497490919063ffffffff16565b6001306040518563ffffffff1660e01b81526004016116149493929190615614565b6020604051808303816000875af1158015611633573d6000803e3d6000fd5b505050506040513d601f19601f8201168201806040525081019061165791906151b9565b92508173ffffffffffffffffffffffffffffffffffffffff1663a9059cbb3361169d606461168f60058961495e90919063ffffffff16565b61497490919063ffffffff16565b6040518363ffffffff1660e01b81526004016116ba929190615502565b6020604051808303816000875af11580156116d9573d6000803e3d6000fd5b505050506040513d601f19601f820116820180604052508101906116fd91906154d5565b508173ffffffffffffffffffffffffffffffffffffffff1663a9059cbb601160009054906101000a900473ffffffffffffffffffffffffffffffffffffffff16611764606461175660058961495e90919063ffffffff16565b61497490919063ffffffff16565b6040518363ffffffff1660e01b8152600401611781929190615502565b6020604051808303816000875af11580156117a0573d6000803e3d6000fd5b505050506040513d601f19601f820116820180604052508101906117c491906154d5565b506117ce82612ccd565b600560008473ffffffffffffffffffffffffffffffffffffffff1673ffffffffffffffffffffffffffffffffffffffff168152602001908152602001600020600082825461181c9190615433565b9250508190555042600760008473ffffffffffffffffffffffffffffffffffffffff1673ffffffffffffffffffffffffffffffffffffffff16815260200190815260200160002081905550600660008673ffffffffffffffffffffffffffffffffffffffff1673ffffffffffffffffffffffffffffffffffffffff16815260200190815260200160002060008373ffffffffffffffffffffffffffffffffffffffff1673ffffffffffffffffffffffffffffffffffffffff16815260200190815260200160002054600360008473ffffffffffffffffffffffffffffffffffffffff1673ffffffffffffffffffffffffffffffffffffffff168152602001908152602001600020600082825461193291906153ff565b925050819055506000600660008773ffffffffffffffffffffffffffffffffffffffff1673ffffffffffffffffffffffffffffffffffffffff16815260200190815260200160002060008473ffffffffffffffffffffffffffffffffffffffff1673ffffffffffffffffffffffffffffffffffffffff1681526020019081526020016000208190555082600360008473ffffffffffffffffffffffffffffffffffffffff1673ffffffffffffffffffffffffffffffffffffffff1681526020019081526020016000206000828254611a0a9190615433565b9250508190555082600560008473ffffffffffffffffffffffffffffffffffffffff1673ffffffffffffffffffffffffffffffffffffffff1681526020019081526020016000206000828254611a6091906153ff565b925050819055505b8080611a7390615659565b91505061136f565b5050505050565b600e60009054906101000a900473ffffffffffffffffffffffffffffffffffffffff1681565b60008060005b600a60009054906101000a900473ffffffffffffffffffffffffffffffffffffffff1673ffffffffffffffffffffffffffffffffffffffff16630842b0766040518163ffffffff1660e01b8152600401602060405180830381865afa158015611b1b573d6000803e3d6000fd5b505050506040513d601f19601f82011682018060405250810190611b3f91906151b9565b811015611e44576000600a60009054906101000a900473ffffffffffffffffffffffffffffffffffffffff1673ffffffffffffffffffffffffffffffffffffffff1663e468baf0836040518263ffffffff1660e01b8152600401611ba39190614ead565b602060405180830381865afa158015611bc0573d6000803e3d6000fd5b505050506040513d601f19601f82011682018060405250810190611be491906155ac565b9050611e23670de0b6b3a7640000611e15600260008573ffffffffffffffffffffffffffffffffffffffff1673ffffffffffffffffffffffffffffffffffffffff16815260200190815260200160002060009054906101000a900473ffffffffffffffffffffffffffffffffffffffff1673ffffffffffffffffffffffffffffffffffffffff166318160ddd6040518163ffffffff1660e01b8152600401602060405180830381865afa158015611c9f573d6000803e3d6000fd5b505050506040513d601f19601f82011682018060405250810190611cc391906151b9565b611e07611ccf86614c6c565b611df9600260008973ffffffffffffffffffffffffffffffffffffffff1673ffffffffffffffffffffffffffffffffffffffff16815260200190815260200160002060009054906101000a900473ffffffffffffffffffffffffffffffffffffffff1673ffffffffffffffffffffffffffffffffffffffff166370a082318d6040518263ffffffff1660e01b8152600401611d6a9190614ed7565b602060405180830381865afa158015611d87573d6000803e3d6000fd5b505050506040513d601f19601f82011682018060405250810190611dab91906151b9565b600360008a73ffffffffffffffffffffffffffffffffffffffff1673ffffffffffffffffffffffffffffffffffffffff1681526020019081526020016000205461495e90919063ffffffff16565b61495e90919063ffffffff16565b61497490919063ffffffff16565b61497490919063ffffffff16565b83611e2e9190615433565b9250508080611e3c90615659565b915050611aae565b5080915050919050565b60085481565b611eb2600460008473ffffffffffffffffffffffffffffffffffffffff1673ffffffffffffffffffffffffffffffffffffffff16815260200190815260200160002054600a611ea39190615348565b8261495e90919063ffffffff16565b611ebc3384613a27565b1015611efd576040517f08c379a0000000000000000000000000000000000000000000000000000000008152600401611ef4906156ee565b60405180910390fd5b611f0682612ccd565b600560008473ffffffffffffffffffffffffffffffffffffffff1673ffffffffffffffffffffffffffffffffffffffff1681526020019081526020016000206000828254611f549190615433565b9250508190555042600760008473ffffffffffffffffffffffffffffffffffffffff1673ffffffffffffffffffffffffffffffffffffffff16815260200190815260200160002081905550611ffd600460008473ffffffffffffffffffffffffffffffffffffffff1673ffffffffffffffffffffffffffffffffffffffff16815260200190815260200160002054600a611fee9190615348565b8261495e90919063ffffffff16565b600560008473ffffffffffffffffffffffffffffffffffffffff1673ffffffffffffffffffffffffffffffffffffffff168152602001908152602001600020600082825461204b9190615433565b925050819055506120e461205e8361351d565b6120d66120c7600460008773ffffffffffffffffffffffffffffffffffffffff1673ffffffffffffffffffffffffffffffffffffffff16815260200190815260200160002054600a6120b09190615348565b670de0b6b3a764000061495e90919063ffffffff16565b8461495e90919063ffffffff16565b61497490919063ffffffff16565b600660003373ffffffffffffffffffffffffffffffffffffffff1673ffffffffffffffffffffffffffffffffffffffff16815260200190815260200160002060008473ffffffffffffffffffffffffffffffffffffffff1673ffffffffffffffffffffffffffffffffffffffff168152602001908152602001600020600082825461216f9190615433565b925050819055508173ffffffffffffffffffffffffffffffffffffffff1663a9059cbb33836040518363ffffffff1660e01b81526004016121b1929190615502565b6020604051808303816000875af11580156121d0573d6000803e3d6000fd5b505050506040513d601f19601f820116820180604052508101906121f491906154d5565b505050565b600960009054906101000a900473ffffffffffffffffffffffffffffffffffffffff1681565b6000600c60009054906101000a900473ffffffffffffffffffffffffffffffffffffffff1673ffffffffffffffffffffffffffffffffffffffff16639dc29fac33846040518363ffffffff1660e01b815260040161227e929190615502565b600060405180830381600087803b15801561229857600080fd5b505af11580156122ac573d6000803e3d6000fd5b5050505060006122e6670de0b6b3a76400006122d86122c9613c8f565b8661495e90919063ffffffff16565b61497490919063ffffffff16565b90506000600b60009054906101000a900473ffffffffffffffffffffffffffffffffffffffff1673ffffffffffffffffffffffffffffffffffffffff16630f3aa554600e60009054906101000a900473ffffffffffffffffffffffffffffffffffffffff16846001336040518563ffffffff1660e01b815260040161236e9493929190615614565b6020604051808303816000875af115801561238d573d6000803e3d6000fd5b505050506040513d601f19601f820116820180604052508101906123b191906151b9565b905081600860008282546123c591906153ff565b92505081905550670de0b6b3a76400006123de33612b04565b101561241f576040517f08c379a000000000000000000000000000000000000000000000000000000000815260040161241690615780565b60405180910390fd5b8092505050919050565b60008060005b600a60009054906101000a900473ffffffffffffffffffffffffffffffffffffffff1673ffffffffffffffffffffffffffffffffffffffff16630842b0766040518163ffffffff1660e01b8152600401602060405180830381865afa15801561249c573d6000803e3d6000fd5b505050506040513d601f19601f820116820180604052508101906124c091906151b9565b81101561265b5761263b670de0b6b3a764000061262d61257a600a60009054906101000a900473ffffffffffffffffffffffffffffffffffffffff1673ffffffffffffffffffffffffffffffffffffffff1663e468baf0866040518263ffffffff1660e01b81526004016125349190614ead565b602060405180830381865afa158015612551573d6000803e3d6000fd5b505050506040513d601f19601f8201168201806040525081019061257591906155ac565b614c6c565b61261f88600a60009054906101000a900473ffffffffffffffffffffffffffffffffffffffff1673ffffffffffffffffffffffffffffffffffffffff1663e468baf0886040518263ffffffff1660e01b81526004016125d99190614ead565b602060405180830381865afa1580156125f6573d6000803e3d6000fd5b505050506040513d601f19601f8201168201806040525081019061261a91906155ac565b610ac5565b61495e90919063ffffffff16565b61497490919063ffffffff16565b826126469190615433565b9150808061265390615659565b91505061242f565b5080915050919050565b600f5481565b6006602052816000526040600020602052806000526040600020600091509150505481565b60056020528060005260406000206000915090505481565b600960009054906101000a900473ffffffffffffffffffffffffffffffffffffffff1673ffffffffffffffffffffffffffffffffffffffff163373ffffffffffffffffffffffffffffffffffffffff1614612738576040517f08c379a000000000000000000000000000000000000000000000000000000000815260040161272f90615184565b60405180910390fd5b80600160008473ffffffffffffffffffffffffffffffffffffffff1673ffffffffffffffffffffffffffffffffffffffff16815260200190815260200160002060006101000a81548173ffffffffffffffffffffffffffffffffffffffff021916908373ffffffffffffffffffffffffffffffffffffffff1602179055505050565b60036020528060005260406000206000915090505481565b60006128fc6128ae600460008573ffffffffffffffffffffffffffffffffffffffff1673ffffffffffffffffffffffffffffffffffffffff16815260200190815260200160002054600a6128269190615348565b8473ffffffffffffffffffffffffffffffffffffffff166370a08231306040518263ffffffff1660e01b815260040161285f9190614ed7565b602060405180830381865afa15801561287c573d6000803e3d6000fd5b505050506040513d601f19601f820116820180604052508101906128a091906151b9565b61495e90919063ffffffff16565b600360008573ffffffffffffffffffffffffffffffffffffffff1673ffffffffffffffffffffffffffffffffffffffff1681526020019081526020016000205461498a90919063ffffffff16565b9050919050565b6129738161296e600460008573ffffffffffffffffffffffffffffffffffffffff1673ffffffffffffffffffffffffffffffffffffffff16815260200190815260200160002054600a6129569190615348565b6129603386610ac5565b61497490919063ffffffff16565b610bd9565b50565b60006129ec600360008473ffffffffffffffffffffffffffffffffffffffff1673ffffffffffffffffffffffffffffffffffffffff168152602001908152602001600020546129de670de0b6b3a76400006129d0866127d2565b61495e90919063ffffffff16565b61497490919063ffffffff16565b9050919050565b600960009054906101000a900473ffffffffffffffffffffffffffffffffffffffff1673ffffffffffffffffffffffffffffffffffffffff163373ffffffffffffffffffffffffffffffffffffffff1614612a83576040517f08c379a0000000000000000000000000000000000000000000000000000000008152600401612a7a90615184565b60405180910390fd5b605a8111158015612a95575060328110155b612ad4576040517f08c379a0000000000000000000000000000000000000000000000000000000008152600401612acb906157ec565b60405180910390fd5b80600f8190555050565b601060009054906101000a900473ffffffffffffffffffffffffffffffffffffffff1681565b600080612b1083612429565b1415612b275768056bc75e2d631000009050612bc5565b68056bc75e2d63100000612b6e612b3d84612429565b612b60670de0b6b3a7640000612b5287612bca565b61495e90919063ffffffff16565b61497490919063ffffffff16565b1115612b855768056bc75e2d631000009050612bc5565b612bc2612b9183612429565b612bb4670de0b6b3a7640000612ba686612bca565b61495e90919063ffffffff16565b61497490919063ffffffff16565b90505b919050565b600080612cc26064612cb4600f54612ca6612be36142b1565b612c98612bee613c8f565b600c60009054906101000a900473ffffffffffffffffffffffffffffffffffffffff1673ffffffffffffffffffffffffffffffffffffffff166370a082318c6040518263ffffffff1660e01b8152600401612c499190614ed7565b602060405180830381865afa158015612c66573d6000803e3d6000fd5b505050506040513d601f19601f82011682018060405250810190612c8a91906151b9565b61495e90919063ffffffff16565b61495e90919063ffffffff16565b61495e90919063ffffffff16565b61497490919063ffffffff16565b905080915050919050565b600080612d22600760008573ffffffffffffffffffffffffffffffffffffffff1673ffffffffffffffffffffffffffffffffffffffff168152602001908152602001600020544261498a90919063ffffffff16565b90506000612d8e6301e13380612d8084600560008973ffffffffffffffffffffffffffffffffffffffff1673ffffffffffffffffffffffffffffffffffffffff1681526020019081526020016000205461495e90919063ffffffff16565b61497490919063ffffffff16565b90508092505050919050565b6000612dd9670de0b6b3a7640000612dcb612db485612b04565b612dbd86612429565b61495e90919063ffffffff16565b61497490919063ffffffff16565b9050919050565b601060009054906101000a900473ffffffffffffffffffffffffffffffffffffffff1673ffffffffffffffffffffffffffffffffffffffff1663ef5cfb8c336040518263ffffffff1660e01b8152600401612e3b9190614ed7565b600060405180830381600087803b158015612e5557600080fd5b505af1158015612e69573d6000803e3d6000fd5b505050506000819050612ed0600460008573ffffffffffffffffffffffffffffffffffffffff1673ffffffffffffffffffffffffffffffffffffffff16815260200190815260200160002054600a612ec19190615348565b8361495e90919063ffffffff16565b9150600115156000808573ffffffffffffffffffffffffffffffffffffffff1673ffffffffffffffffffffffffffffffffffffffff16815260200190815260200160002060009054906101000a900460ff16151514612f64576040517f08c379a0000000000000000000000000000000000000000000000000000000008152600401612f5b90615858565b60405180910390fd5b6000612f9b612f7285614625565b612f8d670de0b6b3a76400008661495e90919063ffffffff16565b61497490919063ffffffff16565b9050612fa684612ccd565b600560008673ffffffffffffffffffffffffffffffffffffffff1673ffffffffffffffffffffffffffffffffffffffff1681526020019081526020016000206000828254612ff49190615433565b9250508190555042600760008673ffffffffffffffffffffffffffffffffffffffff1673ffffffffffffffffffffffffffffffffffffffff168152602001908152602001600020819055508373ffffffffffffffffffffffffffffffffffffffff166323b872dd3330856040518463ffffffff1660e01b815260040161307c93929190615489565b6020604051808303816000875af115801561309b573d6000803e3d6000fd5b505050506040513d601f19601f820116820180604052508101906130bf91906154d5565b50600260008573ffffffffffffffffffffffffffffffffffffffff1673ffffffffffffffffffffffffffffffffffffffff16815260200190815260200160002060009054906101000a900473ffffffffffffffffffffffffffffffffffffffff1673ffffffffffffffffffffffffffffffffffffffff166340c10f1933836040518363ffffffff1660e01b815260040161315a929190615502565b600060405180830381600087803b15801561317457600080fd5b505af1158015613188573d6000803e3d6000fd5b5050505082600360008673ffffffffffffffffffffffffffffffffffffffff1673ffffffffffffffffffffffffffffffffffffffff16815260200190815260200160002060008282546131db9190615433565b9250508190555050505050565b6131f06149a0565b8173ffffffffffffffffffffffffffffffffffffffff166323b872dd3330846040518463ffffffff1660e01b815260040161322d93929190615489565b6020604051808303816000875af115801561324c573d6000803e3d6000fd5b505050506040513d601f19601f8201168201806040525081019061327091906154d5565b50600b60009054906101000a900473ffffffffffffffffffffffffffffffffffffffff1673ffffffffffffffffffffffffffffffffffffffff1663364e231183836001806040518563ffffffff1660e01b81526004016132d39493929190615878565b6020604051808303816000875af11580156132f2573d6000803e3d6000fd5b505050506040513d601f19601f8201168201806040525081019061331691906151b9565b9050600061334e613325613c8f565b613340670de0b6b3a76400008561495e90919063ffffffff16565b61497490919063ffffffff16565b9050600c60009054906101000a900473ffffffffffffffffffffffffffffffffffffffff1673ffffffffffffffffffffffffffffffffffffffff166340c10f1933836040518363ffffffff1660e01b81526004016133ad929190615502565b600060405180830381600087803b1580156133c757600080fd5b505af11580156133db573d6000803e3d6000fd5b5050505081600860008282546133f19190615433565b92505081905550505050565b600960009054906101000a900473ffffffffffffffffffffffffffffffffffffffff1673ffffffffffffffffffffffffffffffffffffffff163373ffffffffffffffffffffffffffffffffffffffff161461348d576040517f08c379a000000000000000000000000000000000000000000000000000000000815260040161348490615184565b60405180910390fd5b80600960006101000a81548173ffffffffffffffffffffffffffffffffffffffff021916908373ffffffffffffffffffffffffffffffffffffffff16021790555050565b600c60009054906101000a900473ffffffffffffffffffffffffffffffffffffffff1681565b600d60009054906101000a900473ffffffffffffffffffffffffffffffffffffffff1681565b60006135ad61352b836127d2565b61359f670de0b6b3a764000061359161354387612ccd565b600560008973ffffffffffffffffffffffffffffffffffffffff1673ffffffffffffffffffffffffffffffffffffffff16815260200190815260200160002054614d6390919063ffffffff16565b61495e90919063ffffffff16565b61497490919063ffffffff16565b9050919050565b60006135bf33612429565b146135ff576040517f08c379a00000000000000000000000000000000000000000000000000000000081526004016135f690615909565b60405180910390fd5b6000600c60009054906101000a900473ffffffffffffffffffffffffffffffffffffffff1673ffffffffffffffffffffffffffffffffffffffff166370a08231336040518263ffffffff1660e01b815260040161365c9190614ed7565b602060405180830381865afa158015613679573d6000803e3d6000fd5b505050506040513d601f19601f8201168201806040525081019061369d91906151b9565b90506136a88161221f565b5050565b600960009054906101000a900473ffffffffffffffffffffffffffffffffffffffff1673ffffffffffffffffffffffffffffffffffffffff163373ffffffffffffffffffffffffffffffffffffffff161461373c576040517f08c379a000000000000000000000000000000000000000000000000000000000815260040161373390615184565b60405180910390fd5b600073ffffffffffffffffffffffffffffffffffffffff16600260008573ffffffffffffffffffffffffffffffffffffffff1673ffffffffffffffffffffffffffffffffffffffff16815260200190815260200160002060009054906101000a900473ffffffffffffffffffffffffffffffffffffffff1673ffffffffffffffffffffffffffffffffffffffff161461380a576040517f08c379a000000000000000000000000000000000000000000000000000000000815260040161380190615184565b60405180910390fd5b81600260008573ffffffffffffffffffffffffffffffffffffffff1673ffffffffffffffffffffffffffffffffffffffff16815260200190815260200160002060006101000a81548173ffffffffffffffffffffffffffffffffffffffff021916908373ffffffffffffffffffffffffffffffffffffffff16021790555080600160008573ffffffffffffffffffffffffffffffffffffffff1673ffffffffffffffffffffffffffffffffffffffff16815260200190815260200160002060006101000a81548173ffffffffffffffffffffffffffffffffffffffff021916908373ffffffffffffffffffffffffffffffffffffffff16021790555060016000808573ffffffffffffffffffffffffffffffffffffffff1673ffffffffffffffffffffffffffffffffffffffff16815260200190815260200160002060006101000a81548160ff0219169083151502179055506139df8373ffffffffffffffffffffffffffffffffffffffff1663313ce5676040518163ffffffff1660e01b8152600401602060405180830381865afa1580156139ab573d6000803e3d6000fd5b505050506040513d601f19601f820116820180604052508101906139cf91906151b9565b601261498a90919063ffffffff16565b600460008573ffffffffffffffffffffffffffffffffffffffff1673ffffffffffffffffffffffffffffffffffffffff16815260200190815260200160002081905550505050565b6000613a66613a3583614c6c565b613a58613a4186612b04565b613a4a87612429565b61495e90919063ffffffff16565b61497490919063ffffffff16565b905092915050565b60006020528060005260406000206000915054906101000a900460ff1681565b60008060005b600a60009054906101000a900473ffffffffffffffffffffffffffffffffffffffff1673ffffffffffffffffffffffffffffffffffffffff16630842b0766040518163ffffffff1660e01b8152600401602060405180830381865afa158015613b01573d6000803e3d6000fd5b505050506040513d601f19601f82011682018060405250810190613b2591906151b9565b811015613c61576000600a60009054906101000a900473ffffffffffffffffffffffffffffffffffffffff1673ffffffffffffffffffffffffffffffffffffffff1663e468baf0836040518263ffffffff1660e01b8152600401613b899190614ead565b602060405180830381865afa158015613ba6573d6000803e3d6000fd5b505050506040513d601f19601f82011682018060405250810190613bca91906155ac565b9050613c40670de0b6b3a7640000613c32613be484614c6c565b600360008673ffffffffffffffffffffffffffffffffffffffff1673ffffffffffffffffffffffffffffffffffffffff1681526020019081526020016000205461495e90919063ffffffff16565b61497490919063ffffffff16565b83613c4b9190615433565b9250508080613c5990615659565b915050613a94565b508091505090565b600b60009054906101000a900473ffffffffffffffffffffffffffffffffffffffff1681565b600080600c60009054906101000a900473ffffffffffffffffffffffffffffffffffffffff1673ffffffffffffffffffffffffffffffffffffffff166318160ddd6040518163ffffffff1660e01b8152600401602060405180830381865afa158015613cff573d6000803e3d6000fd5b505050506040513d601f19601f82011682018060405250810190613d2391906151b9565b1415613d3957670de0b6b3a76400009050613dfb565b613df8600c60009054906101000a900473ffffffffffffffffffffffffffffffffffffffff1673ffffffffffffffffffffffffffffffffffffffff166318160ddd6040518163ffffffff1660e01b8152600401602060405180830381865afa158015613da9573d6000803e3d6000fd5b505050506040513d601f19601f82011682018060405250810190613dcd91906151b9565b613dea670de0b6b3a764000060085461495e90919063ffffffff16565b61497490919063ffffffff16565b90505b90565b60046020528060005260406000206000915090505481565b60076020528060005260406000206000915090505481565b601060009054906101000a900473ffffffffffffffffffffffffffffffffffffffff1673ffffffffffffffffffffffffffffffffffffffff1663ef5cfb8c336040518263ffffffff1660e01b8152600401613e899190614ed7565b600060405180830381600087803b158015613ea357600080fd5b505af1158015613eb7573d6000803e3d6000fd5b505050506000613ef2670de0b6b3a7640000613ee4613ed586614625565b8561495e90919063ffffffff16565b61497490919063ffffffff16565b9050613fcb600460008573ffffffffffffffffffffffffffffffffffffffff1673ffffffffffffffffffffffffffffffffffffffff16815260200190815260200160002054600a613f439190615348565b8473ffffffffffffffffffffffffffffffffffffffff166370a08231306040518263ffffffff1660e01b8152600401613f7c9190614ed7565b602060405180830381865afa158015613f99573d6000803e3d6000fd5b505050506040513d601f19601f82011682018060405250810190613fbd91906151b9565b61495e90919063ffffffff16565b811161400c576040517f08c379a00000000000000000000000000000000000000000000000000000000081526004016140039061599b565b60405180910390fd5b600260008473ffffffffffffffffffffffffffffffffffffffff1673ffffffffffffffffffffffffffffffffffffffff16815260200190815260200160002060009054906101000a900473ffffffffffffffffffffffffffffffffffffffff1673ffffffffffffffffffffffffffffffffffffffff16639dc29fac33846040518363ffffffff1660e01b81526004016140a6929190615502565b600060405180830381600087803b1580156140c057600080fd5b505af11580156140d4573d6000803e3d6000fd5b5050505080600360008573ffffffffffffffffffffffffffffffffffffffff1673ffffffffffffffffffffffffffffffffffffffff168152602001908152602001600020600082825461412791906153ff565b9250508190555061413783612ccd565b600560008573ffffffffffffffffffffffffffffffffffffffff1673ffffffffffffffffffffffffffffffffffffffff16815260200190815260200160002060008282546141859190615433565b9250508190555042600760008573ffffffffffffffffffffffffffffffffffffffff1673ffffffffffffffffffffffffffffffffffffffff168152602001908152602001600020819055508273ffffffffffffffffffffffffffffffffffffffff1663a9059cbb3361424b600460008873ffffffffffffffffffffffffffffffffffffffff1673ffffffffffffffffffffffffffffffffffffffff16815260200190815260200160002054600a61423c9190615348565b8561497490919063ffffffff16565b6040518363ffffffff1660e01b8152600401614268929190615502565b6020604051808303816000875af1158015614287573d6000803e3d6000fd5b505050506040513d601f19601f820116820180604052508101906142ab91906154d5565b50505050565b60008060005b600a60009054906101000a900473ffffffffffffffffffffffffffffffffffffffff1673ffffffffffffffffffffffffffffffffffffffff16630842b0766040518163ffffffff1660e01b8152600401602060405180830381865afa158015614324573d6000803e3d6000fd5b505050506040513d601f19601f8201168201806040525081019061434891906151b9565b81101561455b5761453b600a60009054906101000a900473ffffffffffffffffffffffffffffffffffffffff1673ffffffffffffffffffffffffffffffffffffffff1663e468baf0836040518263ffffffff1660e01b81526004016143ad9190614ead565b602060405180830381865afa1580156143ca573d6000803e3d6000fd5b505050506040513d601f19601f820116820180604052508101906143ee91906155ac565b73ffffffffffffffffffffffffffffffffffffffff166370a08231600a60009054906101000a900473ffffffffffffffffffffffffffffffffffffffff166040518263ffffffff1660e01b81526004016144489190614ed7565b602060405180830381865afa158015614465573d6000803e3d6000fd5b505050506040513d601f19601f8201168201806040525081019061448991906151b9565b61452d600a60009054906101000a900473ffffffffffffffffffffffffffffffffffffffff1673ffffffffffffffffffffffffffffffffffffffff1663e468baf0856040518263ffffffff1660e01b81526004016144e79190614ead565b602060405180830381865afa158015614504573d6000803e3d6000fd5b505050506040513d601f19601f8201168201806040525081019061452891906155ac565b614c6c565b61495e90919063ffffffff16565b826145469190615433565b9150808061455390615659565b9150506142b7565b50600061461b600d60009054906101000a900473ffffffffffffffffffffffffffffffffffffffff1673ffffffffffffffffffffffffffffffffffffffff166318160ddd6040518163ffffffff1660e01b8152600401602060405180830381865afa1580156145ce573d6000803e3d6000fd5b505050506040513d601f19601f820116820180604052508101906145f291906151b9565b61460d670de0b6b3a76400008561495e90919063ffffffff16565b61497490919063ffffffff16565b9050809250505090565b600080600260008473ffffffffffffffffffffffffffffffffffffffff1673ffffffffffffffffffffffffffffffffffffffff16815260200190815260200160002060009054906101000a900473ffffffffffffffffffffffffffffffffffffffff1673ffffffffffffffffffffffffffffffffffffffff166318160ddd6040518163ffffffff1660e01b8152600401602060405180830381865afa1580156146d2573d6000803e3d6000fd5b505050506040513d601f19601f820116820180604052508101906146f691906151b9565b141561470c57670de0b6b3a76400009050614848565b614845600260008473ffffffffffffffffffffffffffffffffffffffff1673ffffffffffffffffffffffffffffffffffffffff16815260200190815260200160002060009054906101000a900473ffffffffffffffffffffffffffffffffffffffff1673ffffffffffffffffffffffffffffffffffffffff166318160ddd6040518163ffffffff1660e01b8152600401602060405180830381865afa1580156147b9573d6000803e3d6000fd5b505050506040513d601f19601f820116820180604052508101906147dd91906151b9565b614837670de0b6b3a7640000600360008773ffffffffffffffffffffffffffffffffffffffff1673ffffffffffffffffffffffffffffffffffffffff1681526020019081526020016000205461495e90919063ffffffff16565b61497490919063ffffffff16565b90505b919050565b6000600260008373ffffffffffffffffffffffffffffffffffffffff1673ffffffffffffffffffffffffffffffffffffffff16815260200190815260200160002060009054906101000a900473ffffffffffffffffffffffffffffffffffffffff1673ffffffffffffffffffffffffffffffffffffffff166370a08231336040518263ffffffff1660e01b81526004016148e79190614ed7565b602060405180830381865afa158015614904573d6000803e3d6000fd5b505050506040513d601f19601f8201168201806040525081019061492891906151b9565b90506149348282613e2e565b5050565b600a60009054906101000a900473ffffffffffffffffffffffffffffffffffffffff1681565b6000818361496c91906159bb565b905092915050565b600081836149829190615a44565b905092915050565b6000818361499891906153ff565b905092915050565b6000600e60009054906101000a900473ffffffffffffffffffffffffffffffffffffffff1673ffffffffffffffffffffffffffffffffffffffff166370a08231306040518263ffffffff1660e01b81526004016149fd9190614ed7565b602060405180830381865afa158015614a1a573d6000803e3d6000fd5b505050506040513d601f19601f82011682018060405250810190614a3e91906151b9565b9050600b60009054906101000a900473ffffffffffffffffffffffffffffffffffffffff1673ffffffffffffffffffffffffffffffffffffffff166330b7000260008060018060018060006040518863ffffffff1660e01b8152600401614aab9796959493929190615a75565b600060405180830381600087803b158015614ac557600080fd5b505af1158015614ad9573d6000803e3d6000fd5b50505050600b60009054906101000a900473ffffffffffffffffffffffffffffffffffffffff1673ffffffffffffffffffffffffffffffffffffffff1663364e2311600e60009054906101000a900473ffffffffffffffffffffffffffffffffffffffff16614bec84600e60009054906101000a900473ffffffffffffffffffffffffffffffffffffffff1673ffffffffffffffffffffffffffffffffffffffff166370a08231306040518263ffffffff1660e01b8152600401614b9d9190614ed7565b602060405180830381865afa158015614bba573d6000803e3d6000fd5b505050506040513d601f19601f82011682018060405250810190614bde91906151b9565b61498a90919063ffffffff16565b6001806040518563ffffffff1660e01b8152600401614c0e9493929190615878565b6020604051808303816000875af1158015614c2d573d6000803e3d6000fd5b505050506040513d601f19601f82011682018060405250810190614c5191906151b9565b60086000828254614c629190615433565b9250508190555050565b600080600160008473ffffffffffffffffffffffffffffffffffffffff1673ffffffffffffffffffffffffffffffffffffffff16815260200190815260200160002060009054906101000a900473ffffffffffffffffffffffffffffffffffffffff1673ffffffffffffffffffffffffffffffffffffffff1663feaf968c6040518163ffffffff1660e01b815260040160a060405180830381865afa158015614d19573d6000803e3d6000fd5b505050506040513d601f19601f82011682018060405250810190614d3d9190615b5c565b505050915050614d5b6402540be4008261495e90919063ffffffff16565b915050919050565b60008183614d719190615433565b905092915050565b600080fd5b600073ffffffffffffffffffffffffffffffffffffffff82169050919050565b6000614da982614d7e565b9050919050565b614db981614d9e565b8114614dc457600080fd5b50565b600081359050614dd681614db0565b92915050565b60008115159050919050565b614df181614ddc565b8114614dfc57600080fd5b50565b600081359050614e0e81614de8565b92915050565b60008060408385031215614e2b57614e2a614d79565b5b6000614e3985828601614dc7565b9250506020614e4a85828601614dff565b9150509250929050565b60008060408385031215614e6b57614e6a614d79565b5b6000614e7985828601614dc7565b9250506020614e8a85828601614dc7565b9150509250929050565b6000819050919050565b614ea781614e94565b82525050565b6000602082019050614ec26000830184614e9e565b92915050565b614ed181614d9e565b82525050565b6000602082019050614eec6000830184614ec8565b92915050565b600060208284031215614f0857614f07614d79565b5b6000614f1684828501614dc7565b91505092915050565b614f2881614e94565b8114614f3357600080fd5b50565b600081359050614f4581614f1f565b92915050565b60008060408385031215614f6257614f61614d79565b5b6000614f7085828601614dc7565b9250506020614f8185828601614f36565b9150509250929050565b600060208284031215614fa157614fa0614d79565b5b6000614faf84828501614f36565b91505092915050565b6000819050919050565b6000614fdd614fd8614fd384614d7e565b614fb8565b614d7e565b9050919050565b6000614fef82614fc2565b9050919050565b600061500182614fe4565b9050919050565b61501181614ff6565b82525050565b600060208201905061502c6000830184615008565b92915050565b60008060006060848603121561504b5761504a614d79565b5b600061505986828701614dc7565b935050602061506a86828701614dc7565b925050604061507b86828701614dc7565b9150509250925092565b61508e81614ddc565b82525050565b60006020820190506150a96000830184615085565b92915050565b60006150ba82614fe4565b9050919050565b6150ca816150af565b82525050565b60006020820190506150e560008301846150c1565b92915050565b60006150f682614fe4565b9050919050565b615106816150eb565b82525050565b600060208201905061512160008301846150fd565b92915050565b600082825260208201905092915050565b7f21476f7665726e616e6365000000000000000000000000000000000000000000600082015250565b600061516e600b83615127565b915061517982615138565b602082019050919050565b6000602082019050818103600083015261519d81615161565b9050919050565b6000815190506151b381614f1f565b92915050565b6000602082840312156151cf576151ce614d79565b5b60006151dd848285016151a4565b91505092915050565b7f4e487b7100000000000000000000000000000000000000000000000000000000600052601160045260246000fd5b60008160011c9050919050565b6000808291508390505b600185111561526c57808604811115615248576152476151e6565b5b60018516156152575780820291505b808102905061526585615215565b945061522c565b94509492505050565b6000826152855760019050615341565b816152935760009050615341565b81600181146152a957600281146152b3576152e2565b6001915050615341565b60ff8411156152c5576152c46151e6565b5b8360020a9150848211156152dc576152db6151e6565b5b50615341565b5060208310610133831016604e8410600b84101617156153175782820a905083811115615312576153116151e6565b5b615341565b6153248484846001615222565b9250905081840481111561533b5761533a6151e6565b5b81810290505b9392505050565b600061535382614e94565b915061535e83614e94565b925061538b7fffffffffffffffffffffffffffffffffffffffffffffffffffffffffffffffff8484615275565b905092915050565b7f5265706179696e6720746f6f206d756368000000000000000000000000000000600082015250565b60006153c9601183615127565b91506153d482615393565b602082019050919050565b600060208201905081810360008301526153f8816153bc565b9050919050565b600061540a82614e94565b915061541583614e94565b925082821015615428576154276151e6565b5b828203905092915050565b600061543e82614e94565b915061544983614e94565b9250827fffffffffffffffffffffffffffffffffffffffffffffffffffffffffffffffff0382111561547e5761547d6151e6565b5b828201905092915050565b600060608201905061549e6000830186614ec8565b6154ab6020830185614ec8565b6154b86040830184614e9e565b949350505050565b6000815190506154cf81614de8565b92915050565b6000602082840312156154eb576154ea614d79565b5b60006154f9848285016154c0565b91505092915050565b60006040820190506155176000830185614ec8565b6155246020830184614e9e565b9392505050565b7f4163636f756e74206865616c7468790000000000000000000000000000000000600082015250565b6000615561600f83615127565b915061556c8261552b565b602082019050919050565b6000602082019050818103600083015261559081615554565b9050919050565b6000815190506155a681614db0565b92915050565b6000602082840312156155c2576155c1614d79565b5b60006155d084828501615597565b91505092915050565b6000819050919050565b60006155fe6155f96155f4846155d9565b614fb8565b614e94565b9050919050565b61560e816155e3565b82525050565b60006080820190506156296000830187614ec8565b6156366020830186614e9e565b6156436040830185615605565b6156506060830184614ec8565b95945050505050565b600061566482614e94565b91507fffffffffffffffffffffffffffffffffffffffffffffffffffffffffffffffff821415615697576156966151e6565b5b600182019050919050565b7f4e6f7420656e6f75676820626f72726f77696e6720706f776572000000000000600082015250565b60006156d8601a83615127565b91506156e3826156a2565b602082019050919050565b60006020820190508181036000830152615707816156cb565b9050919050565b7f4163636f756e74206e6f74206865616c7468792061667465722077697468647260008201527f6177000000000000000000000000000000000000000000000000000000000000602082015250565b600061576a602283615127565b91506157758261570e565b604082019050919050565b600060208201905081810360008301526157998161575d565b9050919050565b7f496e76616c6964204c5456000000000000000000000000000000000000000000600082015250565b60006157d6600b83615127565b91506157e1826157a0565b602082019050919050565b60006020820190508181036000830152615805816157c9565b9050919050565b7f546f6b656e206e6f7420616c6c6f776564000000000000000000000000000000600082015250565b6000615842601183615127565b915061584d8261580c565b602082019050919050565b6000602082019050818103600083015261587181615835565b9050919050565b600060808201905061588d6000830187614ec8565b61589a6020830186614e9e565b6158a76040830185615605565b6158b46060830184615605565b95945050505050565b7f4163636f756e7420686173206465627400000000000000000000000000000000600082015250565b60006158f3601083615127565b91506158fe826158bd565b602082019050919050565b60006020820190508181036000830152615922816158e6565b9050919050565b7f546f6f206d75636820626f72726f7765642066726f6d206c697175696469747960008201527f20746f2077697468647261770000000000000000000000000000000000000000602082015250565b6000615985602c83615127565b915061599082615929565b604082019050919050565b600060208201905081810360008301526159b481615978565b9050919050565b60006159c682614e94565b91506159d183614e94565b9250817fffffffffffffffffffffffffffffffffffffffffffffffffffffffffffffffff0483118215151615615a0a57615a096151e6565b5b828202905092915050565b7f4e487b7100000000000000000000000000000000000000000000000000000000600052601260045260246000fd5b6000615a4f82614e94565b9150615a5a83614e94565b925082615a6a57615a69615a15565b5b828204905092915050565b600060e082019050615a8a600083018a615085565b615a976020830189615085565b615aa46040830188615085565b615ab16060830187615085565b615abe6080830186615085565b615acb60a0830185615085565b615ad860c0830184615085565b98975050505050505050565b600069ffffffffffffffffffff82169050919050565b615b0381615ae4565b8114615b0e57600080fd5b50565b600081519050615b2081615afa565b92915050565b6000819050919050565b615b3981615b26565b8114615b4457600080fd5b50565b600081519050615b5681615b30565b92915050565b600080600080600060a08688031215615b7857615b77614d79565b5b6000615b8688828901615b11565b9550506020615b9788828901615b47565b9450506040615ba8888289016151a4565b9350506060615bb9888289016151a4565b9250506080615bca88828901615b11565b915050929550929590935056fea2646970667358221220a92a1a8552ff3df0680d4bdf603d5b8d1813d708fc17c06fa21ff24e5147ebf764736f6c634300080a0033",
  "linkReferences": {},
  "deployedLinkReferences": {}
}