{
  "_format": "hh-sol-artifact-1",
  "contractName": "LNXToken",
  "sourceName": "contracts/LNXToken.sol",
  "abi": [
    {
      "inputs": [],
      "stateMutability": "nonpayable",
      "type": "constructor"
    },
    {
      "anonymous": false,
      "inputs": [
        {
          "indexed": true,
          "internalType": "address",
          "name": "owner",
          "type": "address"
        },
        {
          "indexed": true,
          "internalType": "address",
          "name": "spender",
          "type": "address"
        },
        {
          "indexed": false,
          "internalType": "uint256",
          "name": "value",
          "type": "uint256"
        }
      ],
      "name": "Approval",
      "type": "event"
    },
    {
      "anonymous": false,
      "inputs": [
        {
          "indexed": true,
          "internalType": "address",
          "name": "from",
          "type": "address"
        },
        {
          "indexed": true,
          "internalType": "address",
          "name": "to",
          "type": "address"
        },
        {
          "indexed": false,
          "internalType": "uint256",
          "name": "value",
          "type": "uint256"
        }
      ],
      "name": "Transfer",
      "type": "event"
    },
    {
      "inputs": [
        {
          "internalType": "address",
          "name": "owner",
          "type": "address"
        },
        {
          "internalType": "address",
          "name": "spender",
          "type": "address"
        }
      ],
      "name": "allowance",
      "outputs": [
        {
          "internalType": "uint256",
          "name": "",
          "type": "uint256"
        }
      ],
      "stateMutability": "view",
      "type": "function"
    },
    {
      "inputs": [
        {
          "internalType": "address",
          "name": "spender",
          "type": "address"
        },
        {
          "internalType": "uint256",
          "name": "amount",
          "type": "uint256"
        }
      ],
      "name": "approve",
      "outputs": [
        {
          "internalType": "bool",
          "name": "",
          "type": "bool"
        }
      ],
      "stateMutability": "nonpayable",
      "type": "function"
    },
    {
      "inputs": [
        {
          "internalType": "address",
          "name": "account",
          "type": "address"
        }
      ],
      "name": "balanceOf",
      "outputs": [
        {
          "internalType": "uint256",
          "name": "",
          "type": "uint256"
        }
      ],
      "stateMutability": "view",
      "type": "function"
    },
    {
      "inputs": [
        {
          "internalType": "address",
          "name": "account",
          "type": "address"
        },
        {
          "internalType": "uint256",
          "name": "amount",
          "type": "uint256"
        }
      ],
      "name": "burn",
      "outputs": [],
      "stateMutability": "nonpayable",
      "type": "function"
    },
    {
      "inputs": [],
      "name": "capSupply",
      "outputs": [
        {
          "internalType": "uint256",
          "name": "",
          "type": "uint256"
        }
      ],
      "stateMutability": "view",
      "type": "function"
    },
    {
      "inputs": [],
      "name": "decimals",
      "outputs": [
        {
          "internalType": "uint8",
          "name": "",
          "type": "uint8"
        }
      ],
      "stateMutability": "view",
      "type": "function"
    },
    {
      "inputs": [
        {
          "internalType": "address",
          "name": "spender",
          "type": "address"
        },
        {
          "internalType": "uint256",
          "name": "subtractedValue",
          "type": "uint256"
        }
      ],
      "name": "decreaseAllowance",
      "outputs": [
        {
          "internalType": "bool",
          "name": "",
          "type": "bool"
        }
      ],
      "stateMutability": "nonpayable",
      "type": "function"
    },
    {
      "inputs": [
        {
          "internalType": "address",
          "name": "spender",
          "type": "address"
        },
        {
          "internalType": "uint256",
          "name": "addedValue",
          "type": "uint256"
        }
      ],
      "name": "increaseAllowance",
      "outputs": [
        {
          "internalType": "bool",
          "name": "",
          "type": "bool"
        }
      ],
      "stateMutability": "nonpayable",
      "type": "function"
    },
    {
      "inputs": [
        {
          "internalType": "address",
          "name": "account",
          "type": "address"
        },
        {
          "internalType": "uint256",
          "name": "amount",
          "type": "uint256"
        }
      ],
      "name": "mint",
      "outputs": [],
      "stateMutability": "nonpayable",
      "type": "function"
    },
    {
      "inputs": [],
      "name": "name",
      "outputs": [
        {
          "internalType": "string",
          "name": "",
          "type": "string"
        }
      ],
      "stateMutability": "view",
      "type": "function"
    },
    {
      "inputs": [],
      "name": "rewards",
      "outputs": [
        {
          "internalType": "address",
          "name": "",
          "type": "address"
        }
      ],
      "stateMutability": "view",
      "type": "function"
    },
    {
      "inputs": [
        {
          "internalType": "address",
          "name": "_rewards",
          "type": "address"
        }
      ],
      "name": "setRewards",
      "outputs": [],
      "stateMutability": "nonpayable",
      "type": "function"
    },
    {
      "inputs": [],
      "name": "symbol",
      "outputs": [
        {
          "internalType": "string",
          "name": "",
          "type": "string"
        }
      ],
      "stateMutability": "view",
      "type": "function"
    },
    {
      "inputs": [],
      "name": "totalSupply",
      "outputs": [
        {
          "internalType": "uint256",
          "name": "",
          "type": "uint256"
        }
      ],
      "stateMutability": "view",
      "type": "function"
    },
    {
      "inputs": [
        {
          "internalType": "address",
          "name": "recipient",
          "type": "address"
        },
        {
          "internalType": "uint256",
          "name": "amount",
          "type": "uint256"
        }
      ],
      "name": "transfer",
      "outputs": [
        {
          "internalType": "bool",
          "name": "",
          "type": "bool"
        }
      ],
      "stateMutability": "nonpayable",
      "type": "function"
    },
    {
      "inputs": [
        {
          "internalType": "address",
          "name": "sender",
          "type": "address"
        },
        {
          "internalType": "address",
          "name": "recipient",
          "type": "address"
        },
        {
          "internalType": "uint256",
          "name": "amount",
          "type": "uint256"
        }
      ],
      "name": "transferFrom",
      "outputs": [
        {
          "internalType": "bool",
          "name": "",
          "type": "bool"
        }
      ],
      "stateMutability": "nonpayable",
      "type": "function"
    }
  ],
  "bytecode": "0x608060405269d3c21bcecceda10000006004556040518060400160405280600981526020017f4c4e5820546f6b656e0000000000000000000000000000000000000000000000815250600590805190602001906200005f92919062000261565b506040518060400160405280600381526020017f4c4e58000000000000000000000000000000000000000000000000000000000081525060069080519060200190620000ad92919062000261565b50348015620000bb57600080fd5b50620000d83369152d02c7e14af6800000620000de60201b60201c565b620004bd565b600073ffffffffffffffffffffffffffffffffffffffff168273ffffffffffffffffffffffffffffffffffffffff16141562000151576040517f08c379a0000000000000000000000000000000000000000000000000000000008152600401620001489062000372565b60405180910390fd5b62000165600083836200025760201b60201c565b8060036000828254620001799190620003cd565b92505081905550806000808473ffffffffffffffffffffffffffffffffffffffff1673ffffffffffffffffffffffffffffffffffffffff1681526020019081526020016000206000828254620001d09190620003cd565b925050819055508173ffffffffffffffffffffffffffffffffffffffff16600073ffffffffffffffffffffffffffffffffffffffff167fddf252ad1be2c89b69c2b068fc378daa952ba7f163c4a11628f55a4df523b3ef836040516200023791906200043b565b60405180910390a362000253600083836200025c60201b60201c565b5050565b505050565b505050565b8280546200026f9062000487565b90600052602060002090601f016020900481019282620002935760008555620002df565b82601f10620002ae57805160ff1916838001178555620002df565b82800160010185558215620002df579182015b82811115620002de578251825591602001919060010190620002c1565b5b509050620002ee9190620002f2565b5090565b5b808211156200030d576000816000905550600101620002f3565b5090565b600082825260208201905092915050565b7f45524332303a206d696e7420746f20746865207a65726f206164647265737300600082015250565b60006200035a601f8362000311565b9150620003678262000322565b602082019050919050565b600060208201905081810360008301526200038d816200034b565b9050919050565b6000819050919050565b7f4e487b7100000000000000000000000000000000000000000000000000000000600052601160045260246000fd5b6000620003da8262000394565b9150620003e78362000394565b9250827fffffffffffffffffffffffffffffffffffffffffffffffffffffffffffffffff038211156200041f576200041e6200039e565b5b828201905092915050565b620004358162000394565b82525050565b60006020820190506200045260008301846200042a565b92915050565b7f4e487b7100000000000000000000000000000000000000000000000000000000600052602260045260246000fd5b60006002820490506001821680620004a057607f821691505b60208210811415620004b757620004b662000458565b5b50919050565b611b5180620004cd6000396000f3fe608060405234801561001057600080fd5b50600436106101005760003560e01c806370a0823111610097578063a457c2d711610066578063a457c2d7146102b1578063a9059cbb146102e1578063dd62ed3e14610311578063ec38a8621461034157610100565b806370a082311461022957806395d89b41146102595780639dc29fac146102775780639ec5a8941461029357610100565b806324262857116100d357806324262857146101a1578063313ce567146101bf57806339509351146101dd57806340c10f191461020d57610100565b806306fdde0314610105578063095ea7b31461012357806318160ddd1461015357806323b872dd14610171575b600080fd5b61010d61035d565b60405161011a91906111f7565b60405180910390f35b61013d600480360381019061013891906112b2565b6103ef565b60405161014a919061130d565b60405180910390f35b61015b61040d565b6040516101689190611337565b60405180910390f35b61018b60048036038101906101869190611352565b610417565b604051610198919061130d565b60405180910390f35b6101a961050f565b6040516101b69190611337565b60405180910390f35b6101c7610515565b6040516101d491906113c1565b60405180910390f35b6101f760048036038101906101f291906112b2565b61051e565b604051610204919061130d565b60405180910390f35b610227600480360381019061022291906112b2565b6105ca565b005b610243600480360381019061023e91906113dc565b610632565b6040516102509190611337565b60405180910390f35b61026161067a565b60405161026e91906111f7565b60405180910390f35b610291600480360381019061028c91906112b2565b61070c565b005b61029b610774565b6040516102a89190611418565b60405180910390f35b6102cb60048036038101906102c691906112b2565b61079a565b6040516102d8919061130d565b60405180910390f35b6102fb60048036038101906102f691906112b2565b610885565b604051610308919061130d565b60405180910390f35b61032b60048036038101906103269190611433565b6108a3565b6040516103389190611337565b60405180910390f35b61035b600480360381019061035691906113dc565b61092a565b005b60606005805461036c906114a2565b80601f0160208091040260200160405190810160405280929190818152602001828054610398906114a2565b80156103e55780601f106103ba576101008083540402835291602001916103e5565b820191906000526020600020905b8154815290600101906020018083116103c857829003601f168201915b5050505050905090565b60006104036103fc6109c9565b84846109d1565b6001905092915050565b6000600354905090565b6000610424848484610b9c565b6000600160008673ffffffffffffffffffffffffffffffffffffffff1673ffffffffffffffffffffffffffffffffffffffff168152602001908152602001600020600061046f6109c9565b73ffffffffffffffffffffffffffffffffffffffff1673ffffffffffffffffffffffffffffffffffffffff168152602001908152602001600020549050828110156104ef576040517f08c379a00000000000000000000000000000000000000000000000000000000081526004016104e690611546565b60405180910390fd5b610503856104fb6109c9565b8584036109d1565b60019150509392505050565b60045481565b60006012905090565b60006105c061052b6109c9565b8484600160006105396109c9565b73ffffffffffffffffffffffffffffffffffffffff1673ffffffffffffffffffffffffffffffffffffffff16815260200190815260200160002060008873ffffffffffffffffffffffffffffffffffffffff1673ffffffffffffffffffffffffffffffffffffffff168152602001908152602001600020546105bb9190611595565b6109d1565b6001905092915050565b600260009054906101000a900473ffffffffffffffffffffffffffffffffffffffff1673ffffffffffffffffffffffffffffffffffffffff163373ffffffffffffffffffffffffffffffffffffffff161461062457600080fd5b61062e8282610e1d565b5050565b60008060008373ffffffffffffffffffffffffffffffffffffffff1673ffffffffffffffffffffffffffffffffffffffff168152602001908152602001600020549050919050565b606060068054610689906114a2565b80601f01602080910402602001604051908101604052809291908181526020018280546106b5906114a2565b80156107025780601f106106d757610100808354040283529160200191610702565b820191906000526020600020905b8154815290600101906020018083116106e557829003601f168201915b5050505050905090565b600260009054906101000a900473ffffffffffffffffffffffffffffffffffffffff1673ffffffffffffffffffffffffffffffffffffffff163373ffffffffffffffffffffffffffffffffffffffff161461076657600080fd5b6107708282610f7d565b5050565b600260009054906101000a900473ffffffffffffffffffffffffffffffffffffffff1681565b600080600160006107a96109c9565b73ffffffffffffffffffffffffffffffffffffffff1673ffffffffffffffffffffffffffffffffffffffff16815260200190815260200160002060008573ffffffffffffffffffffffffffffffffffffffff1673ffffffffffffffffffffffffffffffffffffffff16815260200190815260200160002054905082811015610866576040517f08c379a000000000000000000000000000000000000000000000000000000000815260040161085d9061165d565b60405180910390fd5b61087a6108716109c9565b858584036109d1565b600191505092915050565b60006108996108926109c9565b8484610b9c565b6001905092915050565b6000600160008473ffffffffffffffffffffffffffffffffffffffff1673ffffffffffffffffffffffffffffffffffffffff16815260200190815260200160002060008373ffffffffffffffffffffffffffffffffffffffff1673ffffffffffffffffffffffffffffffffffffffff16815260200190815260200160002054905092915050565b600073ffffffffffffffffffffffffffffffffffffffff16600260009054906101000a900473ffffffffffffffffffffffffffffffffffffffff1673ffffffffffffffffffffffffffffffffffffffff161461098557600080fd5b80600260006101000a81548173ffffffffffffffffffffffffffffffffffffffff021916908373ffffffffffffffffffffffffffffffffffffffff16021790555050565b600033905090565b600073ffffffffffffffffffffffffffffffffffffffff168373ffffffffffffffffffffffffffffffffffffffff161415610a41576040517f08c379a0000000000000000000000000000000000000000000000000000000008152600401610a38906116ef565b60405180910390fd5b600073ffffffffffffffffffffffffffffffffffffffff168273ffffffffffffffffffffffffffffffffffffffff161415610ab1576040517f08c379a0000000000000000000000000000000000000000000000000000000008152600401610aa890611781565b60405180910390fd5b80600160008573ffffffffffffffffffffffffffffffffffffffff1673ffffffffffffffffffffffffffffffffffffffff16815260200190815260200160002060008473ffffffffffffffffffffffffffffffffffffffff1673ffffffffffffffffffffffffffffffffffffffff168152602001908152602001600020819055508173ffffffffffffffffffffffffffffffffffffffff168373ffffffffffffffffffffffffffffffffffffffff167f8c5be1e5ebec7d5bd14f71427d1e84f3dd0314c0f7b2291e5b200ac8c7c3b92583604051610b8f9190611337565b60405180910390a3505050565b600073ffffffffffffffffffffffffffffffffffffffff168373ffffffffffffffffffffffffffffffffffffffff161415610c0c576040517f08c379a0000000000000000000000000000000000000000000000000000000008152600401610c0390611813565b60405180910390fd5b600073ffffffffffffffffffffffffffffffffffffffff168273ffffffffffffffffffffffffffffffffffffffff161415610c7c576040517f08c379a0000000000000000000000000000000000000000000000000000000008152600401610c73906118a5565b60405180910390fd5b610c87838383611154565b60008060008573ffffffffffffffffffffffffffffffffffffffff1673ffffffffffffffffffffffffffffffffffffffff16815260200190815260200160002054905081811015610d0d576040517f08c379a0000000000000000000000000000000000000000000000000000000008152600401610d0490611937565b60405180910390fd5b8181036000808673ffffffffffffffffffffffffffffffffffffffff1673ffffffffffffffffffffffffffffffffffffffff16815260200190815260200160002081905550816000808573ffffffffffffffffffffffffffffffffffffffff1673ffffffffffffffffffffffffffffffffffffffff1681526020019081526020016000206000828254610da09190611595565b925050819055508273ffffffffffffffffffffffffffffffffffffffff168473ffffffffffffffffffffffffffffffffffffffff167fddf252ad1be2c89b69c2b068fc378daa952ba7f163c4a11628f55a4df523b3ef84604051610e049190611337565b60405180910390a3610e17848484611159565b50505050565b600073ffffffffffffffffffffffffffffffffffffffff168273ffffffffffffffffffffffffffffffffffffffff161415610e8d576040517f08c379a0000000000000000000000000000000000000000000000000000000008152600401610e84906119a3565b60405180910390fd5b610e9960008383611154565b8060036000828254610eab9190611595565b92505081905550806000808473ffffffffffffffffffffffffffffffffffffffff1673ffffffffffffffffffffffffffffffffffffffff1681526020019081526020016000206000828254610f009190611595565b925050819055508173ffffffffffffffffffffffffffffffffffffffff16600073ffffffffffffffffffffffffffffffffffffffff167fddf252ad1be2c89b69c2b068fc378daa952ba7f163c4a11628f55a4df523b3ef83604051610f659190611337565b60405180910390a3610f7960008383611159565b5050565b600073ffffffffffffffffffffffffffffffffffffffff168273ffffffffffffffffffffffffffffffffffffffff161415610fed576040517f08c379a0000000000000000000000000000000000000000000000000000000008152600401610fe490611a35565b60405180910390fd5b610ff982600083611154565b60008060008473ffffffffffffffffffffffffffffffffffffffff1673ffffffffffffffffffffffffffffffffffffffff1681526020019081526020016000205490508181101561107f576040517f08c379a000000000000000000000000000000000000000000000000000000000815260040161107690611ac7565b60405180910390fd5b8181036000808573ffffffffffffffffffffffffffffffffffffffff1673ffffffffffffffffffffffffffffffffffffffff1681526020019081526020016000208190555081600360008282546110d69190611ae7565b92505081905550600073ffffffffffffffffffffffffffffffffffffffff168373ffffffffffffffffffffffffffffffffffffffff167fddf252ad1be2c89b69c2b068fc378daa952ba7f163c4a11628f55a4df523b3ef8460405161113b9190611337565b60405180910390a361114f83600084611159565b505050565b505050565b505050565b600081519050919050565b600082825260208201905092915050565b60005b8381101561119857808201518184015260208101905061117d565b838111156111a7576000848401525b50505050565b6000601f19601f8301169050919050565b60006111c98261115e565b6111d38185611169565b93506111e381856020860161117a565b6111ec816111ad565b840191505092915050565b6000602082019050818103600083015261121181846111be565b905092915050565b600080fd5b600073ffffffffffffffffffffffffffffffffffffffff82169050919050565b60006112498261121e565b9050919050565b6112598161123e565b811461126457600080fd5b50565b60008135905061127681611250565b92915050565b6000819050919050565b61128f8161127c565b811461129a57600080fd5b50565b6000813590506112ac81611286565b92915050565b600080604083850312156112c9576112c8611219565b5b60006112d785828601611267565b92505060206112e88582860161129d565b9150509250929050565b60008115159050919050565b611307816112f2565b82525050565b600060208201905061132260008301846112fe565b92915050565b6113318161127c565b82525050565b600060208201905061134c6000830184611328565b92915050565b60008060006060848603121561136b5761136a611219565b5b600061137986828701611267565b935050602061138a86828701611267565b925050604061139b8682870161129d565b9150509250925092565b600060ff82169050919050565b6113bb816113a5565b82525050565b60006020820190506113d660008301846113b2565b92915050565b6000602082840312156113f2576113f1611219565b5b600061140084828501611267565b91505092915050565b6114128161123e565b82525050565b600060208201905061142d6000830184611409565b92915050565b6000806040838503121561144a57611449611219565b5b600061145885828601611267565b925050602061146985828601611267565b9150509250929050565b7f4e487b7100000000000000000000000000000000000000000000000000000000600052602260045260246000fd5b600060028204905060018216806114ba57607f821691505b602082108114156114ce576114cd611473565b5b50919050565b7f45524332303a207472616e7366657220616d6f756e742065786365656473206160008201527f6c6c6f77616e6365000000000000000000000000000000000000000000000000602082015250565b6000611530602883611169565b915061153b826114d4565b604082019050919050565b6000602082019050818103600083015261155f81611523565b9050919050565b7f4e487b7100000000000000000000000000000000000000000000000000000000600052601160045260246000fd5b60006115a08261127c565b91506115ab8361127c565b9250827fffffffffffffffffffffffffffffffffffffffffffffffffffffffffffffffff038211156115e0576115df611566565b5b828201905092915050565b7f45524332303a2064656372656173656420616c6c6f77616e63652062656c6f7760008201527f207a65726f000000000000000000000000000000000000000000000000000000602082015250565b6000611647602583611169565b9150611652826115eb565b604082019050919050565b600060208201905081810360008301526116768161163a565b9050919050565b7f45524332303a20617070726f76652066726f6d20746865207a65726f2061646460008201527f7265737300000000000000000000000000000000000000000000000000000000602082015250565b60006116d9602483611169565b91506116e48261167d565b604082019050919050565b60006020820190508181036000830152611708816116cc565b9050919050565b7f45524332303a20617070726f766520746f20746865207a65726f20616464726560008201527f7373000000000000000000000000000000000000000000000000000000000000602082015250565b600061176b602283611169565b91506117768261170f565b604082019050919050565b6000602082019050818103600083015261179a8161175e565b9050919050565b7f45524332303a207472616e736665722066726f6d20746865207a65726f20616460008201527f6472657373000000000000000000000000000000000000000000000000000000602082015250565b60006117fd602583611169565b9150611808826117a1565b604082019050919050565b6000602082019050818103600083015261182c816117f0565b9050919050565b7f45524332303a207472616e7366657220746f20746865207a65726f206164647260008201527f6573730000000000000000000000000000000000000000000000000000000000602082015250565b600061188f602383611169565b915061189a82611833565b604082019050919050565b600060208201905081810360008301526118be81611882565b9050919050565b7f45524332303a207472616e7366657220616d6f756e742065786365656473206260008201527f616c616e63650000000000000000000000000000000000000000000000000000602082015250565b6000611921602683611169565b915061192c826118c5565b604082019050919050565b6000602082019050818103600083015261195081611914565b9050919050565b7f45524332303a206d696e7420746f20746865207a65726f206164647265737300600082015250565b600061198d601f83611169565b915061199882611957565b602082019050919050565b600060208201905081810360008301526119bc81611980565b9050919050565b7f45524332303a206275726e2066726f6d20746865207a65726f2061646472657360008201527f7300000000000000000000000000000000000000000000000000000000000000602082015250565b6000611a1f602183611169565b9150611a2a826119c3565b604082019050919050565b60006020820190508181036000830152611a4e81611a12565b9050919050565b7f45524332303a206275726e20616d6f756e7420657863656564732062616c616e60008201527f6365000000000000000000000000000000000000000000000000000000000000602082015250565b6000611ab1602283611169565b9150611abc82611a55565b604082019050919050565b60006020820190508181036000830152611ae081611aa4565b9050919050565b6000611af28261127c565b9150611afd8361127c565b925082821015611b1057611b0f611566565b5b82820390509291505056fea2646970667358221220b5f4e2d5746b1bfb958a15aba01f6ece1c69501b10f1c7b71cd012ef04b6593464736f6c634300080a0033",
  "linkReferences": {},
  "deployedLinkReferences": {}
}